:100000000C945D020C94A4020C94A4020C94A4021F
:100010000C94A4020C94A4020C94A4020C94A402C8
:100020000C94A4020C94A4020C9437140C94EC12BB
:100030000C9406170C94A4020C94A4020C94A40231
:100040000C94A4020C94A4020C94A4020C94A40298
:100050000C94A4020C94C5160C94A4020C94A40253
:100060000C94A4020C94A4020C94A4020C94A40278
:100070000C94A4020C94A4020C94A4020C94A40268
:100080000C94A4020C94A4020C94A4020C94A40258
:100090000C94A4020C94A4020C94A4020C94A40248
:1000A0000C94A4020C94A4020C94A4027B097B0976
:1000B000B509B5090E0A2A0AC00BC00B350A130B85
:1000C000240B240B23254A25EB264A25EB269225D3
:1000D000B525EB26A426B82652285228652865287F
:1000E0005B286528652865285228522860286528DD
:1000F0006528602800047F3F1F643214643214783E
:100100003C1E1E140A053B5C405C465C3D5C425C48
:10011000475C3F41445C495CC65CCA5CC45CC75CEC
:10012000C35CC85C0100CB5CC95C0001010101013A
:1001300001010101020202020202020202030303A0
:100140000303030303040404040404040505050570
:100150000506060606060707070707080808080930
:100160000909090A0A0A0B0B0B0C0C0C0D0D0D0EDC
:100170000E0E0F0F0F101011111112121313141471
:10018000151516161717181819191A1A1B1B1C1DE6
:100190001D1E1E1F2020212222232424252626273F
:1001A0002829292A2B2C2D2D2E2F30313232333471
:1001B00035363738393A3B3C3D3E3F404142434477
:1001C00045464748494A4C4D4E4F50515354555659
:1001D00058595A5B5D5E5F616264656668696B6C05
:1001E0006D6F7072737577787A7B7D7E8082838580
:1001F00087888A8C8E8F91939596989A9C9EA0A2C0
:10020000A3A5A7A9ABADAFB1B3B5B7BABCBEC0C2C9
:10021000C4C6C9CBCDCFD1D4D6D8DBDDDFE2E4E78D
:10022000E9EBEEF0F3F5F8FAFDFFFFAA7F55402267
:1002300023252628292A2C2D2F3032333536383ADB
:100240003B3D3E4042434547494A4C4E5051535531
:1002500057595A5C5E6062646668696B6D6F717352
:100260007577797B7D7F81838587898A8C8E909253
:100270009496989A9C9E9FA1A3A5A7A8AAACAEAF5E
:10028000B1B3B4B6B8B9BBBCBEBFC1C2C3C5C6C7A3
:10029000C9CACBCCCDCED0D1D2D2D3D4D5D6D7D754
:1002A000D8D9D9DADADBDBDBDCDCDCDCDCDDDDDD9C
:1002B000DDDCDCDCDCDCDBDBDBDADAD9D9D8D7D798
:1002C000D6D5D4D3D2D2D1D0CECDCCCBCAC9C7C645
:1002D000C5C3C2C1BFBEBCBBB9B8B6B4B3B1AFAE83
:1002E000ACAAA8A7A5A3A19F9E9C9A989694929029
:1002F0008E8C8A89878583817F7D7B797775737101
:100300006F6D6B6968666462605E5C5A59575553DD
:1003100051504E4C4A4947454342403E3D3B3A3896
:1003200036353332302F2D2C2A2928262523220535
:10033000010902A10185020901A10005091901298C
:10034000081500250195087501810205010930098C
:10035000311581257F95027508810609381581259B
:100360007F950175088106050C0A38021581257FE5
:10037000950175088106C0C005010980A1018503AA
:1003800019012AB700150126B700950175108100E3
:10039000C0050C0901A101850419012AA00215015B
:1003A00026A002950175108100C005010906A10172
:1003B000050719E029E71500250195087501810257
:1003C0009501750881010507190029FF150026FF11
:1003D0000095067508810005081901290595057520
:1003E000019102950175039101C009029F0004016A
:1003F00000A0FA0904000001030101000921110114
:1004000000012240000705810308000A09040100D9
:100410000103000000092111010001227B000705F2
:10042000820320000A080B020201010000090402F5
:100430000000010100000924010001090001030975
:10044000040300020103000007240100014100062B
:100450002402010100062402020200092403010310
:10046000010201000924030204010101000905043D
:100470000240000500000525010101090583024035
:100480000005000005250101031201000200000023
:10049000084D5909440100010200010C0359004DA7
:1004A0000044003000390000000A0359004D0044A8
:1004B000004B000000040309040011241FBECFEF0D
:1004C000DAE0DEBFCDBF04B603FE27C08091E203B1
:1004D0009091E303A091E403B091E5038730904B42
:1004E000A740B04BD1F41092E2031092E3031092B4
:1004F000E4031092E50314BE84B7877F84BF0FB670
:10050000F894A895809160008861809360001092B3
:1005100060000FBEE0E0F8E3099511E0A0E0B1E073
:10052000E6E2F5E502C005900D92A039B107D9F7D2
:1005300023E0A0E9B1E001C01D92A23EB207E1F7BD
:100540000E94320C0C94912A0C9400001F93CF93BC
:10055000DF93CDB7DEB767970FB6F894DEBF0FBE57
:10056000CDBF4B8B5C8B6D8B7E8B8F8B6111109213
:10057000B40286E09E01235F3F4FD901E82F1D9210
:10058000EA95E9F795E0FE017396D90101900D9285
:100590009A95E1F79C894E895F897B897D879E8743
:1005A0006F87598B488BF901DE01179601900D92E8
:1005B0008A95E1F7CE0107960E94651C81113EC025
:1005C00086E0FE013796DE01119601900D928A9524
:1005D000E1F7FF81E8856A857B856115710531F05A
:1005E000EF3F31F481E0FF3F19F403C081E001C027
:1005F00080E080FD23C02091800230E0C901019697
:10060000877099274091B10250E08417950779F1DE
:10061000F983EA837D836C8396E0929FD001939F58
:10062000B00D1124AF57BD4FFE01319601900D92D0
:100630009A95E1F7809380020E94CF1B16E080918B
:10064000B102909180028917F9F0189FC00111241E
:100650008F579D4F0E94651C8823B1F08091B10295
:1006600090E00196877099278093B102E8CF0E94AD
:100670006928109280021092B102EAE7F2E086E067
:10068000DF011D928A95E9F767960FB6F894DEBFF1
:100690000FBECDBFDF91CF911F9108958F929F9292
:1006A000AF92BF92CF92DF92EF92FF920F931F9380
:1006B000CF93DF93CDB7DEB72A970FB6F894DEBF9E
:1006C0000FBECDBFFC01D080118183819481892B25
:1006D00039F01F3F39F491E00FEFD01203C003C08F
:1006E00091E001C090E090FF02C00C941F0C7F01CC
:1006F00085E0DE01169601900D928A95E1F7F701EB
:1007000022818E819F81222349F00E943027082F69
:10071000682F8E819F810E94B82703C00E948C277A
:10072000082F812F90E0FC01EE0FFF1FE80FF91F4B
:1007300019E0019FE00DF11D1124ED0DF11DEE0FEB
:10074000FF1FEA5FFE4F059114910F3A2CE5120747
:1007500008F047C00F393CE5130708F0B0C1003975
:100760008CE51807F8F403389CE5190708F009C16F
:100770000138ECE51E0758F40737FCE51F0708F0C1
:10078000CFC00F322CE5120708F06EC099C20138B5
:100790003CE5130709F4D0C002388CE5180709F4CA
:1007A000D8C08EC20D399CE5190780F40239ECE5FA
:1007B0001E0708F034C10039FCE51F0709F4F1C039
:1007C00001392CE5120709F402C17AC20D393CE562
:1007D000130709F437C10E398CE5180709F453C122
:1007E0006FC2053B9CE5190709F4E8C1F8F4013B29
:1007F000FCE51F0709F4AAC158F40F3A3CE51307BA
:1008000009F472C1003B8CE5180709F480C158C295
:100810008091350290913602F7012281033BFCE57D
:100820001F0709F4B3C108F4A2C1BCC1083B8CE5A1
:10083000180709F4DFC158F4063BECE51E0709F47C
:10084000BDC1073BFCE51F0709F4CAC139C20A3B19
:100850002CE5120709F405C208F4ECC10B3B8CE54A
:10086000180709F41AC22CC290913502892F881FEB
:100870008827881F409136024770440F482B892FE4
:100880008F77F701928171EDC72EC00ED12C99237D
:1008900051F110913402912F9F7015951595159572
:1008A00015951F52FCE09F9F100D1124100F212F52
:1008B0002F774069E091EB02F091EC02082F63E0A2
:1008C00070E08BEE92E00995F601ED56FE4FDF01E8
:1008D000A85BBF4F8C918F5F8C9380818F3F09F015
:1008E0008FC710838DC786010D561E4F6801F80112
:1008F0002081E85BFF4F908191509083911180C7D8
:100900002F774068E091EB02F091EC02082F63E052
:1009100070E08BEE92E009958FEFF601808370C74F
:10092000F7018281882309F46BC70757802F8F70E6
:1009300000913402007F31C0F7018281882309F4DD
:100940005FC720913402822F8F7009F459C7815FED
:1009500010C0F7018281882309F452C72091340224
:10096000822F8F70482F50E0493051050CF048C756
:100970008F5F982F9F70822F807F892B8093340206
:100980003FC7F7018281882309F43AC70958802FAD
:100990008295807F009134020F70082B00933402FF
:1009A0002FC7F7018281882309F42AC720913402D6
:1009B000822F85958595859585958B3F0CF420C76D
:1009C000815F982F9295907F822F8F70D6CFF701FD
:1009D0008281882309F414C720913402822F8595DF
:1009E00085958595859586300CF00AC791E0980F1E
:1009F0009295907F9595959595959595392F3295EA
:100A0000307F2F70232B2093340218160CF0F8C679
:100A100097FFF6C68295807F922F9F70AECFF70129
:100A20008281882309F4ECC602598CE0089F002DCE
:100A30001124802F8F77009135020078082B0093C6
:100A40003502DEC6F7018281882309F4D9C6909168
:100A50003502892F8F77282F30E02115310509F4D1
:100A6000CFC690788F3719F4892F856706C02D304F
:100A7000310534F08D508F77892B80933502C0C6B5
:100A800090933502BDC6F7018281882309F4B8C668
:100A900020913502822F8F77482F50E04F37510534
:100AA00009F4AEC64337510534F4835F982F9F771E
:100AB000822F8078E1CF2F6720933502A1C6F701FE
:100AC0008281882309F49CC60F598091350200FB6E
:100AD00087F9809335020695077080913602887FEA
:100AE000082B009336028CC6F7018281882309F413
:100AF00087C630913502932F991F9927991F20910E
:100B00003602822F8770880F892B815F12C0F70110
:100B10008281882309F474C630913502932F991F7E
:100B20009927991F20913602822F8770880F892B71
:100B30008F5F982F9F7080FB37F930933502969521
:100B4000822F887F892B809336025AC6F7018281D3
:100B5000882309F455C690913502991F9927991F4A
:100B6000809136028770880F40E06BE70BC022232C
:100B700011F04FE701C040E0881F8827881F977059
:100B8000990F60E4892B0E9404233AC6222311F0B6
:100B90004FE701C040E0881F8827881F9770990F92
:100BA00061E4F0CF222311F04FE701C040E0881F3D
:100BB0008827881F9770990F62E4E4CFF70182813C
:100BC000882311F04FE701C040E090913502991F52
:100BD0009927991F809136028770880F63E4D2CFDE
:100BE000F7018281882311F081E001C08FEF8093AB
:100BF000330206C6F7018281882309F401C6809179
:100C00003602282F2695269526952F7091E0920F73
:100C10009F70990F990F990F8778892B80933602CF
:100C2000982F987709F0ECC5220F220F220F8778B2
:100C3000822B89CFF7018281882309F4E1C52091B5
:100C40003602822F8695869586958F7009F4D8C5D1
:100C5000815F8F70982F990F990F990F822F877846
:100C600071CFF7018281882361F090913502991F3D
:100C70009927991F809136028770880F60E070EE87
:100C80001BC090913502991F9927991F80913602B8
:100C90008770880F60E070E00FC0F70182818823C1
:100CA00081F390913502991F9927991F80913602FF
:100CB0008770880F6FEF7FE1892B0E94DC22A0C52F
:100CC000043F2CE5120799F406E221EE40EE64EFB2
:100CD0007CE509C0083DECE51E0711F506E221EEB2
:100CE00041EE68ED7CE5C7010E948E1789C5053F7E
:100CF0003CE5130708F048C1093D8CE5180731F4BD
:100D000007E225EE45EE69ED7CE5EDCF0A3D9CE579
:100D1000190701F708E221E045EE6AED7CE5E3CF33
:100D2000F7018281882309F464C1109262020430C1
:100D3000FDE51F0758F40B3F2CE5120760F4C801CE
:100D400082509C45449708F03EC105C002363DE5FF
:100D5000130709F038C10E94E91A90932802809382
:100D6000270200318CE5180709F4CAC008F041C019
:100D70000830ECE51E0709F4A4C0F0F404302CE5BB
:100D8000120709F48CC068F402308CE5180709F4E6
:100D900082C003301C4509F0E7C0809127028260C1
:100DA000E1C00630ECE51E0709F483C008F085C0F9
:100DB000809127028860D6C00C302CE5120709F418
:100DC00090C068F40A308CE5180709F47EC008F07A
:100DD00084C00E946928809127028068C3C00E30B9
:100DE000ECE51E0709F481C008F086C08091270257
:100DF00094C00D3F2CE5120709F47BC038F504318F
:100E00008CE5180709F49AC058F40231ECE51E0786
:100E100009F47AC008F07EC0809127028F7BA2C0BF
:100E20000B3F2CE51207F1F108F03FC005311C45DE
:100E300009F09AC08091270282FB222720F991E0D5
:100E4000922790FB82F990FB83F98CC001309DE5DD
:100E5000190709F467C050F4809128020F3FFCE5A0
:100E60001F07C1F108F05BC08D7F65C003303DE511
:100E7000130709F471C008F46DC002361D4509F06E
:100E800073C08091270284FB222720F991E09227EA
:100E900090FB84F967C080912702816063C08091D4
:100EA000270216C08091280216C080912802826015
:100EB00042C080912702806155C0809127028062E4
:100EC00051C08091270280644DC0809127028860C4
:100ED000846048C0826081602EC0809127028E7F2E
:100EE00041C0809127028D7F3DC080912702877F7E
:100EF00039C08091280214C0809127028F7E32C0B1
:100F0000809127028F7D2EC00E9469288091270240
:100F10008F7728C080912702877F8B7F23C08D7FAA
:100F20008E7F09C080912802982F909591708E7FB6
:100F3000892B90FB81F98093280216C00E946928B2
:100F40008091270287FB222720F991E0922790FBCE
:100F500087F908C061E001C060E08EE090E00E9487
:100F6000A82902C0809327026091270210912802CD
:100F700084E090E00E94A829612F82E290E00E9424
:100F8000A8290E9469283CC4063FFCE51F0731F4EC
:100F900006E221EE42EE66EF7CE5A5CE063F2CE5AB
:100FA000120730F407E225EE44EE65EF7CE59BCEB8
:100FB000073F3CE5130709F0B3CE07E225EE46EE06
:100FC00067EF7CE590CE8091B50206319CE519076C
:100FD00009F58A7A91E009F490E0909392018823D0
:100FE00011F065E301C069E282E792E00E943C17DC
:100FF0000EC006311C4509F026C18091920188235C
:1010000009F41BC465E382E792E00E942F170E9457
:101010006B1BF6C382720D3CECE51E0709F4C2C0DF
:1010200008F045C0073C2CE5120709F4A7C0D8F426
:10103000043C9CE5190709F497C030F4033CFCE537
:101040001F0709F46CC0CEC0053C2CE5120709F45B
:1010500090C0063C3CE5130709F0C4C04EE351E2E2
:1010600067E471E2A3C00A3C9CE5190709F490C04B
:1010700078F4083CFCE51F0709F485C0093C2CE521
:10108000120709F0AFC042E351E266E271E28EC09E
:101090000B3C3CE5130709F480C00C3C9CE51907A8
:1010A00009F0A0C049E85EE16AE97EE17FC0023D47
:1010B000ECE51E0709F486C0A0F40F3C2CE51207EE
:1010C00009F47AC008F475C0003D8CE5180709F4EE
:1010D00076C0013D9CE5190709F084C06EE089E007
:1010E00079C0053DECE51E0709F472C068F4033DC4
:1010F0002CE5120709F469C0043D3CE5130709F02B
:1011000071C061E088E16BC0063D8CE5180709F409
:1011100064C00E359DE5190709F472C363C0809160
:101120005B0280FF1BC08E7F80935B0260915B023D
:1011300070915C0280915D0290915E020E94771E28
:101140001092D202EFEFF0E702E0E150F0400040F1
:10115000E1F700C000000E941D1E52C38160809311
:101160005B0261E086953BC04BE851E264E971E2C5
:101170001DC044E951E26BE871E218C047E451E256
:101180006EE371E213C046E251E262E371E20EC027
:101190004EE051E26AE171E209C04AE151E26EE0DB
:1011A00071E204C04AE95EE169E87EE10E942B1821
:1011B00027C361E081E013C065E082E00BC068E016
:1011C00086E008C064E18FE005C067E185E102C008
:1011D00062E289E10E94191813C361E083E20E9470
:1011E00050210EC30B352DE5120741F150F40115C6
:1011F0008CE51807A9F00F3D1C4529F50E94FA1A45
:10120000FFC20C35EDE51E07D9F00D351D45D9F4AB
:101210008091280282FB882780F991E0892711C0FC
:101220000E9469280FEF14E32CE001501040204089
:10123000E1F700C000000E94A116E2C281E001C0F7
:1012400080E00E94981BF701828100811181882330
:1012500049F0C8010E943027D82E682FC8010E948B
:10126000B82704C0C8010E948C27D82E812F90E097
:10127000FC01EE0FFF1FE80FF91F19E0D19EE00DF2
:10128000F11D1124E00FF11DEE0FFF1FEA5FFE4F6D
:10129000859194910E944F198C01982EF701D2806C
:1012A000A580A2946FE0A6228091B202877099F087
:1012B000DD2089F0812F807F803421F080E2800F53
:1012C000883048F082E00E94B21B8091B2028770A1
:1012D000CC24C3948111C12CB12EB2943FE0B3222F
:1012E0008B2D90E08C30910508F04AC2FC01EA5A3F
:1012F000FF4F0C94342A812F807F1F70882311F0B8
:101300001295107FDD20B9F0112309F424C280E288
:10131000800F883010F0911006C08091B502182B14
:101320001093B50205C08091B402182B1093B4023B
:101330000E946B1B10C2802F0E948928112309F480
:101340001FC2005E1095083010F0911006C0809109
:10135000B50218231093B50205C08091B40218237A
:101360001093B4020E946B1B0BC2812F807F1F70F1
:10137000803211F01295107F992021F0F1E09F1634
:1013800011F130C0DD20B1F0AA2081F001E0A012FF
:101390000DC08091280282FDF3C18091B602182B06
:1013A000181709F4EDC11093B602EAC18091B60294
:1013B000812B10C0AA2021F021E0A21609F4E0C17F
:1013C0000E94651B27C0DD2041F035E03A1508F486
:1013D000D7C1812F0E947F28D3C184E08A1508F4E9
:1013E000CFC118C0DD2049F0AA2099F3F70185810B
:1013F00080FFB1C18F708583ECCFAA2059F00933EB
:1014000009F0BBC1FFEF17EE23E0F1501040204080
:10141000E1F7B1C1812F0E947428B2C1812F869556
:101420008695837019F0813059F0AAC1DD2019F03A
:10143000C801937002C080E090E00E946C17A6C1C2
:10144000DD2019F0C801937002C080E090E00E9496
:1014500056179CC1802FDD2019F00E94812202C006
:101460000E94C8210E949E2191C1812F837009F0A2
:1014700069C0D11089C1902F929596959770990F58
:10148000990F802F8F70882E912CA12CB12C092EB2
:1014900004C0880C991CAA1CBB1C0A94D2F704FF38
:1014A00012C04FE050E060E070E004C0440F551FF0
:1014B000661F771F9A95D2F7DB01CA018095909538
:1014C000A095B09503C080E090E0DC0116951695DC
:1014D000412F4370423019F1C8F40091B7021091C6
:1014E000B8022091B9023091BA02413059F08829EE
:1014F0009929AA29BB29BC01CD016023712382232C
:1015000093230AC0802A912AA22AB32ABC01CD01C2
:10151000682979298A299B290E94332835C188297D
:101520009929AA29BB290091B7021091B8022091EC
:10153000B9023091BA02BC01CD0160277127822720
:101540009327EACFDD2019F0812F817001C08695A5
:10155000882309F419C1902F929596959770990F49
:10156000990F802F8F70882E912CA12CB12C092ED1
:1015700004C0880C991CAA1CBB1C0A94D2F704FF57
:1015800012C04FE050E060E070E004C0440F551F0F
:10159000661F771F9A95D2F7DB01CA018095909557
:1015A000A095B09503C080E090E0DC0116951695FB
:1015B000412F43704230D9F068F500912302109119
:1015C00024022091250230912602413059F08829C9
:1015D0009929AA29BB29BC01CD016023712382234B
:1015E00093231EC0802A912AA22AB32A13C08829D5
:1015F0009929AA29BB290091230210912402209144
:10160000250230912602BC01CD0160277127822777
:10161000932706C0BC01CD01682979298A299B2915
:101620000E94E327B1C01F70DD2039F0812F0E9496
:101630001228802F0E947F28A7C0802F0E94742824
:10164000812F0E94ED27A0C0802F32EF931609F45E
:1016500040C0391538F090EF991661F0E1EF9E1611
:1016600099F174C0F3EF9F16D9F124EF921609F4A3
:101670004EC06CC0DD2019F134E03A1508F480C08A
:101680001F7181E090E0A0E0B0E0AC01BD0104C0BA
:10169000440F551F661F771F1A95D2F780912302BA
:1016A00090912402A0912502B09126028A019B010B
:1016B000082719272A273B27C901B80125C025E09B
:1016C0002A1508F45DC0DCCFDD2029F0812F8F7151
:1016D00030C0DD20D9F3812F8F710E94ED2750C0DB
:1016E000DD2079F01F7181E090E0A0E0B0E0BC0166
:1016F000CD0104C0660F771F881F991F1A95D2F776
:1017000003C060E070E0CB010E94E32739C0DD2018
:1017100099F01F71812F0E9412288091280282FD6A
:1017200007C038E0139FC001112483608093B20288
:10173000812F0E94122824C081E00E94B21B81E008
:101740008A15F0F482E00E94B21B1AC0DD2039F045
:10175000AA2009F4BBCF802F0E94F02811C0AA2034
:1017600009F4B9CF893349F49FEFE7EEF3E09150E4
:10177000E040F040E1F700C00000802F0E9489287F
:1017800088EF8B0D843010F40E948217CC20A9F0D2
:101790008091B20280FD11C0F70112828595859576
:1017A00085950E941228C7010E944E038091B202C3
:1017B0008595859585950E94ED2785E0F701DE01E9
:1017C000119601900D928A95E1F789819A810E9484
:1017D0008C272A8130E0F901EE0FFF1F2E0F3F1FEB
:1017E000F90109E0809FE00DF11D11248981E80FC6
:1017F000F11DEE0FFF1FEA5FFE4F859194911FC010
:101800008091B2028770D9F0F70182818823B9F004
:1018100082E02A960FB6F894DEBF0FBECDBFDF91EF
:10182000CF911F910F91FF90EF90DF90CF90BF90DD
:10183000AF909F908F900C94B21B69E2E4CB2A96F4
:101840000FB6F894DEBF0FBECDBFDF91CF911F91D1
:101850000F91FF90EF90DF90CF90BF90AF909F904F
:101860008F900895CF93DF93CDB7DEB760970FB613
:10187000F894DEBF0FBECDBF84E0809334028FE7C3
:10188000809335028091360280788064809336029E
:10189000E3E9F1E08BED91E02FEF2193DF01A95B0C
:1018A000BF4F1C928E179F07C1F710923202109201
:1018B00033021092390210923802109210031092E3
:1018C00012031092110380EC8093D50383E193E01F
:1018D0009093D7038093D6031092D4031092D3032E
:1018E0001092F0021092EF021092F2021092F102A6
:1018F0001092F4021092F3021092F6021092F50286
:101900001092F8021092F7021092FA021092F90265
:101910001092FC021092FB021092FE021092FD0245
:10192000109200031092FF02109202031092010322
:101930001092040310920303109206031092050301
:1019400010920A031092090384E496E19093EC024A
:101950008093EB0280E995E190930C0380930B0355
:101960008AE691E1909308038093070389E691E169
:101970009093EE028093ED0284B7877F84BF0FB609
:10198000F894A8958091600088618093600010921F
:1019900060000FBE90E080E80FB6F894809361007D
:1019A000909361000FBE85B7806885BF85B780685A
:1019B00085BF81E398E190939101809390010E940B
:1019C00030130E94D6138091E20084608093E2007D
:1019D00078948091E1028823A1F01091E9001F70B2
:1019E0009091EC00892F817090FD80E8182B109267
:1019F000E9008091E80083FD0E943F241F7010934E
:101A0000E90082E084BD93E095BD9AEF97BD809395
:101A10006E0086E90E94761882E90E94761881E9B4
:101A20000E94761885EF0E94761884EF0E9476183F
:101A300081EF0E9476181092290210922F021092C4
:101A40002A021092300210922B021092310280E092
:101A500090E00E94A229893E9E4F11F00E94FA1A3E
:101A600082E090E00E94942980933B020E94E91A50
:101A700090932802809327020E948D188FE39CE99F
:101A80000197F1F700C000000E948D1880912F028D
:101A900080FF08C06FEF7FEF80E090E00E94C629D2
:101AA0000E94A11683E090E00E949429682F70E0C4
:101AB00080E090E00E94332880912C02811136C092
:101AC00080E090E00E94A229893E9E4F21F00E9472
:101AD000FA1A0E94AB1E88E090E00E949C29609355
:101AE0005B0270935C0280935D0290935E026E7F56
:101AF00071F40E94AB1E88E090E00E949C296093E4
:101B00005B0270935C0280935D0290935E020E9480
:101B1000641E1092D20280915B0280FF04C060E0DC
:101B200086950E94502181E080932C0280915B0277
:101B3000816080935B0260E086950E94502120E0E6
:101B40004FEF6FEF84E20E94732060E081E00E941B
:101B5000502180E091E0909366028093650218E145
:101B6000812E912C00E4E02EFF24F394552453940D
:101B70008091E102853009F073C000E112E18091AB
:101B8000E102853009F057C08091E102843009F408
:101B90003DC01092D20280912E02811116C0509247
:101BA0002E0280915B02982F917090932D028E7F70
:101BB00080935B02FFEF20E732E0F150204030409D
:101BC000E1F700C000000E941D1E109269020FB6CE
:101BD000F894A895809260000FBEE092600083B7F1
:101BE000817F846083BF83B7816083BF7894889549
:101BF00083B78E7F83BF0FB6F894A895809160005D
:101C0000886180936000109260000FBE8091E002B6
:101C1000882309F4B4CF0E948D1880912F0281117E
:101C200035C380913002811131C380913102882304
:101C300009F4A5CF2BC30E9469280E948217109235
:101C40002E0280912D02882349F080915B028160F1
:101C500080935B0260E086950E9450210E94071EDF
:101C60000E948D18882359F08FB7F89440916A022A
:101C700050916B0260916C0270916D028FBFAFE268
:101C8000B2E0ECE3F2E000E010E0302F2D91919112
:101C9000922721F180E0DD24D394492F4D21D1F00A
:101CA0008F8338872D2181E009F480E089870E94A5
:101CB000FA168160782F9B878A874F8158856985BE
:101CC0008B850E94A602F801E45CFD4F8081D82636
:101CD000D08219C08F5FDD0C8330F9F60F5F1F4F84
:101CE0000330110591F68FEF8C878D871E860E9439
:101CF000FA168160782F988B8F874C855D856E856D
:101D000088890E94A6028091D202882309F493C098
:101D10008091D102E0915B02E695E81BE093CD0251
:101D2000823059F4F0E0EE5FFE4FE4910E2F10E0A8
:101D3000BAE7CB2EBFE1DB2E59C0863059F4F0E074
:101D4000E150FF4FE4910E2F10E0AAE6CA2EAFE15A
:101D5000DA2E4CC0893061F4E695F0E0E450FF4F94
:101D6000E4910E2F10E0F9E4CF2EF0E2DF2E3EC01A
:101D70008F3061F4E695F0E0E750FF4FE4910E2FCD
:101D800010E0ECEDCE2EEFE1DE2E30C0853159F4BF
:101D9000F0E0EA50FF4FE4910E2F10E07EE8C72EEE
:101DA0007FE1D72E23C08831A1F0833249F4E4EFDC
:101DB000F0E0059114916CEAC62E62E1D62E16C0B1
:101DC000843271F404EF11E059EEC52E51E1D52EA5
:101DD0000DC008E210E043E2C42E42E1D42E06C05A
:101DE00000ED17E036E0C32E3EE1D32E8091CE0207
:101DF000882361F01092CE020E94FA169093CC02D2
:101E00008093CB021092D0021092CF020E94FA1659
:101E1000E091CB02F091CC028E1B9F0B8F3F9F472E
:101E200050F40E0F1F1F1093CC020093CB028BECCB
:101E300092E0F601099586E0E5ECF2E0DE0111960C
:101E400001900D928A95E1F7C090C702D090C80228
:101E50000091C9021091CA021092C7021092C802E2
:101E60001092C9021092CA02C11003C0DD2009F409
:101E70004FC08091C3029091C4020E94EB169C0156
:101E80009091BF02992309F417C22333310508F456
:101E90003FC09F3F19F09F5F9093BF02CC2061F03D
:101EA0000E9461221C1414F09FEF01C091E0899FF1
:101EB000802D11248093C702DD2061F00E946122F1
:101EC0001D1414F09FEF01C091E0899F802D112413
:101ED0008093C8023091C7023323D1F02091C80209
:101EE0002223B1F045EB3403C0011124992319F0EA
:101EF0009093C70202C0F092C70265EB2603C001AF
:101F00001124992319F09093C80202C0F092C802DC
:101F1000011103C0112309F44FC08091C1029091B7
:101F2000C2020E94EB169C019091BE02992309F413
:101F3000C8C12536310508F43FC09F3F19F09F5FA7
:101F40009093BE02002361F00E943F22101614F00D
:101F50009FEF01C091E0899F802D11248093C902D9
:101F6000112361F00E943F22111614F09FEF01C06F
:101F700091E0899F802D11248093CA023091C9027B
:101F80003323D1F02091CA022223B1F075EB37033D
:101F9000C0011124992319F09093C90202C0F09254
:101FA000C90235EB2303C0011124992319F0909342
:101FB000CA0202C0F092CA028091C70281110BC00E
:101FC0008091C802811107C08091C902811103C0AC
:101FD0008091CA0281110E949E21CB82DC820D83F6
:101FE0001E8386E0FE013196A5ECB2E001900D92D1
:101FF0008A95E1F7E0910B03F0910C03309719F00B
:102000008BEE92E009952FB7F8940091D40390914C
:10201000D303091718F48091D503080F091B2FBFAC
:10202000C12CD12C10E083E0682E712CAA24A3943B
:10203000B12C24E0322EC016D10608F0B4C0809135
:10204000D30390E06091D50370E00E94FE29E091F7
:10205000D603F091D703E80FF91F408020901003BA
:1020600047EF441560F4F092100320E040E0642D47
:1020700081E090E00E9417232092100382C047FE67
:102080004FC064E0261631F040920D03B092120367
:10209000A0921103842D0E946A15813031F080F0E6
:1020A000823059F0833049F034C08093100320E02F
:1020B00040E0642D81E090E027C08093100361C070
:1020C00070EF4716E1F087EF481223C0209111030B
:1020D00030911203C901B3010E94EA29FC01E551C4
:1020E000FD4F42A2C9010196909312038093110300
:1020F00020910F0340910E0360910D0305C03092B3
:10210000100340920D0333C00E9417231092100356
:1021100038C010921003109212031092110331C0B4
:10212000222079F12091110330911203C901B301EA
:102130000E94EA29AC01FC01E551FD4F42A2C90110
:102140000196909312038093110341305105A1F041
:1021500042305105B1F420910F0340910E0360917C
:102160000D030E94172380911003843051F0B09228
:102170001203A092110305C0E2E02E1202C020E07B
:10218000ECCF2FB7F8948091D30390E00196609143
:10219000D50370E00E94FE298093D3032FBFFFEF89
:1021A000CF1ADF0A48CF80913802909139020E94FD
:1021B000EB16209136022695269526952F7030E055
:1021C0008217930798F10E94FA1690933902809330
:1021D000380280913302882349F190913502991F8A
:1021E0009927991F809136028770880F409132029B
:1021F00061E0892B0E940423909133028091320286
:1022000097FF0FC0282F30E0692F772761950CF4D6
:102210007095261737072CF4109232021092330271
:1022200005C0890F87FD8FE7809332020E948217D5
:1022300090913A02891721F00E94821780933A0206
:102240008091E102843009F093CC80910C018F7071
:102250008093E9009091E80090FF8ACC9091E10290
:10226000943009F085CC8093E9002091F3008091AF
:10227000F20090E0922B892B09F47ACC8091E8004F
:102280008E778093E8000E944F1372CC09BD19BD70
:1022900009B400FEFDCF8091D8008F7D8093D800D7
:1022A0008091E00082608093E0008091E00081FDF9
:1022B000FCCF0E94692863CC2D32314008F0EBCD71
:1022C00027CE2D32314008F03ACE76CE8091D6021C
:1022D0000895089508959091E102943031F5809326
:1022E0006E027093700260936F0282E08093E90047
:1022F0008FEF9091E800815095FD06C095ED9A957D
:10230000F1F700008111F5CF8091E80085FF0DC045
:1023100040E050E063E070E08EE692E00E9413241B
:102320008091E8008E778093E8000895BC0184E0F6
:102330000C946B11BC0183E00C946B1122E0209390
:10234000E9002FEF3091E800215035FD06C035ED52
:102350003A95F1F700002111F5CF2091E80025FF13
:102360000BC040E050E066E070E00E9413248091D2
:10237000E8008E778093E8000895CF93DF9321E003
:102380002093E9002FEF3091E800215035FD06C081
:1023900035ED3A95F1F700002111F5CF2091E800D5
:1023A00025FF14C0EC0140E050E068E070E00E94BE
:1023B00013248091E8008E778093E80088E0FE0186
:1023C000A7EDB2E001900D928A95E1F7DF91CF91F0
:1023D0000895EF92FF920F931F93CF93DF938C0199
:1023E000C0E4D2E0E12CF12CF8018481F4E0EF1696
:1023F000F1041CF4882339F002C0811104C09E014D
:1024000040915E0202C09E0140E060915D028091B9
:102410005C020E94BA1E8FEFE81AF80A239699E030
:10242000E916F10409F70E941D1EF801848190E06D
:102430000196817099278483DF91CF911F910F912D
:10244000FF90EF9008958F929F92AF92BF92CF929C
:10245000DF92EF92FF920F931F93CF93DF93EC01E4
:102460004C81042F10E09801D8010E94422A9B0160
:10247000AC010E94582A6B017C01E0E2F0E0E01B15
:10248000F10BA5E5B0E09B01AC010E94582A4B017D
:102490005C019F01DF010E943A2A9B01AC010E946E
:1024A000632A9B01AC012C0D3D1D4E1D5F1DC50116
:1024B000B4010E94122A822FF22E99E2921728F07C
:1024C00093E0299F900111240DC025E530E0281BE1
:1024D0003109C901880F991F280F391F37FF02C022
:1024E0002F5F3F4F35952795122F109590E4C92EF9
:1024F00092E0D92E00E085E5E82EEF1801FD02C03C
:102500008E2D01C08F2D9601412F60915D020E949A
:10251000BA1E0F5F83E0C80ED11C093079F70E9404
:102520001D1E8C81811102C091E003C0803219F41C
:102530009FEF90930A0190910A01890F8C83DF919C
:10254000CF911F910F91FF90EF90DF90CF90BF90B0
:10255000AF909F908F9008950F931F93CF93DF9329
:1025600000D01F92CDB7DEB78C0180913F02811160
:102570000AC09E012F5F3F4F4FEF6FEF0E94BA1EC0
:102580008A8180933F02F8018481813051F028F0E4
:10259000823061F440913F020AC080913F0240E0E6
:1025A00007C060913F0240E080E003C040E080E06F
:1025B00060E00E94531EF801848190E0019663E080
:1025C00070E00E94FE2984830F900F900F90DF919E
:1025D000CF911F910F9108951F920F920FB60F92F6
:1025E00011242F933F934F935F936F937F938F9318
:1025F0009F93AF93BF93CF93DF93EF93FF93C091DC
:10260000E900CF708091EC00D82FD17080FDD0E828
:102610001092E9008091F000877F8093F000789419
:102620000E943F241092E9008091F000886080931E
:10263000F000CD2BCF70C093E900FF91EF91DF91B7
:10264000CF91BF91AF919F918F917F916F915F914A
:102650004F913F912F910F900FBE0F901F901895A3
:10266000E8EDF0E080818E7F80831092E20010928E
:10267000DA001092E100A0EEB0E08C9181608C93C2
:1026800080818F77808319BCA7EDB0E08C918E7F1D
:102690008C9380818F7E80831092710208952091A7
:1026A000E4003091E50095E64091EC00842F8170C4
:1026B00040FF23C08091E80080FD1DC08091E102B1
:1026C000882399F0853099F08091EB0085FD11C049
:1026D0004091E4005091E5002417350729F391500B
:1026E00011F09A01E1CF84E0089582E0089583E03B
:1026F000089581E0089580E008954091E80042FF48
:10270000DDCF08958091E30287FF11C08091E8003A
:1027100082FD05C08091E1028111F8CF11C0809146
:10272000E8008B770BC08091E102882349F080910B
:10273000E80080FFF8CF8091E8008E778093E80072
:102740000895982F973068F59093E900981739F01D
:102750007091EC002091ED005091F00003C0242F07
:10276000762F50E021FD02C09F5FECCF3091EB004F
:102770003E7F3093EB003091ED003D7F3093ED00D4
:102780003091EB0031603093EB007093EC002093BC
:10279000ED005093F0002091EE0027FDE5CF80E0A2
:1027A00008958F708093E90081E00895CF92DF92C1
:1027B000EF92FF920F931F93CF93DF93C8EDD0E07A
:1027C00088818F7E8883E7EDF0E08081816080835F
:1027D00084E082BF81E08093710288818E7F88834C
:1027E00002EE10E0F80110821092DA0081EEC82E9D
:1027F000D12CF601108288818F7788838881806848
:10280000888388818F7D888319BC1092E1021092A1
:10281000E2021092E0021092DF0290EEE92EF12C1B
:10282000F70180818B7F808388818160888342E08B
:1028300060E080E00E94A113F60180818E7F80839A
:10284000F801808181608083808188608083F701C6
:1028500080818E7F8083888180618883DF91CF91A2
:102860001F910F91FF90EF90DF90CF9008951F92EE
:102870000F920FB60F9211242F933F934F935F93B4
:102880006F937F938F939F93AF93BF93EF93FF9338
:102890008091E10082FF09C08091E20082FF05C0C3
:1028A0008091E1008B7F8093E1008091DA0080FFCE
:1028B0002AC08091D80080FF26C08091DA008E7FE8
:1028C0008093DA008091D90080FF18C080E189BD33
:1028D00082E189BD09B400FEFDCF81E08093E10271
:1028E0008091710281110FC00E9430130E94D61393
:1028F0008091E20084608093E20005C019BC1092D0
:10290000E102109271028091E10080FF17C0809176
:10291000E20080FF13C08091E2008E7F8093E2008E
:102920008091E20080618093E2008091D800806213
:102930008093D80019BC85E08093E1028091E1008A
:1029400084FF2EC08091E20084FF2AC080E189BD0F
:1029500082E189BD09B400FEFDCF8091D8008F7D52
:102960008093D8008091E1008F7E8093E100809178
:10297000E2008F7E8093E2008091E200816080938C
:10298000E2008091E202882311F084E007C0809188
:10299000E30087FD02C081E001C083E08093E10293
:1029A0008091E10083FF27C08091E20083FF23C074
:1029B0008091E100877F8093E10082E08093E102D3
:1029C0001092E2028091E1008E7F8093E10080917D
:1029D000E2008E7F8093E2008091E200806180932C
:1029E000E20042E060E080E00E94A1138091F000EC
:1029F00088608093F000FF91EF91BF91AF919F911C
:102A00008F917F916F915F914F913F912F910F9097
:102A10000FBE0F901F9018952091E9023091EA02A5
:102A20002617370748F06115710539F42091E80041
:102A30002E772093E80001C0B901FC0120E0611568
:102A4000710579F18091E1028823F1F18530F1F18E
:102A50008091E80083FD3CC08091E80082FD2EC09B
:102A60008091E80080FFEBCF2091F3008091F2008D
:102A700090E0922B6115710551F08830910538F482
:102A800021912093F100615071090196F3CF21E06B
:102A9000089709F020E08091E8008E778093E800A5
:102AA000CECF2111CFCF0AC08091E102882361F0FF
:102AB000853061F08091E80083FD0AC08091E800D4
:102AC00082FFF2CF80E0089582E0089583E00895C8
:102AD00081E00895982F907F903BF1F038F4903981
:102AE000D9F0903AC9F09038C9F416C0903D49F039
:102AF00018F4903C31F012C0903E71F0903F19F004
:102B00000DC082E00895815F8F3040F4E82FF0E03F
:102B1000E55DFE4F8081089583E0089580E008958B
:102B2000AF92BF92CF92DF92EF92FF920F931F93DB
:102B3000CF93DF93CDB7DEB727970FB6F894DEBFFC
:102B40000FBECDBF7E0125E0E20EF11C8C010851C5
:102B50001F4F8091E102843009F085C080911101FE
:102B60008F708093E9008091E80082FF7CC08091A3
:102B7000E80085FF78C00E944F1381111DC084E0DA
:102B8000C82ED12CCE0101965C0109C08091F100C4
:102B9000D5018D935D01B1E0CB1AD10869F0809128
:102BA000E80085FDF3CF8091E8008B778093E80003
:102BB0000E944F13882399F38091E80085FD05C09A
:102BC0008091E8008B778093E800DA808D2D0E9459
:102BD0006A15282FDD828B818E838C818F83211152
:102BE0000FC08981843049F0873039F0863039F060
:102BF000853009F0AECF21E003C023E001C022E020
:102C000067018C2D8E19821708F0A3CFD601BD90D5
:102C10006D013FB7F894D8011196EC911197F0E04F
:102C2000CF01019612966C9170E00E94FE29D801A6
:102C30004C9150E084179507A1F0D80113968D911F
:102C40009C911497E80FF91FB08211968C911197FF
:102C500090E0019612966C9170E00E94FE29F801B6
:102C600081833FBFCECF27960FB6F894DEBF0FBE4D
:102C7000CDBFDF91CF911F910F91FF90EF90DF902B
:102C8000CF90BF90AF900895DF92EF92FF920F9395
:102C90001F93CF93DF9300D000D0CDB7DEB77B0179
:102CA000142FD22E4A832B830C83842F0E946A1503
:102CB00081111CC082E0E816F10471F083E0E8168F
:102CC000F10421F0EA94EF2881F50BC0073F11F4DD
:102CD00087E00AC084E008C087EFD812FBCF86E007
:102CE00003C0173FB9F785E0898303C012951F70B1
:102CF00019838091E1028430C1F480910C018F70BE
:102D00008093E90040E050E064E070E0CE0101967D
:102D10000E941324811109C08091E80085FD05C03F
:102D20008091E8008E778093E8000F900F900F90CD
:102D30000F90DF91CF911F910F91FF90EF90DF9057
:102D4000089581E08093E00080E28093D8001092A3
:102D5000C9008FE19EE40197F1F700C0000087E011
:102D600090EBDC018093E2039093E303A093E403F0
:102D7000B093E5039CE088E10FB6F894A8958093A2
:102D800060000FBE90936000FFCF78941F920F9267
:102D90000FB60F9211248F939F93AF93BF9380919F
:102DA0006A0290916B02A0916C02B0916D02019643
:102DB000A11DB11D80936A0290936B02A0936C02D7
:102DC000B0936D02BF91AF919F918F910F900FBE05
:102DD0000F901F9018959C014FB7F89480916A024C
:102DE00090916B02A0916C02B0916D024FBF821B5B
:102DF000930B08952FB7F89480916A0290916B021B
:102E0000A0916C02B0916D022FBF08951F920F9296
:102E10000FB60F9211248F939F93AF93BF9380911E
:102E20006902811113C080916A0290916B02A09196
:102E30006C02B0916D024196A11DB11D80936A0292
:102E400090936B02A0936C02B0936D02BF91AF910F
:102E50009F918F910F900FBE0F901F9018959C011E
:102E60002A5F3F4FFC014281461301C01282019646
:102E700082179307B9F708959C01FC0132969FEFE2
:102E800080E04191461789F09F3F19F4411101C03C
:102E9000982F8F5F8630A9F79F3F39F0F901E90F2E
:102EA000F11D97FDFA9562830895089520916702B8
:102EB000309168022817390771F090936802809367
:102EC0006702E0916502F0916602309721F000847C
:102ED000F185E02D099408952091630230916402F8
:102EE0002817390771F09093640280936302E09190
:102EF0006502F0916602309721F00680F781E02D9F
:102F000009940895E0916502F0916602309721F0EE
:102F10000190F081E02D099480E00895EF92FF92F6
:102F20000F93CF93DF93C42FD22FFC01828188238C
:102F3000D1F0409362020E94FA169093610280934E
:102F4000600280E28C0F883008F06DC0C77081E0AD
:102F500001C0880FCA95EAF7DF91CF910F91FF90DA
:102F6000EF900C947F288091620248134BC08091AF
:102F70006002909161020E94EB16883C910508F076
:102F800041C0CD17C9F080E28C0F883040F4C77083
:102F900081E001C0880FCA95EAF70E94742880E298
:102FA0008D0F883048F481E09D2F977001C0880F05
:102FB0009A95EAF70E947F28093319F0E12CF12C49
:102FC00003C080E5E82EF12C802F0E94F028E11448
:102FD000F10451F08FE99FE00197F1F700C0000084
:102FE00091E0E91AF108F3CF802F0E94892880E24E
:102FF0008D0F8830C0F4D77081E001C0880FDA955A
:10300000EAF70AC080E28C0F883068F4C77081E06C
:1030100001C0880FCA95EAF7DF91CF910F91FF9019
:10302000EF900C947428DF91CF910F91FF90EF9067
:10303000089590915B0290FF04C09695981740F018
:1030400003C0811105C090E0961710F40C949421F0
:1030500061E00C945021882311F0FA0101C0FB01BA
:10306000099480E008959091270292FF0DC0282FC7
:103070002871283019F4877F846006C0282F2471B6
:10308000243011F48B7F886093FF0DC0282F2871A6
:10309000283119F4877E846106C0282F24712431D9
:1030A00011F48B7E88612091280220FF0DC0382FFB
:1030B0003871383019F4877F816006C0382F31713C
:1030C000313011F48E7F886021FF0DC0282F2871C8
:1030D000283119F4877E816106C0282F21712131A2
:1030E00011F48E7E886194FD877E0895F894E82F10
:1030F000E295EF70F0E031A1282F2F7081E090E091
:1031000001C0880F2A95EAF7982F9095932391A3F1
:1031100092A1892B82A378940895AF92BF92CF9207
:10312000DF92EF92FF920F931F93CF93DF9300D024
:103130001F92CDB7DEB719821A821B8285E2E82E74
:1031400081E0F82E00E010E0CC24C394D12C5E0185
:1031500044E0A40EB11CD7018C918F3F09F44CC000
:10316000F894E82FE295EF70F0E021A18F70A601AE
:1031700002C0440F551F8A95E2F7CA01922F982B7F
:1031800091A392A18095892382A3789400C0C6015F
:10319000002E01C0880F0A94EAF7482F382F309587
:1031A00068E271E0FE013196DB012D91BD012F3FF8
:1031B00099F0822F82958F7090E0DC0190968C912F
:1031C00090E02F7002C0959587952A95E2F780FDD3
:1031D00003C08081842B02C0808183238083319649
:1031E000EA15FB0509F7F70180818F3F11F00E9476
:1031F0007618F0EAFA95F1F70F5F1F4F4FEFE41AD8
:10320000F40A0330110509F0A6CF43E050E0BE01F7
:103210006F5F7F4F89E292E00E94842A11E000975D
:1032200009F410E0892B91F089819A81AB81809318
:10323000290290932A02A0932B0281E08093BD0281
:103240000E94FA169093BC028093BB028091BD024B
:103250008823B1F08091BB029091BC020E94EB16D2
:10326000059770F08091290280932F0280912A02A5
:103270008093300280912B02809331021092BD0224
:10328000812F0F900F900F90DF91CF911F910F9191
:10329000FF90EF90DF90CF90BF90AF900895CF93C5
:1032A000DF938238910569F1B0F48133910509F417
:1032B0006FC048F48932910509F465C08A329105DE
:1032C00009F46BC08AC08533910509F457C089336E
:1032D0009105B9F082C0833E910571F138F4803ECA
:1032E0009105B1F0823E910511F177C0863E9105BE
:1032F000B9F1873E9105C9F1843E910509F06DC091
:1033000024C02091270220FD53C021FD51C065C07B
:103310008091270280FD46C08091280280FF48C02E
:103320008091270284FD50C183EE90E04FC18091CF
:10333000270282FF3AC0F4CF8091270282FD35C078
:103340008091280280FD34C0EBCF8091280281FF5C
:1033500035C08091270284FD37C187EE90E036C1E9
:103360008091270283FF27C0F4CF8091270283FD3D
:1033700022C08091280281FD21C0EBCF80912702DD
:1033800085FD1FC021C08091270285FD1DC019C089
:103390008091270286FD1BC01DC08091270286FDFB
:1033A00019C015C089E390E011C182EE90E00EC112
:1033B00080EE90E00BC186EE90E008C184EE90E0D4
:1033C00005C189E290E002C185E390E0FFC08AE296
:1033D00090E0FCC081E390E0F9C0811531E59307EE
:1033E00008F069C0811540E59407F0F09C0174E095
:1033F000369527957A95E1F7922F9370482F437071
:1034000021E030E002C0220F331F4A95E2F73C680A
:10341000392B982F9F709695969540E2949FC00106
:103420001124822B932BD2C0883E910568F5803EF3
:10343000910508F0CBC0883A9105B8F4853A91051A
:1034400048F0855AE82FF0E0E65CFE4F808190E07E
:103450009064BCC08130910509F4B3C008F4B4C0D5
:103460008430910508F4B0C0B1C08F3B910508F0DD
:10347000ABC0885AE82FF0E0EE0FFF1FE35CFE4F71
:10348000808191819464A2C0811520E2920758F452
:10349000811531E0930708F099C08D3E910508F43D
:1034A00093C0906593C0811540E4940708F48CC0E4
:1034B0009F70906A8BC0811525E5920708F042C085
:1034C000811534E5930728F0982F8827846F906A38
:1034D0007DC0811543E59407B0F09C01237033272C
:1034E00041E050E002C0440F551F2A95E2F7282F13
:1034F0002695269580E2289F90011124CA01822BEF
:10350000932B9A6863C0811522E5920728F4982FBF
:103510008827816F906A5AC09C012370332741E04D
:1035200050E002C0440F551F2A95E2F7282F269538
:10353000269580E2289F90011124CA01822B932BAB
:103540009C6844C0EC01811539E59307A8F4811506
:10355000984528F09C2F8827806F906A37C0C11546
:1035600086E5D80788F58C2F0E9433188F7190E07C
:10357000982F882790622AC081152AE5920790F437
:103580008C2F8F700E94331894E0D695C7959A952A
:10359000E1F7CF70D0E0DC2FCC27D0699E01282B3B
:1035A000C90114C090568115904270F48D2F8F710F
:1035B0000E943318282F2F71CE0199279062922BE9
:1035C00005C081E090E002C080E090E0DF91CF9103
:1035D0000895CF9384E090E00E949429C82F82E25E
:1035E00090E00E9494292C2F30E0A901582BCA01A9
:1035F000CF91089569EE7EEF80E090E00E94C629A9
:1036000060E082E090E00E94A82960E083E090E022
:103610000E94A8291092B7021092B8021092B90223
:103620001092BA0260E084E090E00E94A82960E075
:1036300082E290E00E94A82960E085E090E00E948C
:10364000A82960E086E090E00E94A8296FEF87E05B
:1036500090E00E94A82940E050E0BA0188E090E0A4
:103660000E94BA2960E08DE090E00E94A82940E025
:1036700050E0BA0188E190E00E94BA2960E087E159
:1036800090E00E94A82940E050E0BA018CE190E06F
:103690000E94BA2960E070E080E290E00E94C629B2
:1036A00040E050E0BA0188E190E00E94BA2940E091
:1036B00050E0BA018FE090E00E94BA2940E050E06B
:1036C000BA0183E190E00C94BA298091B60281118D
:1036D0001092B60208959091B5028091B402892BA0
:1036E0002091B302982F922B909372028091B60290
:1036F000882389F0892B80937202E4E7F2E097E057
:1037000080E0915029F021912223D9F38F5FF9CFE6
:1037100081110E94651BE0916502F091660230976D
:1037200031F00280F381E02D82E792E00994089560
:10373000CF93C0912802C2FB992790F9981781F086
:1037400080FBC2F9C09328026091270284E090E0D8
:103750000E94A8296C2F82E290E0CF910C94A829B6
:10376000CF9108952091B202809582238093B20276
:10377000982F977041F430E0482F082E000C550B1D
:103780002417350721F49091280292FF07C08595F0
:10379000859585950E94ED271092B202089580913B
:1037A000B10290918002891719F08F5F8770FBCF6B
:1037B00008950F931F93CF93DF9380917F0282959B
:1037C0008F7009F05DC080917C02882309F458C095
:1037D0008091B1021091800260917A0270917B0217
:1037E000C0917D02D0917E0291E06F3F09F090E0A0
:1037F000292F06E0811709F443C0209721F07F3F6D
:1038000021F030E003C031E001C0322F90E030FD04
:1038100034C0089FF001099FF00D1124DF01AF575C
:10382000BD4F11963C911197371327C03C91361329
:1038300024C012963C91129731111FC013964D91DE
:103840005C9114974C1B5D0B483C5105B0F4809182
:103850007F028F70806180937F02EA57FD4F8081E5
:103860008F70806180838AE792E00E944E03DF912F
:10387000CF911F910F910C94CF1B01968770BACFF7
:10388000DF91CF911F910F910895CF93DF93D82FA0
:10389000C92F0E9430272C2F30E0F901EE0FFF1FB7
:1038A0002E0F3F1FF90199E0899FE00DF11D1124B2
:1038B000ED0FF11DEE0FFF1FEA5FFE4F8591949112
:1038C0000E944F19DF91CF9108959F92AF92BF92BE
:1038D000CF92DF92EF92FF920F931F93CF93DF93DC
:1038E000CDB7DEB761970FB6F894DEBF0FBECDBF80
:1038F0008C0185E0F801DE011D9601900D928A95FC
:10390000E1F7F801E28090917A0260917B024091A8
:103910007D0250917E024115510531F06F3F31F427
:1039200081E09F3F19F403C081E001C080E0F82FDF
:10393000F1709F2E80FD1AC1F80130812181C38072
:10394000D4808AE7A82E82E0B82EF0907C02F6019F
:10395000E41BF50BFF2009F4C6C080917F02E83C10
:10396000F10508F091C0482F407F09F050C0621364
:1039700011C093130FC0FE2CE1100CC08F7080613A
:1039800080937F02C5010E944E0380917F02F8015F
:10399000858329C1CD2831F02F3F31F481E03F3FAD
:1039A00019F403C081E001C080E080FD03C081E024
:1039B0008E2502C080E090E0F82FF170FF2E80FF8E
:1039C0001CC08091B1024091800256E0841709F436
:1039D000E8C090E0589FF001599FF00D1124EF5777
:1039E000FD4F6181261306C06081631303C06281AD
:1039F000E61203C001968770E9CFFE2CEE2009F491
:103A0000F2C080917F02816080937F0249C062137F
:103A100006C0931304C0E11002C0F80186C0C801BB
:103A20000E943D28882351F1EE2041F120917F0230
:103A3000822F82958F7090E0029774F080917A02C5
:103A400090917B0298878F831986DB86CA862C87A4
:103A5000CE0107960E944E0386E0F801AAE7B2E085
:103A600001900D928A95E1F70E94D91B0AC0621756
:103A7000C9F0C8010E943D2881111EC0C8010E94E2
:103A80004E03FF24F394AFC0482F407F81F78AE7AD
:103A900092E00E944E0386E0F50111928A95E9F7C3
:103AA000F12CA1C09313E5CFE110E3CFF80185839A
:103AB000C8010E944E0354C0EE2001F320917F0202
:103AC000822F82958F7090E0029734F280917A0273
:103AD00090917B029A8389831B82DD82CC822E8324
:103AE000CE010196B7CFE83CF105D0F5FE2CEE20D3
:103AF00029F2621327C0931325C020917F0220FD75
:103B000018C0822F82958F70482F50E041155105C3
:103B100081F0F80125834F30510541F08F5F982FD8
:103B20009295907F822F8F70892B8583C8010E9488
:103B30004E0386E0F801AAE7B2E001900D928A9563
:103B4000E1F751C0C8010E943D28811185CF8091C5
:103B50007F02816080937F02C8010E944E0343C0B0
:103B600086E0F50111928A95E9F73DC0EE2009F44F
:103B700085CFC8010E943D28F82E882309F47ECF06
:103B800086E0F801AAE7B2E001900D928A95E1F78C
:103B900080917A0290917B020E94451C0E94D91B61
:103BA00022C03D872E878D859E850E94451C292F2A
:103BB00022952F70223028F49F7039F0811105C0B2
:103BC0000BC0243028F49F7049F4805E883020F0C8
:103BD000C8010E944E039F2CF92C05C0F801958165
:103BE000907F99F7F9CF8F2D61960FB6F894DEBFCD
:103BF0000FBECDBFDF91CF911F910F91FF90EF903E
:103C0000DF90CF90BF90AF909F90089508956091FE
:103C10005B02669570E04BE050E087E191E00E9426
:103C2000772A892B19F481E08093D2020E94FA1638
:103C30009093CC028093CB02089580915B0280FF29
:103C40000AC06A9A8EB18B7F9EB194602FB7F894A8
:103C5000E0E4F2E00BC0E0E4F2E0118210821282B4
:103C6000339632E0EB35F307C1F7EBCF32E0EB35BB
:103C7000F30789F0319148E09EB9000000C037FF9A
:103C80008EB9330F000000C000C000C08EB900C064
:103C90004A9591F7EBCF2FBF8FE594E00197F1F7AD
:103CA00000C00000089590915B0290FF0CC0E0E41A
:103CB000F2E0818360834283339692E0EB35F9072B
:103CC000C1F70C941D1E089580915B02282F269544
:103CD00030E02115310519F48170826005C025326C
:103CE000310524F08170886480935B020895CF923F
:103CF000DF92EF92FF926B017C010E94641EB7017C
:103D0000A60188E090E0FF90EF90DF90CF900C94B8
:103D1000BA2980915F02882319F0815080935F0255
:103D200060915B0270915C0280915D0290915E02F5
:103D30000C94771E80915F02833018F48F5F80931C
:103D40005F0260915B0270915C0280915D029091D4
:103D50005E020C94771EEBE5F2E083E08083118233
:103D60008FEF82838383148260817181828193814A
:103D70000C94771EAF92BF92CF92DF92EF92FF9298
:103D80000F931F93CF93DF93E82EF62EE901E42FD4
:103D9000F0E0611106C0E65DFE4FE4914E2F2E2F3C
:103DA00071C0062F10E0E65DFE4F4491F42FC42E43
:103DB000D12C26E0829FC00111242FEF30E0B90101
:103DC0000E94EA295BEA5603C001579F900D112417
:103DD0008E0D911D8E0D911D582F550F580FD90125
:103DE000A01BB10BAC9DC001AD9D900DBC9D900D75
:103DF0001124E92FF59ED0011124AB2FBB277901A7
:103E0000EA1AFB0AEC9CD001ED9CB00DFC9CB00DB5
:103E100011245901A51AB108A09E7001A19EF00CB1
:103E2000B09EF00C1124EF2CFF242E193F092C9D7D
:103E300080012D9D100D3C9D100D1124212F62300D
:103E4000710591F048F461157105E1F0613071057B
:103E5000B9F4242F4B2F16C06430710569F040F07F
:103E60006630710579F00CC0242F492FE12F0AC06C
:103E7000492FEF2F2B2F06C0292FE42F412F02C0EF
:103E8000292FEB2F49832883EA83DF91CF911F915C
:103E90000F91FF90EF90DF90CF90BF90AF9008957B
:103EA000CF93DF9300D01F92CDB7DEB790915B0226
:103EB00090FF0AC09E012F5F3F4F0E94BA1E4B81A8
:103EC00069818A810E94531E0F900F900F90DF919D
:103ED000CF910895CF93DF93EC01EBE5F2E04381BE
:103EE00062818C810E94501F8C818F5F8C83DF9157
:103EF000CF910895CF93DF93EC01EC81F0E0E15D89
:103F0000FD4F4491EBE5F2E0628181810E94501FF8
:103F10008C818F5F8C83DF91CF9108950F931F93D6
:103F2000CF93DF93C0E4D2E0FE01118210821282AF
:103F3000339682E0EB35F807C1F700E010E080919E
:103F4000D402082E000C990B0817190794F08091E1
:103F50002301082E000C990B8017910754F09E0145
:103F600040915E0260915D0280915C020E94BA1EE7
:103F700003C0198218821A820F5F1F4F23960930DF
:103F80001105E9F60E941D1E809122019091D40234
:103F9000980F9093D40220912301280F209323019E
:103FA000121614F498301CF0819580932201DF9151
:103FB000CF911F910F910895BF92CF92DF92EF9210
:103FC000FF920F931F93CF93DF93FC01828180FFB9
:103FD00003C0DD24DA9402C0DD24D39400E412E0AF
:103FE000C0E0D0E029E0B22EF801118210821282E6
:103FF00094E0E92EF12CC12C8091D3028C0D8A30F3
:104000002CF06B2D0E94DC29892F02C087FD875F71
:10401000082E000C990BC817D90791F480915E0205
:104020008E9DA0018F9D500D112455954795559556
:104030004795980160915D0280915C020E94BA1ED2
:10404000CD0CF1E0EF1AF108B9F621960D5F1F4F84
:10405000C930D10549F60E941D1E8091D30291E01E
:10406000D91206C0811102C088E007C0815005C086
:1040700090E00196BE010E94FE298093D302DF9159
:10408000CF911F910F91FF90EF90DF90CF90BF9055
:104090000895EF92FF921F93CF93DF93EC0180E49A
:1040A000E82E82E0F82E10E08C81970140915E02AC
:1040B00060915D02810F0E94BA1E145E83E0E80EDB
:1040C000F11C1C3F89F70E941D1E9A818C8190FF74
:1040D00002C08F5F01C081508C83DF91CF911F910F
:1040E000FF90EF9008955F926F927F928F929F92D0
:1040F000AF92BF92CF92DF92EF92FF920F931F93F6
:10410000CF93DF9300D01F92CDB7DEB7182F762E56
:10411000042F622E90915B0290FF6DC0E92FE6950F
:10412000AE2FB0E0A559BE4F8C918093D1029E7FF7
:10413000923061F49E012F5F3F4F812F0E94BA1E83
:104140004B8169818A810E94531E43C0823019F4D9
:1041500000915E023EC0863019F410915C0239C0B5
:104160008930D9F38931A9F5E9518E2F8170582E04
:10417000E695F0E0E65DFD4FA590B49080E4C82E92
:1041800082E0D82EE12CF12CBB2499E0892E912CD1
:10419000AE9CC001AF9C900DBE9C900D1124B4014B
:1041A0000E94EA29812F511002C0860F01C0861B90
:1041B0009601402F672D0E94BA1E8FEFE81AF80A69
:1041C00083E0C80ED11C89E0E816F10409F70E94CB
:1041D0001D1E10935C0270925D0200935E026620C9
:1041E00051F060915B0270915C0280915D02909150
:1041F0005E020E94771E0F900F900F90DF91CF917B
:104200001F910F91FF90EF90DF90CF90BF90AF90F4
:104210009F908F907F906F905F900895EBE5F2E014
:10422000438128E0421B08F440E021E06281818163
:104230000C947320EBE5F2E0438128E0420F08F490
:104240004FEF21E0628181810C947320EBE5F2E075
:10425000628128E0621B08F460E021E043818181F3
:104260000C947320EBE5F2E0628128E0620F08F421
:104270006FEF21E0438181810C947320EBE5F2E044
:10428000818121E04381628188500C947320EBE5A9
:10429000F2E0818121E043816281885F0C94732088
:1042A00090915B0290FF36C09170811102C09260C4
:1042B00006C0853210F0986402C0880F982B909346
:1042C0005B02662351F060915B0270915C02809109
:1042D0005D0290915E020E94771E60915B0266957E
:1042E00070E04BE050E087E191E00E94772A892B53
:1042F00019F01092D20202C00E94071E81E0809342
:10430000CE0220E040915E0260915D0280915C02ED
:104310000C947320089580915B028695815009F476
:1043200084E261E00C94502180915B0286958F5F5E
:10433000853208F081E061E00C9450210E94FA1669
:104340002091C702211104C02091C802222321F02C
:104350009093C4028093C3022091C902211104C02A
:104360002091CA02222321F09093C2028093C102BD
:10437000E0916502F0916602309749F082E0809307
:10438000C5020480F581E02D85EC92E00994089542
:104390008D3E39F49091C80297FF35C01092C80243
:1043A00059C08E3E29F49091C8021916BCF32BC057
:1043B0009091C7028F3E29F497FF25C01092C70243
:1043C00049C0803F19F41916CCF31DC09091C90261
:1043D000893F29F41916BCF41092C9023BC08A3FE8
:1043E00019F497FF10C0F8CF8B3F39F49091CA02AF
:1043F00097FF09C01092CA022DC08C3F21F4909102
:10440000CA021916BCF39FE0980F983080F421E09F
:1044100030E0A90102C0440F551F9A95E2F7CA0186
:1044200080959091C60289238093C60213C08D3F68
:1044300021F48091C0028E7F0BC08E3F21F48091C9
:10444000C0028D7F05C08F3F29F48091C0028B7F11
:104450008093C0028091C702811106C08091C8027A
:10446000811102C01092BF028091C902811106C061
:104470008091CA02811102C01092BE0208958091FB
:10448000C00280FD16C081FD16C082FD18C080915B
:10449000BE02882391F0883290F428E0829FC00108
:1044A000112468E270E00E94FE29862F672B29F014
:1044B00007C082E0089584E0089581E0089588E0CF
:1044C00008958091C00280FD14C081FD14C082FD5A
:1044D00016C08091BF02882381F0843180F422E3EA
:1044E000829FC001112464E170E00E94FE29862FA2
:1044F00008958CE0089589E1089585E0089582E3A8
:1045000008958D3E21F40E946122819504C08E3E63
:1045100029F40E9461228093C80208958F3E21F4FD
:104520000E946122819504C0803F29F40E9461228B
:104530008093C7020895893F19F40E943F2205C065
:104540008A3F31F40E943F2281958093C9020895E9
:104550008B3F21F40E943F22819504C08C3F29F4B7
:104560000E943F228093CA0208959FE0980F9830DE
:1045700078F421E030E0A90102C0440F551F9A955C
:10458000E2F7CA019091C602892B8093C602089572
:104590008D3F21F48091C00281600BC08E3F21F4D9
:1045A0008091C002826005C08F3F29F48091C002D3
:1045B00084608093C00208950F931F93611590E269
:1045C00079073CF4611590EE790734F09B01305E79
:1045D00005C02FEF3FE302C020E030E08901000F6B
:1045E000012F001F110B11952F77482F4F70406E30
:1045F000E091EB02F091EC0263E070E08BEE92E070
:1046000009951F910F9108950F93042F0F77262F6F
:104610002F778F70482F406BE091EB02F091EC0206
:1046200063E070E08BEE92E009950F910895CF92D0
:10463000DF92EF92FF920F931F93CF93DF9300D0FF
:104640001F92CDB7DEB77C01162FD42EC22E8091DB
:1046500010038430F9F4E0910503F09106033097DC
:1046600009F4B7C0C701019763E070E00E94EA292E
:10467000CB01880F991F860F971F19834A83CB821E
:104680004E2D481B9E012F5F3F4FBC018BEE92E0E9
:104690000995ACC082E0E816F10409F44FC083E04C
:1046A000E816F10431F081E0E816F10409F08DC05C
:1046B00078C0862F807F803AE1F050F48038A1F0F6
:1046C000803909F086C0E091EF02F091F00225C038
:1046D000803EA1F0803FB9F0803B09F07AC0E091C4
:1046E000ED02F091EE0219C0E091F102F091F202B8
:1046F00014C0E091F302F091F4020FC0E091F502D2
:10470000F091F6020AC0623F09F063C0E091F7023F
:10471000F091F802309731F45CC0309709F459C039
:10472000123F21F42C2D4D2D62EF04C02C2D4D2D68
:10473000612F6F708BEE92E0099558C0862F807FB5
:10474000803D51F0803F69F0803C09F042C0E0912B
:10475000F902F091FA0215C0E091FB02F091FC021F
:1047600010C0633F29F4E091FD02F091FE0206C003
:10477000613F79F5E091FF02F0910003309739F441
:1047800028C0309731F1812F8D7F813F19F44D2D55
:10479000612F03C04D2D612F6F708BEE92E0099554
:1047A00025C0683F28F0E0910103F091020306C0A4
:1047B000663F79F4E0910303F0910403309749F0E8
:1047C000612F8BEE92E0099511C084E0E816F104A8
:1047D000D8F4E0910703F0910803309739F00C2DDD
:1047E0002D2D412FB7018BEE92E00995E091090341
:1047F000F0910A03309759F00C2D2D2D412FB70160
:104800008BEE92E0099503C0E12CF12CE2CF0F90E2
:104810000F900F90DF91CF911F910F91FF90EF902C
:10482000DF90CF900895EF92FF920F931F93CF9355
:10483000DF937C018B010E944F13811119C0E701A6
:1048400001151105A1F08091E80085FD0AC0809155
:10485000E8008E778093E8000E944F13882381F34D
:1048600007C089918093F10001501109E9CF80E0E0
:10487000DF91CF911F910F91FF90EF9008951F93BB
:10488000CF93DF93CDB7DEB7AA970FB6F894DEBF0C
:104890000FBECDBFE3EEF2E08091F100819322E004
:1048A000EB3EF207C9F78091E402833009F460C05F
:1048B00030F4813071F0823009F49AC0B1C08A308E
:1048C00009F486C08B3009F46BC0893009F0A8C0A8
:1048D00020C08091E302813A09F0A2C08091E800F3
:1048E000877F8093E8008091E7029091E802892B0E
:1048F00021F468E087ED92E003C060E080E090E0A2
:1049000070E00E940C158091E8008B778093E8009E
:1049100087C08091E302813209F082C08091E70272
:104920009091E802029708F07BC08091E800877FB1
:104930008093E8008091E80082FD05C08091E1024B
:104940008111F8CF6DC02091F3008091F20090E0CA
:10495000922B029729F48091F1008B7F813021F412
:104960008091F1008093D6028091E8008B7754C04B
:104970008091E302813A09F053C08091E70290915F
:10498000E802892B09F04CC08091E800877F809372
:10499000E8008091E80080FFFCCF8091240137C0BF
:1049A0008091E3028132E1F58091E7029091E80283
:1049B000892BB1F58091E800877F8093E8000E9401
:1049C00082138091E502809324010E94692828C007
:1049D0008091E302813221F58091E800877F809306
:1049E000E8000E9482138091E6028093D50218C0ED
:1049F0008091E302813AA1F48091E800877F80935F
:104A0000E8008091E80080FFFCCF8091D502809380
:104A1000F1008091E8008E778093E8000E94821375
:104A20008091E80083FFD7C18091E3029091E40276
:104A3000492F50E04A30510508F0CDC1FA01EE5936
:104A4000FF4F0C94342A803821F0823809F0C3C11A
:104A500008C08091DF029091E002992389F0826082
:104A60000FC08091E7028F70873008F0B4C1809347
:104A7000E9008091EB0085FB882780F91092E9001E
:104A80009091E800977F9093E8008093F100109256
:104A9000F10066C1282F2D7F09F09DC1882319F0F0
:104AA000823061F098C18091E502813009F093C1B4
:104AB000933009F080E08093E0022EC08091E502FF
:104AC00081112AC08091E7028F702FEF280F2630C6
:104AD00008F081C18093E9002091EB0020FF1CC009
:104AE000933021F48091EB00806214C09091EB0030
:104AF00090619093EB0021E030E0A90102C0440FE7
:104B0000551F8A95E2F74093EA001092EA008091DF
:104B1000EB0088608093EB001092E9008091E80040
:104B2000877F21C1811157C11091E5021F778091C4
:104B3000E3008078812B8093E3008091E800877FF9
:104B40008093E8000E9482138091E80080FFFCCFF0
:104B50008091E30080688093E300111102C082E03D
:104B600001C083E08093E10236C18058823008F0B2
:104B700032C18091E5029091E6028C3D53E09507A9
:104B800079F583E08A838AE289834FB7F894DE015E
:104B9000139620E03EE051E2E32FF0E050935700FF
:104BA000E49120FF03C0E295EF703F5FEF708E2F1E
:104BB00090E0EA3010F0C79601C0C0968D939D93A7
:104BC0002F5F243149F74FBF8091E800877F8093A2
:104BD000E8006AE270E0CE0101960E940C15AEC0BA
:104BE0004091E7025091E802292F33272330310505
:104BF000A9F068F42130310509F4FCC022303105F8
:104C000009F0E9C08FE990E0EAEEF3E044C0213218
:104C1000310521F12232310571F1DDC09927813052
:104C20009105A1F058F0029709F0D5C0EBE9F4E046
:104C3000E4918E2F90E0EBE9F4E02AC0E5EBF4E09C
:104C4000E4918E2F90E0E5EBF4E022C0E9EAF4E095
:104C5000E4918E2F90E0E9EAF4E01AC04115510585
:104C600009F4CDC04130510509F0B5C089E090E0AC
:104C7000E5E1F4E010C04115510509F4C5C041302B
:104C8000510509F0A8C08BE790E0EFE2F3E003C024
:104C9000009709F4A0C02091E800277F2093E80046
:104CA0002091E9023091EA028217930708F49C01EF
:104CB00040E02115310589F18091E102882309F452
:104CC0003DC08530D9F18091E80083FD37C08091E7
:104CD000E80082FD2FC08091E80080FFEACF40917C
:104CE000F3008091F20090E0942B2115310559F0EA
:104CF0008830910540F444914093F1003196215061
:104D000031090196F2CF41E0089709F040E0809127
:104D1000E8008E778093E800CCCF4111CDCF0AC058
:104D20008091E102882351F0853041F08091E800C4
:104D300083FD04C08091E80082FFF2CF8091E800FB
:104D40008B778093E80047C0803809F044C0809199
:104D5000E800877F8093E8008091E2028093F10071
:104D60008091E8008E778093E8000E94821333C020
:104D7000811131C08091E5029091E6029927029756
:104D800054F58091E800877F8093E8001091E50258
:104D90001093E2020E948213111106C08091E30079
:104DA00087FD02C081E001C084E08093E10242E01F
:104DB00061EC81E00E94A11342E261EC82E00E947A
:104DC000A11342E361E883E00E94A11342E361E89A
:104DD00084E00E94A1138091E80083FF1AC08091B3
:104DE000E800877F8093E8008091EB0080628093E9
:104DF000EB000FC082E190E0E9E8F4E04CCF89E0FD
:104E000090E0ECEFF3E047CF80E490E0EAEAF3E0F3
:104E100042CFAA960FB6F894DEBF0FBECDBFDF918A
:104E2000CF911F91089580E090E00E946C1780E080
:104E300090E00E9456171092B4021092B3020E94A2
:104E40006B1BE5ECF2E086E0DF011D928A95E9F745
:104E50001092BF021092BE021092C0020C949E21CA
:104E60008F929F92AF92BF92DF92EF92FF920F9339
:104E70001F93CF93DF938090230290902402A09001
:104E80002502B09026024091B7025091B80260917D
:104E9000B9027091BA02842A952AA62AB72ACFE1CC
:104EA000D0E0292F30E08901000F111F020F131FDE
:104EB00029E0D22EE82EF12CD501C4010C2E04C01D
:104EC000B695A795979587950A94D2F780FD04C06B
:104ED000219790F780E014C0DC9EF001DD9EF00D7C
:104EE0001124E00FF11FEE0DFF1DEE0FFF1FEA5F13
:104EF000FE4F859194910E944F19019749F38C2F91
:104F0000DF91CF911F910F91FF90EF90DF90BF90B5
:104F1000AF909F908F900895292F220F920F890FA5
:104F2000682F669566956695982F977085E0689FBF
:104F3000B001112440E050E080E0FB01E40FF51FD8
:104F4000E852FC4F208130E0092E02C036952795AB
:104F50000A94E2F721703327042E01C0220F0A942D
:104F6000EAF7822B4F5F5F4F4530510531F70895C7
:104F7000292F220F920F890FE82FE695E695E695E7
:104F8000877051E001C0550F8A95EAF785E0E89FE8
:104F9000F0011124E852FC4F20E030E070E0408145
:104FA000CB01022E02C0969587950A94E2F7817094
:104FB000819584278523842781932F5F3F4F253058
:104FC000310569F70895609323027093240280935A
:104FD0002502909326020C9413270F931F9341E010
:104FE00050E060E070E004C0440F551F661F771F5B
:104FF0008A95D2F7409550956095709580912302DF
:1050000090912402A0912502B09126028A019B0171
:10501000082319232A233B23C901B8011F910F91AB
:105020000C94E3270F931F9341E050E060E070E0A1
:1050300004C0440F551F661F771F8A95D2F78091D1
:10504000230290912402A0912502B09126028A01A8
:105050009B01082B192B2A2B3B2BC901B8011F914F
:105060000F910C94E3276093B7027093B80280937A
:10507000B9029093BA020C941327FC0180819181AC
:105080000E94451C292F2F70E92FE295EF704E2FBB
:1050900050E0FA013297EE30F105B8F4E459FF4FD1
:1050A0000C94342A803F99F018F4883E70F40FC0B5
:1050B000843F59F40CC0883E50F0813F31F407C062
:1050C000822F869586958695089580E0089581E0E3
:1050D00008951092B50286E0E4E7F2E0DF011D9248
:1050E0008A95E9F70C941327882341F080959091D5
:1050F000B50289238093B5020C946B1B0895882315
:1051000039F09091B502892B8093B5020C946B1BFA
:105110000895882309F463C0823869F40E948217D5
:1051200081FF5DC069E382E792E00E943C170E9424
:105130006B1B69E30EC0833891F40E94821780FFD5
:105140004EC063E582E792E00E943C170E946B1B11
:1051500063E582E792E00E942F170C946B1B843862
:1051600069F40E94821782FF3AC067E482E792E006
:105170000E943C170E946B1B67E4EBCF9CEF980FDB
:10518000913A10F4682FE5CF90E2980F983088F4A8
:10519000877021E030E0A90102C0440F551F8A95B5
:1051A000E2F7CA0180959091B50289238093B502F8
:1051B000D4CF9BE5980F933020F480E090E00C94DE
:1051C0006C1798E5980F973120F480E090E00C94EC
:1051D00056178D3E20F00E94C8210C949E21089500
:1051E000CF93882309F49EC0C82F8238B1F40E945F
:1051F000821781FD97C069E382E792E00E943C1725
:105200000E946B1B2FEF81EE94E021508040904074
:10521000E1F700C0000069E317C08338E1F40E94A1
:10522000821780FD7FC063E582E792E00E943C1711
:105230000E946B1B2FEF81EE94E021508040904044
:10524000E1F700C0000063E582E792E00E942F17BB
:10525000CF910C946B1B8438B1F40E94821782FDAD
:1052600061C067E482E792E00E943C170E946B1BDA
:105270002FEF81EE94E0215080409040E1F700C094
:10528000000067E4E1CF8CEF8C0F813A80F4E4E713
:10529000F2E08AE792E02191C217E1F18E179F07B1
:1052A000D1F76C2F82E792E00E943C17D1CF80E2C9
:1052B0008C0F883068F4C77081E090E001C0880FDF
:1052C000CA95EAF79091B502892B8093B502C0CFB9
:1052D000EBE5EC0FE33040F4F0E0E65CFE4F80815C
:1052E00090E0CF910C946C17E8E5EC0FE73150F4A7
:1052F000F0E0EE0FFF1FE35CFE4F80819181CF91C4
:105300000C945617CD3E70F08C2F0E948122CF91C5
:105310000C949E216C2F82E792E00E942F170E942E
:105320006B1BBFCFCF910895F999FECF92BD81BD80
:10533000F89A992780B50895A6E1B0E044E050E0DE
:105340000C94CE29A8E1B0E042E050E00C94CE29C4
:10535000262FF999FECF92BD81BDF89A019700B42E
:10536000021639F01FBA20BD0FB6F894FA9AF99ACE
:105370000FBE08950396272F0E94A9290E94A829ED
:10538000252F0E94A929242F0C94A9290196272FA3
:105390000E94A9290C94A829DC01CB01FC01F999F0
:1053A000FECF06C0F2BDE1BDF89A319600B40D9271
:1053B00041505040B8F7089587FB082E062687FD18
:1053C000819567FD61950E946B2A0EF4919507FC0B
:1053D00081950895AA1BBB1B51E107C0AA1FBB1FE3
:1053E000A617B70710F0A61BB70B881F991F5A9571
:1053F000A9F780959095BC01CD01089597FB072EE4
:1054000016F4009407D077FD09D00E94EA2907FC22
:1054100005D03EF4909581959F4F089570956195C4
:105420007F4F0895A1E21A2EAA1BBB1BFD010DC0E0
:10543000AA1FBB1FEE1FFF1FA217B307E407F50744
:1054400020F0A21BB30BE40BF50B661F771F881F20
:10545000991F1A9469F760957095809590959B01B6
:10546000AC01BD01CF010895EE0FFF1F0590F4912F
:10547000E02D09940E94422A332312F48A1B9B0BCD
:105480000C94532AA29FB001B39FC001A39F700D3B
:10549000811D1124911DB29F700D811D1124911D3C
:1054A00008950E94422AB7FF0895821B930B089526
:1054B0000E94422AA59F900DB49F900DA49F800D3D
:1054C000911D11240895B7FF0C94582A0E94582A60
:1054D000821B930B0895991B79E004C0991F9617BE
:1054E00008F0961B881F7A95C9F780950895FC01EE
:1054F0004150504030F001900616D1F73197CF015E
:105500000895882799270895FB01DC0104C08D9137
:105510000190801921F441505040C8F7881B990B25
:065520000895F894FFCF8E
:105526006611BD119E119A11961101038340000068
:105536000104400000010001191A1B1C1D1E1F203A
:105546002122010201969291F5F4F1020302000074
:1055560001000101010101000101818283E200E9EC
:1055660000EA00B500B600B700CD008301CC008A82
:105576000192019401210223022402250226022718
:10558600022A02B300B4006F00700000010202029A
:10559600020606060909090909090F0F0F0F0F0F61
:1055A600151515181919191919191919191923245D
:00000001FF
