:100000000C943D020C9475020C9475020C947502CC
:100010000C9475020C9475020C9475020C94750284
:100020000C9475020C9475020C94A5310C947D32DD
:100030000C945A310C9475020C9475020C94750250
:100040000C9475020C9475020C9475020C94750254
:100050000C9475020C9481310C9475020C94750209
:100060000C9475020C9475020C9475020C94750234
:100070000C9475020C9475020C9475020C94750224
:100080000C9475020C9475020C9475020C94750214
:100090000C9475020C9475020C9475020C94750204
:1000A0000C9475020C9475020C94750205010902FA
:1000B000A10185020901A1000509190129081500FE
:1000C0002501950875018102050109300931158165
:1000D000257F95027508810609381581257F9501D0
:1000E00075088106050C0A38021581257F95017572
:1000F000088106C0C005010980A101850319012AF4
:10010000B700150126B700950175108100C0050CD8
:100110000901A101850419012AA002150126A002E6
:10012000950175108100C005010906A1018506052C
:100130000719E029E71500250195087501810205D9
:1001400007190029EF1500250195F07501810205B9
:10015000081901290595057501910295017503910D
:1001600001C00660FF0961A1010962150026FF00B8
:100170009520750881020963150026FF00952075FA
:10018000089102C005010906A101050719E029E748
:1001900015002501950875018102950175088101F9
:1001A0000507190029FF150026FF0095067508812F
:1001B000000508190129051500250195057501910E
:1001C00002950175039101C00902BF00050100A05D
:1001D000FA090400000103010100092111010001D5
:1001E00022440007058103080001090401000203FD
:1001F00000000009211101000122220007058203ED
:100200002000010705030320000109040200010387
:1002100000000009211101000122B6000705840336
:10022000200001080B030201010000090403000083
:10023000010100000924010001090001040904046E
:10024000000201030000072401000141000624020E
:100250000101000624020202000924030103010235
:1002600001000924030204010101000905060240FE
:100270000005000005250101010905850240000572
:100280000000052501010312010002000000084DD5
:100290005909440100010200010C0359004D0044BA
:1002A000003000390000000A0359004D0044004BA3
:1002B000000000040309040F7114711A7111711602
:1002C000711B71137118711D710001010101010190
:1002D00001010102020202020202020203030303FD
:1002E00003030303040404040404040505050505CD
:1002F000060606060607070707070808080809098B
:1003000009090A0A0A0B0B0B0C0C0C0D0D0D0E0E35
:100310000E0F0F0F101011111112121313141415C8
:100320001516161717181819191A1A1B1B1C1D1D3C
:100330001E1E1F2020212222232424252626272892
:1003400029292A2B2C2D2D2E2F30313232333435C2
:10035000363738393A3B3C3D3E3F404142434445C5
:10036000464748494A4C4D4E4F50515354555658A4
:10037000595A5B5D5E5F616264656668696B6C6D4E
:100380006F7072737577787A7B7D7E8082838587C4
:10039000888A8C8E8F91939596989A9C9EA0A2A302
:1003A000A5A7A9ABADAFB1B3B5B7BABCBEC0C2C407
:1003B000C6C9CBCDCFD1D4D6D8DBDDDFE2E4E7E9C7
:1003C000EBEEF0F3F5F8FAFDFF000000000000008E
:1003D000000000000000000000000000000000001D
:1003E000000000000000000000000000007E0F0080
:1003F000D4FFFFFFC70000007800000000000000ED
:10040000002A2B280000000000000000000000006F
:100410000000000029000000002C1E3420212224AE
:10042000342627252E362D3738271E1F202122233C
:100430002425263333362E37381F040506070809CE
:100440000A0B0C0D0E0F1011121314151617181994
:100450001A1B1C1D2F3130232D35040506070809F2
:100460000A0B0C0D0E0F1011121314151617181974
:100470001A1B1C1D2F3130354C0011241FBECFEF2D
:10048000DAE0DEBFCDBF04B603FE18C08091500491
:1004900090915104A0915204B09153048730904B35
:1004A000A740B04B59F4109250041092510410928E
:1004B000520410925304E0E0F8E3099524E0A2EA24
:1004C000B1E001C01D92A035B207E1F711E0A0E054
:1004D000B1E0ECE9FAE602C005900D92A23AB1074C
:1004E000D9F70E9430290C94B0340C94000080930A
:1004F0000904089580930A04089521E030E001C0C2
:10050000220F8A95EAF780910A04822B0E947A02D0
:10051000089521E030E0A90102C0440F551F8A95DB
:10052000E2F7CA01809590910A0489230E947A0219
:100530000895482F9330A8F5833098F5292F30E09F
:10054000C901880F991F820F931F840F911D282FB7
:10055000277041E001C0440F2A95EAF773E09695B1
:1005600087957A95E1F7FC01EE0FFF1FE80FF91F61
:10057000EB51FC4F20E030E070E05191DF01CB0106
:10058000022E02C0969587950A94E2F781708195B4
:100590008527842385278E932F5F3F4F2330310596
:1005A00061F70895482F933090F5833080F5292F17
:1005B00030E0C901880F991F820F931F840F911D8E
:1005C000682F677073E0969587957A95E1F7FC013F
:1005D000EE0FFF1FE80FF91FEB51FC4F40E050E01A
:1005E00080E0219130E0062E02C0369527950A94CE
:1005F000E2F721703327042E01C0220F0A94EAF794
:10060000822B4F5F5F4F4330510559F7089580E0CB
:10061000089590910A0421E030E0F90101C0EE0F45
:100620008A95EAF7D90102C0AA0FBB1F6A95E2F7C3
:10063000EA2B01C0220F4A95EAF7892F8E23E8138F
:1006400005C0892F822B0E947A0208952095822F5F
:100650008923F9CF8091100490910F04981301C061
:1006600008958F5F8770FACF90910B04809589234E
:1006700080930B04282F277021110DC0891759F082
:1006800090910D0492FF07C08695869586950E94ED
:10069000890210920B0408958091060490910E0433
:1006A000892B50910704511591F0909121019115DA
:1006B00021F090910C0497FD0BC096E026EA31E002
:1006C00040E0915048F4411110920704852B0895A1
:1006D0009EE12EEA31E0F4CFF90161919F016115AD
:1006E00081F34F5FEECF982F909580910604892378
:1006F0008093060408959C01803E910509F448C04A
:10070000D8F48133910509F47DC048F4893291050C
:1007100009F46DC08A9709F47CC0C9010895893332
:10072000910551F18238910539F1C597B1F7809162
:100730000C0485FFF2CF29C0843E910509F447C01F
:1007400048F4823E910599F1833E9105A9F121EE8D
:1007500030E0E3CF863E910509F444C0873E910521
:10076000E1F680910C0483FD61C090910D0491FF2E
:100770002BC024EE30E0D1CF80910C048370811126
:1007800052C080910D0483FFC8CF29E230E0C5CF6D
:1007900080910C0480FD33C090910D0490FFBDCF7B
:1007A00023EE30E084FFB9CF20E030E0B6CF809177
:1007B0000C0482FDF5CFB1CF80910C0482FD30C0D6
:1007C00090910D0490FD2FC084FFA7CFEDCF8091B5
:1007D0000D0481FFA2CF80910C0427EE30E084FD50
:1007E000E3CF9BCF80910C0483FDF7CF96CF809110
:1007F0000C0485FD1EC080910D0483FF8ECF29E37C
:1008000030E08BCF80910C0486FF87CF2AE230E066
:1008100084CF80910C0486FF80CF21E330E07DCF30
:1008200022EE30E07ACF20EE30E077CF26EE30E0D7
:1008300074CF25E330E071CF90910C0492FF10C08B
:1008400041E0282F2471243009F040E031E0282FC6
:100850002871283009F030E0431711F02CE082278E
:1008600093FF10C041E0282F2471243109F040E0AB
:1008700031E0282F2871283109F030E0431711F0BA
:100880002CE0822730910D0430FF10C051E0282F5A
:100890002171213009F050E041E0282F28712830E3
:1008A00009F040E0541711F029E0822731FF10C011
:1008B00041E0282F2171213109F040E031E0282F5B
:1008C0002871283109F030E0431711F029E0822720
:1008D00094FD877E08951F93CF93DF930E947B033F
:1008E000EC01811522E5920708F055C0811540E51D
:1008F000940708F0D1C0803E910520F58D3C91050C
:1009000008F0A4C0883A910570F4853A910508F082
:100910009AC081309105D1F10497813A9105B0F1E7
:10092000C0E0D0E033C0885A91094B97C8F7C85A45
:10093000D0E0CC0FDD1FC559DE4F0990D881C02D06
:10094000D46424C0811550E49507C0F4C11580E239
:10095000D80708F0B7C0C83ED105C0F0CE019A95BF
:1009600081159F41E8F68D2F0E941C04182FCE019F
:1009700099270E947B03EC01D12B08C099270E9484
:100980007B03CC27DF70C82BD92BD06ACE01DF9137
:10099000CF911F910895803842E59407C8F58036BD
:1009A00052E5950708F05BC0C03482E5D807D0F463
:1009B000C03292E5D90708F04BC08C2F86958695FA
:1009C00020E2829FC0011124C37021E030E0A90120
:1009D00002C0440F551FCA95E2F7EA01C82BD92B74
:1009E000DD68D4CF8C2F86958695877050E2859FE1
:1009F000C0011124C37021E030E0A90102C0440FFE
:100A0000551FCA95E2F7EA01C82BD92BDC68BECF87
:100A1000803C52E5950758F48F71C03AD245A0F555
:100A200090E0982F8827EC01C46FD06AAFCF805C2C
:100A30009245809708F074CFDC2FCC27CC27DF714C
:100A4000C06FD06AA3CFA497D064A0CFD0659ECF4B
:100A5000CF71D0E0DC2FCC27C16FD06A97CF8695BD
:100A60008695877020E2829FC0011124C37021E027
:100A700030E0A90102C0440F551FCA95E2F7EA0110
:100A8000C82BD92BDA6882CF0E941C04C82FD0E073
:100A9000DC2FCC27D0627ACF8F710E941C0493E0A8
:100AA000CC0FDD1F9A95E1F7CC27DF70282F30E0BF
:100AB00084FF04C050E1859F90011124C22BD32BE9
:100AC000D06964CF8D2F8F710E941C04182FCE0126
:100AD00099270E947B03EC01D12BDCCF80E00895A5
:100AE000F894E82FE295EF70F0E041A18F7021E0DB
:100AF00030E0B90102C0660F771F8A95E2F7CB019B
:100B0000962F9095942391A392A1892B82A37894F8
:100B1000089508950895982F282F207F203D41F1B2
:100B200080F4203B31F038F4907E903811F0203A78
:100B3000D1F483E0089581E0203C09F080E0880F43
:100B40000895203EB1F3203F71F4833F89F020F4F3
:100B5000813F71F0823FECCF81E09D3F30F4983FC0
:100B600030F4963F21F080E008959E3FE0F3089531
:100B700082E00895A0E0B0E0E0ECF5E00C940833EA
:100B8000372FE82FF0E0E753FD4F71110AC0E491D1
:100B90008E2F2E2F6E2F722FCDB7DEB7E7E00C947D
:100BA0002433062F10E0E72EF12CD4902D2D86E073
:100BB000689FE0011124EFEFF0E0CE01BF010E9439
:100BC000C832000F111F45E5469FC001479F900D99
:100BD0001124081B190B402F440F400F8F010E19D1
:100BE0001F09D09ED001D19EB00D11248B2F349FB0
:100BF00080011124012F11277F01E01AF10A8701DA
:100C0000D09E7001D19EF00C11248F01041B11099C
:100C1000A801349F8001359F100D1124012F112749
:100C2000E01BF10BDE9EA001DF9E500D1124E52F8D
:100C300063307105C1F0CC3FD34058F46130710589
:100C4000B1F06230710509F0A5CFED2D2B2F852F66
:100C5000A1CF6430710571F06630710509F49ACF47
:100C6000EB2F8F2D97CF2B2F8D2DEF2D93CFED2D9C
:100C70002F2D90CFEB2F8D2D252F8CCF8091FE0324
:100C8000843038F48091FE03837084608093FE0387
:100C900008958830B8F708958091FE0380FD0AC05A
:100CA000E1E4F2E0118210821282339682E0EC35A8
:100CB000F807C1F769E070E081E492E00E94D61184
:100CC00008959C0180E090E0269F812D369F800D45
:100CD000911D11240895AC018230910508F4089506
:100CE0009FEF413E8EE1580740F4CA0125E09695FA
:100CF00087952A95E1F798E0980F61E0E62FE90FD4
:100D0000FF27FF1F9F0135952795822F229FF00116
:100D1000239FF00DF00D11244E175F0738F49FEF5D
:100D2000920F961758F78FEF860F08952F3FE9F32C
:100D300061E0620FF6CF409107015091080125E074
:100D400038E0429FC001439F900D529F900D1124A7
:100D5000875E994C9093080180930701890F08954D
:100D6000982FE82F96FDE0958E2F8F7096FD8F5F60
:100D7000E695E695E695E670F0E0EB5CFE4F2181A6
:100D8000289F202D812D112422952F708295807F00
:100D9000282B8081820F97FD819580580895FC0152
:100DA0009B01009719F4832F80780895AC0197FF79
:100DB00004C044275527481B590BB901640F751F00
:100DC00037FD0FC0C901841B950BA5E0880F991F43
:100DD000AA95E1F70E94DC3280E2861BF7FD81953F
:100DE0000895CB0165E0880F991F6A95E1F7BA0174
:100DF000621B730B0E94DC3280E6EFCF622F0895F6
:100E0000E42FF0E0EE0FFF1FE95BFE4F6185621BF0
:100E10000895E42FF0E0EE0FFF1FEF5AFE4F6081C0
:100E2000621B0895322F50E0FA01EE0FFF1FEF5AB8
:100E3000FE4F9081905297FD9195440F551FFA01F6
:100E4000E95BFE4F2185231B330B290F311D97FDD5
:100E50003A95620F0895EF920F931F9310E0980157
:100E6000220F331F200F311F359527956E2D620FEE
:100E70001F910F91EF9008950F93CF93DF93D72F8A
:100E8000C82FBA01C9010E94CF06682F600F7D2FBD
:100E90008C2FDF91CF910F910895EF920F93CF9305
:100EA000DF93D72FC82FBA01C9010E190E94CF06B0
:100EB000602F681B7D2F8C2FDF91CF910F91EF90CA
:100EC00008950F931F93522F10E0F801EE0FFF1FAC
:100ED000EF5AFE4FA081A052BB0B9D015203F001BF
:100EE000539FF00D1124000F111FD801A95BBE4FB5
:100EF00019962C912052330B4203D001439FB00D21
:100F000011249F012A0F3B1F37FF02C021583F4F7A
:100F1000220F232F221F330B620F1F910F91089571
:100F20000F931F93522F10E0F801EE0FFF1FEF5A9F
:100F3000FE4FA081A052BB0B9D015203F001539FB5
:100F4000F00D1124000F111FD801A95BBE4F199697
:100F50002C912052330B4203D001439FB00D11243A
:100F60009F012A0F3B1F37FF02C0215C3F4F96E0D5
:100F7000359527959A95E1F7620F1F910F91089586
:100F80000F931F93CF93DF93D62F072F182FC42FC4
:100F9000822F0E94B006982FEC2FF0E0EE0FFF1F7B
:100FA000E95BFE4F81858058980F97FD9195990FC9
:100FB000292F3CE0239F212D1124622F6D0F702FCC
:100FC000812FDF91CF911F910F910895E42FF0E0D1
:100FD000EE0FFF1FE95BFE4F9185921B97FD9195E8
:100FE000292F38E1239F212D1124620F089520918C
:100FF000FA0330E1230F08F42FEF60E1822F90E035
:101000000E946106BC0188EB9BE00E94C83280E030
:1010100090E008954095282F429F412D1124842F60
:101020000895409520E4429F412D1124640F0895B6
:10103000EF92FF920F93970195E0099F200D311DCC
:101040001124211591E0390710F02FEF30E02095A1
:10105000382F320F08F43FEF832F0F91FF90EF905E
:101060000895EF92FF920F93E00EF11CF90137FF04
:1010700003C0F195E195F10924E0EE0FFF1F2A95D9
:10108000E1F7E11531E0F30714F0EFEFF0E0DA01FA
:1010900057FF03C0B195A195B10994E0AA0FBB1FFA
:1010A0009A95E1F7AE17BF070CF4FD01EE0DFF1D99
:1010B000E11591E0F90710F0EFEFF0E02E2F209509
:1010C000382F320F08F43FEF832F0F91FF90EF90EE
:1010D0000895EF92FF920F93CF93DF93972FEA013A
:1010E000F901D701093430F4A01BB109A11521E0A1
:1010F000B20710F0AFEFB0E02896619740F0AF0173
:10110000485F5F4F4131510510F0AFEFB0E02A2F3B
:101110002095382F320F08F43FEF832FF7FD3396D9
:101120009F0135952795359527956091F703620FB7
:10113000792FDF91CF910F91FF90EF900895EF926B
:10114000FF920F939701201B3109211541E03407CD
:1011500010F02FEF30E0322F3095482F430F08F476
:101160004FEF842F620F0F91FF90EF900895EF9251
:10117000FF920F939701201B3109211591E0390748
:1011800010F02FEF30E02095382F320F08F43FEFAA
:10119000832F0F91FF90EF90089590915F02982B0D
:1011A00090935F0208950E948A0908950E94AE09F3
:1011B0000895880F92E0980F9A3008F099E008950A
:1011C000982F862F2091F6032370211589F0911511
:1011D00081F0923280F49F73990F990F2091F6035A
:1011E0002370922B9093F603109222010E94CD0857
:1011F000089591E0F1CF91E2EFCF8091F6038695CB
:1012000086958F5F823208F081E061E00E94E008FD
:1012100008958091F603869586958A9509F481E272
:1012200061E00E94E0080895982F822F2091F60334
:101230002370211541F09093F7036093F8034093D6
:10124000F9030E94CD080895E6EFF3E0818190E074
:1012500021E04381628108960E9414090895E6EF17
:10126000F3E0818121E0438162818850990B0E94E3
:1012700014090895E6EFF3E0628120E1620F08F4BB
:101280006FEF818121E0438190E00E94140908956D
:10129000E6EFF3E0628120E1621B08F460E0818107
:1012A00021E0438190E00E9414090895E6EFF3E005
:1012B000438120E1420F08F44FEF818121E06281F8
:1012C00090E00E9414090895E6EFF3E0438120E1E5
:1012D000421B08F440E0818121E0628190E00E949D
:1012E00014090895E6EFF3E0248130E1230F08F4B8
:1012F0002FEF248381E00E94CD080895E6EFF3E00C
:10130000248130E1231B08F420E0248381E00E9443
:10131000CD080895CF93DF93EC01FC01EE0FFF1F82
:10132000DF01AC0FBD1FA651BE4F11968C911197D6
:10133000861307C08C91841304C012968C91821777
:1013400051F081E080930502EC0FFD1FE651FE4F46
:10135000618340832283DF91CF910895FF920F93A1
:101360001F93CF93DF93182F062FF42EC0E0D0E009
:101370002F2D402F612FCE010E948A092196C9305E
:10138000D105B1F7CDB7DEB7E5E00C942633FA010D
:10139000811511F009950895FB01FCCF6A9A089513
:1013A0000E94CE09109205020895282F35EB2303E1
:1013B000C001112497FF04C080589109892F089516
:1013C00080589F4FFBCF8091ED0380FD14C081FDBD
:1013D00014C082FD16C08091EC03811581F08E311E
:1013E00080F420E5829FC00111246EE170E00E942C
:1013F000DC32862F089584E1089588E2089588E01C
:10140000089580E508958091ED0380FD17C081FD6A
:1014100017C082FD19C08091EB03811599F08832C5
:1014200098F428E0829FC001112468E270E00E94D5
:10143000DC326115710551F0862F089562E0FCCF12
:1014400064E0FACF61E0F8CF68E0F6CF81E008957C
:10145000E091DB03F091DC03309729F00190F081FB
:10146000E02D0995089580E00895A3E0B0E0EBE356
:10147000FAE00C940D339C018091E8019091E90110
:1014800082179307A1F03093E9012093E801E091DE
:10149000DB03F091DC03309751F083E089833B83D9
:1014A0002A830084F185E02DCE01019609952396CB
:1014B000E2E00C942933A3E0B0E0E1E6FAE00C941A
:1014C0000D339C018091E6019091E701821793070B
:1014D000A1F03093E7012093E601E091DB03F09166
:1014E000DC03309751F084E089833B832A830084B6
:1014F000F185E02DCE01019609952396E2E00C944A
:10150000293390912101911112C0A6EAB1E0EFEFC9
:1015100090E02D91821751F0EF3F19F4211101C095
:10152000E92F9F5F9630A9F7EF3FC9F40895909196
:101530000C0497FFEACFE82FE695E695E695803F05
:10154000A8F7F0E0E455FE4F877021E030E001C0DD
:10155000220F8A95EAF78281822B828308950E2ECC
:10156000000CFF0BEC55FE4FF8CF90912101911527
:1015700021F090910C0497FD0CC0E6EAF1E0919106
:10158000891302C0DF011E9251E0EC3AF507B9F76A
:101590000895E82FE695E695E695803FC8F7F0E0D8
:1015A000E455FE4F877021E030E0A90102C0440FEE
:1015B000551F8A95E2F7CA0180959281892382831B
:1015C00008952FB7F89480910A0290910B02A09190
:1015D0000C02B0910D022FBF08950E94E10A2091E4
:1015E000F0033091F103232B211521F08093C502E4
:1015F0009093C6022091F2033091F303232B21151F
:1016000021F08093C3029093C402E091DB03F09138
:10161000DC03309749F082E08093EE030680F78187
:10162000E02D8EEE93E009950895611509F44BC005
:10163000E3E3E80FE33150F4F0E0EE54FB4C0C949C
:10164000F0320E94E30981958093F1030E94ED0A34
:1016500008950E94E309F8CF0E94E30981958093E1
:10166000F003F4CF0E94E309FACF0E94030A8093AB
:10167000F203ECCF0E94030A8195F9CF0E94030A7E
:1016800081958093F303E2CF0E94030AFACF815D34
:10169000990B21E030E001C0220F8A95EAF7809192
:1016A000EF03822B8093EF03D1CF8091ED03816014
:1016B0008093ED03CBCF8091ED038260F9CF8091D1
:1016C000ED038460F5CF4091F0038D3C59F4809197
:1016D000F10387FF0DC01092F103411559F41092E8
:1016E000EC0308C08E3C81F48091F10318169CF342
:1016F000411581F08091F2039091F303892B8111C0
:10170000A5CF1092EB03A2CF8F3C41F447FFF0CF5F
:101710001092F0038091F1038115E0CF803D19F420
:101720001416B4F3E5CF9091F203893D29F419160C
:10173000FCF61092F203DCCF8A3D19F497FFD8CF64
:10174000F8CF9091F3038B3D29F497FFD1CF1092FE
:10175000F303CECF8C3D19F41916CCF3C9CF9FE219
:10176000980F983090F4815D990B21E030E0B90139
:1017700002C0660F771F8A95E2F7CB0180959091A2
:10178000EF0389238093EF03B3CF8D3D31F4809134
:10179000ED038E7F8093ED03ABCF8E3D21F48091DE
:1017A000ED038D7FF7CF8F3D09F0A2CF8091ED0340
:1017B0008B7FF0CF2FB7F89460910A0270910B02E3
:1017C00080910C0290910D022FBF08959C014FB79C
:1017D000F89480910A0290910B02A0910C02B091B2
:1017E0000D024FBF821B930B08958091E501089570
:1017F000FC019B018091DB019091DC01861797072A
:1018000040F0672B29F48091E8008E778093E80000
:10181000C90140E0009741F4411106C08091E80001
:1018200082FF2FC080E008952091B8032115A9F10F
:101830002530A9F12091E80023FD2DC02091E8007A
:1018400022FDECCF2091E80020FFE4CF3091F3009F
:101850002091F200009719F02830310558F041E04E
:101860002830310509F040E02091E8002E772093E0
:10187000E800D0CF41914093F10001972F5F3F4F97
:10188000E9CF8091B803811541F0853041F0809116
:10189000E80083FFC3CF81E0089582E0089583E0EC
:1018A00008958091D50187FF13C08091E80082FFE1
:1018B00006C08091E8008B778093E80008958091BE
:1018C000B8038111F2CF08958091B8038115D9F33F
:1018D0008091E80080FFF8CF8091E8008E77ECCF10
:1018E0002091E4003091E50095E6A9012091EC00FB
:1018F000822F817020FF06C08091E80080FF06C023
:1019000080E008952091E80022FD1AC08091B8037C
:10191000811589F0853089F08091EB0085FD0FC03D
:101920002091E4003091E50042175307F9F29A95AF
:10193000E1F684E0089582E0089583E0089581E06F
:101940000895E8EDF0E080818E7F80831092E200C0
:101950001092DA001092E100A0EEB0E08C9181606C
:101960008C9380818F77808319BCA7EDB0E08C9138
:101970008E7F8C9380818F7E80831092D401089516
:10198000EF92FF920F931F93CF937C018B010E94E4
:10199000700CC82F811117C08091E80085FD0BC025
:1019A0008091E8008B778093E8000E94700C81158D
:1019B00099F3C82F08C08091F100F70181937F014E
:1019C0000150104049F78C2FCF911F910F91FF903C
:1019D000EF900895A7E0B0E0E0EFFCE00C940A334C
:1019E0008C0108511F4F8091B803843009F064C006
:1019F00080911B018F708093E9008091E80082FF45
:101A00005BC08091E80085FF57C040E050E064E093
:101A100070E0CE0101960E94C00C8091E80085FD27
:101A200005C08091E8008B778093E800FA808F2DC5
:101A30000E948B05282FFD828B818E838C818F8362
:101A4000211108C0E981E450E43068F6F0E0E35C7D
:101A5000FE4F208130E0321730F6FE013596E30F5D
:101A6000F11DF0804FB7F894D8011196EC911197C1
:101A7000F0E0CF01019612966C9170E00E94DC328A
:101A8000D8015C915817190619F44FBF3F5FE3CF97
:101A900013968D919C911497E80FF91FF08211967F
:101AA0008C91119790E0019612966C9170E00E94D3
:101AB000DC32F8018183E9CF2796E5E00C942633E8
:101AC000EF92FF920F931F93CF937C018B010E94A3
:101AD000700CC82F811117C08091E80085FD0BC0E4
:101AE0008091E8008E778093E8000E94700C811549
:101AF00099F3C82F08C0F70181917F018093F1000D
:101B00000150104049F78C2FCF911F910F91FF90FA
:101B1000EF900895CF92DF92FF920F931F93CF9390
:101B2000DF9300D000D0CDB7DEB76B01142FF22EBB
:101B30004A832B830C83842F0E948B05811142C022
:101B400082E0C816D104C1F083E0C816D10479F050
:101B5000CA94CD2899F10F900F900F900F90DF91BC
:101B6000CF911F910F91FF90DF90CF90089517E0D4
:101B7000073F31F014E004C087EF16E0F812FACF07
:101B800019838091B803843031F7809116018F70EA
:101B90008093E90040E050E064E070E0CE010196FF
:101BA0000E94600D8111D7CF8091E80085FDD3CFD1
:101BB0008091E8008E778093E800CDCF173FD1F673
:101BC00015E0DECF12951F70DBCFA3E0B0E0EBEEA7
:101BD000FDE00C9407337C01162FD42EC22E809189
:101BE000EC02843069F5E091E102F091E202309775
:101BF000B9F1970121503109C90163E070E00E94F9
:101C0000C832B901681B790B19834A83CB824E2DE8
:101C1000461B9E012F5F3F4F87EC92E00995E091B4
:101C2000E502F091E602309739F00C2D2D2D412F71
:101C3000B70187EC92E009952396E8E00C942333F2
:101C400082E0E816F10409F454C083E0E816F104D8
:101C5000A9F081E0E816F10409F47AC0E12CF12C36
:101C6000E091E302F091E4023097C9F20C2D2D2DA2
:101C7000412FB70187EC92E00995D1CF862F807F65
:101C8000803B19F188F4803929F1803A41F1E091E3
:101C9000CD02F091CE02803819F7309709F32C2D40
:101CA0004D2D612F6F700DC0803EF1F0803FC1F669
:101CB000623FB1F6E091D302F091D40262EF309727
:101CC00079F287EC92E00995AACFE091C902F091F0
:101CD000CA02E3CFE091CB02F091CC02DECFE091DB
:101CE000CF02F091D002D9CFE091D102F091D2028F
:101CF000D4CF862F807F803D81F0803F99F0E091A6
:101D0000D502F091D602803C09F0AACF309709F4B1
:101D1000A7CF4D2D612F6F7017C0E091D702F091C2
:101D2000D802F4CFE091D902F091DA02633F39F0A2
:101D3000613F09F095CFE091DB02F091DC024D2D7F
:101D4000612F309709F48CCF87EC92E0099567CF2B
:101D5000E091DD02F091DE02683F38F4663F09F061
:101D60007FCFE091DF02F091E002309709F478CF65
:101D7000612F87EC92E0099552CFA0E0B0E0E3EC50
:101D8000FEE00C9401333C01809104010E94D908CB
:101D9000C82F192F6091FA03669580913D029091AA
:101DA0003E020E946106F82ED0E0CE01880F991FF6
:101DB0009C01295B3E4F69011C1709F048F481E042
:101DC000193008F080E0CDB7DEB7EEE00C941D339B
:101DD000FE01E95BFE4F838D9091050189238115FA
:101DE00079F1F6018185282F2052330B5901828524
:101DF000E82FE052FF0B4F01AA9C9001AB9C300DE5
:101E0000300D1124EE9FC001EF9F900D900D112415
:101E1000820F931F0E946B06082F6091F703709149
:101E2000F8038091F903EF2C9401A501F3010995C2
:101E30000E94BA05462F672F282FCE010E94D30893
:101E4000F2E0CF0ED11C2196B7CFA4E0B0E0EBE2D8
:101E5000FFE00C9407336C01809104010E94D908C3
:101E60008B83F92E6091FA036695669580913D0209
:101E700090913E020E946106182F80E4810F0E941B
:101E8000B00680588983812F0E94B00680588A83CB
:101E90009B81892F90E09C838B839B819F1548F0C9
:101EA00081E0E9E0FE1608F080E02496E8E00C947A
:101EB0002333EB81FC81E95BFE4F838D909105011B
:101EC00089238115A9F06091F7037091F80380913F
:101ED000F903E12E0B812A814981F60109950E94BF
:101EE000BA05462F672F282F8B819C810E94D3082B
:101EF0008B819C810196CFCFA0E0B0E0E2E8FFE0CB
:101F00000C940833EC01FC01E95BFE4F838D90914A
:101F100005018923811549F1D090F8030091F90357
:101F20001091F703E12EF12C0E949B06482FC70168
:101F30008C549F4F68E671E00E94DC328E199F0935
:101F400097FD039695958795959587954370612F95
:101F5000489F600D11247D2D802F0E94BA05462FC9
:101F6000672F282FCE010E94D308CDB7DEB7E7E058
:101F70000C9424331F93CF93DF93EC01FC01E95BB6
:101F8000FE4F838D9091050189238115B1F00E9448
:101F90009B06182F0E949B0620E8829FC0011124F7
:101FA0007FE7790F612F8091F9030E94BA05462FD0
:101FB000672F282FCE010E94D308DF91CF911F9168
:101FC0000895EF92FF920F931F93CF93DF937C01BD
:101FD000809104010E94D908C82F192F6091FA033B
:101FE0006695669521E0620F08F46FEF80913D02DF
:101FF00090913E020E946106082FD0E0C11748F080
:1020000081E0193008F080E0CDB7DEB7E6E00C944F
:102010002533FE01E95BFE4F838D909105018923F5
:10202000811591F06091F7037091F8038091F903A5
:10203000202F4C2FF70109950E94BA05462F672FD4
:10204000282FCE010E94D3082196D8CFA0E0B0E07F
:10205000ECE2F0E10C9404337C01809104010E94D5
:10206000D908C82FB92E2091FA0331E0230F08F4C4
:102070002FEF30E040E050E06FEF7FEF80E090E046
:102080000E944D346901D0E0A22E9D2C2C2FCB153F
:1020900050F081E0F9E0BF1608F080E0CDB7DEB780
:1020A000EBE00C942033FE01E95BFE4F838D9091B1
:1020B00005018923811521F1809160028150082E4C
:1020C000000C990B87FF1EC00A2D192D6091FA0391
:1020D00021E0620F08F46FEFC8010E946106AC01B5
:1020E0006091F7037091F8038091F903F701099566
:1020F0000E94BA05462F672F282FCE010E94D308D1
:102100002196C4CFFC01E05AFD4F318932130AC039
:10211000FC01EE0FFF1FE05AFD4F018D128D0C15D3
:102120001D05A0F20197CECFA8E0B0E0EAE9F0E10A
:102130000C94FD32282E6A837B83809104010E94D7
:10214000D9089983209160022C83E82FF0E0F8876A
:10215000EF83CF01880F991F9C01295B3E4F6901D6
:10216000822D90E0FC013196FE83ED838F81998171
:10217000891740F081E0993008F080E02896E2E18C
:102180000C941933EF81F885E95BFE4F838D9091B4
:10219000050189238115F1F04090F7035090F80371
:1021A0002D813E81205A3D4F3901322C10E0FC81B7
:1021B0003F16D0F02091F903129F112D1124B20186
:1021C000812F0E94BA05462F672F282F8F8198856F
:1021D0000E94D3082F8138852F5F3F4F38872F8388
:1021E00032E0C30ED11CC2CFF30181913F01F60151
:1021F000A184A81ABB088284F3018781881A9908F0
:10220000AA9C9001AB9C300D300D1124889CC0011C
:10221000899C900D900D1124820F931F0E946B06D4
:10222000082F6091FA0321E0620F08F46FEFF301C9
:10223000EE0FFF1FE056F240858996890E946106E5
:102240007C019401A501B201812FEA81FB810995EE
:102250002B01182F3394ABCF982F9093E900891757
:1022600071F07091EC002091ED005091F00021FD93
:1022700009C09F5F973089F78093E9000895762F12
:10228000242F50E03091EB003E7F3093EB003091F3
:10229000ED003D7F3093ED003091EB0031603093E5
:1022A000EB007093EC002093ED005093F000209130
:1022B000EE0027FDDECF0895A0E0B0E0E2E6F1E118
:1022C0000C940733C8EDD0E088818F7E8883E7EDDA
:1022D000F0E080818160808384E082BF81E0809330
:1022E000D40188818E7F888302EE10E0F80110828D
:1022F0001092DA0081EEC82ED12CF601108288816E
:102300008F77888388818068888388818F7D8883A0
:1023100019BC1092B8031092D30110928C02109243
:10232000D20190EEE92EF12CF70180818B7F808322
:1023300088818160888342E060E080E00E942C1107
:10234000F60180818E7F8083F801808181608083A7
:10235000808188608083F70180818E7F808388817F
:1023600080618883CDB7DEB7E8E00C942333E09139
:10237000100490910F0427E0E91302C080E0089553
:10238000AE2FB0E02E9FF0011124EF5EFB4F3181A4
:10239000361306C03081381303C03581341304C0AE
:1023A000FD013196E770E8CF81E008959C01FB01C3
:1023B0004EB14B7F5EB154606FB7F894CF01880F78
:1023C000991F8E0F9F1F820F931F2817390741F403
:1023D0006FBF8FE594E00197F1F700C0000008950A
:1023E000F90171919F01E8E05EB9000000C077FF3C
:1023F0004EB9770F000000C000C000C04EB900C049
:10240000EA9591F7E2CF80910502811541F069E0EC
:1024100070E08AEE91E00E94D611109205020895B4
:1024200081E08093E00080E28093D8001092C900A0
:102430008FE19EE40197F1F700C0000087E090EB88
:10244000DC018093500490935104A0935204B09304
:10245000530488E19CE00FB6F894A895809360003F
:102460000FBE90936000FFCF282FCB01BA013091AF
:10247000B8033430D1F42093E9002FEF3091E80015
:1024800035FD06C035ED3A95F1F700002A95B1F714
:102490002091E80025FF09C040E050E00E94600D57
:1024A0008091E8008E778093E8000895CF93DF93C2
:1024B000D82FC92F48E050E0682F792F81E00E9483
:1024C000341288E0ED2FFC2FADEDB1E001900D92BC
:1024D0008A95E1F7DF91CF910895BC0140E250E089
:1024E00084E00E9434120895BC0146E050E084E08C
:1024F0000E9434120895BC0143E050E084E00E9441
:102500003412089590910D0492FB222720F9281788
:1025100079F080FB92F990930D0460910C04709116
:102520000D0484E090E00E94473482E00E9434036E
:1025300008951F93CF93DF93962F122F632F81114E
:1025400016C09330A0F4433090F4C42FD0E0CC0FE9
:10255000DD1F86E0989FC00DD11D1124CE01889605
:102560000E942934612FCE0189960E942934DF917F
:10257000CF911F910895EF92FF920F931F93CF93E6
:10258000DF9387EBE82E82E0F82ED0E08701C0E0F1
:10259000F801259135914C2F6D2F80E00E94991202
:1025A0000E5F1F4FCF5FC33099F786E0E80EF11C36
:1025B000DF5FD33059F7CDB7DEB7E6E00C942533B3
:1025C000CF93DF93CAE3D0E060E0CE010E942934CC
:1025D0002196C11584E0D807B9F7DF91CF9108950E
:1025E000CF93C82F64E2811101C06FEF84E290E0C5
:1025F0000E94293460E1C11101C06FEF85E290E0D3
:102600000E94293465E1C11101C06FEF86E290E0BC
:102610000E942934CF91089580E00E94F01260E07A
:1026200087E290E00E9429340E94BB120E94E012CF
:1026300081E00E94F01208950F931F93CF93DF93D0
:10264000811121C06330F8F44330E8F4C42FD0E0A6
:10265000CC0FDD1F26E0629FC00DD11D1124CE01DD
:1026600088960E940534082F10E0102F0027CE0115
:1026700089960E9405349801282BC901DF91CF91DA
:102680001F910F91089580E090E0F8CF462F672FBB
:10269000733038F4433028F4811103C00E941C13B6
:1026A000089580E090E00895CF93DF93FC01858149
:1026B000C081D181811569F0611559F060E0CE01CA
:1026C0000E94990280E0BE010E944613DF91CF91E3
:1026D0000895CE010E94D202F6CFBC0180E00E9494
:1026E00046130E946B040895FC0184818115A1F0BA
:1026F000808191810E946D13282F92959F70963052
:1027000099F060F4925F9F70923030F4203FB1F006
:1027100038F481E0283E38F080E008959A5FF3CFE6
:1027200081E0243FC9F7089591E0213F09F090E04E
:1027300081E0283E08F080E0892B089581E008952B
:1027400084E290E00E940534843289F485E290E0CE
:102750000E940534803159F486E290E00E940534ED
:1027600091E0853109F090E0892F8170089580E033
:10277000FCCF80912101811559F180910C0487FFD4
:1027800027C00E944C038093AD0140E250E06BEB08
:1027900073E08CEA91E00E94C633892BC1F080E29D
:1027A000ECEAF1E0ABEBB3E001900D928A95E1F732
:1027B000E091DB03F091DC03309749F086E08093F1
:1027C000AC010480F581E02D8CEA91E00995089533
:1027D0000E944C038093A40148E050E06DED73E04B
:1027E00084EA91E00E94C633892B89F388E0E4EA09
:1027F000F1E0ADEDB3E001900D928A95E1F7E09143
:10280000DB03F091DC03309711F30280F381E02DBC
:1028100084EA91E0DBCFCF93C82F8115C9F08238CD
:10282000C9F40E94280A81FD13C089E30E94810A2D
:102830000E94B9132FEF37EE83E0215030408040E3
:10284000E1F700C0000089E30E94B50A0E94B913B5
:10285000CF9108958338A1F40E94280A80FDF8CF13
:1028600083E50E94810A0E94B9139FEF21EE34E0B4
:10287000915020403040E1F700C0000083E5E4CFF4
:102880008438A1F40E94280A82FDE2CF87E40E94E6
:10289000810A0E94B9138FEF91EE24E0815090409D
:1028A0002040E1F700C0000087E4CECF8CEF8C0F12
:1028B000813A90F58091210181110EC0E6EAF1E0A4
:1028C0008CEA91E02191C21709F18E179F07D1F789
:1028D0008C2F0E94810ABACF80910C0487FFEECF23
:1028E000EC2FE695E695E695F0E0E455FE4F828103
:1028F00090E04C2F477021E030E002C0220F331FE0
:102900004A95E2F782239323892B11F38C2F0E949F
:10291000B50A0E94B913DCCF80E28C0F883068F4CE
:10292000C77081E090E001C0880FCA95EAF7C091B6
:102930000604C82BC093060489CF8BE58C0F833027
:1029400038F42C2F2452330BC9010E94350A80CF52
:10295000E8E5EC0FEB3150F4F0E0EE0FFF1FE55926
:10296000FE4F808191810E945B0A72CF83E38C0FBE
:10297000833108F06DCF61E08C2F0E94150B68CF7A
:10298000811509F456C0823879F40E94280A81FF23
:1029900050C089E30E94810A0E94B91389E30E9412
:1029A000B50A0E94B9130895833859F40E94280A81
:1029B00080FF3FC083E50E94810A0E94B91383E52E
:1029C000EECF843859F40E94280A82FF32C087E48F
:1029D0000E94810A0E94B91387E4E1CF9CEF980F0F
:1029E000913AE8F290E2980F983050F4877091E0B5
:1029F00001C0990F8A95EAF7892F0E947303D1CFFE
:102A00009BE5980F933028F480E090E00E94350A0F
:102A1000089598E5980F9B3128F480E090E00E949B
:102A20005B0A089593E3980F933118F460E00E94D5
:102A3000150B08950F931F93CF93C82F8B010E94FE
:102A40000B140115110539F48C2F0E94C014CF917D
:102A50001F910F9108958FE99FE00197F1F700C052
:102A6000000001501109EDCF811539F09091060455
:102A7000892B809306040E94B9130895811521F0D3
:102A80000E9473030E94B9130895FF920F931F933E
:102A9000CF93DF93C62FD42F122F8115A9F0609307
:102AA000F4030E94E10A9093D0018093CF01C77094
:102AB00081E001C0880FCA95EAF70E943415CDB7AE
:102AC000DEB7E5E00C9426338091F403681332C03E
:102AD0008091CF019091D0010E94E60B883C910536
:102AE00048F500E20D0FCD17A9F0C770FF24F3944D
:102AF0008F2D01C0880FCA95EAF70E943E15083055
:102B000048F48D2F877001C0FF0C8A95EAF78F2D4E
:102B10000E94341560E070E0812F0E941A15083081
:102B200070F6D77081E001C0880FDA95EAF70E944D
:102B30003E15C5CFC77081E001C0880FCA95EAF77E
:102B4000F6CF1092060480912101811539F1809110
:102B50000C0487FF23C0EEEAF1E08EE1DF011D9255
:102B60008A95E9F780E090E00E94350A80E090E0E5
:102B70000E945B0A10920E040E94B91386E0EEEEEA
:102B8000F3E0DF011D928A95E9F71092EC031092B1
:102B9000EB031092ED030E94ED0A0895E6EAF1E0DE
:102BA00086E0DCCF0E94A1152FEF84E39CE021504A
:102BB00080409040E1F700C0000088E19CE00FB643
:102BC000F894A895809360000FBE90936000FFCFAB
:102BD000AAE2B0E0EEEEF5E10C940C3385ED91E065
:102BE000FC0101962091F100208321E08D3D9207A8
:102BF000B9F78091D601893009F456C0C8F4823003
:102C000009F4B3C0833009F482C0813071F180913E
:102C1000E80083FFE7C08091D5019091D6019A30FA
:102C200008F0E0C0E92FF0E0EB53FB4C0C94F032DD
:102C30008A3009F489C08B3051F78091D5018132F7
:102C400031F78091D9019091DA01892B01F78091B8
:102C5000E800877F8093E8000E94510C8091D701A3
:102C6000809321010E94A115D2CF8091D501813A94
:102C700071F68091E800877F8093E8008091D90108
:102C80009091DA01892B61F060E080E090E070E0E3
:102C90000E94F80B8091E8008B778093E800B7CF13
:102CA00068E08DED91E0F3CF8091D501813209F09C
:102CB000AECF8091D9019091DA018D7F892B09F0F7
:102CC000A6CF8091E800877F8093E8008091E8009C
:102CD00082FF18C09091F3008091F200029731F4C6
:102CE0008091F100813011F0863021F48091F10063
:102CF0008093E5018091E8008B778093E8000E9443
:102D0000510C85CF8091B8038111E0CF80CF8091A5
:102D1000D501813A09F07BCF8091D9019091DA01F8
:102D2000892B09F074CF8091E800877F8093E800B9
:102D30008091E80080FFFCCF809121018093F10019
:102D40008091E8008E77D9CF8091D501813209F04A
:102D50005ECF8091E800877F8093E8000E94510C4D
:102D60008091D8018093D10152CF8091D501813AD1
:102D700009F04DCF8091E800877F8093E800809133
:102D8000E80080FFFCCF8091D101D8CF803889F056
:102D9000823841F58091D9018F70873018F5809382
:102DA000E9008091EB0085FB882780F91092E9000B
:102DB00006C080918C02880F9091D201892B90914E
:102DC000E800977F9093E8008093F1001092F10063
:102DD0008091E8008E7723C0811116C08091D701C1
:102DE000813011F18091E80083FF0AC08091E800F2
:102DF000877F8093E8008091EB0080628093EB00F6
:102E0000AA96E3E00C942833823061F78091D701D1
:102E1000811589F01092E9008091E800877F809306
:102E2000E8000E94510CDECF81E0933009F080E091
:102E300080938C02EFCF8091D9018F702FEF280FF4
:102E4000263080F68093E9002091EB0020FFE2CF4E
:102E5000933031F48091EB0080628093EB00DACF05
:102E60009091EB0090619093EB0021E030E0A9019C
:102E700002C0440F551F8A95E2F74093EA00109272
:102E8000EA008091EB008860E8CF8111ABCF109110
:102E9000D7011F778091E3008078812B8093E30036
:102EA0008091E800877F8093E8000E94510C809118
:102EB000E80080FFFCCF8091E30080688093E3000E
:102EC00083E0111101C082E08093B8038BCF80585A
:102ED000823008F087CF8091D7019091D8018C3D46
:102EE00053E0950799F583E08A838AE289834FB797
:102EF000F894DE01139620E03EE051E2E32FF0E08B
:102F000050935700849120FF03C082958F703F5FDC
:102F10008F708A30C8F0895C90E08D939D932F5F0D
:102F2000243161F74FBF8091E800877F8093E800EC
:102F30006AE270E0CE0101960E94F80B8091E800F1
:102F40008B778093E8004ECF805DE6CF292F332723
:102F50002330310509F44DC078F52130310509F4ED
:102F60007CC08FEB90E0E8ECF1E02230310509F015
:102F700039CF2091E800277F2093E8002091DB01E2
:102F80003091DC018217930708F49C0140E0211581
:102F9000310509F067C0411165C08091E80082FDEC
:102FA000CDCF8091B803811549F2853039F28091F7
:102FB000E80083FFF2CFC2CF8091D9019091DA016E
:102FC00021323105D9F12232310509F00BCF83309E
:102FD000910508F007CFFC01EE0FFF1FE75DFE4FE4
:102FE0000190F081E02D8A5D9E4FDC018C9190E094
:102FF00011C09C013327813089F022303105B1F0B6
:10300000232B09F0EFCEE3EBF2E0E4918E2F90E07A
:10301000E3EBF2E0009709F4E5CEABCFE7EAF2E0AC
:10302000E4918E2F90E0E7EAF2E0F4CFE9E9F2E0F4
:10303000E4918E2F90E0E9E9F2E0ECCF8330910546
:1030400008F0D0CEFC01EE0FFF1FE15DFE4F0190B6
:10305000F081E02D89E090E08CCF82E190E0E7E81C
:10306000F2E087CF8091B803811509F467CF8530EE
:1030700009F464CF8091E80083FD60CF8091E8007F
:1030800082FD8BCF8091E80080FF81CF9091F3008B
:103090008091F2002115310519F08830910550F02A
:1030A00041E0089709F040E08091E8008E77809336
:1030B000E8006DCF44914093F100319621503109E1
:1030C0000196E8CF803809F08DCE8091E800877FA7
:1030D0008093E8008091D3018093F10079CE811133
:1030E00081CE1091D701123008F07CCE8091E8009B
:1030F000877F8093E8001093D3010E94510C111533
:1031000021F184E08093B80342E061EC81E00E9409
:103110002C1142E261EC84E00E942C1142E261EC4D
:1031200082E00E942C1142E260EC83E00E942C11AC
:1031300042E361E885E00E942C1142E360E886E00A
:103140000E942C118091B8034DCE8091E30087FD41
:10315000D8CF81E0D7CFA3E0B0E0E1EBF8E10C9469
:103160000233FE01319683E0DF011D928A95E9F773
:1031700081E4A82E81E0B82E992493947E2E8F2E80
:10318000EE24E394F12C27E4C22E21E0D22EF501A7
:1031900081915F018F3F09F442C0F894E82FE295D6
:1031A000EF70F0E021A18F70A70102C0440F551FFE
:1031B0008A95E2F7CA01922F982B91A392A180954C
:1031C000892382A3789400C0E4E4F1E0072D182D50
:1031D000492D40959191D8018D918D019F3F09F422
:1031E00045C0A92FA295AF70A05EB0E02C9130E051
:1031F0009F7002C0359527959A95E2F720FD36C05D
:103200008929D8018E93CE16DF0621F7F501829128
:103210008F3F11F00E947005B0EABA95F1F7990C52
:10322000E4E4AE16E1E0BE0609F0B1CF43E050E0C1
:10323000672D782D8CE592E00E94C633892BC1F072
:1032400089819A81AB8180935C0290935D02A09307
:103250005E0281E08093CE010E94E10A9093CD014D
:103260008093CC012396EDE00C941E338423C9CFC8
:103270008091CE018115B1F38091CC019091CD0167
:103280000E94E60B059770F343E050E06CE572E0B6
:1032900085EB93E00E94C633892B61F080915C023C
:1032A00090915D02A0915E028093B5039093B60366
:1032B000A093B7031092CE01D5CFA0E0B0E0E3E633
:1032C000F9E10C9407338901D42FC52F6B017C01E0
:1032D0000E943E06A8016D2F7C2F88E090E00E949E
:1032E0003B3498014D2F5C2FB601C70100E20E94CC
:1032F0004F33622F83E290E00E942934CDB7DEB7CE
:10330000E8E00C94233380910204833018F48F5F3B
:10331000809302042091FE033091FF03409100044A
:10332000509101046091020470910304809104049F
:10333000909105040E945D19089580910204811501
:1033400019F08150809302042091FE033091FF0315
:1033500040910004509101046091020470910304B3
:1033600080910404909105040E945D1908950F93C3
:103370001F93CF93DF93182FD62FC42F022F809146
:10338000FE0380FF2FC08C7F8430A9F4612F7D2F36
:10339000842F0E94BA059091FE0390FF0CC0E1E4D7
:1033A000F2E0718360838283339692E0EC35F90713
:1033B000C1F70E944C061093FF03D0930004C09302
:1033C0000104011579F02091FE03609102047091CF
:1033D0000304312F4D2F5C2F80910404909105043C
:1033E0000E945D19DF91CF911F910F910895209157
:1033F000FE0320FF1FC0237024602093FE0361158D
:1034000081F03091FF0340910004509101046091DC
:1034100002047091030480910404909105040E94B9
:103420005D1920E040910104609100048091FF0348
:103430000E94B7190895A8E0B0E0E1E2FAE10C9427
:10344000FD325C01FC018481811509F4A9C061E0B1
:10345000C5010E9454138C01F5018581811509F481
:1034600040C1980137572038310508F0A6C5003112
:1034700008F086C08FEF93E00E940534811180C070
:103480004AE3E42EF12C01114FC0CE0101964C010C
:1034900088E0F40111928A95E9F73AE0332E87012A
:1034A0000F5F1F4FC7010E94053489831A8281155F
:1034B00009F466C0813009F077C06701F2E0CF0EF1
:1034C000D11CC8010E9405348A83811509F458C0B3
:1034D0009FEF980F9330B8F523E0E20EF11CC60180
:1034E0000E9405348B83811509F44AC01C82840133
:1034F000F8012081211599F2213009F096C08181CF
:10350000813009F053C06801F2E0CF0ED11CF80100
:10351000828160E5893309F060E070E00E941A154D
:1035200086010F5F1F4FE4CFE114F4E0FF0641F185
:10353000C7010E94053497012F5F3F4F7901811128
:10354000F3CF0150A0CF8430A1F402E010E0C60117
:103550003FEFC31AD30A0E940534F401E00FF11FB4
:103560008083811569F08C3731F4FE01E00FF11F83
:1035700012827601BCCF0F5F1F4F0730110539F75C
:1035800080910B048770811559F0F50185818115B3
:1035900039F080910D0482FF03C082E00E94340361
:1035A0002896E2E10C9419337801A1CF823049F4D6
:1035B0006801F2E0CF0ED11CF80182810E940B1449
:1035C000AFCF833049F46801F2E0CF0ED11CF8018F
:1035D00082810E94C014A4CF843019F00F5F1F4F66
:1035E000A0CF22810E5F1F4F80E090E0A8014F5FC7
:1035F0005F4F2053330B2A30310558F0009709F400
:1036000090CFEFE9FFE03197F1F700C0000001979C
:10361000F5CF389EB001399E700D1124C901860F77
:10362000971FF80121818A01E1CFE22FF0E0E750F6
:10363000FC4F2490822F86958695869590E0FC011C
:10364000E751FC4FE4912770F0E0022E02C0F5959F
:10365000E7950A94E2F7E1704E2E5524FC01E752FB
:10366000FC4FE491F0E0022E02C0F595E7950A9434
:10367000E2F7E1706E2E7724FC01E753FC4FC49013
:10368000D12C02C0D594C7942A95E2F7C0FACC2475
:10369000DD24C0F84114510419F081EE0E940B148E
:1036A0006114710419F086EE0E940B1460E070E062
:1036B000822D0E941A156114710419F086EE0E9481
:1036C000C0144114510419F081EE0E94C014C114B9
:1036D000D10409F426CF60E070E08CE20E941A1554
:1036E00020CFF801E851FC47E730F10508F040C46D
:1036F000E153FB4C0C94F03226E241EE61EE0E9465
:1037000045153ECF27E245EE65EEF9CF26E241EEC4
:1037100060EEF5CF27E245EE64EEF1CF26E241EE12
:1037200062EEEDCF27E245EE66EEE9CF28E241E01A
:10373000EBCF80910C04816080930C0460910C04A9
:1037400070910D0484E090E00E9447340E94A1151E
:1037500017CF80910D04886080930D04EFCF809186
:103760000C048260E9CF80910C048460E5CF8091E5
:103770000C048860E1CF80910D048160EDCF8091D1
:103780000D048260E9CF80910C048061D5CF8091D7
:103790000C048062D1CF80910C048064CDCF0E9454
:1037A000A11580910C048068C7CF80910C048C60B7
:1037B000C3CF80910D048360CFCF80910C048E7FA6
:1037C000BBCF80910D04877FC7CF80910C048D7F84
:1037D000B3CF80910C048B7FAFCF80910C04877F97
:1037E000ABCF80910D048E7FB7CF80910D048D7F7C
:1037F000B3CF80910C048F7E9FCF80910C048F7D7E
:103800009BCF80910C048F7B97CF0E94A115809154
:103810000C048F7791CF80910C04837F8DCF8091A2
:103820000D048C7F99CF80910C04992782FF93958A
:1038300090FB82F990FB83F97FCF80910D04982F44
:10384000909590FB80F990FB81F986CF90910C04C4
:10385000892F8F7B96FF80646FCF0E94A115909176
:103860000C04892F97FB87F9805866CF61E08EE0C2
:1038700090E00E94293462CF60E0F9CF90910C046F
:10388000892F8F7E94FF806157CF90910C04892FF0
:103890008E7F90FF816050CF90910D04892F877F9C
:1038A00093FF886059CF89E283C389E26CC390910A
:1038B00006049272F92EF801E052F847E531F1055D
:1038C00008F0CEC0EA52FB4C0C94F0320737FCE70C
:1038D0001F0709F0CAC081E00E947D0243E062E058
:1038E00081E00E9409034CCE8091FE0380FF22C03C
:1038F000282F2E7F2093FE033091FF034091000478
:1039000050910104609102047091030480910404B9
:10391000909105040E945D190E944C068091F60367
:1039200091E089278093F6031092220181E00E94A2
:10393000CD0826CE81608093FE0361E08695869552
:103940000E94F719EBCF47E352E262E372E2892F5C
:103950000E94C70949E059E06DEF78E08F2D0E9481
:10396000C7090ECE42E352E267E372E2892F0E945A
:10397000C7094DEF58E069E079E0F0CF4CE452E23E
:1039800062E472E2892F0E94C7094FE259E064E2C3
:1039900079E0E4CF42E452E26CE472E2892F0E94C3
:1039A000C70944E259E06FE279E0D8CF43E652E23A
:1039B00066E572E2892F0E94C70948E459E06AE38C
:1039C00079E0CCCF46E552E263E672E2892F0E94AD
:1039D000C7094AE359E068E479E0C0CF4DE752E215
:1039E00060E772E2892F0E94C70944E659E066E564
:1039F00079E0B4CF40E752E26DE772E2892F0E948E
:103A0000C70946E559E064E679E0A8CF4DE959E1F8
:103A100063E879E1892F0E94C7094EE759E062E720
:103A200079E09CCF43E859E16DE979E1892F0E9463
:103A3000C70942E759E06EE779E090CF61E081E0A5
:103A40000E94F71961E081E00E94E00899CD61E0F1
:103A500082E0FACF61E084E0F7CF61E088E0F4CF64
:103A600007372CE7120709F465C008373CE713074E
:103A700009F464C08115A9F00A358CE7180709F428
:103A800089C008F061C00130ECE71E0709F480C06E
:103A90000330FCE71F0709F475C001151C4709F442
:103AA00064C0F501858100811181811509F476C01A
:103AB00060E0C8010E94990280E0B8010E944613AC
:103AC0000E946B048C01F501D580C680C2942FE062
:103AD000C22280910B048770811501F1ED2CD11465
:103AE000F1F0812F807F803461F080E2800F883098
:103AF000A8F0812F807E803221F4023078F0C1144A
:103B000069F080910D0482FF09C082E00E943403B5
:103B100080910B048770EE24E3948111E12CE12F56
:103B2000E295EF70103C08F0A3C0F0E0E551FB4CCB
:103B30000C94F03281E00E948902D0CE811511F000
:103B400082E0CACE82E0F7CF0B353CE7130721F1C4
:103B50000C351C4709F0A5CF80910D04002482FF8D
:103B60000394802D0E9482129CCF0E94A1159FEF8A
:103B7000E4E3FCE09150E040F040E1F700C00000D9
:103B80000E9410126FEF7FEF80E090E00E944734B8
:103B90000E94D21581E0E6CF80E0E4CFC8010E9408
:103BA000D2028BCFF12FFF70FF2E103118F0F2945C
:103BB00090EFF922D114B9F0F11469F080E2800F8E
:103BC000883010F0011109C0809106048F2980937C
:103BD00006040E94B913802F43C080910E048F29E0
:103BE00080930E04F6CF802F0E94C014F11409F4C4
:103BF0003FC080E2800F883010F0011104C08F2D8B
:103C00000E94730306C0F09480910E048F2180936C
:103C10000E040E94B9132CC0212F2F70F22E107F9A
:103C2000103219F0F29480EFF822011549F00130BA
:103C300009F46BC0D11409F477C0C114C9F1CBCF1A
:103C400080910D0482FD30C0D11469F0F11439F077
:103C5000809106048F29809306040E94B91380E0A6
:103C60000E940B1405C080E00E94C014F110C7CF61
:103C7000E114A9F080910B0480FD11C0F5011582BB
:103C80008695869586950E947D02C5010E941B1A25
:103C900080910B048695869586950E94890260E046
:103CA000C5010E9454137CCCD11499F0C11004C0FA
:103CB0008F2D0E943415DCCF31E0C312D9CF809113
:103CC00007049F2D9823F91699F28F2980930704F2
:103CD000CFCFC110CDCF8F2D0E943E1590910704FC
:103CE0008F2D8923811529F08F2D8095892380932D
:103CF0000704809108049F2D9823911509F4B8CFEB
:103D0000F094F822F0920804B3CFD11429F086E0A1
:103D1000C81608F0ADCFCCCF95E0C91608F0A8CFF3
:103D20008F2D0E943E15A4CFC114D1F3093349F45D
:103D3000EFEFF7EE23E0E150F0402040E1F700C064
:103D40000000802F0E94C01493CF812F8695869506
:103D50008370811561F0813009F08ACFC8019370BA
:103D6000D11002C080E090E00E945B0A81CFC801C0
:103D70009370D11002C080E090E00E94350A78CFA5
:103D80006D2D802F0E94150B73CF812F83708111B1
:103D900034C0D11027C0402F429546954770440F3C
:103DA000440F802F8F70042E01C0880F0A94EAF709
:103DB000202F207104FF07C02FE030E001C0220F48
:103DC0004A95EAF72095169516951370123081F0F2
:103DD000133061F030910904113039F0822B8323C4
:103DE0000E9477020E94280A43CF832B822BF8CFB0
:103DF000822B909109048927F3CFD11451F110FF40
:103E0000F1CF402F429546954770440F440F802FC5
:103E10008F70042E01C0880F0A94EAF7202F2071BA
:103E200004FF07C02FE030E001C0220F4A95EAF7F7
:103E30002095169516951370123089F0133069F09D
:103E400030910A04113041F0822B83230E947A02C0
:103E5000C9CF823038F2D5CF832B822BF7CF822B7C
:103E600090910A048927F2CF1F70D11439F0812F65
:103E70000E947D02802F0E943415B4CF802F0E94B3
:103E80003E15812F0E948902ADCF023F71F170F47F
:103E9000003FC9F0013F91F0D11409F455C0C1149D
:103EA00009F44FC0802F0E940B149CCF033F21F1D7
:103EB000043F91F790910D0492FD2AC0812F8F71DC
:103EC000D11401F316C0D11469F035E0C31608F01F
:103ED00089CF1F7181E090E0012E01C0880F0A9404
:103EE000EAF7BECF86E0C816F2CF812F8F71D110CE
:103EF000C9CF0E947D0276CF80E0D11409F4A6CF0D
:103F00001F7181E0012E01C0880F0A94EAF79ECF4D
:103F1000D11461F0812F8F7192FFEBCF982F990F01
:103F2000990F990F936090930B04E3CF81E00E9467
:103F3000340392E0C91608F455CF82E00E9434039E
:103F400051CF812F8F71D5CFC11479F0093349F446
:103F5000EFEFF7EE23E0E150F0402040E1F700C042
:103F60000000802F0E94C0143DCF812F8F718ACF17
:103F70000631FCE71F0709F09ACC8091F503811503
:103F800009F493CC85E30E94B50A14C006312CE7EE
:103F9000120709F09BCC809106048A7A91E0811186
:103FA00001C090E09093F503811509F47CCC85E382
:103FB0000E94810A0E94B913E3CAF801E851FC4744
:103FC000E730F10508F494CB1092F40398013057D0
:103FD00023323105D8F684E090E00E9413349093A8
:103FE0000D0480930C04F801E150F047E232F10532
:103FF00008F09FCBE950FB4C0C94F03280914F04B9
:10400000803178F480914E04811559F0E0911004CC
:1040100020910F0430914A044091490457E02E1337
:1040200001C008956E2F70E05E9FF0011124DF0142
:10403000AF5EBB4F14968C911497811561F1119668
:104040008C911197831327C08C91841324C01596EB
:104050008C91159781111FC012968D919C91A09102
:104060004B04B0914C048A1B9B0B883C910598F43F
:1040700080914F048F70806180934F04E95EFB4F05
:1040800080818F708061808389E494E00E941B1A94
:104090000E942A030895FB013196E770C0CFADE07E
:1040A000B0E0E5E5F0E20C9401338C0186E0F80124
:1040B000DE01189601900D928A95E1F7F801F580DE
:1040C000848199E4892E94E0992E60904D046110CA
:1040D00018C0811599F0F11409F415C1C8010E94A6
:1040E0007413811509F40FC187E0F801A9E4B4E065
:1040F00001900D928A95E1F70E94FE1FFF24F39430
:1041000056C07080A280B380D0904E0420914B04A2
:1041100030914C04A501421B530BD11409F4C3C0C8
:10412000483C510508F079C0811541F380914A045B
:10413000C180E0904F0450E1E51608F059C0C81264
:1041400015C080914904871111C0F1104BC08E2D0C
:104150008F70806180934F0489E494E00E941B1A61
:1041600080914F04F8018683F12C21C0F1103AC0F0
:1041700040E06C2D872D0E94B71140E06C2D872DFB
:104180000E94B711F82E8111EFCF888599850E9482
:104190006D13292F22952F70903470F49F70223068
:1041A000A0F09115B1F0F8019681903190F48F2D27
:1041B0002D96EEE00C941D332A5F2F70223068F0AC
:1041C000C8010E941B1AFD2CF2CF911511F0811528
:1041D00071F3805E883058F3F3CF803F40F3815F06
:1041E0008330F9CF80914F04816080934F04BCCF1E
:1041F000C8123BC080914904871137C0F11035C007
:10420000E682C8010E941B1A87E0F801A9E4B4E025
:1042100001900D928A95E1F771CFE0904F04F0E1A3
:10422000EF1650F489E494E00E941B1A87E0F40131
:1042300011928A95E9F798CF811509F45FCF909193
:104240004A04F8018181981310C0809149048711B4
:104250000CC0F1100AC0E682C8010E941B1A87E058
:10426000F40111928A95E9F749CFC8010E947413AD
:10427000811509F448C0F11409F445C080914F0438
:10428000803208F431CF8091490490914A049A8396
:104290008983BC82AB826D821E82EF82CE01019641
:1042A0000E941B1A21CF483C510508F0BFCF811551
:1042B00009F424CFF11439F190914A0481819813C3
:1042C00018C080914904871114C080914F0480FD6B
:1042D0009BCF803108F498CF8683807F803F09F49C
:1042E00090CF8681982F907F905F8F70892B8683E7
:1042F00088CFC8010E9474138111F6CE80914F04BB
:10430000816080934F04C8010E941B1AF7CEABE175
:10431000B0E0EDE8F1E20C940B334E8B5F8B688FCD
:10432000798F8A8F192F9B8F911110920E041D8AFD
:1043300086E0FE017696DE011F9601900D928A9529
:10434000E1F70A8D011539F00B8B1C8B61E0CE0172
:104350000F960E9454130B8B1C8B87E0FE013F9637
:10436000DE01189601900D928A95E1F7CE0108962C
:104370000E944F20811128C020910F043091100419
:1043800087E0FE013896DE01119601900D928A9524
:10439000E1F78C858115C1F0822F90E0019687703E
:1043A000992738171906D9F097E0929FD001112468
:1043B000AF5EBB4FFE01319601900D929A95E1F7E9
:1043C00080930F040E942A0317E0809110049091BB
:1043D0000F04891312C06B96E4E00C9427330E94FB
:1043E000A11510920F041092100487E0E9E4F4E0A4
:1043F000DF011D928A95E9F7E7CF189FC0011124CC
:104400008F5E9B4F0E944F20811529F380911004ED
:1044100090E001968770992780931004D6CFA6E08C
:10442000B0E0E5E1F2E20C940B330E94E10A8C016A
:104430008091B9039091BA038017910779F019829E
:104440001A820E94E10ABC0149815A8180E090E011
:104450000E9487211093BA030093B9032696E4E0E3
:104460000C94273361E081E00E94F7190895809150
:10447000FE03869586958A9509F481E061E00E94A5
:10448000F7190895EEEFF3E0818121E04381628125
:10449000885F0E94B7190895EEEFF3E0818121E073
:1044A0004381628188500E94B7190895EEEFF3E0CE
:1044B000628121E1620F08F46FEF21E04381818185
:1044C0000E94B7190895EEEFF3E0628121E1621BCB
:1044D00008F460E021E0438181810E94B7190895CA
:1044E000EEEFF3E0438121E1420F08F44FEF21E0CA
:1044F000628181810E94B7190895EEEFF3E0438154
:1045000021E1421B08F440E021E0628181810E94A8
:10451000B719089548E050E067E170E086EF93E056
:104520000E94193410925F020895A3E0B0E0EBE915
:10453000F2E20C94FD32482E80911401841123C0C4
:104540009091F60393702091130130E081E092176F
:10455000130609F480E0809306018091FB0390919B
:104560000501981739F08093050140E060E080E094
:104570000E94D60822E2421688F4E42DF0E0E75EBD
:10458000FA4C0C94F03281E0E6CF8091060181155F
:1045900029F040E060E080E00E94D60880E084C01E
:1045A000809104010E94D9088983192F6091F70333
:1045B0007091F8038091F9030E94BA05062FF72E37
:1045C000E82E5981452F50E05B834A839A81191761
:1045D00009F018F481E019302AC2EA81FB81E95B15
:1045E000FE4F838D909105018923811539F02E2D81
:1045F000402F6F2D8A819B810E94D3088A819B81E5
:1046000001969B838A83E2CF809104010E94D9089E
:104610008983192F0091F703A091F803AA83F090E2
:10462000F9036091FA0366956695669580913D025F
:1046300090913E020E9461060E94B006805887FD5C
:104640008195880F282F3F2D239F212D1124822F04
:10465000602F7A810E94BA05062FF72EE82E598125
:10466000452F50E05B834A839A81191709F008F4BB
:10467000B1CFEA81FB81E95BFE4F838D909105010B
:104680008923811539F02E2D402F6F2D8A819B8132
:104690000E94D3088A819B8101969B838A83E4CF01
:1046A0008EEF96E00E94E10F909104019F5F90933E
:1046B000040181110CC082E08093220180910601E7
:1046C000811105C0411003C083E08093220123962D
:1046D000E2E10C94193380E097E0E4CF89E097E0C1
:1046E000E1CF82E197E0DECF8BE297E00E94BD0E42
:1046F000DBCF809104010E94D9088983192F609132
:10470000FA03669580913D0290913E020E946106F7
:10471000D82EB981AB2FB0E0BB83AA83CD01880F1F
:10472000991FFC01E95BFE4F7F01FA811F1709F019
:1047300008F450CFEA81FB81E95BFE4F838D9091B5
:10474000050189238115E1F0D7011A962C911A975A
:104750002052330B19964C914052550B6091F70340
:104760007091F8038091F9030D2D0E943C070E947F
:10477000BA05462F672F282F8A819B810E94D30874
:10478000B2E0EB0EF11CEA81FB813196FB83EA83F8
:10479000CCCF8DE497E0AACF81E697E00E94250F69
:1047A00083CF80E997E0FACF809104010E94D90875
:1047B000192F90910601911120C06091FA0320E118
:1047C000620F08F46FEF80913D0290913E020E94CB
:1047D00061066AE070E00E94C832892B09F0FACEC7
:1047E0000E949B0649E0849F90011124832F932F00
:1047F000990F990B0E947C0FEDCEA82FB0E0BB83E0
:10480000AA83E12EF12C2A813B812E153F050CF065
:10481000E1CE8A819B810E947C0FEA81FB813196E7
:10482000FB83EA83F0CF809104010E94D908192FFD
:1048300090910601911120C06091FA0320E1620F6E
:1048400008F46FEF80913D0290913E020E94610654
:1048500065E070E00E94C832892B09F0BBCE0E944F
:104860009B0649E0849F90011124832F932F990F79
:10487000990B0E94BA0FAECEA82FB0E0BB83AA83DB
:10488000E12EF12C2A813B812E153F050CF0A2CEA2
:104890008A819B810E94BA0FEA81FB813196FB835A
:1048A000EA83F0CF809104010E94D9088983192FEF
:1048B000F090F8030091F9033091F7033A83609187
:1048C000FA0366956695669580913D0290913E0249
:1048D0000E9461060E94B00620E8280F27FD21955E
:1048E000220F3CE0239F212D11246A81620F7F2D2E
:1048F000802F0E94BA05062FF72EE82E5981452FEA
:1049000050E05B834A839A81191709F008F462CE5C
:10491000EA81FB81E95BFE4F838D9091050189233C
:10492000811539F02E2D402F6F2D8A819B810E9499
:10493000D3088A819B8101969B838A83E4CF80EC94
:1049400097E0B0CE86EE97E0ADCE809104010E9454
:10495000D908092F80913D0290913E02A0913F021B
:10496000B091400240910E0250910F0260911002EE
:1049700070911102481759076A077B0708F055C064
:104980000E949B06E9E08E9FD00111242B2F332734
:1049900027FD3A953B832A83F901E95BFE4F838D1E
:1049A000909105018923811509F43FC00E949B065F
:1049B00081FD40C00E949B06182F0E949B0630E894
:1049C000839FC00111247FE7790F8091F903612F44
:1049D0000E94BA05462F672F282F8A819B810E944B
:1049E000D3082091FA0330E1230F08F42FEF60E1A0
:1049F000822F90E00E946106BC0184EF91E00E944A
:104A0000C83280913D0290913E02A0913F02B09148
:104A10004002860F971FA11DB11D80930E02909337
:104A20000F02A0931002B093110281E0093008F444
:104A30003BCEB4CD80E070E010E0C9CF80912D0274
:104A400090912E02A0912F02B091300240913D0230
:104A500050913E0260913F02709140024817590701
:104A60006A077B0708F49ACD80910601811156C030
:104A7000809104010E94D908192FE82EF12CA7017A
:104A8000440F551F4E0D5F1D4E5E5D4F5B834A8385
:104A9000E11608F482C0193008F49CCD812F90E013
:104AA0007C0121E0E21AF108AC01440F551F480FC8
:104AB000591F4350510965E172E082E192E00E9482
:104AC000DC330E949B06A701440F551F5B834A837A
:104AD00081FF80C04E0D5F1D4E5E5D4FDA011C925E
:104AE00011961C92119712961C920E94F707C09083
:104AF0003D02D0903E02E0903F02F0904002DC0187
:104B0000CB018C0D9D1DAE1DBF1D80932D0290937A
:104B10002E02A0932F02B09330025CCD40E060E003
:104B200080E00E94D60802E112E01B821A820E94F5
:104B30009B0681FF11C0D8011C9211961C921197FF
:104B400012961C92EA81FB813196FB83EA830D5F0A
:104B50001F4F399761F78CCF0E949B06F82E0E9459
:104B60009B06B0E88B9FC00111247FE7790F8A81F3
:104B70009B81880F991FEA81FB818E0F9F1F9C01EB
:104B80002E5E3D4F69016F2D8091F9030E94BA0599
:104B9000D6016D937D938C93D5CFF701E95BFE4FE2
:104BA000838D909105018923811559F0AA81BB81DC
:104BB00012962C9112974C9111966C91C7010E94FC
:104BC000D308EA81FB813396FB83EA83FFEFEF1A78
:104BD000FF0A5ECF0E949B06082F0E949B06B0E84A
:104BE0008B9FC00111247FE7790FEA81FB81EE0DD5
:104BF000FF1DEE5EFD4FFB83EA83602F8091F9037A
:104C00000E94BA05AA81BB816D937D938C936DCF71
:104C100080910601811529F040E060E080E00E946B
:104C2000D608809104010E94D908F92E80913D0296
:104C300090913E02A0913F02B09140024091340217
:104C4000509135026091360270913702481759072A
:104C50006A077B0708F073C06091F7037091F8034F
:104C60008091F9030E94BA05E62EB72EA82EE1E343
:104C7000F2E0FB83EA8307E411E0A4E3CA2EA2E09A
:104C8000DA2EAA81BB818D91BB83AA83712C912CD2
:104C9000812C811519F07A2C9E2C8B2CD801EC914B
:104CA000F0E0DF01A95BBE4F5B969C91809105010E
:104CB0009823911531F0272D482D692DCF010E94A1
:104CC000D308D8011296EC91F0E0DF01A95BBE4F4A
:104CD0005B969C91809105019823911531F0272DC9
:104CE000482D692DCF010E94D3080E949B06EA81BE
:104CF000FB813197837091E0811190E090830D5F8B
:104D00001F4FEA81FB81CE16DF0609F0BACF0E9461
:104D1000F70700913D0210913E0220913F02309131
:104D20004002DC01CB01800F911FA21FB31F8093B3
:104D3000340290933502A0933602B093370281E09B
:104D4000F9E0FF1674CE809104010E94D908882EE4
:104D5000B92E80910601811561F040E060E080E0AD
:104D60000E94D608EDE8F2E089E0DF011D928A9505
:104D7000E9F78091040181111BC080913902909163
:104D80003A020E94E60B8A839B8381E0EA81FB81E1
:104D9000799708F480E0809338022A813B81293199
:104DA000310530F00E94E10A90933A028093390273
:104DB000E12CF12C912C8701A12CF801E95BFE4F2D
:104DC00030813983381508F444C03B1508F041C0E0
:104DD000432F50E05B834A83FA01E95BFE4F838DEA
:104DE000909105018923811509F432C0C8018357C8
:104DF0009D4F6C01DC017C90472D25E5421B08F49A
:104E000040E07091F8036AEA362F272D320F08F43C
:104E10003FEF5091F903232F220F230F2E5F259F81
:104E2000212D1124641B822F0E94BA05462F672F63
:104E3000282F8A819B810E94D30880913802811596
:104E400039F0272D31E0231B08F420E0D6012C9304
:104E50009394A3940F5F1F4FB3E0AB12AECFE6E085
:104E6000EE16F10421F481E039E0B316E0CDF3E071
:104E7000EF0EF11C22E0921608F49DCFF4CF509073
:104E8000F903E52CF12CA701440F551F4E0D5F1DB2
:104E900056954795569547955B834A835A81598322
:104EA0008FEF90E0B7010E94DC32362E8091060130
:104EB000811571F040E060E080E00E94D608EDE8E6
:104EC000F2E089E0DF011D928A95E9F710923C0239
:104ED00080913B028F5F80933B027DE8C72E72E09A
:104EE000D72EA12CB12C3701EA81FB816E1A7F0AE3
:104EF00045018601212C80913C02822981114BC001
:104F00000E94B633853595400CF045C0D6015C92C1
:104F1000F401E95BFE4FE081EF3FD9F0D8012C911D
:104F2000F0E0B981B21708F045C030E04A815B81FA
:104F3000241B350B249FC001259F900D349F900D9D
:104F40001124B3010E94C832262F452DCF010E94A3
:104F5000D30823940D5F1F4F53E0850E911C83E00F
:104F60002812C9CF9FEFA91AB90AAFEFCA1ADA0AF5
:104F7000B3E0AB16B10409F0BBCF80913B0238120D
:104F800002C010923B0280913C028F5F8D31F8F499
:104F900080933C0203CBF8018081811509F4B8CFDE
:104FA000851508F0B5CF90913B023912B1CF8150F1
:104FB0008083AECF2E9DC0012F9D900D11246A815C
:104FC0007B810E94C832462F20E060E0BFCF109264
:104FD0003C0222E030E082E09FEF950D482F50E048
:104FE000FA01EE0FFF1FE40FF51FBF0166577D4F5B
:104FF000ADE8B2E0823051F416964C9116975412F7
:1050000005C04FEF450D16964C931697FB01419145
:10501000BF01451538F08F0101501109F801908347
:10502000FB0152821196F2E0A039BF0719F781E027
:105030002130310509F4B2CA21E030E0CFCF8AE057
:1050400098E00E94261030CB81E198E0FACF809161
:10505000600221E0382F321B08F430E0832F68E132
:1050600078E00E94941020CB68E178E080E0F9CFEE
:105070008091600221E0482F421B08F440E0842F19
:1050800061E378E0EECF61E378E0F0CF80916002F9
:1050900021E0582F521B08F450E0852F69E678E094
:1050A000E0CF69E678E0E2CF8091600221E0382F1E
:1050B000321B08F430E0832F6FE978E0D2CF6FE93C
:1050C00078E0D4CF8091600221E0482F421B08F4A1
:1050D00040E0842F67EB78E0C4CF67EB78E0C6CF81
:1050E0004F925F926F927F928F929F92AF92BF92F8
:1050F000CF92DF92EF92FF92C0900602D09007020B
:10510000E0900802F09009028FB7F89440900A02EC
:1051100050900B0260900C0270900D028FBF5301F3
:1051200042018C189D08AE08BF080E94DA0B282F98
:10513000609306027093070280930802909309021D
:10514000A0919602E6E9F2E08A2F30E04FEFC40E1C
:10515000D41EE11CF11CC418D508E608F708A313F7
:105160002DC08093960280918B02811137C03091BF
:10517000F603832F8370811519F0832F869586950A
:10518000309122013230F1F158F5311138C01092CE
:10519000040160933D0270933E0220933F0290937E
:1051A000400289E2E6E9F2E0A0E6B2E001900D9269
:1051B0008A95E1F781E08093220114C0418D528DE0
:1051C000C416D506E104F10420F481503F5F329605
:1051D000C6CF480D591D528F418FF8CF80E0D0CFF8
:1051E0003330D9F0FF90EF90DF90CF90BF90AF9029
:1051F0009F908F907F906F905F904F9008950E9446
:105200009522F0CF809314018091F60383708093F0
:1052100013010E94031283E0CECF80915F028111BF
:105220000E948A2240913D0250913E0260913F02CD
:10523000709140022FB7F89480910A0290910B026E
:10524000A0910C02B0910D022FBF841B950BA60BF1
:10525000B70B4097A105B10528F210922201C2CFE9
:10526000CDB7DEB7E6970FB6F894DEBF0FBECDBF61
:1052700085B7806885BF85B7806885BF1092EC02CE
:105280001092EE021092ED0280EC8093B1038FEE4B
:1052900092E09093B3038093B2031092B003109204
:1052A000AF031092CC021092CB021092CE02109259
:1052B000CD021092D0021092CF021092D202109220
:1052C000D1021092D4021092D3021092D602109200
:1052D000D5021092D8021092D7021092DA021092E0
:1052E000D9021092DC021092DB021092DE021092C0
:1052F000DD021092E0021092DF021092E2021092A0
:10530000E1021092E6021092E5028AE89DE0909395
:10531000C8028093C7028AEE9CE09093E8028093D3
:10532000E70289E895E09093E4028093E3028AE83B
:1053300095E09093CA028093C90284B7877F84BFA7
:105340000FB6F894A8958091600088618093600002
:10535000109260000FBE80E890E00FB6F894809342
:105360006100909361000FBE8EE695E09093A301DB
:105370008093A2010E94A10C0E945C118091E20026
:1053800084608093E20078948091B803811599F04D
:105390008091E9001091EC008F70179511271795F7
:1053A000182B1092E9008091E80083FD0E94E81517
:1053B0001F701093E90082E084BD93E095BD9AEFE1
:1053C00097BD80936E000E94A013811102C00E94BD
:1053D0000C1386E90E94700582E90E94700581E93C
:1053E0000E94700585EF0E94700584EF0E94700591
:1053F00081EF0E94700583E0E5EBF3E0DF01482ECA
:105400001D924A94E9F7ECE5F2E0DF011D928A95DE
:10541000E9F780E090E00E941334853E9E4F21F42E
:105420000E94A013811163C065EE7EEF80E090E0E2
:105430000E94473460E082E090E00E94293481E0DD
:105440008093090461E083E090E00E94293460E0E9
:1054500074E184E090E00E94473460E086E090E0F0
:105460000E94293460E087E090E00E94293440E007
:1054700050E0BA0188E090E00E943B3460E083E2B3
:1054800090E00E94293460E08CE090E00E94293492
:1054900060E08DE090E00E94293419821A821B821C
:1054A0001C821D821E821F82188648E050E067E140
:1054B00070E0CE0101960E94193440E050E0BA013C
:1054C0008FE190E00E943B3480E00E94F0120E9445
:1054D0000C1340E050E0BA018FE090E00E943B34B2
:1054E00040E050E0BA0183E190E00E943B3482E06A
:1054F00090E00E9405348093BF0284E090E00E9417
:10550000133490930D0480930C040E94AB18EFEFBA
:10551000F6E721E0E150F0402040E1F700C0000054
:105520000E94AB188091B50380FF08C06FEF7FEF3A
:1055300080E090E00E9447340E94101283E090E0E7
:105540000E9405340E9477020E94D00910926002E6
:1055500040E150E06FEF70E089E792E00E94EE33A7
:105560001092960240E150E06FEF70E08FEA92E017
:105570000E94EE3381E080935F0248E050E067E1F3
:1055800070E086EF93E00E94F53310925F02809105
:10559000F6038430B8F481E18093F603809123010F
:1055A00090912401A09125018093F7039093F80333
:1055B000A093F9038FE78093FA038FEF8093FB03A7
:1055C0000E948A228091890281118DC088E090E03A
:1055D0000E940D346BAB7CAB8DAB9EAB83E290E055
:1055E0000E940534282F30E040E050E060E070E099
:1055F00080E090E000E20E9434336BA87CA88DA884
:105600009EA823013401812C912C540149A25AA255
:105610006BA27CA28DA29EA2AFA2B8A67BA82729CE
:10562000352946298CA058292093FE033093FF0387
:1056300040930004509301046093020470930304A8
:1056400080930404909305042430E8F525E020932A
:10565000FE031092FF032FEF209300042093010418
:105660001092020425E030E04FEF5FEF60E00E940F
:105670005D1988E090E00E940D346B017C0183E2AB
:1056800090E00E940534282F30E040E050E060E0D8
:1056900070E080E090E00E943433260137012C292D
:1056A0003529462957292093FE033093FF03409361
:1056B00000045093010460930204709303048093E8
:1056C0000404909305040E943E060E94CE09809136
:1056D000FE0380FF05C060E0869586950E94F7195D
:1056E00081E0809389028091FE0381608093FE03B4
:1056F00061E0869586950E94F71961E081E00E943D
:10570000F71921E040E26FEF8EE10E94B71989E0BE
:1057100091E09093DC038093DB038091B80310E465
:1057200003E0853009F4C4C10E94AB189091C00217
:105730008091B5039813C8C19091C1028091B603BE
:105740009813C2C19091C2028091B7039813BCC153
:105750000E940F220E94702886E0EEEEF3E0DE0148
:10576000119601900D928A95E1F7C090EF03009198
:10577000F0031091F103E090F203F090F303109224
:10578000F0031092F1031092F2031092F303812FB1
:10579000802B811509F440C08091C5029091C6020A
:1057A0000E94E60B1C018091EC03811509F47CC575
:1057B00095E12916310480F18F3F19F08F5F8093B6
:1057C000EC03011559F00E94E30991E010160CF06A
:1057D0009FEF899F802D11248093F003111559F0BC
:1057E0000E94E30991E011160CF09FEF899F802D34
:1057F00011248093F1038091F003811569F0D0901A
:10580000F103D11449F00E94D5098093F0038D2D46
:105810000E94D5098093F1038E2D8F29811509F4FB
:1058200042C08091C3029091C4020E94E60B89A7F6
:105830009AA78091EB03811509F430C5A9A5BAA5F3
:10584000A135B10580F18F3F19F08F5F8093EB0395
:10585000E11459F00E94030A91E01E140CF09FEF2E
:10586000899F802D11248093F203F11459F00E9436
:10587000030A91E01F140CF09FEF899F802D1124E3
:105880008093F3038091F203811569F0E090F303B4
:10589000E11449F00E94D5098093F2038E2D0E94F5
:1058A000D5098093F3038091EF038C1119C0809187
:1058B000F003811511F0081313C02091F103211595
:1058C00011F012130DC09091F303911511F09F1177
:1058D00007C03091F203311103C0822B892B811153
:1058E0000E94ED0A86E0FE013196AEEEB3E0019033
:1058F0000D928A95E1F7E091E702F091E802309786
:1059000019F087EC92E009959FB7F8940091B003E5
:105910008091AF03081708F40DC2081B9FBFE12C4C
:10592000F12C10E0CC24C394D12CE016F10608F43D
:1059300005C20E94280A9091B403891721F0809330
:10594000B4030E94DA0B8091B8038430E1F48091B3
:1059500016018F708093E9009091E80090FF13C0CA
:105960009091B803943079F48093E9009091F3001A
:105970008091F200892B39F08091E8008E77809336
:10598000E8000E94700C8091B803843009F0C5CE05
:1059900083E08093E9008091E80082FFBECE809191
:1059A000E80090E085FF09C040E050E060E270E070
:1059B000CE0101960E94C00C91E08091E8008B77A7
:1059C0008093E800911509F4A8CE8981EFEFE80FE4
:1059D000E33108F07EC2F0E0E55CFA4C0C94F03262
:1059E0008091B803843009F43BC00E9470288091F4
:1059F0008B0281110DC00E9495221092140180919A
:105A0000F6038370809313010E9403120093220116
:105A10009924939490928B0210928A0258E1A52EB9
:105A2000B12C0FB6F894A895A09260000FBE109309
:105A3000600083B7817F846083BF83B7816083BF49
:105A40007894889583B78E7F83BF0FB6F894A89516
:105A500080916000886180936000109260000FBEAA
:105A60000E94AB188091B6039091B503892B909159
:105A7000B703892B8115E1F080918C028115C1F06B
:105A800040E1B42EB9BC22E129BD09B400FEFDCF2E
:105A90008091D8008F7D8093D8008091E000826053
:105AA0008093E0008091E00081FDFCCF0E94A11571
:105AB0008091B803853009F493CF0E94A1150E940C
:105AC000280A10928B0230CE45EB53E05DA74CA71D
:105AD00080EC92E09AA389A3612C712CF12CACA5E7
