:100000000C945D020C94A4020C94A4020C94A4021F
:100010000C94A4020C94A4020C94A4020C94A402C8
:100020000C94A4020C94A4020C94CE0D0C94830C9A
:100030000C949D100C94A4020C94A4020C94A402A1
:100040000C94A4020C94A4020C94A4020C94A40298
:100050000C94A4020C945C100C94A4020C94A402C2
:100060000C94A4020C94A4020C94A4020C94A40278
:100070000C94A4020C94A4020C94A4020C94A40268
:100080000C94A4020C94A4020C94A4020C94A40258
:100090000C94A4020C94A4020C94A4020C94A40248
:1000A0000C94A4020C94A4020C94A40260086008AE
:1000B0009A089A08F6081209A80AA80A1D09FB0955
:1000C0000C0A0C0A422369230A2569230A25B12355
:1000D000D4230A25C324D724712671268426842696
:1000E0007A26842684268426712671267F268426F5
:1000F00084267F2600047F3F1F6432146432147804
:100100003C1E1E140A053B5C405C465C3D5C425C48
:10011000475C3F41445C495CC65CCA5CC45CC75CEC
:10012000C35CC85C0100CB5CC95C0001010101013A
:1001300001010101020202020202020202030303A0
:100140000303030303040404040404040505050570
:100150000506060606060707070707080808080930
:100160000909090A0A0A0B0B0B0C0C0C0D0D0D0EDC
:100170000E0E0F0F0F101011111112121313141471
:10018000151516161717181819191A1A1B1B1C1DE6
:100190001D1E1E1F2020212222232424252626273F
:1001A0002829292A2B2C2D2D2E2F30313232333471
:1001B00035363738393A3B3C3D3E3F404142434477
:1001C00045464748494A4C4D4E4F50515354555659
:1001D00058595A5B5D5E5F616264656668696B6C05
:1001E0006D6F7072737577787A7B7D7E8082838580
:1001F00087888A8C8E8F91939596989A9C9EA0A2C0
:10020000A3A5A7A9ABADAFB1B3B5B7BABCBEC0C2C9
:10021000C4C6C9CBCDCFD1D4D6D8DBDDDFE2E4E78D
:10022000E9EBEEF0F3F5F8FAFDFFFFAA7F55402267
:1002300023252628292A2C2D2F3032333536383ADB
:100240003B3D3E4042434547494A4C4E5051535531
:1002500057595A5C5E6062646668696B6D6F717352
:100260007577797B7D7F81838587898A8C8E909253
:100270009496989A9C9E9FA1A3A5A7A8AAACAEAF5E
:10028000B1B3B4B6B8B9BBBCBEBFC1C2C3C5C6C7A3
:10029000C9CACBCCCDCED0D1D2D2D3D4D5D6D7D754
:1002A000D8D9D9DADADBDBDBDCDCDCDCDCDDDDDD9C
:1002B000DDDCDCDCDCDCDBDBDBDADAD9D9D8D7D798
:1002C000D6D5D4D3D2D2D1D0CECDCCCBCAC9C7C645
:1002D000C5C3C2C1BFBEBCBBB9B8B6B4B3B1AFAE83
:1002E000ACAAA8A7A5A3A19F9E9C9A989694929029
:1002F0008E8C8A89878583817F7D7B797775737101
:100300006F6D6B6968666462605E5C5A59575553DD
:1003100051504E4C4A4947454342403E3D3B3A3896
:1003200036353332302F2D2C2A2928262523220535
:10033000010902A10185020901A10005091901298C
:10034000081500250195087501810205010930098C
:10035000311581257F95027508810609381581259B
:100360007F950175088106050C0A38021581257FE5
:10037000950175088106C0C005010980A1018503AA
:1003800019012AB700150126B700950175108100E3
:10039000C0050C0901A101850419012AA00215015B
:1003A00026A002950175108100C005010906A10172
:1003B000050719E029E71500250195087501810257
:1003C0009501750881010507190029FF150026FF11
:1003D0000095067508810005081901290595057520
:1003E000019102950175039101C009029F0004016A
:1003F00000A0FA0904000001030101000921110114
:1004000000012240000705810308000A09040100D9
:100410000103000000092111010001227B000705F2
:10042000820320000A080B020201010000090402F5
:100430000000010100000924010001090001030975
:10044000040300020103000007240100014100062B
:100450002402010100062402020200092403010310
:10046000010201000924030204010101000905043D
:100470000240000500000525010101090583024035
:100480000005000005250101031201000200000023
:10049000084D5909440100010200010C0359004DA7
:1004A0000044003000390000000A0359004D0044A8
:1004B000004B000000040309040011241FBECFEF0D
:1004C000DAE0DEBFCDBF04B603FE27C0809175031E
:1004D00090917603A0917703B09178038730904B89
:1004E000A740B04BD1F4109275031092760310928E
:1004F00077031092780314BE84B7877F84BF0FB64A
:10050000F894A895809160008861809360001092B3
:1005100060000FBEE0E0F8E3099511E0A0E0B1E073
:10052000E2E8F1E502C005900D92A63BB107D9F7CC
:1005300023E0A6EBB1E001C01D92A537B207E1F7B9
:100540000E94C8110C94BF280C9400001F93CF93F5
:10055000DF93CDB7DEB767970FB6F894DEBF0FBE57
:10056000CDBF4B8B5C8B6D8B7E8B8F8B6111109213
:10057000460286E09E01235F3F4FD901E82F1D927E
:10058000EA95E9F795E0FE017396D90101900D9285
:100590009A95E1F79C894E895F897B897D879E8743
:1005A0006F87598B488BF901DE01179601900D92E8
:1005B0008A95E1F7CE0107960E94B91A81113EC0D3
:1005C00086E0FE013796DE01119601900D928A9524
:1005D000E1F7FF81E8856A857B856115710531F05A
:1005E000EF3F31F481E0FF3F19F403C081E001C027
:1005F00080E080FD23C02091120230E0C901019605
:10060000877099274091430250E08417950779F14C
:10061000F983EA837D836C8396E0929FD001939F58
:10062000B00D1124AD5EBD4FFE01319601900D92CB
:100630009A95E1F7809312020E94231A16E08091A6
:100640004302909112028917F9F0189FC0011124FA
:100650008D5E9D4F0E94B91A8823B1F080914302AC
:1006600090E001968770992780934302E8CF0E941B
:1006700088261092120210924302ECE0F2E086E02B
:10068000DF011D928A95E9F767960FB6F894DEBFF1
:100690000FBECDBFDF91CF911F9108958F929F9292
:1006A000AF92BF92CF92DF92EF92FF920F931F9380
:1006B000CF93DF93CDB7DEB7AD970FB6F894DEBF1B
:1006C0000FBECDBFFC01F080118183819481892B05
:1006D00039F01F3F39F491E00FEFF01203C003C06F
:1006E00091E001C090E090FD75C76F0185E0DE01EB
:1006F000999601900D928A95E1F7D60112962C9168
:1007000089A59AA5222349F00E944F25082F682F1A
:1007100089A59AA50E94D72503C00E94AB25082F62
:10072000812F90E0FC01EE0FFF1FE80FF91FB9E0E9
:100730000B9FE00DF11D1124EF0DF11DEE0FFF1FBA
:10074000EA5FFE4FE590F490E6E2EE16ECE5FE0679
:1007500051F4D60112968C91882309F462C081E08D
:100760008093BB0132C4B7E2EB16BCE5FB0651F443
:10077000F6018281882309F454C00E94302110922E
:10078000BB0123C4F8E2EF16FCE5FF0659F4D601DD
:1007900012968C91882309F444C08091BB01811189
:1007A000ECCFDDCFBCE2EB16BCE5FB0641F4F60175
:1007B00082818823B1F181E08093500206C4FDE27A
:1007C000EF16FCE5FF0651F4D60112968C918823B2
:1007D00041F10E94B32710925002F7C3BEE2EB161C
:1007E000BCE5FB0649F4F60182818823D1F08091B3
:1007F00050028111EECFDFCFF9E2EF16FCE5FF06E4
:1008000081F4D60112968C91882359F00E943021F0
:100810008091000190E001968370992780930001F8
:10082000D4C38091BB01811105C0809150028823FF
:1008300009F4C5C0F6014281442309F441C0F0EE39
:10084000EF16F10451F40E94302181E08093BA0147
:100850001092B9011092B801B8C302EEE016F1048B
:1008600051F40E9430218091BA01882371F081E017
:100870008093B9010AC013EEE116F10449F48091A6
:10088000B9018823E9F00E9430211092BA019DC37A
:1008900022E5E216F10431F4809101019091020108
:1008A0000A9709C031E5E316F10451F48091010182
:1008B000909102010A96909302018093010185C3F1
:1008C0008091000181110CC0D60111962C911197D5
:1008D00083E090E0821B91092C91205FBCE01DC059
:1008E000813071F4F601818123E030E0281B310969
:1008F000822F880F880F280F80818D5C280F30C0D1
:10090000823079F4D60111962C91119783E090E012
:10091000821B91092C912D5CB7E08B9F200D112437
:100920001FC08330E1F483E2E8E2F1E0DE011196DA
:1009300001900D928A95E1F7F6018081FE01E80FA2
:10094000F11DD60111962C9183E090E0821B910954
:100950002085BCE08B9F200D1124275F01C02CE077
:10096000809150024423C1F0882361F02F77E091F9
:100970007E02F0917F020FE740E963E070E08EE7CE
:1009800092E009958091BA018823A1F08091B80185
:100990008F5F8093B8010EC0882361F02F77E091BC
:1009A0007E02F0917F0200E040E863E070E08EE7B5
:1009B00092E00995EFEFEE16F10408F406C314EF88
:1009C000E1161CE5F10649F406E221EE40EE64EF83
:1009D0007CE5C6010E942511F8C225EFE2162CE540
:1009E000F20608F06FC139EDE3163CE5F30631F489
:1009F00007E225EE45EE69ED7CE5EBCF8AEDE816E2
:100A00008CE5F80631F408E221E045EE6AED7CE57C
:100A1000E0CF98EDE9169CE5F90631F406E221EE07
:100A200041EE68ED7CE5D5CFD60112968C918823F6
:100A300009F481C11092E001B4E0EB16BDE5FB06BC
:100A400060F4EBEFEE16ECE5FE0668F4C7018250A9
:100A50009C45449708F058C106C0F2E6EF16FDE544
:100A6000FF0609F051C10E943D199093F501809352
:100A7000F40100E1E0160CE5F00609F4DFC008F02F
:100A80004AC028E0E2162CE5F20609F4B8C018F5D1
:100A900084E0E8168CE5F80609F49FC080F4A2E033
:100AA000EA16ACE5FA0609F494C0B3E0EB16BCE52F
:100AB000FB0609F0F7C08091F4018260F1C0E6E026
:100AC000EE16ECE5FE0609F492C008F094C08091A1
:100AD000F4018860E5C00CE0E0160CE5F00609F4CE
:100AE0009EC070F42AE0E2162CE5F20609F48BC0F1
:100AF00008F091C00E9488268091F4018068D0C0DF
:100B00008EE0E8168CE5F80609F48DC008F092C076
:100B10008091F401A0C0ADEFEA16ACE5FA0609F445
:100B200086C068F5E4E1EE16ECE5FE0609F4A4C023
:100B300060F402E1E0160CE5F00609F483C008F069
:100B400087C08091F4018F7BABC02BEFE2162CE5C0
:100B5000F20609F445C008F046C085E1E8168CE5C8
:100B6000F80609F09FC08091F40182FB222720F94A
:100B700091E0922790FB82F990FB83F991C091E07C
:100B8000E9169DE5F90609F46BC058F48091F5016A
:100B9000BFEFEB16BCE5FB06D9F108F05EC08D7F18
:100BA00068C0F3E0EF16FDE5FF0609F473C008F432
:100BB0006FC012E6E1161DE5F10609F073C08091E1
:100BC000F40184FB222720F991E0922790FB84F91D
:100BD00067C08091F401816063C08091F40116C008
:100BE0008091F50116C08091F501826042C080912C
:100BF000F401806155C08091F401806251C0809100
:100C0000F40180644DC08091F4018860846048C024
:100C1000826081602EC08091F4018E7F41C08091FE
:100C2000F4018D7F3DC08091F401877F39C08091B0
:100C3000F50114C08091F4018F7E32C08091F401DF
:100C40008F7D2EC00E9488268091F4018F7728C066
:100C50008091F401877F8B7F23C08D7F8E7F09C0B9
:100C60008091F501982F909591708E7F892B90FB44
:100C700081F98093F50116C00E9488268091F401C5
:100C800087FB222720F991E0922790FB87F908C083
:100C900061E001C060E08EE090E00E94D62702C0D3
:100CA0008093F4016091F4011091F50184E090E0EB
:100CB0000E94D627612F82E290E00E94D6270E94F0
:100CC000882683C1A6EFEA16ACE5FA0631F406E2FF
:100CD00021EE42EE66EF7CE57CCEB6EFEB16BCE58E
:100CE000FB0630F407E225EE44EE65EF7CE571CEBD
:100CF000E7EFEE16ECE5FE0609F096CE07E225EEEC
:100D000046EE67EF7CE565CE80914702F6E1EF168F
:100D1000FCE5FF0619F58A7A91E009F490E09093DA
:100D2000BC01882311F065E301C069E284E092E030
:100D30000E94D31010C0B6E1EB16BCE5FB0609F02B
:100D400064C18091BC01882309F442C465E384E056
:100D500092E00E94C6100E94BF1937C182722DEC2A
:100D6000E2162CE5F20609F4D5C008F04FC097EC66
:100D7000E9169CE5F90609F4B9C0F8F4B4ECEB16F1
:100D8000BCE5FB0609F4A8C038F4F3ECEF16FCE56B
:100D9000FF0609F47CC0DEC005ECE0160CE5F006A9
:100DA00009F49FC016ECE1161CE5F10609F0D2C06B
:100DB00042E95FE16BE97FE1B1C02AECE2162CE584
:100DC000F20609F49DC088F498ECE9169CE5F90652
:100DD00009F491C0A9ECEA16ACE5FA0609F0BAC02C
:100DE00046E85FE16AE77FE199C0BBECEB16BCE542
:100DF000FB0609F48AC0ECECEE16ECE5FE0609F001
:100E0000A9C04DED5CE16EEE7CE188C0F2EDEF161D
:100E1000FCE5FF0609F48EC0B8F41FECE1161CE5F2
:100E2000F10609F481C008F47CC030EDE3163CE51E
:100E3000F30609F47CC081EDE8168CE5F80609F0AC
:100E400089C06EE089E07EC095EDE9169CE5F90663
:100E500009F476C078F4B3EDEB16BCE5FB0609F4B3
:100E60006CC0E4EDEE16ECE5FE0609F073C061E03F
:100E700088E16DC0F6EDEF16FCE5FF0609F465C0EC
:100E80000EE5E0160DE5F00609F49FC063C0809101
:100E9000D90180FF1BC08E7F8093D9016091D90159
:100EA0007091DA018091DB019091DC010E94CB1CF2
:100EB000109265021FEF20E732E0115020403040D1
:100EC000E1F700C000000E94711C7FC08160809328
:100ED000D90161E086953BC04FED5FE168EE7FE1AF
:100EE0001DC048EE5FE16FED7FE118C04BE95FE1A7
:100EF00062E97FE113C04AE75FE166E87FE10EC087
:100F000042E65FE16EE67FE109C04EE65FE162E640
:100F10007FE104C04EEE5CE16DED7CE10E94C21108
:100F200054C061E081E013C065E082E00BC068E07E
:100F300086E008C064E18FE005C067E185E102C09A
:100F400062E289E10E94B01140C061E083E20E9448
:100F5000A41F3BC08BE5E8168DE5F80681F168F427
:100F6000E114ACE5FA06D9F0BFEDEB16BCE5FB06E3
:100F700009F04BC00E944E1928C0ECE5EE16EDE5D5
:100F8000FE06F9F0FDE5EF16FF0609F03EC0809180
:100F9000F50182FB882780F991E0892713C00E9420
:100FA00088260E94B3270FEF14E32CE00150104075
:100FB0002040E1F700C000000E94381006C081E028
:100FC00001C080E00E94EC1920C08091440287702B
:100FD00009F400C3D60112968C91882309F4FAC251
:100FE00082E0AD960FB6F894DEBF0FBECDBFDF91A5
:100FF000CF911F910F91FF90EF90DF90CF90BF9016
:10100000AF909F908F900C94061AD60112968C91F7
:1010100012970C9111961C91882349F0C8010E94E7
:101020004F25F82E682FC8010E94D72504C0C8019B
:101030000E94AB25F82E812F90E0FC01EE0FFF1FE0
:10104000E80FF91FB9E0FB9EE00DF11D1124E00F40
:10105000F11DEE0FFF1FEA5FFE4F859194910E94F4
:10106000A3178C01982EF601F280A580A2946FE060
:10107000A62280914402877099F0FF2089F0812F89
:10108000807F803421F080E2800F883048F082E059
:101090000E94061A809144028770EE24E394811125
:1010A000E12CB12EB2943FE0B3228B2D90E08C3036
:1010B000910508F04DC2FC01EA5AFF4F0C946228DA
:1010C000812F807F1F70882311F01295107FFF20E1
:1010D000B9F0112309F427C280E2800F883010F0A4
:1010E000911006C080914702182B1093470205C04B
:1010F00080914602182B109346020E94BF1913C21A
:10110000802F0E94A826112309F422C2005E1095A8
:10111000083010F0911006C08091470218231093F8
:10112000470205C0809146021823109346020E9490
:10113000BF190EC2812F807F1F70803211F012956F
:10114000107F992021F0F1E09F1611F130C0FF20AF
:10115000B1F0AA2081F001E0A0120DC08091F5014C
:1011600082FDF6C180914802182B181709F4F0C1CE
:1011700010934802EDC180914802812B10C0AA2033
:1011800021F021E0A21609F4E3C10E94B9192AC096
:10119000FF2041F035E03A1508F4DAC1812F0E94B2
:1011A0009E26D6C184E08A1508F4D2C11BC0FF2058
:1011B00061F0AA2099F3D60115968C91159780FFBE
:1011C000B2C18F7015968C93E9CFAA2059F00933DC
:1011D00009F0BBC1BFEFE7EEF3E0B150E040F040F3
:1011E000E1F7B1C1812F0E949326B2C1812F86956C
:1011F0008695837019F0813059F0AAC1FF2019F04B
:10120000C801937002C080E090E00E940311A6C163
:10121000FF2019F0C801937002C080E090E00E94A6
:10122000ED109CC1802FFF2019F00E94D52002C034
:101230000E941C200E94F21F91C1812F837009F02F
:1012400069C0F11089C1902F929596959770990F6A
:10125000990F802F8F70882E912CA12CB12C092EE4
:1012600004C0880C991CAA1CBB1C0A94D2F704FF6A
:1012700012C04FE050E060E070E004C0440F551F22
:10128000661F771F9A95D2F7DB01CA01809590956A
:10129000A095B09503C080E090E0DC01169516950E
:1012A000412F4370423019F1C8F400914902109166
:1012B0004A0220914B0230914C02413059F088296A
:1012C0009929AA29BB29BC01CD016023712382235E
:1012D00093230AC0802A912AA22AB32ABC01CD01F5
:1012E000682979298A299B290E94522635C1882993
:1012F0009929AA29BB290091490210914A022091FB
:101300004B0230914C02BC01CD016027712782272E
:101310009327EACFFF2019F0812F817001C08695B5
:10132000882309F419C1902F929596959770990F7B
:10133000990F802F8F70882E912CA12CB12C092E03
:1013400004C0880C991CAA1CBB1C0A94D2F704FF89
:1013500012C04FE050E060E070E004C0440F551F41
:10136000661F771F9A95D2F7DB01CA018095909589
:10137000A095B09503C080E090E0DC01169516952D
:10138000412F43704230D9F068F50091F00110917F
:10139000F1012091F2013091F301413059F0882997
:1013A0009929AA29BB29BC01CD016023712382237D
:1013B00093231EC0802A912AA22AB32A13C0882907
:1013C0009929AA29BB290091F0011091F1012091DE
:1013D000F2013091F301BC01CD0160277127822712
:1013E000932706C0BC01CD01682979298A299B2948
:1013F0000E940226B1C01F70FF2039F0812F0E9489
:101400003126802F0E949E26A7C0802F0E949326FF
:10141000812F0E940C26A0C0802F22EF921609F483
:1014200040C0291538F030EF931661F091EF99160E
:1014300099F174C0A3EF9A16D9F1B4EF9B1609F491
:101440004EC06CC0FF2019F1E4E0EA1508F480C03A
:101450001F7181E090E0A0E0B0E0AC01BD0104C0EC
:10146000440F551F661F771F1A95D2F78091F00120
:101470009091F101A091F201B091F3018A019B01D9
:10148000082719272A273B27C901B80125C025E0CD
:101490002A1508F45DC0DCCFFF2029F0812F8F7161
:1014A00030C0FF20D9F3812F8F710E940C2650C0CD
:1014B000FF2079F01F7181E090E0A0E0B0E0BC0176
:1014C000CD0104C0660F771F881F991F1A95D2F7A8
:1014D00003C060E070E0CB010E94022639C0FF200B
:1014E00099F01F71812F0E9431268091F50182FDB4
:1014F00007C038E0139FC001112483608093440229
:10150000812F0E94312624C081E00E94061A81E0CA
:101510008A15F0F482E00E94061A1AC0FF2039F002
:10152000AA2009F4BBCF802F0E940F2711C0AA2048
:1015300009F4B9CF893349F49FEFA7EEB3E0915096
:10154000A040B040E1F700C00000802F0E94A82614
:1015500088EF8B0D843010F40E941911EE20A9F051
:101560008091440280FD11C0F60112828595859517
:1015700085950E943126C6010E944E038091440247
:101580008595859585950E940C2685E0F601DE01FE
:10159000949601900D928A95E1F78CA19DA10E94ED
:1015A000AB252DA130E0F901EE0FFF1F2E0F3F1FDD
:1015B000F90109E0809FE00DF11D11248CA1E80FD5
:1015C000F11DEE0FFF1FEA5FFE4F8591949102C05F
:1015D00069E2BDCBAD960FB6F894DEBF0FBECDBFAE
:1015E000DF91CF911F910F91FF90EF90DF90CF90FF
:1015F000BF90AF909F908F90089580916902089559
:101600000895089590917402943031F58093EC011F
:101610007093EE016093ED0182E08093E9008FEF1B
:101620009091E800815095FD06C095ED9A95F1F7EF
:1016300000008111F5CF8091E80085FF0DC040E0EA
:1016400050E063E070E08CEE91E00E9432228091E5
:10165000E8008E778093E8000895BC0184E00C9444
:10166000020BBC0183E00C94020B22E02093E90002
:101670002FEF3091E800215035FD06C035ED3A9549
:10168000F1F700002111F5CF2091E80025FF0BC0F4
:1016900040E050E066E070E00E9432228091E80075
:1016A0008E778093E8000895CF93DF9321E0209315
:1016B000E9002FEF3091E800215035FD06C035EDEF
:1016C0003A95F1F700002111F5CF2091E80025FFB0
:1016D00014C0EC0140E050E068E070E00E9432226B
:1016E0008091E8008E778093E80088E0FE01AAE60A
:1016F000B2E001900D928A95E1F7DF91CF910895C4
:10170000EF92FF920F931F93CF93DF938C01CEEB59
:10171000D1E0E12CF12CF8018481F4E0EF16F10422
:101720001CF4882339F002C0811104C09E0140914D
:10173000DC0102C09E0140E06091DB018091DA0192
:101740000E940E1D8FEFE81AF80A239699E0E91619
:10175000F10409F70E94711CF801848190E0019660
:10176000817099278483DF91CF911F910F91FF9012
:10177000EF9008958F929F92AF92BF92CF92DF9297
:10178000EF92FF920F931F93CF93DF93EC014C8165
:10179000042F10E09801D8010E9470289B01AC0131
:1017A0000E9486286B017C01E0E2F0E0E01BF10B77
:1017B000A5E5B0E09B01AC010E9486284B015C01CD
:1017C0009F01DF010E9468289B01AC010E949128C3
:1017D0009B01AC012C0D3D1D4E1D5F1DC501B401CB
:1017E0000E944028822FF22E99E2921728F093E06F
:1017F000299F900111240DC025E530E0281B3109F7
:10180000C901880F991F280F391F37FF02C02F5FAA
:101810003F4F35952795122F10959EEBC92E91E0DD
:10182000D92E00E085E5E82EEF1801FD02C08E2DCF
:1018300001C08F2D9601412F6091DB010E940E1D8A
:101840000F5F83E0C80ED11C093079F70E94711C2C
:101850008C81811102C091E003C0803219F49FEFA6
:101860009093030190910301890F8C83DF91CF91B5
:101870001F910F91FF90EF90DF90CF90BF90AF90AE
:101880009F908F9008950F931F93CF93DF9300D075
:101890001F92CDB7DEB78C018091BD0181110AC0C6
:1018A0009E012F5F3F4F4FEF6FEF0E940E1D8A8109
:1018B0008093BD01F8018481813051F028F082309D
:1018C00061F44091BD010AC08091BD0140E007C0B4
:1018D0006091BD0140E080E003C040E080E060E056
:1018E0000E94A71CF801848190E0019663E070E0FB
:1018F0000E942C2884830F900F900F90DF91CF913E
:101900001F910F9108951F920F920FB60F921124FD
:101910002F933F934F935F936F937F938F939F93F7
:10192000AF93BF93CF93DF93EF93FF93C091E90001
:10193000CF708091EC00D82FD17080FDD0E810924C
:10194000E9008091F000877F8093F00078940E94F6
:101950005E221092E9008091F00088608093F00090
:10196000CD2BCF70C093E900FF91EF91DF91CF9124
:10197000BF91AF919F918F917F916F915F914F91A7
:101980003F912F910F900FBE0F901F901895E8ED8B
:10199000F0E080818E7F80831092E2001092DA0066
:1019A0001092E100A0EEB0E08C9181608C93808178
:1019B0008F77808319BCA7EDB0E08C918E7F8C93DC
:1019C00080818F7E80831092EF0108952091E40042
:1019D0003091E50095E64091EC00842F817040FF46
:1019E00023C08091E80080FD1DC08091740288238F
:1019F00099F0853099F08091EB0085FD11C0409100
:101A0000E4005091E5002417350729F3915011F0B7
:101A10009A01E1CF84E0089582E0089583E008957B
:101A200081E0089580E008954091E80042FFDDCF15
:101A300008958091760287FF11C08091E80082FDB1
:101A400005C0809174028111F8CF11C08091E80027
:101A50008B770BC080917402882349F08091E80055
:101A600080FFF8CF8091E8008E778093E80008959A
:101A7000982F973068F59093E900981739F0709196
:101A8000EC002091ED005091F00003C0242F762F40
:101A900050E021FD02C09F5FECCF3091EB003E7F14
:101AA0003093EB003091ED003D7F3093ED003091AD
:101AB000EB0031603093EB007093EC002093ED006D
:101AC0005093F0002091EE0027FDE5CF80E00895CF
:101AD0008F708093E90081E00895CF92DF92EF92BA
:101AE000FF920F931F93CF93DF93C8EDD0E08881CF
:101AF0008F7E8883E7EDF0E080818160808384E0E1
:101B000082BF81E08093EF0188818E7F888302EE1F
:101B100010E0F80110821092DA0081EEC82ED12C6C
:101B2000F601108288818F77888388818068888316
:101B300088818F7D888319BC10927402109275027F
:101B4000109273021092720290EEE92EF12CF701BE
:101B500080818B7F808388818160888342E060E020
:101B600080E00E94380DF60180818E7F8083F8012D
:101B7000808181608083808188608083F70180819B
:101B80008E7F8083888180618883DF91CF911F91D0
:101B90000F91FF90EF90DF90CF9008951F920F92DA
:101BA0000FB60F9211242F933F934F935F936F9330
:101BB0007F938F939F93AF93BF93EF93FF93809106
:101BC000E10082FF09C08091E20082FF05C08091A0
:101BD000E1008B7F8093E1008091DA0080FF2AC0D2
:101BE0008091D80080FF26C08091DA008E7F80939C
:101BF000DA008091D90080FF18C080E189BD82E1C0
:101C000089BD09B400FEFDCF81E08093740280910C
:101C1000EF0181110FC00E94C70C0E946D0D8091D1
:101C2000E20084608093E20005C019BC1092740247
:101C30001092EF018091E10080FF17C08091E200D7
:101C400080FF13C08091E2008E7F8093E20080913C
:101C5000E20080618093E2008091D80080628093EE
:101C6000D80019BC85E0809374028091E10084FF64
:101C70002EC08091E20084FF2AC080E189BD82E10C
:101C800089BD09B400FEFDCF8091D8008F7D80937F
:101C9000D8008091E1008F7E8093E1008091E20086
:101CA0008F7E8093E2008091E20081608093E20069
:101CB00080917502882311F084E007C08091E300D1
:101CC00087FD02C081E001C083E0809374028091AF
:101CD000E10083FF27C08091E20083FF23C0809151
:101CE000E100877F8093E10082E08093740210928C
:101CF00075028091E1008E7F8093E1008091E20087
:101D00008E7F8093E2008091E20080618093E20008
:101D100042E060E080E00E94380D8091F000886031
:101D20008093F000FF91EF91BF91AF919F918F91C0
:101D30007F916F915F914F913F912F910F900FBEC7
:101D40000F901F90189520917C0230917D022617EC
:101D5000370748F06115710539F42091E8002E77B6
:101D60002093E80001C0B901FC0120E06115710574
:101D700079F1809174028823F1F18530F1F180913D
:101D8000E80083FD3CC08091E80082FD2EC0809178
:101D9000E80080FFEBCF2091F3008091F20090E00B
:101DA000922B6115710551F08830910538F421911D
:101DB0002093F100615071090196F3CF21E008975B
:101DC00009F020E08091E8008E778093E800CECF84
:101DD0002111CFCF0AC080917402882361F0853031
:101DE00061F08091E80083FD0AC08091E80082FFE5
:101DF000F2CF80E0089582E0089583E0089581E0C5
:101E00000895982F907F903BF1F038F49039D9F0F5
:101E1000903AC9F09038C9F416C0903D49F018F4D2
:101E2000903C31F012C0903E71F0903F19F00DC01F
:101E300082E00895815F8F3040F4E82FF0E0E55BA9
:101E4000FE4F8081089583E0089580E00895AF9269
:101E5000BF92CF92DF92EF92FF920F931F93CF9397
:101E6000DF93CDB7DEB727970FB6F894DEBF0FBE6E
:101E7000CDBF7E0125E0E20EF11C8C0108511F4F01
:101E800080917402843009F085C080910A018F70BE
:101E90008093E9008091E80082FF7CC08091E80097
:101EA00085FF78C00E94E60C81111DC084E0C82E19
:101EB000D12CCE0101965C0109C08091F100D501C1
:101EC0008D935D01B1E0CB1AD10869F08091E800F3
:101ED00085FDF3CF8091E8008B778093E8000E9426
:101EE000E60C882399F38091E80085FD05C0809178
:101EF000E8008B778093E800DA808D2D0E94010F37
:101F0000282FDD828B818E838C818F8321110FC0DE
:101F10008981843049F0873039F0863039F0853056
:101F200009F0AECF21E003C023E001C022E0670149
:101F30008C2D8E19821708F0A3CFD601BD906D01AC
:101F40003FB7F894D8011196EC911197F0E0CF01CA
:101F5000019612966C9170E00E942C28D8014C9149
:101F600050E084179507A1F0D80113968D919C91AC
:101F70001497E80FF91FB08211968C91119790E099
:101F8000019612966C9170E00E942C28F8018183D2
:101F90003FBFCECF27960FB6F894DEBF0FBECDBFA2
:101FA000DF91CF911F910F91FF90EF90DF90CF9035
:101FB000BF90AF900895DF92EF92FF920F931F931F
:101FC000CF93DF9300D000D0CDB7DEB77B01142FC5
:101FD000D22E4A832B830C83842F0E94010F811100
:101FE0001CC082E0E816F10471F083E0E816F10409
:101FF00021F0EA94EF2881F50BC0073F11F487E048
:102000000AC084E008C087EFD812FBCF86E003C087
:10201000173FB9F785E0898303C012951F701983B4
:10202000809174028430C1F4809105018F70809397
:10203000E90040E050E064E070E0CE0101960E94CB
:102040003222811109C08091E80085FD05C0809190
:10205000E8008E778093E8000F900F900F900F901C
:10206000DF91CF911F910F91FF90EF90DF90089536
:1020700081E08093E00080E28093D8001092C90054
:102080008FE19EE40197F1F700C0000087E090EB3C
:10209000DC018093750390937603A0937703B0934C
:1020A00078039CE088E10FB6F894A89580936000CF
:1020B0000FBE90936000FFCF78941F920F920FB6DF
:1020C0000F9211248F939F93AF93BF938091E80158
:1020D0009091E901A091EA01B091EB010196A11D57
:1020E000B11D8093E8019093E901A093EA01B093B8
:1020F000EB01BF91AF919F918F910F900FBE0F9009
:102100001F9018959C014FB7F8948091E801909129
:10211000E901A091EA01B091EB014FBF821B930B43
:1021200008952FB7F8948091E8019091E901A0916A
:10213000EA01B091EB012FBF08951F920F920FB6E5
:102140000F9211248F939F93AF93BF938091E701D8
:10215000811113C08091E8019091E901A091EA01F9
:10216000B091EB014196A11DB11D8093E8019093C0
:10217000E901A093EA01B093EB01BF91AF919F9168
:102180008F910F900FBE0F901F9018959C012A5FA2
:102190003F4FFC014281461301C012820196821713
:1021A0009307B9F708959C01FC0132969FEF80E0F8
:1021B0004191461789F09F3F19F4411101C0982FB2
:1021C0008F5F8630A9F79F3F39F0F901E90FF11DC4
:1021D00097FDFA956283089508952091E501309165
:1021E000E6012817390771F09093E6018093E50125
:1021F000E091E301F091E401309721F00084F18552
:10220000E02D099408952091E1013091E201281711
:10221000390771F09093E2018093E101E091E301CD
:10222000F091E401309721F00680F781E02D0994C8
:102230000895E091E301F091E401309721F00190DD
:10224000F081E02D099480E00895EF92FF920F93C2
:10225000CF93DF93C42FD22FFC0182818823D1F04A
:102260004093E0010E9491109093DF018093DE0182
:1022700080E28C0F883008F06DC0C77081E001C02B
:10228000880FCA95EAF7DF91CF910F91FF90EF90F9
:102290000C949E268091E00148134BC08091DE0192
:1022A0009091DF010E948210883C910508F041C0A6
:1022B000CD17C9F080E28C0F883040F4C77081E000
:1022C00001C0880FCA95EAF70E94932680E28D0F1D
:1022D000883048F481E09D2F977001C0880F9A954F
:1022E000EAF70E949E26093319F0E12CF12C03C075
:1022F00080E5E82EF12C802F0E940F27E114F104D5
:1023000051F08FE99FE00197F1F700C0000091E0E4
:10231000E91AF108F3CF802F0E94A82680E28D0FE2
:102320008830C0F4D77081E001C0880FDA95EAF7F1
:102330000AC080E28C0F883068F4C77081E001C069
:10234000880FCA95EAF7DF91CF910F91FF90EF9038
:102350000C949326DF91CF910F91FF90EF90089509
:102360009091D90190FF04C09695981740F003C052
:10237000811105C090E0961710F40C94E81F61E0FD
:102380000C94A41F882311F0FA0101C0FB010994E9
:10239000CF93DF93CDB7DEB760970FB6F894DEBF6B
:1023A0000FBECDBF1092A3021092A5021092A402FC
:1023B00080EC8093680386EA92E090936A038093AE
:1023C00069031092670310926603109283021092C1
:1023D000820210928502109284021092870210925B
:1023E0008602109289021092880210928B0210923B
:1023F0008A0210928D0210928C0210928F0210921B
:102400008E021092910210929002109293021092FA
:1024100092021092950210929402109297021092DA
:102420009602109299021092980210929D021092B8
:102430009C028BED9FE090937F0280937E0287E267
:102440009FE090939F0280939E0281E09BE0909397
:102450009B0280939A0280E09BE09093810280939C
:10246000800284B7877F84BF0FB6F894A8958091C7
:102470006000886180936000109260000FBE90E061
:1024800080E80FB6F89480936100909361000FBECE
:1024900085B7806885BF85B7806885BF85E896E188
:1024A0009093B7018093B6010E94C70C0E946D0DF6
:1024B0008091E20084608093E200789480917402BD
:1024C0008823A1F01091E9001F709091EC00892FF2
:1024D000817090FD80E8182B1092E9008091E8004F
:1024E00083FD0E945E221F701093E90082E084BD8C
:1024F00093E095BD9AEF97BD80936E0086E90E94A8
:10250000CA1682E90E94CA1681E90E94CA1685EF9E
:102510000E94CA1684EF0E94CA1681EF0E94CA1652
:102520001092F6011092FC011092F7011092FD0139
:102530001092F8011092FE0180E090E00E94D027F6
:10254000893E9E4F11F00E944E1982E090E00E9459
:10255000C227809300020E943D199093F501809359
:10256000F4010E94E1168FE39CE90197F1F700C0A6
:1025700000000E94E1168091FC0180FF08C06FEF0F
:102580007FEF80E090E00E94F4270E94381083E003
:1025900090E00E94C227682F70E080E090E00E94E7
:1025A00052268091F901811136C080E090E00E94AE
:1025B000D027893E9E4F21F00E944E190E94FF1C99
:1025C00088E090E00E94CA276093D9017093DA01F5
:1025D0008093DB019093DC016E7F71F40E94FF1CFD
:1025E00088E090E00E94CA276093D9017093DA01D5
:1025F0008093DB019093DC010E94B81C109265026D
:102600008091D90180FF04C060E086950E94A41FDC
:1026100081E08093F90180E191E09093E40180935F
:10262000E30118E1812E912C00E4E02EFF24F394C5
:102630005524539480917402853009F073C000E1F1
:1026400012E180917402853009F057C080917402C4
:10265000843009F43DC0109265028091FB01811124
:1026600016C05092FB018091D901982F91709093E0
:10267000FA018E7F8093D901FFEF20E732E0F1501D
:1026800020403040E1F700C000000E94711C109211
:10269000E7010FB6F894A895809260000FBEE09213
:1026A000600083B7817F846083BF83B7816083BF0D
:1026B0007894889583B78E7F83BF0FB6F894A895DA
:1026C00080916000886180936000109260000FBE6E
:1026D00080917302882309F4B4CF0E94E11680919F
:1026E000FC018111F2C28091FD018111EEC2809145
:1026F000FE01882309F4A5CFE8C20E9488260E9423
:1027000019111092FB018091FA01882349F0809100
:10271000D90181608093D90160E086950E94A41F51
:102720000E945B1C0E94E116882359F08FB7F89431
:102730004091E8015091E9016091EA017091EB014B
:102740008FBFECEFF1E0A1E0B2E000E010E0302F4D
:1027500021919D91922721F180E0DD24D3944D2D8C
:102760004923D1F08F8338872D2181E009F480E05F
:1027700089870E9491108160782F9B878A874F817B
:10278000588569858B850E94A602F801EF5FFD4F91
:102790008081D826D08219C08F5FDD0C8330F9F696
:1027A0000F5F1F4F0330110591F68FEF8C878D87D8
:1027B0001E860E9491108160782F988B8F874C85A0
:1027C0005D856E8588890E94A602809165028823B6
:1027D00009F493C080916402E091D901E695E81B69
:1027E000E0936002823059F4F0E0EE5FFE4FE49136
:1027F0000E2F10E0BEECCB2EBDE1DB2E59C0863093
:1028000059F4F0E0E150FF4FE4910E2F10E0AEEBF1
:10281000CA2EADE1DA2E4CC0893061F4E695F0E0C5
:10282000E450FF4FE4910E2F10E0FDE9CF2EFEE1C2
:10283000DF2E3EC08F3061F4E695F0E0E750FF4FA9
:10284000E4910E2F10E0E0E3CE2EEEE1DE2E30C05C
:10285000853159F4F0E0EA50FF4FE4910E2F10E07B
:1028600072EEC72E7DE1D72E23C08831A1F08332CE
:1028700049F4E4EFF0E00591149163E4C62E6CE0B6
:10288000D62E16C0843271F404EF11E050E8C52E44
:102890005BE0D52E0DC008E210E04AEBC42E4BE001
:1028A000D42E06C000ED17E03AE5C32E3CE1D32E4E
:1028B00080916102882361F0109261020E94911060
:1028C00090935F0280935E02109263021092620204
:1028D0000E949110E0915E02F0915F028E1B9F0BAF
:1028E0008F3F9F4750F40E0F1F1F10935F020093FE
:1028F0005E028EE592E0F601099586E0E8E5F2E0F9
:10290000DE01119601900D928A95E1F7C0905A026E
:10291000D0905B0200915C0210915D0210925A020D
:1029200010925B0210925C0210925D02C11003C013
:10293000DD2009F44FC080915602909157020E9409
:1029400082109C0190915202992309F4D4C123333F
:10295000310508F43FC09F3F19F09F5F90935202EA
:10296000CC2061F00E94B5201C1414F09FEF01C030
:1029700091E0899F802D112480935A02DD2061F01F
:102980000E94B5201D1414F09FEF01C091E0899FB3
:10299000802D112480935B0230915A023323D1F0B1
:1029A00020915B022223B1F045EB3403C0011124D6
:1029B000992319F090935A0202C0F0925A0235EB13
:1029C0002303C0011124992319F090935B0202C0E4
:1029D000F0925B02011103C0112309F44FC08091F2
:1029E0005402909155020E9482109C0190915102D4
:1029F000992309F485C12536310508F43FC09F3F6E
:102A000019F09F5F90935102002361F00E94932080
:102A1000101614F09FEF01C091E0899F802D1124C2
:102A200080935C02112361F00E949320111614F030
:102A30009FEF01C091E0899F802D112480935D025A
:102A400030915C023323D1F020915D022223B1F05A
:102A500045EB3403C0011124992319F090935C02D3
:102A600002C0F0925C0235EB2303C00111249923CC
:102A700019F090935D0202C0F0925D0280915A02BB
:102A800081110BC080915B02811107C080915C02B3
:102A9000811103C080915D0281110E94F21FCB82DF
:102AA000DC820D831E8386E0FE013196A8E5B2E04C
:102AB00001900D928A95E1F7E0919E02F0919F02BC
:102AC000309719F08EE792E009952FB7F8940091AE
:102AD000670390916603091718F480916803080F43
:102AE000091B2FBFC12CD12C10E083E0682E712C64
:102AF000AA24A394B12C24E0322EC016D10608F0EB
:102B0000B4C08091660390E06091680370E00E9419
:102B10002C28E0916903F0916A03E80FF91F4080C7
:102B20002090A30247EF441560F4F092A30220E046
:102B300040E0642D81E090E00E9436212092A302C3
:102B400082C047FE4FC084E0281631F04092A002B8
:102B5000B092A502A092A402842D0E94010F8130A0
:102B600031F080F0823059F0833049F034C08093E6
:102B7000A30220E040E0642D81E090E027C0809334
:102B8000A30261C090EF4916E1F0E7EF4E1223C0B7
:102B90002091A4023091A502C901B3010E94182816
:102BA000FC01E258FD4F42A2C90101969093A50293
:102BB0008093A4022091A2024091A1026091A00200
:102BC00005C03092A3024092A00233C00E94362179
:102BD0001092A30238C01092A3021092A502109284
:102BE000A40231C0222079F12091A4023091A502E3
:102BF000C901B3010E941828AC01FC01E258FD4F45
:102C000042A2C90101969093A5028093A40241308B
:102C10005105A1F042305105B1F42091A20240913A
:102C2000A1026091A0020E9436218091A30284300B
:102C300051F0B092A502A092A40205C0F2E02F12BA
:102C400002C020E0ECCF2FB7F8948091660390E0AB
:102C500001966091680370E00E942C2880936603BF
:102C60002FBF2FEFC21AD20A48CF0E94191190919C
:102C7000FF01891721F00E9419118093FF018091B3
:102C80007402843009F0D6CC809105018F70809356
:102C9000E9009091E80090FFCDCC909174029430BF
:102CA00009F0C8CC8093E9002091F3008091F200F4
:102CB00090E0922B892B09F4BDCC8091E8008E77AF
:102CC0008093E8000E94E60CB5CC09BD19BD09B49B
:102CD00000FEFDCF8091D8008F7D8093D800809139
:102CE000E00082608093E0008091E00081FDFCCFF5
:102CF0000E948826A6CC2D32314008F02ECE6ACE16
:102D00002D32314008F07DCEB9CE80E0089590910B
:102D1000F40192FF0DC0282F2871283019F4877F05
:102D2000846006C0282F2471243011F48B7F8860C2
:102D300093FF0DC0282F2871283119F4877E8461F4
:102D400006C0282F2471243111F48B7E88612091D4
:102D5000F50120FF0DC0382F3871383019F4877F06
:102D6000816006C0382F3171313011F48E7F886058
:102D700021FF0DC0282F2871283119F4877E816129
:102D800006C0282F2171213111F48E7E886194FDB7
:102D9000877E0895F894E82FE295EF70F0E031A176
:102DA000282F2F7081E090E001C0880F2A95EAF764
:102DB000982F9095932391A392A1892B82A3789425
:102DC0000895AF92BF92CF92DF92EF92FF920F934E
:102DD0001F93CF93DF9300D01F92CDB7DEB7198238
:102DE0001A821B828AE5E82E81E0F82E00E010E0CE
:102DF000CC24C394D12C5E0144E0A40EB11CD701B5
:102E00008C918F3F09F44CC0F894E82FE295EF7055
:102E1000F0E021A18F70A60102C0440F551F8A95D2
:102E2000E2F7CA01922F982B91A392A18095892352
:102E300082A3789400C0C601002E01C0880F0A94B6
:102E4000EAF7482F382F30956DE571E0FE01319695
:102E5000DB012D91BD012F3F99F0822F82958F705C
:102E600090E0DC0190968C9190E02F7002C09595D7
:102E700087952A95E2F780FD03C08081842B02C0EC
:102E80008081832380833196EA15FB0509F7F701DA
:102E900080818F3F11F00E94CA16F0EAFA95F1F78F
:102EA0000F5F1F4F4FEFE41AF40A0330110509F0CA
:102EB000A6CF43E050E0BE016F5F7F4F86EF91E009
:102EC0000E94B22811E0009709F410E0892B91F0DC
:102ED00089819A81AB818093F6019093F701A09349
:102EE000F80181E080934F020E94911090934E026E
:102EF00080934D0280914F028823B1F080914D0262
:102F000090914E020E948210059770F08091F60118
:102F10008093FC018091F7018093FD018091F8017D
:102F20008093FE0110924F02812F0F900F900F900F
:102F3000DF91CF911F910F91FF90EF90DF90CF9095
:102F4000BF90AF900895CF93DF938238910569F1D8
:102F5000B0F48133910509F46FC048F489329105CA
:102F600009F465C08A32910509F46BC08AC08533C3
:102F7000910509F457C089339105B9F082C0833EA9
:102F8000910571F138F4803E9105B1F0823E9105D2
:102F900011F177C0863E9105B9F1873E9105C9F1DF
:102FA000843E910509F06DC024C02091F40120FDFC
:102FB00053C021FD51C065C08091F40180FD46C021
:102FC0008091F50180FF48C08091F40184FD50C1DB
:102FD00083EE90E04FC18091F40182FF3AC0F4CFBC
:102FE0008091F40182FD35C08091F50180FD34C0EF
:102FF000EBCF8091F50181FF35C08091F40184FD14
:1030000037C187EE90E036C18091F40183FF27C07D
:10301000F4CF8091F40183FD22C08091F50181FD00
:1030200021C0EBCF8091F40185FD1FC021C08091AC
:10303000F40185FD1DC019C08091F40186FD1BC0FF
:103040001DC08091F40186FD19C015C089E390E090
:1030500011C182EE90E00EC180EE90E00BC186EED1
:1030600090E008C184EE90E005C189E290E002C1E1
:1030700085E390E0FFC08AE290E0FCC081E390E04D
:10308000F9C0811531E5930708F069C0811540E565
:103090009407F0F09C0174E0369527957A95E1F756
:1030A000922F9370482F437021E030E002C0220F2E
:1030B000331F4A95E2F73C68392B982F9F709695FD
:1030C000969540E2949FC0011124822B932BD2C08D
:1030D000883E910568F5803E910508F0CBC0883A9E
:1030E0009105B8F4853A910548F0855AE82FF0E04B
:1030F000E05AFE4F808190E09064BCC08130910521
:1031000009F4B3C008F4B4C08430910508F4B0C029
:10311000B1C08F3B910508F0ABC0885AE82FF0E0B2
:10312000EE0FFF1FED59FE4F808191819464A2C084
:10313000811520E2920758F4811531E0930708F0D9
:1031400099C08D3E910508F493C0906593C0811598
:1031500040E4940708F48CC09F70906A8BC081157E
:1031600025E5920708F042C0811534E5930728F061
:10317000982F8827846F906A7DC0811543E5940756
:10318000B0F09C012370332741E050E002C0440FAF
:10319000551F2A95E2F7282F2695269580E2289F2D
:1031A00090011124CA01822B932B9A6863C0811568
:1031B00022E5920728F4982F8827816F906A5AC0D9
:1031C0009C012370332741E050E002C0440F551F9B
:1031D0002A95E2F7282F2695269580E2289F9001D0
:1031E0001124CA01822B932B9C6844C0EC018115E9
:1031F00039E59307A8F48115984528F09C2F882776
:10320000806F906A37C0C11586E5D80788F58C2F86
:103210000E9487168F7190E0982F882790622AC0AD
:1032200081152AE5920790F48C2F8F700E948716E3
:1032300094E0D695C7959A95E1F7CF70D0E0DC2F52
:10324000CC27D0699E01282BC90114C09056811546
:10325000904270F48D2F8F710E948716282F2F7146
:10326000CE0199279062922B05C081E090E002C0C8
:1032700080E090E0DF91CF910895CF9384E090E0DB
:103280000E94C227C82F82E290E00E94C2272C2F02
:1032900030E0A901582BCA01CF91089569EE7EEF65
:1032A00080E090E00E94F42760E082E090E00E94DD
:1032B000D62760E083E090E00E94D6271092490272
:1032C00010924A0210924B0210924C0260E084E08D
:1032D00090E00E94D62760E082E290E00E94D6272C
:1032E00060E085E090E00E94D62760E086E090E014
:1032F0000E94D6276FEF87E090E00E94D62740E03B
:1033000050E0BA0188E090E00E94E82760E08DE09C
:1033100090E00E94D62740E050E0BA0188E190E0BA
:103320000E94E82760E087E190E00E94D62740E015
:1033300050E0BA018CE190E00E94E82760E070E084
:1033400080E290E00E94F42740E050E0BA0188E17A
:1033500090E00E94E82740E050E0BA018FE090E062
:103360000E94E82740E050E0BA0183E190E00C942D
:10337000E8278091480281111092480208959091A7
:10338000470280914602892B20914502982F922B6B
:103390009093040280914802882389F0892B8093BE
:1033A0000402E6E0F2E097E080E0915029F02191FC
:1033B0002223D9F38F5FF9CF81110E94B919E091CF
:1033C000E301F091E401309731F00280F381E02DC8
:1033D00084E092E009940895CF93C091F501C2FB77
:1033E000992790F9981781F080FBC2F9C093F501F5
:1033F0006091F40184E090E00E94D6276C2F82E275
:1034000090E0CF910C94D627CF910895209144025B
:103410008095822380934402982F977041F430E086
:10342000482F082E000C550B2417350721F49091D6
:10343000F50192FF07C08595859585950E940C261C
:1034400010924402089580914302909112028917CC
:1034500019F08F5F8770FBCF08950F931F93CF9361
:10346000DF938091110282958F7009F05DC0809189
:103470000E02882309F458C0809143021091120271
:1034800060910C0270910D02C0910F02D091100258
:1034900091E06F3F09F090E0292F06E0811709F4D1
:1034A00043C0209721F07F3F21F030E003C031E09E
:1034B00001C0322F90E030FD34C0089FF001099F19
:1034C000F00D1124DF01AD5EBD4F11963C911197B7
:1034D000371327C03C91361324C012963C911297A3
:1034E00031111FC013964D915C9114974C1B5D0BCD
:1034F000483C5105B0F4809111028F708061809337
:103500001102E85EFD4F80818F70806180838CE0C6
:1035100092E00E944E03DF91CF911F910F910C9486
:10352000231A01968770BACFDF91CF911F910F9127
:103530000895CF93DF93D82FC92F0E944F252C2FAA
:1035400030E0F901EE0FFF1F2E0F3F1FF90199E048
:10355000899FE00DF11D1124ED0FF11DEE0FFF1FEE
:10356000EA5FFE4F859194910E94A317DF91CF915E
:1035700008959F92AF92BF92CF92DF92EF92FF9207
:103580000F931F93CF93DF93CDB7DEB761970FB63D
:10359000F894DEBF0FBECDBF8C0185E0F801DE01DF
:1035A0001D9601900D928A95E1F7F801E2809091C5
:1035B0000C0260910D0240910F02509110024115D2
:1035C000510531F06F3F31F481E09F3F19F403C0A2
:1035D00081E001C080E0F82FF1709F2E80FD1AC1BC
:1035E000F80130812181C380D4808CE0A82E82E054
:1035F000B82EF0900E02F601E41BF50BFF2009F443
:10360000C6C080911102E83CF10508F091C0482F36
:10361000407F09F050C0621311C093130FC0FE2CFD
:10362000E1100CC08F70806180931102C5010E946F
:103630004E0380911102F801858329C1CD2831F014
:103640002F3F31F481E03F3F19F403C081E001C016
:1036500080E080FD03C081E08E2502C080E090E024
:10366000F82FF170FF2E80FF1CC080914302409123
:10367000120256E0841709F4E8C090E0589FF00168
:10368000599FF00D1124ED5EFD4F6181261306C098
:103690006081631303C06281E61203C001968770E4
:1036A000E9CFFE2CEE2009F4F2C080911102816076
:1036B0008093110249C0621306C0931304C0E11045
:1036C00002C0F80186C0C8010E945C26882351F11F
:1036D000EE2041F120911102822F82958F7090E0AF
:1036E000029774F080910C0290910D0298878F835D
:1036F0001986DB86CA862C87CE0107960E944E0368
:1037000086E0F801ACE0B2E001900D928A95E1F715
:103710000E942D1A0AC06217C9F0C8010E945C26D7
:1037200081111EC0C8010E944E03FF24F394AFC054
:10373000482F407F81F78CE092E00E944E0386E0A4
:10374000F50111928A95E9F7F12CA1C09313E5CF09
:10375000E110E3CFF8018583C8010E944E0354C0F5
:10376000EE2001F320911102822F82958F7090E05C
:10377000029734F280910C0290910D029A83898312
:103780001B82DD82CC822E83CE010196B7CFE83C2E
:10379000F105D0F5FE2CEE2029F2621327C0931319
:1037A00025C02091110220FD18C0822F82958F70B4
:1037B000482F50E04115510581F0F80125834F3025
:1037C000510541F08F5F982F9295907F822F8F70D7
:1037D000892B8583C8010E944E0386E0F801ACE086
:1037E000B2E001900D928A95E1F751C0C8010E94A4
:1037F0005C26811185CF8091110281608093110236
:10380000C8010E944E0343C086E0F50111928A95DB
:10381000E9F73DC0EE2009F485CFC8010E945C267F
:10382000F82E882309F47ECF86E0F801ACE0B2E000
:1038300001900D928A95E1F780910C0290910D0212
:103840000E94991A0E942D1A22C03D872E878D85CD
:103850009E850E94991A292F22952F70223028F4D4
:103860009F7039F0811105C00BC0243028F49F707F
:1038700049F4805E883020F0C8010E944E039F2CDE
:10388000F92C05C0F8019581907F99F7F9CF8F2D1C
:1038900061960FB6F894DEBF0FBECDBFDF91CF911A
:1038A0001F910F91FF90EF90DF90CF90BF90AF905E
:1038B0009F90089508956091D901669570E04BE05E
:1038C00050E08AE191E00E94A528892B19F481E05B
:1038D000809365020E94911090935F0280935E0234
:1038E00008958091D90180FF0AC06A9A8EB18B7FBA
:1038F0009EB194602FB7F894EEEBF1E00BC0EEEBC5
:10390000F1E0118210821282339631E0E93DF30733
:10391000C1F7EBCF31E0E93DF30789F0319148E0A1
:103920009EB9000000C037FF8EB9330F000000C001
:1039300000C000C08EB900C04A9591F7EBCF2FBFF1
:103940008FE594E00197F1F700C000000895909191
:10395000D90190FF0CC0EEEBF1E0818360834283DC
:10396000339691E0E93DF907C1F70C94711C089575
:103970008091D901282F269530E02115310519F4C1
:103980008170826005C02532310524F08170886421
:103990008093D9010895CF92DF92EF92FF926B014D
:1039A0007C010E94B81CB701A60188E090E0FF905E
:1039B000EF90DF90CF900C94E8278091DD01882371
:1039C00019F081508093DD016091D9017091DA0185
:1039D0008091DB019091DC010C94CB1C8091DD0186
:1039E000833018F48F5F8093DD016091D90170916D
:1039F000DA018091DB019091DC010C94CB1CE9EDA4
:103A0000F1E083E0808311828FEF828383831482CD
:103A100060817181828193810C94CB1CAF92BF92A3
:103A2000CF92DF92EF92FF920F931F93CF93DF938A
:103A3000E82EF62EE901E42FF0E0611106C0E65D04
:103A4000FE4FE4914E2F2E2F71C0062F10E0E65D41
:103A5000FE4F4491F42FC42ED12C26E0829FC0014A
:103A600011242FEF30E0B9010E9418285BEA5603B9
:103A7000C001579F900D11248E0D911D8E0D911D2B
:103A8000582F550F580FD901A01BB10BAC9DC00189
:103A9000AD9D900DBC9D900D1124E92FF59ED00198
:103AA0001124AB2FBB277901EA1AFB0AEC9CD00149
:103AB000ED9CB00DFC9CB00D11245901A51AB10864
:103AC000A09E7001A19EF00CB09EF00C1124EF2C72
:103AD000FF242E193F092C9D80012D9D100D3C9D2A
:103AE000100D1124212F6230710591F048F46115F9
:103AF0007105E1F061307105B9F4242F4B2F16C028
:103B00006430710569F040F06630710579F00CC0E1
:103B1000242F492FE12F0AC0492FEF2F2B2F06C04A
:103B2000292FE42F412F02C0292FEB2F498328830F
:103B3000EA83DF91CF911F910F91FF90EF90DF907B
:103B4000CF90BF90AF900895CF93DF9300D01F9296
:103B5000CDB7DEB79091D90190FF0AC09E012F5FCB
:103B60003F4F0E940E1D4B8169818A810E94A71CD4
:103B70000F900F900F90DF91CF910895CF93DF9327
:103B8000EC01E9EDF1E0438162818C810E94A41D8A
:103B90008C818F5F8C83DF91CF910895CF93DF93DA
:103BA000EC01EC81F0E0E15DFD4F4491E9EDF1E0E5
:103BB000628181810E94A41D8C818F5F8C83DF9143
:103BC000CF9108950F931F93CF93DF93CEEBD1E066
:103BD000FE01118210821282339681E0E93DF807DE
:103BE000C1F700E010E080916702082E000C990BED
:103BF0000817190794F080912601082E000C990BE4
:103C00008017910754F09E014091DC016091DB0127
:103C10008091DA010E940E1D03C0198218821A8257
:103C20000F5F1F4F239609301105E9F60E94711CA2
:103C30008091250190916702980F909367022091DF
:103C40002601280F20932601121614F498301CF038
:103C5000819580932501DF91CF911F910F91089558
:103C6000BF92CF92DF92EF92FF920F931F93CF9369
:103C7000DF93FC01828180FF03C0DD24DA9402C05F
:103C8000DD24D3940EEB11E0C0E0D0E029E0B22EA9
:103C9000F80111821082128294E0E92EF12CC12CDD
:103CA000809166028C0D8A302CF06B2D0E940A28C0
:103CB000892F02C087FD875F082E000C990BC8175B
:103CC000D90791F48091DC018E9DA0018F9D500D4C
:103CD0001124559547955595479598016091DB01BD
:103CE0008091DA010E940E1DCD0CF1E0EF1AF1086F
:103CF000B9F621960D5F1F4FC930D10549F60E94D4
:103D0000711C8091660291E0D91206C0811102C037
:103D100088E007C0815005C090E00196BE010E9476
:103D20002C2880936602DF91CF911F910F91FF9015
:103D3000EF90DF90CF90BF900895EF92FF921F9386
:103D4000CF93DF93EC018EEBE82E81E0F82E10E0AC
:103D50008C8197014091DC016091DB01810F0E9411
:103D60000E1D145E83E0E80EF11C1C3F89F70E94D3
:103D7000711C9A818C8190FF02C08F5F01C08150BD
:103D80008C83DF91CF911F91FF90EF9008955F9208
:103D90006F927F928F929F92AF92BF92CF92DF925B
:103DA000EF92FF920F931F93CF93DF9300D01F9258
:103DB000CDB7DEB7182F762E042F622E9091D90141
:103DC00090FF6DC0E92FE695AE2FB0E0AF56BE4F25
:103DD0008C91809364029E7F923061F49E012F5FEC
:103DE0003F4F812F0E940E1D4B8169818A810E9465
:103DF000A71C43C0823019F40091DC013EC086301C
:103E000019F41091DA0139C08930D9F38931A9F553
:103E1000E9518E2F8170582EE695F0E0E65DFD4F5A
:103E2000A590B4908EEBC82E81E0D82EE12CF12C19
:103E3000BB2499E0892E912CAE9CC001AF9C900DC3
:103E4000BE9C900D1124B4010E941828812F51109E
:103E500002C0860F01C0861B9601402F672D0E946D
:103E60000E1D8FEFE81AF80A83E0C80ED11C89E016
:103E7000E816F10409F70E94711C1093DA017092A0
:103E8000DB010093DC01662051F06091D901709153
:103E9000DA018091DB019091DC010E94CB1C0F9034
:103EA0000F900F90DF91CF911F910F91FF90EF90A6
:103EB000DF90CF90BF90AF909F908F907F906F904A
:103EC0005F900895E9EDF1E0438128E0421B08F49A
:103ED00040E021E0628181810C94C71EE9EDF1E0B0
:103EE000438128E0420F08F44FEF21E06281818195
:103EF0000C94C71EE9EDF1E0628128E0621B08F432
:103F000060E021E0438181810C94C71EE9EDF1E07E
:103F1000628128E0620F08F46FEF21E04381818124
:103F20000C94C71EE9EDF1E0818121E043816281BB
:103F300088500C94C71EE9EDF1E0818121E04381B6
:103F40006281885F0C94C71E9091D90190FF36C0A2
:103F50009170811102C0926006C0853210F09864A1
:103F600002C0880F982B9093D901662351F060917D
:103F7000D9017091DA018091DB019091DC010E94FE
:103F8000CB1C6091D901669570E04BE050E08AE16E
:103F900091E00E94A528892B19F01092650202C0B9
:103FA0000E945B1C81E08093610220E04091DC0173
:103FB0006091DB018091DA010C94C71E0895809115
:103FC000D9018695815009F484E261E00C94A41F24
:103FD0008091D90186958F5F853208F081E061E09C
:103FE0000C94A41F0E94911020915A02211104C028
:103FF00020915B02222321F0909357028093560276
:1040000020915C02211104C020915D02222321F045
:104010009093550280935402E091E301F091E40102
:10402000309749F082E0809358020480F581E02DBA
:1040300088E592E0099408958D3E39F490915B02F1
:1040400097FF35C010925B0259C08E3E29F49091C3
:104050005B021916BCF32BC090915A028F3E29F4D3
:1040600097FF25C010925A0249C0803F19F41916D3
:10407000CCF31DC090915C02893F29F41916BCF461
:1040800010925C023BC08A3F19F497FF10C0F8CF32
:104090008B3F39F490915D0297FF09C010925D0249
:1040A0002DC08C3F21F490915D021916BCF39FE066
:1040B000980F983080F421E030E0A90102C0440F4D
:1040C000551F9A95E2F7CA0180959091590289236C
:1040D0008093590213C08D3F21F4809153028E7F4B
:1040E0000BC08E3F21F4809153028D7F05C08F3F1E
:1040F00029F4809153028B7F8093530280915A025E
:10410000811106C080915B02811102C0109252029F
:1041100080915C02811106C080915D02811102C014
:104120001092510208958091530280FD16C081FDC6
:1041300016C082FD18C080915102882391F0883208
:1041400090F428E0829FC001112468E270E00E9490
:104150002C28862F672B29F007C082E0089584E081
:10416000089581E0089588E008958091530280FDCC
:1041700014C081FD14C082FD16C0809152028823B4
:1041800081F0843180F422E3829FC001112464E134
:1041900070E00E942C28862F08958CE0089589E114
:1041A000089585E0089582E308958D3E21F40E94EC
:1041B000B520819504C08E3E29F40E94B5208093DD
:1041C0005B0208958F3E21F40E94B520819504C0C2
:1041D000803F29F40E94B52080935A020895893FB8
:1041E00019F40E94932005C08A3F31F40E94932065
:1041F000819580935C0208958B3F21F40E94932067
:10420000819504C08C3F29F40E94932080935D0225
:1042100008959FE0980F983078F421E030E0A901EC
:1042200002C0440F551F9A95E2F7CA0190915902B6
:10423000892B8093590208958D3F21F48091530278
:1042400081600BC08E3F21F480915302826005C0D3
:104250008F3F29F480915302846080935302089524
:104260008091500281110C94B3270895CF92DF9270
:10427000EF92FF920F931F93CF93DF9300D01F9283
:10428000CDB7DEB77C01162FD42EC22E8091A302AB
:104290008430F9F4E0919802F0919902309709F492
:1042A000B7C0C701019763E070E00E941828CB01F6
:1042B000880F991F860F971F19834A83CB824E2D33
:1042C000481B9E012F5F3F4FBC018EE792E009958E
:1042D000ACC082E0E816F10409F44FC083E0E816B0
:1042E000F10431F081E0E816F10409F08DC078C0E6
:1042F000862F807F803AE1F050F48038A1F0803939
:1043000009F086C0E0918202F091830225C0803ED0
:10431000A1F0803FB9F0803B09F07AC0E0918002C3
:10432000F091810219C0E0918402F091850214C0DD
:10433000E0918602F09187020FC0E0918802F0912F
:1043400089020AC0623F09F063C0E0918A02F091DD
:104350008B02309731F45CC0309709F459C0123F9A
:1043600021F42C2D4D2D62EF04C02C2D4D2D612FED
:104370006F708EE792E0099558C0862F807F803D50
:1043800051F0803F69F0803C09F042C0E0918C021E
:10439000F0918D0215C0E0918E02F0918F0210C055
:1043A000633F29F4E0919002F091910206C0613FD1
:1043B00079F5E0919202F0919302309739F428C098
:1043C000309731F1812F8D7F813F19F44D2D612F71
:1043D00003C04D2D612F6F708EE792E0099525C0C7
:1043E000683F28F0E0919402F091950206C0663F84
:1043F00079F4E0919602F0919702309749F0612F9D
:104400008EE792E0099511C084E0E816F104D8F433
:10441000E0919A02F0919B02309739F00C2D2D2DEE
:10442000412FB7018EE792E00995E0919C02F0914F
:104430009D02309759F00C2D2D2D412FB7018EE79D
:1044400092E0099503C0E12CF12CE2CF0F900F9080
:104450000F90DF91CF911F910F91FF90EF90DF9020
:10446000CF900895EF92FF920F931F93CF93DF9316
:104470007C018B010E94E60C811119C0E701011536
:104480001105A1F08091E80085FD0AC08091E80047
:104490008E778093E8000E94E60C882381F307C0A2
:1044A00089918093F10001501109E9CF80E0DF91FB
:1044B000CF911F910F91FF90EF9008951F93CF938D
:1044C000DF93CDB7DEB7AA970FB6F894DEBF0FBE65
:1044D000CDBFE6E7F2E08091F100819322E0EE3774
:1044E000F207C9F780917702833009F460C030F495
:1044F000813071F0823009F49AC0B1C08A3009F479
:1045000086C08B3009F46BC0893009F0A8C020C088
:1045100080917602813A09F0A2C08091E800877FFD
:104520008093E80080917A0290917B02892B21F49C
:1045300068E08AE692E003C060E080E090E070E02E
:104540000E94A30E8091E8008B778093E80087C0DB
:1045500080917602813209F082C080917A02909136
:104560007B02029708F07BC08091E800877F8093F0
:10457000E8008091E80082FD05C0809174028111FD
:10458000F8CF6DC02091F3008091F20090E0922B63
:10459000029729F48091F1008B7F813021F4809182
:1045A000F100809369028091E8008B7754C080917C
:1045B0007602813A09F053C080917A0290917B0291
:1045C000892B09F04CC08091E800877F8093E80038
:1045D0008091E80080FFFCCF8091270137C0809157
:1045E00076028132E1F580917A0290917B02892BEB
:1045F000B1F58091E800877F8093E8000E94190D53
:1046000080917802809327010E94882628C080919B
:104610007602813221F58091E800877F8093E8005F
:104620000E94190D809179028093680218C08091D0
:104630007602813AA1F48091E800877F8093E800B8
:104640008091E80080FFFCCF809168028093F100A8
:104650008091E8008E778093E8000E94190D809188
:10466000E80083FFD7C18091760290917702492FAD
:1046700050E04A30510508F0CDC1FA01EE59FF4F24
:104680000C946228803821F0823809F0C3C108C038
:104690008091720290917302992389F082600FC019
:1046A00080917A028F70873008F0B4C18093E9005E
:1046B0008091EB0085FB882780F91092E9009091AA
:1046C000E800977F9093E8008093F1001092F1004A
:1046D00066C1282F2D7F09F09DC1882319F08230F3
:1046E00061F098C180917802813009F093C19330D4
:1046F00009F080E0809373022EC0809178028111CE
:104700002AC080917A028F702FEF280F263008F090
:1047100081C18093E9002091EB0020FF1CC0933001
:1047200021F48091EB00806214C09091EB009061C5
:104730009093EB0021E030E0A90102C0440F551F27
:104740008A95E2F74093EA001092EA008091EB002C
:1047500088608093EB001092E9008091E800877FE9
:1047600021C1811157C1109178021F778091E30018
:104770008078812B8093E3008091E800877F80938D
:10478000E8000E94190D8091E80080FFFCCF809125
:10479000E30080688093E300111102C082E001C051
:1047A00083E08093740236C18058823008F032C1B1
:1047B00080917802909179028C3D53E0950779F5CC
:1047C00083E08A838AE289834FB7F894DE011396E7
:1047D00020E03EE051E2E32FF0E050935700E491F7
:1047E00020FF03C0E295EF703F5FEF708E2F90E0E7
:1047F000EA3010F0C79601C0C0968D939D932F5F4D
:10480000243149F74FBF8091E800877F8093E8000B
:104810006AE270E0CE0101960E94A30EAEC0409104
:104820007A0250917B02292F332723303105A9F0DA
:1048300068F42130310509F4FCC02230310509F05B
:10484000E9C08FE990E0EAEEF3E044C0213231059F
:1048500021F12232310571F1DDC0992781309105B6
:10486000A1F058F0029709F0D5C0EBE9F4E0E4912B
:104870008E2F90E0EBE9F4E02AC0E5EBF4E0E49160
:104880008E2F90E0E5EBF4E022C0E9EAF4E0E49159
:104890008E2F90E0E9EAF4E01AC04115510509F4C1
:1048A000CDC04130510509F0B5C089E090E0E5E1A7
:1048B000F4E010C04115510509F4C5C0413051055F
:1048C00009F0A8C08BE790E0EFE2F3E003C00097A7
:1048D00009F4A0C02091E800277F2093E8002091F0
:1048E0007C0230917D028217930708F49C0140E01E
:1048F0002115310589F180917402882309F43DC0A6
:104900008530D9F18091E80083FD37C08091E800BF
:1049100082FD2FC08091E80080FFEACF4091F30034
:104920008091F20090E0942B2115310559F08830E8
:10493000910540F444914093F100319621503109A2
:104940000196F2CF41E0089709F040E08091E8003D
:104950008E778093E800CCCF4111CDCF0AC08091F3
:104960007402882351F0853041F08091E80083FD86
:1049700004C08091E80082FFF2CF8091E8008B773D
:104980008093E80047C0803809F044C08091E80077
:10499000877F8093E800809175028093F100809179
:1049A000E8008E778093E8000E94190D33C08111D2
:1049B00031C080917802909179029927029754F53D
:1049C0008091E800877F8093E8001091780210932F
:1049D00075020E94190D111106C08091E30087FD38
:1049E00002C081E001C084E08093740242E061EC87
:1049F00081E00E94380D42E261EC82E00E94380DB5
:104A000042E361E883E00E94380D42E361E884E01C
:104A10000E94380D8091E80083FF1AC08091E80061
:104A2000877F8093E8008091EB0080628093EB00A9
:104A30000FC082E190E0E9E8F4E04CCF89E090E03B
:104A4000ECEFF3E047CF80E490E0EAEAF3E042CF16
:104A5000AA960FB6F894DEBF0FBECDBFDF91CF91FF
:104A60001F91089580E090E00E94031180E090E0A3
:104A70000E94ED1010924602109245020E94BF194A
:104A8000E8E5F2E086E0DF011D928A95E9F71092F1
:104A9000520210925102109253020C94F21F8F9204
:104AA0009F92AF92BF92DF92EF92FF920F931F936C
:104AB000CF93DF938090F0019090F101A090F201EC
:104AC000B090F3014091490250914A0260914B022B
:104AD00070914C02842A952AA62AB72ACFE1D0E009
:104AE000292F30E08901000F111F020F131F29E049
:104AF000D22EE82EF12CD501C4010C2E04C0B6959F
:104B0000A795979587950A94D2F780FD04C02197C1
:104B100090F780E014C0DC9EF001DD9EF00D1124C2
:104B2000E00FF11FEE0DFF1DEE0FFF1FEA5FFE4FBE
:104B3000859194910E94A317019749F38C2FDF91DF
:104B4000CF911F910F91FF90EF90DF90BF90AF90AA
:104B50009F908F900895292F220F920F890F682F11
:104B6000669566956695982F977085E0689FB00169
:104B7000112440E050E080E0FB01E40FF51FE5590F
:104B8000FC4F208130E0092E02C0369527950A940B
:104B9000E2F721703327042E01C0220F0A94EAF7AE
:104BA000822B4F5F5F4F4530510531F70895292F14
:104BB000220F920F890FE82FE695E695E69587700C
:104BC00051E001C0550F8A95EAF785E0E89FF001B2
:104BD0001124E559FC4F20E030E070E04081CB012A
:104BE000022E02C0969587950A94E2F7817081950E
:104BF00084278523842781932F5F3F4F25303105FC
:104C000069F708956093F0017093F1018093F201C8
:104C10009093F3010C9432250F931F9341E050E0E1
:104C200060E070E004C0440F551F661F771F8A952F
:104C3000D2F740955095609570958091F0019091D4
:104C4000F101A091F201B091F3018A019B010823C7
:104C500019232A233B23C901B8011F910F910C94FA
:104C600002260F931F9341E050E060E070E004C023
:104C7000440F551F661F771F8A95D2F78091F00168
:104C80009091F101A091F201B091F3018A019B0191
:104C9000082B192B2A2B3B2BC901B8011F910F910F
:104CA0000C9402266093490270934A0280934B024F
:104CB00090934C020C943225FC01808191810E94DA
:104CC000991A292F2F70E92FE295EF704E2F50E09F
:104CD000FA013297EE30F105B8F4E459FF4F0C9425
:104CE0006228803F99F018F4883E70F40FC0843F2A
:104CF00059F40CC0883E50F0813F31F407C0822F38
:104D0000869586958695089580E0089581E00895BA
:104D10001092470286E0E6E0F2E0DF011D928A95FC
:104D2000E9F70C943225882341F080959091470251
:104D30008923809347020C94BF190895882339F082
:104D400090914702892B809347020C94BF190895D4
:104D5000882309F463C0823869F40E94191181FF25
:104D60005DC069E384E092E00E94D3100E94BF1905
:104D700069E30EC0833891F40E94191180FF4EC080
:104D800063E584E092E00E94D3100E94BF1963E5BE
:104D900084E092E00E94C6100C94BF19843869F434
:104DA0000E94191182FF3AC067E484E092E00E94F9
:104DB000D3100E94BF1967E4EBCF9CEF980F913A94
:104DC00010F4682FE5CF90E2980F983088F4877040
:104DD00021E030E0A90102C0440F551F8A95E2F797
:104DE000CA01809590914702892380934702D4CFCE
:104DF0009BE5980F933020F480E090E00C94031131
:104E000098E5980F973120F480E090E00C94ED1035
:104E10008D3E20F00E941C200C94F21F0895CF9329
:104E2000882309F49EC0C82F8238B1F40E9419115A
:104E300081FD97C069E384E092E00E94D3100E9454
:104E4000BF192FEF81EE94E0215080409040E1F7B0
:104E500000C0000069E317C08338E1F40E94191113
:104E600080FD7FC063E584E092E00E94D3100E9441
:104E7000BF192FEF81EE94E0215080409040E1F780
:104E800000C0000063E584E092E00E94C610CF916C
:104E90000C94BF198438B1F40E94191182FD61C0CD
:104EA00067E484E092E00E94D3100E94BF192FEFC4
:104EB00081EE94E0215080409040E1F700C0000076
:104EC00067E4E1CF8CEF8C0F813A80F4E6E0F2E00A
:104ED0008CE092E02191C217E1F18E179F07D1F784
:104EE0006C2F84E092E00E94D310D1CF80E28C0F2F
:104EF000883068F4C77081E090E001C0880FCA95DF
:104F0000EAF790914702892B80934702C0CFEBE5E7
:104F1000EC0FE33040F4F0E0E05AFE4F808190E087
:104F2000CF910C940311E8E5EC0FE73150F4F0E079
:104F3000EE0FFF1FED59FE4F80819181CF910C94B0
:104F4000ED10CD3E70F08C2F0E94D520CF910C94A7
:104F5000F21F6C2F84E092E00E94C6100E94BF19DD
:104F6000BFCFCF9108950F93E0917E02F0917F0221
:104F700000E02BE740EB63E070E08EE792E00995FC
:104F80000F910895F999FECF92BD81BDF89A9927A6
:104F900080B50895A6E1B0E044E050E00C94FC2711
:104FA000A8E1B0E042E050E00C94FC27262FF999EC
:104FB000FECF92BD81BDF89A019700B4021639F078
:104FC0001FBA20BD0FB6F894FA9AF99A0FBE089549
:104FD0000396272F0E94D7270E94D627252F0E94AD
:104FE000D727242F0C94D7270196272F0E94D72745
:104FF0000C94D627DC01CB01FC01F999FECF06C049
:10500000F2BDE1BDF89A319600B40D924150504086
:10501000B8F7089587FB082E062687FD819567FD62
:1050200061950E9499280EF4919507FC8195089549
:10503000AA1BBB1B51E107C0AA1FBB1FA617B707BE
:1050400010F0A61BB70B881F991F5A95A9F78095DA
:105050009095BC01CD01089597FB072E16F400949E
:1050600007D077FD09D00E94182807FC05D03EF430
:10507000909581959F4F0895709561957F4F089504
:10508000A1E21A2EAA1BBB1BFD010DC0AA1FBB1F4C
:10509000EE1FFF1FA217B307E407F50720F0A21BBE
:1050A000B30BE40BF50B661F771F881F991F1A942B
:1050B00069F760957095809590959B01AC01BD0155
:1050C000CF010895EE0FFF1F0590F491E02D099494
:1050D0000E947028332312F48A1B9B0B0C948128A6
:1050E000A29FB001B39FC001A39F700D811D112429
:1050F000911DB29F700D811D1124911D08950E9474
:105100007028B7FF0895821B930B08950E947028A2
:10511000A59F900DB49F900DA49F800D911D11240B
:105120000895B7FF0C9486280E948628821B930B53
:105130000895991B79E004C0991F961708F0961BF3
:10514000881F7A95C9F780950895FC014150504019
:1051500030F001900616D1F73197CF0108958827D6
:1051600099270895FB01DC0104C08D9101908019FD
:1051700021F441505040C8F7881B990B0895F894CA
:02518000FFCF5F
:1051820003640001038340000001044000000100A9
:10519200FD0A540B350B310B2D0B01191A1B1C1D6B
:1051A2001E1F2021220102010002040507090B0C27
:1051B2000E1011131517181A1C1D1F21232426283F
:1051C200292B2D2F3032343537393B0203020000B0
:1051D20001000101010101000101969291F5F4F132
:1051E200818283E200E900EA00B500B600B700CD93
:1051F200008301CC008A019201940121022302243E
:10520200022502260227022A02B300B4006F0070B0
:10521200000001020202020606060909090909093B
:105222000F0F0F0F0F0F1515151819191919191935
:06523200191919192324CB
:00000001FF
