:100000000C949B010C94D3010C94D3010C94D30158
:100010000C94D3010C94D3010C94D3010C94D30110
:100020000C94D3010C94D3010C942B270C9403282B
:100030000C94E0260C94D3010C94D3010C94D301BE
:100040000C94D3010C94D3010C94D3010C94D301E0
:100050000C94D3010C9407270C94D3010C94D30176
:100060000C94D3010C94D3010C94D3010C94D301C0
:100070000C94D3010C94D3010C94D3010C94D301B0
:100080000C94D3010C94D3010C94D3010C94D301A0
:100090000C94D3010C94D3010C94D3010C94D30190
:1000A0000C94D3010C94D3010C94D30105010902E3
:1000B000A10185020901A1000509190129081500FE
:1000C0002501950875018102050109300931158165
:1000D000257F95027508810609381581257F9501D0
:1000E00075088106050C0A38021581257F95017572
:1000F000088106C0C005010980A101850319012AF4
:10010000B700150126B700950175108100C0050CD8
:100110000901A101850419012AA002150126A002E6
:10012000950175108100C005010906A1018506052C
:100130000719E029E71500250195087501810205D9
:1001400007190029EF1500250195F07501810205B9
:10015000081901290595057501910295017503910D
:1001600001C005010906A101050719E029E71500ED
:100170002501950875018102950175088101050722
:10018000190029FF150026FF009506750881000556
:10019000081901290515002501950575019102959C
:1001A0000175039101C009023B00020100A0FA0998
:1001B0000400000103010100092111010001224492
:1001C0000007058103080001090401000103000084
:1001D0000009211101000122B60007058203200059
:1001E0000112010002000000084D590944010001FC
:1001F0000200010C0359004D00440030003900009A
:10020000000A0359004D0044004B0000000403099C
:1002100004000101010101010101010202020202C7
:10022000020202020303030303030303040404049E
:100230000404040505050505060606060607070766
:10024000070708080808090909090A0A0A0B0B0B1D
:100250000C0C0C0D0D0D0E0E0E0F0F0F10101111BA
:10026000111212131314141515161617171818193E
:10027000191A1A1B1B1C1D1D1E1E1F2020212222A5
:10028000232424252626272829292A2B2C2D2D2EE8
:100290002F30313232333435363738393A3B3C3D02
:1002A0003E3F404142434445464748494A4C4D4EF3
:1002B0004F50515354555658595A5B5D5E5F6162B9
:1002C00064656668696B6C6D6F7072737577787A48
:1002D0007B7D7E8082838587888A8C8E8F919395A3
:1002E00096989A9C9EA0A2A3A5A7A9ABADAFB1B3C7
:1002F000B5B7BABCBEC0C2C4C6C9CBCDCFD1D4D6A7
:10030000D8DBDDDFE2E4E7E9EBEEF0F3F5F8FAFD48
:10031000FF0F7114711A71117116411B711371184D
:10032000711D71227827782178237801002578249F
:1003300078287826780011241FBECFEFDAE0DEBFE0
:10034000CDBF04B603FE18C080912303909124030F
:10035000A0912503B09126038730904BA740B04B66
:1003600059F4109223031092240310922503109243
:100370002603E0E0F8E3099523E0A2E8B1E001C03C
:100380001D92A332B207E1F711E0A0E0B1E0ECEF7B
:10039000F4E502C005900D92A238B107D9F70E948A
:1003A000D4220C94F3290C9400009093DB028093E8
:1003B000DA0208959093DD028093DC02089521E033
:1003C00030E002C0220F331F8A95E2F78091DC02F1
:1003D0009091DD02822B932B0E94DA01089521E097
:1003E00030E002C0220F331F8A95E2F72095309546
:1003F0008091DC029091DD02822393230E94DA0136
:1004000008959330A0F5833090F5292F30E0F9015D
:10041000EE0FFF1FE20FF31FE80FF11D8E2F877005
:1004200041E001C0440F8A95EAF723E0F695E7958D
:100430002A95E1F7EE0FFF1FEE0FFF1FE554FD4F6A
:1004400020E030E070E05191DF01CB01022E02C0CC
:10045000969587950A94E2F7817081958527842384
:1004600085278E932F5F3F4F2430310561F7089524
:10047000933088F5833078F5292F30E0F901EE0FBD
:10048000FF1FE20FF31FE80FF11D9E2F977023E06F
:10049000F695E7952A95E1F7EE0FFF1FEE0FFF1F88
:1004A000E554FD4F40E050E080E0219130E0092E1E
:1004B00002C0369527950A94E2F721703327042E5F
:1004C00001C0220F0A94EAF7822B4F5F5F4F44303E
:1004D000510559F7089580E008958091E3029091C5
:1004E000E202981301C008958F5F8770FACF909150
:1004F000DE02809589238093DE02282F2770211148
:100500000DC0891759F09091E00292FF07C08695BF
:10051000869586950E94EF011092DE0208958091E3
:10052000D7029091E102892B5091D802511591F098
:1005300090911501911521F09091DF0297FD0BC06C
:1005400096E026E831E040E0915048F441111092E5
:10055000D802852B08959EE12EE831E0F4CFF90111
:1005600061919F01611581F34F5FEECF982F9095B8
:100570008091D70289238093D70208957330E0F4E5
:100580006330D0F48230D8F4272F30E0F901EE0F39
:10059000FF1FE20FF31FE60FF11D90E0919581958B
:1005A000910989709927E80FF91FEE0FFF1FEF5E81
:1005B000FC4F85919591089580E090E0089581E049
:1005C000FCCF9C01803E910509F448C0D8F48133EA
:1005D000910509F47DC048F48932910509F46DC094
:1005E0008A9709F47CC0C90108958933910551F1B6
:1005F0008238910539F1C597B1F78091DF0285FF07
:10060000F2CF29C0843E910509F447C048F4823EE8
:10061000910599F1833E9105A9F121EE30E0E3CFF8
:10062000863E910509F444C0873E9105E1F680912C
:10063000DF0283FD61C09091E00291FF2BC024EEA8
:1006400030E0D1CF8091DF028370811152C0809160
:10065000E00283FFC8CF29E230E0C5CF8091DF02FE
:1006600080FD33C09091E00290FFBDCF23EE30E0DB
:1006700084FFB9CF20E030E0B6CF8091DF0282FD69
:10068000F5CFB1CF8091DF0282FD30C09091E002C2
:1006900090FD2FC084FFA7CFEDCF8091E00281FFB6
:1006A000A2CF8091DF0227EE30E084FDE3CF9BCF25
:1006B0008091DF0283FDF7CF96CF8091DF0285FD29
:1006C0001EC08091E00283FF8ECF29E330E08BCF04
:1006D0008091DF0286FF87CF2AE230E084CF8091CD
:1006E000DF0286FF80CF21E330E07DCF22EE30E0D5
:1006F0007ACF20EE30E077CF26EE30E074CF25E3DE
:1007000030E071CF9091DF0292FF10C041E0282FBE
:100710002471243009F040E031E0282F287128307E
:1007200009F030E0431711F02CE0822793FF10C04E
:1007300041E0282F2471243109F040E031E0282FD6
:100740002871283109F030E0431711F02CE082279E
:100750003091E00230FF10C051E0282F217121308C
:1007600009F050E041E0282F2871283009F040E0DE
:10077000541711F029E0822731FF10C041E0282FE3
:100780002171213109F040E031E0282F2871283112
:1007900009F030E0431711F029E0822794FD877EAD
:1007A00008951F93CF93DF930E94E102EC0181151E
:1007B00022E5920708F055C0811540E5940708F03E
:1007C000D1C0803E910520F58D3C910508F0A4C074
:1007D000883A910570F4853A910508F09AC0813005
:1007E0009105D1F10497813A9105B0F1C0E0D0E0D4
:1007F00033C0885A91094B97C8F7C85AD0E0CC0F3C
:10080000DD1FC45BDE4F0990D881C02DD46424C0A5
:10081000811550E49507C0F4C11580E2D80708F0AF
:10082000B7C0C83ED105C0F0CE019A9581159F4151
:10083000E8F68D2F0E948203182FCE0199270E947F
:10084000E102EC01D12B08C099270E94E102CC27DC
:10085000DF70C82BD92BD06ACE01DF91CF911F91C9
:100860000895803842E59407C8F5803652E595072B
:1008700008F05BC0C03482E5D807D0F4C03292E5FE
:10088000D90708F04BC08C2F8695869520E2829F71
:10089000C0011124C37021E030E0A90102C0440F5F
:1008A000551FCA95E2F7EA01C82BD92BDD68D4CFD2
:1008B0008C2F86958695877050E2859FC001112404
:1008C000C37021E030E0A90102C0440F551FCA9552
:1008D000E2F7EA01C82BD92BDC68BECF803C52E599
:1008E000950758F48F71C03AD245A0F590E0982F43
:1008F0008827EC01C46FD06AAFCF805C92458097A7
:1009000008F074CFDC2FCC27CC27DF71C06FD06A02
:10091000A3CFA497D064A0CFD0659ECFCF71D0E0F5
:10092000DC2FCC27C16FD06A97CF869586958770CC
:1009300020E2829FC0011124C37021E030E0A901B0
:1009400002C0440F551FCA95E2F7EA01C82BD92B04
:10095000DA6882CF0E948203C82FD0E0DC2FCC2738
:10096000D0627ACF8F710E94820393E0CC0FDD1F9B
:100970009A95E1F7CC27DF70282F30E084FF04C080
:1009800050E1859F90011124C22BD32BD06964CFF5
:100990008D2F8F710E948203182FCE0199270E94FC
:1009A000E102EC01D12BDCCFA0E0B0E0EAEDF4E015
:1009B0000C9485288C01E090DC02F090DD0280919F
:1009C000DA029091DB02E82AF92ACFE0D0E0CC24C9
:1009D000C394D12CC6010C2E02C0880F991F0A9413
:1009E000E2F78E219F21892B49F4219798F7B12CAA
:1009F0008B2DCDB7DEB7E9E00C94A128BC2EB80151
:100A00008C2F0E94BE020E94D103019771F3F0CF98
:100A10000F931F93CF93FC01858100811181811574
:100A200091F0611581F0C8010E94D404C82F682F8D
:100A3000C8010E940102B8018C2F0E94BE02CF9112
:100A40001F910F910895C8010E943802C82FF3CF5B
:100A5000CF93DF93D82FC92F0E94D4046D2F7C2F02
:100A60000E94BE020E94D103DF91CF910895FC0144
:100A700084818115A1F0808191810E942805282F11
:100A800092959F70963099F060F4925F9F709230CB
:100A900030F4203FB1F038F481E0283E38F080E0B7
:100AA00008959A5FF3CF81E0243FC9F7089591E05C
:100AB000213F09F090E081E0283E08F080E0892B9A
:100AC000089581E0089580E00895F894E82FE29574
:100AD000EF70F0E041A18F7021E030E0B90102C079
:100AE000660F771F8A95E2F7CB01962F9095942396
:100AF00091A392A1892B82A378940895A0E0B0E0FD
:100B0000E4E8F5E00C948728372FE82FF0E0EF5E5B
:100B1000FD4F71110AC0E4918E2F2E2F6E2F722F70
:100B2000CDB7DEB7E7E00C94A328062F10E0E72E40
:100B3000F12CD4902D2D86E0689FE0011124EFEF79
:100B4000F0E0CE01BF010E944E28000F111F45E5C5
:100B5000469FC001479F900D1124081B190B402F81
:100B6000440F400F8F010E191F09D09ED001D19E56
:100B7000B00D11248B2F349F80011124012F1127D8
:100B80007F01E01AF10A8701D09E7001D19EF00C1E
:100B900011248F01041B1109A801349F8001359F86
:100BA000100D1124012F1127E01BF10BDE9EA00177
:100BB000DF9E500D1124E52F63307105C1F0CC3F4D
:100BC000D34058F461307105B1F06230710509F01D
:100BD000A5CFED2D2B2F852FA1CF6430710571F09E
:100BE0006630710509F49ACFEB2F8F2D97CF2B2FFD
:100BF0008D2DEF2D93CFED2D2F2D90CFEB2F8D2D14
:100C0000252F8CCF9C0180E090E0269F812D369F80
:100C1000800D911D11240895AC018230910508F4D6
:100C200008959FEF413E8EE1580740F4CA0125E048
:100C3000969587952A95E1F798E0980F61E0E62F61
:100C4000E90FFF27FF1F9F0135952795822F229FD0
:100C5000F001239FF00DF00D11244E175F0738F4BB
:100C60009FEF920F961758F78FEF860F08952F3F3B
:100C7000E9F361E0620FF6CF40910701509108015E
:100C800025E038E0429FC001439F900D529F900D98
:100C90001124875E994C9093080180930701890F76
:100CA0000895982FE82F96FDE0958E2F8F7096FD72
:100CB0008F5FE695E695E695E670F0E0E65EFE4F1E
:100CC0002181289F202D812D112422952F7082951E
:100CD000807F282B8081820F97FD81958058089511
:100CE000FC019B01009719F4832F80780895AC01D3
:100CF00097FF04C044275527481B590BB901640FBF
:100D0000751F37FD0FC0C901841B950BA5E0880F27
:100D1000991FAA95E1F70E94622880E2861BF7FDE1
:100D200081950895CB0165E0880F991F6A95E1F7D9
:100D3000BA01621B730B0E94622880E6EFCF622F1C
:100D40000895E42FF0E0EE0FFF1FE85DFE4F618590
:100D5000621B0895E42FF0E0EE0FFF1FEE5CFE4FE4
:100D60006081621B0895322F50E0FA01EE0FFF1FE1
:100D7000EE5CFE4F9081905297FD9195440F551F68
:100D8000FA01E85DFE4F2185231B330B290F311D2E
:100D900097FD3A95620F0895EF920F931F9310E01D
:100DA0009801220F331F200F311F359527956E2D87
:100DB000620F1F910F91EF9008950F93CF93DF93E0
:100DC000D72FC82FBA01C9010E947006682F600F83
:100DD0007D2F8C2FDF91CF910F910895EF920F937C
:100DE000CF93DF93D72FC82FBA01C9010E190E94E4
:100DF0007006602F681B7D2F8C2FDF91CF910F9194
:100E0000EF9008950F931F93522F10E0F801EE0F0B
:100E1000FF1FEE5CFE4FA081A052BB0B9D01520351
:100E2000F001539FF00D1124000F111FD801A85D90
:100E3000BE4F19962C912052330B4203D001439F91
:100E4000B00D11249F012A0F3B1F37FF02C021580C
:100E50003F4F220F232F221F330B620F1F910F9141
:100E600008950F931F93522F10E0F801EE0FFF1F0C
:100E7000EE5CFE4FA081A052BB0B9D015203F0011E
:100E8000539FF00D1124000F111FD801A85DBE4F14
:100E900019962C912052330B4203D001439FB00D81
:100EA00011249F012A0F3B1F37FF02C0215C3F4FD7
:100EB00096E0359527959A95E1F7620F1F910F916E
:100EC00008950F931F93CF93DF93D62F072F182FDB
:100ED000C42F822F0E945106982FEC2FF0E0EE0FC6
:100EE000FF1FE85DFE4F81858058980F97FD919513
:100EF000990F292F3CE0239F212D1124622F6D0F84
:100F0000702F812FDF91CF911F910F910895E42FC2
:100F1000F0E0EE0FFF1FE85DFE4F9185921B97FDFD
:100F20009195292F38E1239F212D1124620F0895D7
:100F30002091D30230E1230F08F42FEF60E1822FDC
:100F400090E00E940206BC0188EB9BE00E944E28C4
:100F500080E090E008954095282F429F412D112474
:100F6000842F0895409520E4429F412D1124640F61
:100F70000895EF92FF920F93970195E0099F200D3E
:100F8000311D1124211591E0390710F02FEF30E0C9
:100F90002095382F320F08F43FEF832F0F91FF90E9
:100FA000EF900895EF92FF920F93E00EF11CF9017C
:100FB00037FF03C0F195E195F10924E0EE0FFF1F23
:100FC0002A95E1F7E11531E0F30714F0EFEFF0E0D7
:100FD000DA0157FF03C0B195A195B10994E0AA0FBA
:100FE000BB1F9A95E1F7AE17BF070CF4FD01EE0D9C
:100FF000FF1DE11591E0F90710F0EFEFF0E02E2F63
:101000002095382F320F08F43FEF832F0F91FF9078
:10101000EF900895EF92FF920F93CF93DF93972F66
:10102000EA01F901D701093430F4A01BB109A11577
:1010300021E0B20710F0AFEFB0E02896619740F0E2
:10104000AF01485F5F4F4131510510F0AFEFB0E0A5
:101050002A2F2095382F320F08F43FEF832FF7FD0A
:1010600033969F0135952795359527956091D00248
:10107000620F792FDF91CF910F91FF90EF9008953C
:10108000EF92FF920F939701201B3109211541E048
:10109000340710F02FEF30E0322F3095482F430FF8
:1010A00008F44FEF842F620F0F91FF90EF90089597
:1010B000EF92FF920F939701201B3109211591E0C8
:1010C000390710F02FEF30E02095382F320F08F459
:1010D0003FEF832F0F91FF90EF9008950E949B08A0
:1010E00008950E94BF080895880F92E0980F9A30E3
:1010F00008F099E00895EFECF2E0248130E1230F4D
:1011000008F42FEF24838091CE0281608093CE0279
:101110000895EFECF2E0248130E1231B08F420E095
:1011200024838091CE0281608093CE0208956A9AD2
:101130001092E5010895CF93DF93EC01FC01EE0FCF
:10114000FF1FDF01AC0FBD1FA653BE4F11968C9140
:101150001197861307C08C91841304C012968C914A
:10116000821751F081E08093E501EC0FFD1FE653FB
:10117000FE4F618340832283DF91CF910895FF92D8
:101180000F931F93CF93DF93182F062FF42EC0E0F9
:10119000D0E02F2D402F612FCE010E949B08219679
:1011A000C930D105B1F7CDB7DEB7E5E00C94A5287D
:1011B000FA01811511F009950895FB01FCCF282F44
:1011C00035EB2303C001112497FF04C08058910917
:1011D000892F089580589F4FFBCF8091C50280FDD5
:1011E00014C081FD14C082FD16C08091C402811517
:1011F00081F08E3180F420E5829FC00111246EE1E0
:1012000070E00E946228862F089584E1089588E2A4
:10121000089588E0089580E508958091C50280FDD5
:1012200017C081FD17C082FD19C08091C3028115CE
:1012300099F0883298F428E0829FC001112468E276
:1012400070E00E9462286115710551F0862F0895A3
:1012500062E0FCCF64E0FACF61E0F8CF68E0F6CF5F
:1012600081E00895E091B102F091B202309729F047
:101270000190F081E02D0995089580E00895A3E0A4
:10128000B0E0E5E4F9E00C948C289C018091C80161
:101290009091C90182179307A1F03093C90120935F
:1012A000C801E091B102F091B202309751F083E0B1
:1012B00089833B832A830084F185E02DCE0101964A
:1012C00009952396E2E00C94A828A3E0B0E0EBE6B1
:1012D000F9E00C948C289C018091C6019091C70183
:1012E00082179307A1F03093C7012093C601E091C4
:1012F000B102F091B202309751F084E089833B83D0
:101300002A830084F185E02DCE010196099523966C
:10131000E2E00C94A82890911501911112C0A6E862
:10132000B1E0EFEF90E02D91821751F0EF3F19F40B
:10133000211101C0E92F9F5F9630A9F7EF3FC9F453
:1013400008959091DF0297FFEACFE82FE695E695A2
:10135000E695803FA8F7F0E0E457FE4F877021E064
:1013600030E001C0220F8A95EAF78281822B8283C6
:1013700008950E2E000CFF0BEC57FE4FF8CF909106
:101380001501911521F09091DF0297FD0CC0E6E860
:10139000F1E09191891302C0DF011E9251E0EC3817
:1013A000F507B9F70895E82FE695E695E695803FAD
:1013B000C8F7F0E0E457FE4F877021E030E0A90164
:1013C00002C0440F551F8A95E2F7CA0180959281A9
:1013D0008923828308952FB7F8948091EA01909130
:1013E000EB01A091EC01B091ED012FBF08950E9497
:1013F000EB092091C8023091C902232B211521F05D
:1014000080938C0290938D022091CA023091CB027E
:10141000232B211521F080938A0290938B02E09177
:10142000B102F091B202309749F082E08093C60297
:101430000680F781E02D86EC92E00995089561150C
:1014400009F44BC0E3E3E80FE33150F4F0E0EB5074
:10145000F64D0C9476280E94ED0881958093C90280
:101460000E94F70908950E94ED08F8CF0E94ED0848
:1014700081958093C802F4CF0E94ED08FACF0E94B4
:101480000D098093CA02ECCF0E940D098195F9CF16
:101490000E940D0981958093CB02E2CF0E940D0935
:1014A000FACF815D990B21E030E001C0220F8A95CF
:1014B000EAF78091C702822B8093C702D1CF809137
:1014C000C50281608093C502CBCF8091C502826046
:1014D000F9CF8091C5028460F5CF4091C8028D3C60
:1014E00059F48091C90287FF0DC01092C9024115BD
:1014F00059F41092C40208C08E3C81F48091C90254
:1015000018169CF3411581F08091CA029091CB028C
:10151000892B8111A5CF1092C302A2CF8F3C41F439
:1015200047FFF0CF1092C8028091C9028115E0CF29
:10153000803D19F41416B4F3E5CF9091CA02893DA9
:1015400029F41916FCF61092CA02DCCF8A3D19F470
:1015500097FFD8CFF8CF9091CB028B3D29F497FF1E
:10156000D1CF1092CB02CECF8C3D19F41916CCF30B
:10157000C9CF9FE2980F983090F4815D990B21E0DC
:1015800030E0B90102C0660F771F8A95E2F7CB0100
:1015900080959091C70289238093C702B3CF8D3D78
:1015A00031F48091C5028E7F8093C502ABCF8E3D12
:1015B00021F48091C5028D7FF7CF8F3D09F0A2CF36
:1015C0008091C5028B7FF0CF2FB7F8946091EA012C
:1015D0007091EB018091EC019091ED012FBF089586
:1015E0009C014FB7F8948091EA019091EB01A09192
:1015F000EC01B091ED014FBF821B930B08958091D8
:10160000C5010895FC019B018091BB019091BC0133
:101610008617970740F0672B29F48091E8008E77B2
:101620008093E800C90140E0009741F4411106C0F1
:101630008091E80082FF2FC080E008952091500241
:101640002115A9F12530A9F12091E80023FD2DC035
:101650002091E80022FDECCF2091E80020FFE4CFAC
:101660003091F3002091F200009719F028303105F5
:1016700058F041E02830310509F040E02091E800C1
:101680002E772093E800D0CF41914093F10001974D
:101690002F5F3F4FE9CF80915002811541F0853097
:1016A00041F08091E80083FFC3CF81E0089582E09C
:1016B000089583E008958091B50187FF13C080915C
:1016C000E80082FF06C08091E8008B778093E800F5
:1016D0000895809150028111F2CF089580915002B7
:1016E0008115D9F38091E80080FFF8CF8091E80060
:1016F0008E77ECCF2091E4003091E50095E6A901CA
:101700002091EC00822F817020FF06C08091E800BC
:1017100080FF06C080E008952091E80022FD1AC0F5
:1017200080915002811589F0853089F08091EB001D
:1017300085FD0FC02091E4003091E500421753076A
:10174000F9F29A95E1F684E0089582E0089583E045
:10175000089581E00895E8EDF0E080818E7F808338
:101760001092E2001092DA001092E100A0EEB0E0D8
:101770008C9181608C9380818F77808319BCA7EDD9
:10178000B0E08C918E7F8C9380818F7E80831092CD
:10179000B40108959091CF029370911559F0809300
:1017A000D0026093D1024093D2028091CE02816038
:1017B0008093CE020895EFECF2E0818190E04381C6
:1017C000628108960E94CA0B0895EFECF2E08181D5
:1017D000438162818850990B0E94CA0B0895EFECF7
:1017E000F2E0628120E1620F08F46FEF81814381B2
:1017F00090E00E94CA0B0895EFECF2E0628120E1D4
:10180000621B08F460E08181438190E00E94CA0B72
:101810000895EFECF2E0438120E1420F08F44FEF2E
:101820008181628190E00E94CA0B0895EFECF2E0A2
:10183000438120E1421B08F440E08181628190E015
:101840000E94CA0B0895A0E0B0E0E9E2FCE00C942D
:1018500080283C01809104010E947408C82F192F30
:101860006091D302669580911D0290911E020E94A4
:101870000206F82ED0E0CE01880F991F9C01285D4A
:101880003E4F69011C1709F048F481E0193008F057
:1018900080E0CDB7DEB7EEE00C949C28FE01E85D59
:1018A000FE4F838D909105018923811579F1F60111
:1018B0008185282F2052330B59018285E82FE05271
:1018C000FF0B4F01AA9C9001AB9C300D300D1124F1
:1018D000EE9FC001EF9F900D900D1124820F931F7A
:1018E0000E940C06082F6091D0027091D102809165
:1018F000D202EF2C9401A501F30109950E947E0507
:10190000462F672F282FCE010E946E08F2E0CF0EDF
:10191000D11C2196B7CFA4E0B0E0E1E9FCE00C9443
:1019200086286C01809104010E9474088B83F92E33
:101930006091D3026695669580911D0290911E027A
:101940000E940206182F80E4810F0E9451068058E1
:101950008983812F0E94510680588A839B81892F19
:1019600090E09C838B839B819F1548F081E0E9E0A8
:10197000FE1608F080E02496E8E00C94A228EB81A3
:10198000FC81E85DFE4F838D9091050189238115CF
:10199000A9F06091D0027091D1028091D202E12E23
:1019A0000B812A814981F60109950E947E05462F07
:1019B000672F282F8B819C810E946E088B819C81D0
:1019C0000196CFCFA0E0B0E0E8EEFCE00C948728D1
:1019D000EC01FC01E85DFE4F838D909105018923A8
:1019E000811549F1D090D1020091D2021091D0021C
:1019F000E12EF12C0E943C06482FC7018C549F4FCA
:101A000068E671E00E9462288E199F0997FD03968F
:101A100095958795959587954370612F489F600DA3
:101A200011247D2D802F0E947E05462F672F282FA1
:101A3000CE010E946E08CDB7DEB7E7E00C94A32874
:101A40001F93CF93DF93EC01FC01E85DFE4F838D84
:101A50009091050189238115B1F00E943C06182F51
:101A60000E943C0620E8829FC00111247FE7790F85
:101A7000612F8091D2020E947E05462F672F282F6A
:101A8000CE010E946E08DF91CF911F910895EF92D1
:101A9000FF920F931F93CF93DF937C0180910401FA
:101AA0000E947408C82F192F6091D302669566951D
:101AB00021E0620F08F46FEF80911D0290911E02E9
:101AC0000E940206082FD0E0C11748F081E01930CB
:101AD00008F080E0CDB7DEB7E6E00C94A428FE0164
:101AE000E85DFE4F838D909105018923811591F06A
:101AF0006091D0027091D1028091D202202F4C2FA0
:101B0000F70109950E947E05462F672F282FCE01E9
:101B10000E946E082196D8CFA0E0B0E0E2E9FDE097
:101B20000C9483287C01809104010E947408C82FC2
:101B3000B92E2091D30231E0230F08F42FEF30E0CB
:101B400040E050E06FEF7FEF80E090E00E9490294E
:101B50006901D0E0A22E9D2C2C2FCB1550F081E0F6
:101B6000F9E0BF1608F080E0CDB7DEB7EBE00C94EB
:101B70009F28FE01E85DFE4F838D9091050189232A
:101B8000811521F1809124028150082E000C990BBF
:101B900087FF1EC00A2D192D6091D30221E0620F2C
:101BA00008F46FEFC8010E940206AC016091D002F8
:101BB0007091D1028091D202F70109950E947E05B1
:101BC000462F672F282FCE010E946E082196C4CF82
:101BD000FC01EC5DFD4F318932130AC0FC01EE0FB0
:101BE000FF1FEC5DFD4F018D128D0C151D05A0F240
:101BF0000197CECFA8E0B0E0E0E0FEE00C947C28B6
:101C0000282E6A837B83809104010E947408998343
:101C1000209124022C83E82FF0E0F887EF83CF0196
:101C2000880F991F9C01285D3E4F6901822D90E02D
:101C3000FC013196FE83ED838F819981891740F0F5
:101C400081E0993008F080E02896E2E10C94982831
:101C5000EF81F885E85DFE4F838D90910501892322
:101C60008115F1F04090D0025090D1022D813E813B
:101C70002C5D3D4F3901322C10E0FC813F16D0F035
:101C80002091D202129F112D1124B201812F0E94A6
:101C90007E05462F672F282F8F8198850E946E081A
:101CA0002F8138852F5F3F4F38872F8332E0C30E57
:101CB000D11CC2CFF30181913F01F601A184A81A82
:101CC000BB088284F3018781881A9908AA9C900135
:101CD000AB9C300D300D1124889CC001899C900D67
:101CE000900D1124820F931F0E940C06082F609103
:101CF000D30221E0620F08F46FEFF301EE0FFF1F34
:101D0000E452F240858996890E9402067C01940182
:101D1000A501B201812FEA81FB8109952B01182FC2
:101D20003394ABCF9091CF029370911591F08232A2
:101D300008F081E2880F880F9091CF029370892B71
:101D40008093CF02109216018091CE028160809321
:101D5000CE0208958091CF02869586958F5F82325C
:101D600008F081E00E94920E08958091CF0286953E
:101D700086958A9509F481E20E94920E0895982F23
:101D80009093E900891771F07091EC002091ED00BB
:101D90005091F00021FD09C09F5F973089F7809333
:101DA000E9000895762F242F50E03091EB003E7F1C
:101DB0003093EB003091ED003D7F3093ED0030919A
:101DC000EB0031603093EB007093EC002093ED005A
:101DD0005093F0002091EE0027FDDECF0895A0E0A3
:101DE000B0E0E5EFFEE00C948628C8EDD0E08881F5
:101DF0008F7E8883E7EDF0E080818160808384E0DE
:101E000082BF81E08093B40188818E7F888302EE57
:101E100010E0F80110821092DA0081EEC82ED12C69
:101E2000F601108288818F77888388818068888313
:101E300088818F7D888319BC109250021092B30163
:101E400010924F021092B20190EEE92EF12CF701A0
:101E500080818B7F808388818160888342E060E01D
:101E600080E00E94BF0EF60180818E7F8083F801A2
:101E7000808181608083808188608083F701808198
:101E80008E7F8083888180618883CDB7DEB7E8E06C
:101E90000C94A228E091E3029091E20227E0E9137A
:101EA00002C080E00895AE2FB0E02E9FF001112413
:101EB000EC51FD4F3181361306C03081381303C019
:101EC0003581341304C0FD013196E770E8CF81E01D
:101ED00008958091E501811539F13EB13B7F2EB126
:101EE00024604FB7F8948AEC91E0FC010196508190
:101EF00068E02EB9000000C057FF3EB9550F000042
:101F000000C000C000C03EB900C06A9591F751E022
:101F1000853E950751F74FBF8FE594E00197F1F7A4
:101F200000C000001092E501089581E08093E00078
:101F300080E28093D8001092C9008FE19EE401975F
:101F4000F1F700C0000087E090EBDC0180932303F1
:101F500090932403A0932503B093260388E19CE08B
:101F60000FB6F894A895809360000FBE9093600020
:101F7000FFCF0F931F93CF93DF938B01EA019091D3
:101F80005002943059F58093E9008FEF9091E8006A
:101F900095FD06C095ED9A95F1F700008A95B1F789
:101FA0008091E80085FF1AC00E947A0B811111C050
:101FB0008091E80085FD06C08091E8008E778093CF
:101FC000E800F2CFF80181918F018093F100219711
:101FD00079F78091E8008E778093E800DF91CF91C8
:101FE0001F910F910895CF93DF93D82FC92F48E009
:101FF00050E0682F792F81E00E94B90F88E0ED2F23
:10200000FC2FADEBB1E001900D928A95E1F7DF91E5
:10201000CF910895BC0140E250E082E00E94B90FE8
:102020000895BC0146E050E082E00E94B90F089597
:10203000BC0143E050E082E00E94B90F0895909106
:10204000E00292FB222720F9281779F080FB92F911
:102050009093E0026091DF027091E00284E090E0F2
:102060000E948A2982E00E947702089580911501DA
:10207000811559F18091DF0287FF27C00E948F02EE
:1020800080938D0140E250E061E972E08CE891E0DC
:102090000E940F29892BC1F080E2ECE8F1E0A1E970
:1020A000B2E001900D928A95E1F7E091B102F091D2
:1020B000B202309749F086E080938C010480F5816C
:1020C000E02D8CE891E0099508950E948F0280939D
:1020D000840148E050E063EB72E084E891E00E9404
:1020E0000F29892B89F388E0E4E8F1E0A3EBB2E063
:1020F00001900D928A95E1F7E091B102F091B20260
:10210000309711F30280F381E02D84E891E0DBCF7A
:10211000CF93C82F8115C9F08238C9F40E943209C3
:1021200081FD13C089E30E948B090E9436102FEFB6
:1021300037EE83E0215030408040E1F700C00000DE
:1021400089E30E94BF090E943610CF910895833819
:10215000A1F40E94320980FDF8CF83E50E948B092B
:102160000E9436109FEF21EE34E091502040304025
:10217000E1F700C0000083E5E4CF8438A1F40E94B9
:10218000320982FDE2CF87E40E948B090E9436105B
:102190008FEF91EE24E0815090402040E1F700C0A5
:1021A000000087E4CECF8CEF8C0F813A90F58091C0
:1021B000150181110EC0E6E8F1E08CE891E0219173
:1021C000C21709F18E179F07D1F78C2F0E948B0938
:1021D000BACF8091DF0287FFEECFEC2FE695E69530
:1021E000E695F0E0E457FE4F828190E04C2F477077
:1021F00021E030E002C0220F331F4A95E2F782232C
:102200009323892B11F38C2F0E94BF090E94361053
:10221000DCCF80E28C0F883068F4C77081E090E0FA
:1022200001C0880FCA95EAF7C091D702C82BC093A6
:10223000D70289CF8BE58C0F833038F42C2F2452B2
:10224000330BC9010E943F0980CFE8E5EC0FEB3169
:1022500050F4F0E0EE0FFF1FE45BFE4F80819181B0
:102260000E94650972CF83E38C0F833108F06DCF34
:1022700061E08C2F0E941F0A68CF811509F456C0B7
:10228000823879F40E94320981FF50C089E30E94AC
:102290008B090E94361089E30E94BF090E94361004
:1022A0000895833859F40E94320980FF3FC083E5C6
:1022B0000E948B090E94361083E5EECF843859F4D2
:1022C0000E94320982FF32C087E40E948B090E947B
:1022D000361087E4E1CF9CEF980F913AE8F290E254
:1022E000980F983050F4877091E001C0990F8A954B
:1022F000EAF7892F0E94B602D1CF9BE5980F933061
:1023000028F480E090E00E943F09089598E5980F36
:102310009B3128F480E090E00E946509089593E3E2
:10232000980F933118F460E00E941F0A08958115F8
:1023300039F09091D702892B8093D7020E943610F2
:102340000895811521F00E94B6020E94361008956A
:102350001092D70280911501811539F18091DF0229
:1023600087FF23C0EEE8F1E08EE1DF011D928A9540
:10237000E9F780E090E00E943F0980E090E00E9451
:1023800065091092E1020E94361086E0E6ECF2E068
:10239000DF011D928A95E9F71092C4021092C302E0
:1023A0001092C5020E94F7090895E6E8F1E086E080
:1023B000DCCF0E94A8112FEF84E39CE021508040E5
:1023C0009040E1F700C0000088E19CE00FB6F8946F
:1023D000A895809360000FBE90936000FFCFAAE2A3
:1023E000B0E0E5EFF1E10C948B2885EB91E0FC0186
:1023F00001962091F100208321E08D3B9207B9F7EF
:102400008091B601893009F456C0C8F4823009F4CD
:10241000B2C0833009F481C0813071F18091E8004D
:1024200083FFE6C08091B5019091B6019A3008F023
:10243000DFC0E92FF0E0E85FF54D0C9476288A3094
:1024400009F488C08B3051F78091B501813231F7A2
:102450008091B9019091BA01892B01F78091E80030
:10246000877F8093E8000E945B0B8091B701809387
:1024700015010E94A811D2CF8091B501813A71F661
:102480008091E800877F8093E8008091B901909166
:10249000BA01892B61F060E080E090E070E00E947A
:1024A000020B8091E8008B778093E800B7CF68E05B
:1024B0008DEB91E0F3CF8091B501813209F0AECF81
:1024C0008091B9019091BA01029708F0A7CF80914D
:1024D000E800877F8093E8008091E80082FF18C0C1
:1024E0009091F3008091F200029731F48091F10015
:1024F000813011F0863021F48091F1008093C50184
:102500008091E8008B778093E8000E945B0B86CF78
:10251000809150028111E0CF81CF8091B501813A45
:1025200009F07CCF8091B9019091BA01892B09F013
:1025300075CF8091E800877F8093E8008091E80064
:1025400080FFFCCF809115018093F1008091E8001D
:102550008E77D9CF8091B501813209F05FCF80911C
:10256000E800877F8093E8000E945B0B8091B801B0
:102570008093B10153CF8091B501813A09F04ECFDC
:102580008091E800877F8093E8008091E80080FFD9
:10259000FCCF8091B101D8CF803889F0823841F5E5
:1025A0008091B9018F70873018F58093E900809190
:1025B000EB0085FB882780F91092E90006C0809126
:1025C0004F02880F9091B201892B9091E800977F7C
:1025D0009093E8008093F1001092F1008091E80060
:1025E0008E7723C0811116C08091B701813011F11F
:1025F0008091E80083FF0AC08091E800877F809384
:10260000E8008091EB0080628093EB00AA96E3E003
:102610000C94A728823061F78091B701811589F069
:102620001092E9008091E800877F8093E8000E9483
:102630005B0BDECF81E0933009F080E080934F02A6
:10264000EFCF8091B9018F702FEF280F263080F6E1
:102650008093E9002091EB0020FFE2CF933031F42A
:102660008091EB0080628093EB00DACF9091EB00D9
:1026700090619093EB0021E030E0A90102C0440F8B
:10268000551F8A95E2F74093EA001092EA00809184
:10269000EB008860E8CF8111ABCF1091B7011F77B5
:1026A0008091E3008078812B8093E3008091E800A3
:1026B000877F8093E8000E945B0B8091E80080FF99
:1026C000FCCF8091E30080688093E30083E01111E8
:1026D00001C082E0809350028BCF8058823008F096
:1026E00087CF2091B7013091B8012C3D53E03507D9
:1026F00099F583E08A838AE289834FB7F894DE01F3
:10270000139620E03EE051E2E32FF0E050935700B3
:10271000849120FF03C082958F703F5F8F708A3055
:10272000C8F0895C90E08D939D932F5F243161F711
:102730004FBF8091E800877F8093E8006AE270E0F5
:10274000CE0101960E94020B8091E8008B77809366
:10275000E8004ECF805DE6CF832F99278330910527
:1027600029F160F48130910509F475C0029709F0F0
:102770003FCF8BE390E0E6EAF1E02CC02091B90175
:102780003091BA018132910509F459C0829709F05C
:102790002FCF2115310509F468C02130310509F02A
:1027A00027CF86EB90E0ECEAF0E014C0C90199274E
:1027B0002130A9F182309105D1F1892B09F018CF90
:1027C000EDE0F2E0E4918E2F90E0EDE0F2E0009792
:1027D00009F40ECF2091E800277F2093E800209194
:1027E000BB013091BC018217930708F49C0140E0C3
:1027F0002115310509F03EC041113CC08091E8002F
:1028000082FDA2CF80915002811509F49DCF8530C1
:1028100009F49ACF8091E80083FFF0CF95CFE1E0F3
:10282000F2E0E4918E2F90E0E1E0F2E0D0CFE3EF30
:10283000F1E0E4918E2F90E0E3EFF1E0C8CF2115B5
:10284000310571F02130310509F0D2CE89E090E0F8
:10285000E1EDF1E0BFCF82E190E0E1EEF1E0BACF4F
:1028600089E090E0E8EBF1E0B5CF84E490E0E2E6C7
:10287000F1E0B0CF80915002811509F465CF853029
:1028800009F462CF8091E80083FD5ECF8091E8007B
:1028900082FDB4CF8091E80080FFAACF9091F30031
:1028A0008091F2002115310519F08830910550F022
:1028B00041E0089709F040E08091E8008E7780932E
:1028C000E80096CF44914093F100319621503109B0
:1028D0000196E8CF803809F08BCE8091E800877FA1
:1028E0008093E8008091B3018093F10077CE81114D
:1028F0007FCE1091B701123008F07ACE8091E800B7
:10290000877F8093E8001093B3010E945B0B111541
:1029100081F084E08093500242E061EC81E00E940B
:10292000BF0E42E261EC82E00E94BF0E8091500235
:102930005FCE8091E30087FDECCF81E0EBCFA3E099
:10294000B0E0E5EAF4E10C948128FE01319683E0E1
:10295000DF011D928A95E9F782E2A82E81E0B82E68
:10296000992493947E2E8F2EEE24E394F12C28E26A
:10297000C22E21E0D22EF50181915F018F3F09F433
:1029800042C0F894E82FE295EF70F0E021A18F703B
:10299000A70102C0440F551F8A95E2F7CA01922F82
:1029A000982B91A392A18095892382A3789400C04B
:1029B000E5E2F1E0072D182D492D40959191D801C0
:1029C0008D918D019F3F09F445C0A92FA295AF704D
:1029D000A05EB0E02C9130E09F7002C03595279545
:1029E0009A95E2F720FD36C08929D8018E93CE163C
:1029F000DF0621F7F50182918F3F11F00E946505F6
:102A0000B0EABA95F1F7990CE5E2AE16E1E0BE0640
:102A100009F0B1CF43E050E0672D782D81E292E0DC
:102A20000E940F29892BC1F089819A81AB81809303
:102A3000210290932202A093230281E08093AE01B1
:102A40000E94EB099093AD018093AC012396EDE0D9
:102A50000C949D288423C9CF8091AE018115B1F3D8
:102A60008091AC019091AD010E94F00A059770F33E
:102A700043E050E061E272E081E592E00E940F29BC
:102A8000892B61F08091210290912202A091230272
:102A90008093510290935202A09353021092AE0180
:102AA000D5CFA3E0B0E0E7E5F5E10C947C28482E13
:102AB00080911401841123C09091CF0293702091D2
:102AC000130130E081E09217130609F480E080934F
:102AD00006018091D40290910501981739F08093F6
:102AE000050140E060E080E00E94710822E24216A9
:102AF00088F4E42DF0E0EE5EF54D0C94762881E04C
:102B0000E6CF80910601811529F040E060E080E089
:102B10000E94710880E084C0809104010E947408C2
:102B20008983192F6091D0027091D1028091D202D5
:102B30000E947E05062FF72EE82E5981452F50E082
:102B40005B834A839A81191709F018F481E01930E0
:102B50002AC2EA81FB81E85DFE4F838D90910501D9
:102B60008923811539F02E2D402F6F2D8A819B816D
:102B70000E946E088A819B8101969B838A83E2CFA3
:102B8000809104010E9474088983192F0091D0025A
:102B9000A091D102AA83F090D2026091D3026695EF
:102BA0006695669580911D0290911E020E94020614
:102BB0000E945106805887FD8195880F282F3F2D50
:102BC000239F212D1124822F602F7A810E947E0560
:102BD000062FF72EE82E5981452F50E05B834A835C
:102BE0009A81191709F008F4B1CFEA81FB81E85DF9
:102BF000FE4F838D909105018923811539F02E2D8B
:102C0000402F6F2D8A819B810E946E088A819B8153
:102C100001969B838A83E4CF8FE996E00E94470D5B
:102C2000909104019F5F9093040181110CC082E098
:102C30008093160180910601811105C0411003C0E7
:102C400083E0809316012396E2E10C94982881EAB0
:102C500096E0E4CF8AEA96E0E1CF83EB96E0DECF20
:102C60008CEC96E00E94230CDBCF809104010E9443
:102C700074088983192F6091D302669580911D0293
:102C800090911E020E940206D82EB981AB2FB0E0AF
:102C9000BB83AA83CD01880F991FFC01E85DFE4F1D
:102CA0007F01FA811F1709F008F450CFEA81FB81F8
:102CB000E85DFE4F838D9091050189238115E1F038
:102CC000D7011A962C911A972052330B19964C91D2
:102CD0004052550B6091D0027091D1028091D20286
:102CE0000D2D0E94DD060E947E05462F672F282F9E
:102CF0008A819B810E946E08B2E0EB0EF11CEA8192
:102D0000FB813196FB83EA83CCCF8EEE96E0AACF8F
:102D100082E097E00E948B0C83CF81E397E0FACFAB
:102D2000809104010E947408192F9091060191115D
:102D300020C06091D30220E1620F08F46FEF809110
:102D40001D0290911E020E9402066AE070E00E943D
:102D50004E28892B09F0FACE0E943C0649E0849F58
:102D600090011124832F932F990F990B0E94E20C4D
:102D7000EDCEA82FB0E0BB83AA83E12EF12C2A81EF
:102D80003B812E153F050CF0E1CE8A819B810E948C
:102D9000E20CEA81FB813196FB83EA83F0CF8091DC
:102DA00004010E947408192F90910601911120C00E
:102DB0006091D30220E1620F08F46FEF80911D0251
:102DC00090911E020E94020665E070E00E944E286B
:102DD000892B09F0BBCE0E943C0649E0849F9001FC
:102DE0001124832F932F990F990B0E94200DAECEA3
:102DF000A82FB0E0BB83AA83E12EF12C2A813B816E
:102E00002E153F050CF0A2CE8A819B810E94200DD9
:102E1000EA81FB813196FB83EA83F0CF8091040144
:102E20000E9474088983192FF090D1020091D20278
:102E30003091D0023A836091D3026695669566958B
:102E400080911D0290911E020E9402060E9451066E
:102E500020E8280F27FD2195220F3CE0239F212DFC
:102E600011246A81620F7F2D802F0E947E05062F1C
:102E7000F72EE82E5981452F50E05B834A839A81D3
:102E8000191709F008F462CEEA81FB81E85DFE4F74
:102E9000838D909105018923811539F02E2D402FC6
:102EA0006F2D8A819B810E946E088A819B81019689
:102EB0009B838A83E4CF81E697E0B0CE87E897E0F2
:102EC000ADCE809104010E947408092F80911D02EB
:102ED00090911E02A0911F02B09120024091EE013C
:102EE0005091EF016091F0017091F101481759077D
:102EF0006A077B0708F055C00E943C06E9E08E9FF8
:102F0000D00111242B2F332727FD3A953B832A83A9
:102F1000F901E85DFE4F838D9091050189238115AC
:102F200009F43FC00E943C0681FD40C00E943C065F
:102F3000182F0E943C0630E8839FC00111247FE7D0
:102F4000790F8091D202612F0E947E05462F672F54
:102F5000282F8A819B810E946E082091D30230E144
:102F6000230F08F42FEF60E1822F90E00E94020609
:102F7000BC0184EF91E00E944E2880911D02909147
:102F80001E02A0911F02B0912002860F971FA11D63
:102F9000B11D8093EE019093EF01A093F001B093E7
:102FA000F10181E0093008F43BCEB4CD80E070E05F
:102FB00010E0C9CF80910D0290910E02A0910F02F6
:102FC000B091100240911D0250911E0260911F02AB
:102FD00070912002481759076A077B0708F49ACDB9
:102FE00080910601811156C0809104010E947408ED
:102FF000192FE82EF12CA701440F551F4E0D5F1D10
:103000004E505E4F5B834A83E11608F482C019304C
:1030100008F49CCD812F90E07C0121E0E21AF108B8
:10302000AC01440F551F480F591F4350510965EF1C
:1030300071E082EF91E00E9425290E943C06A701E1
:10304000440F551F5B834A8381FF80C04E0D5F1D77
:103050004E505E4FDA011C9211961C9211971296F7
:103060001C920E949807C0901D02D0901E02E09012
:103070001F02F0902002DC01CB018C0D9D1DAE1DC6
:10308000BF1D80930D0290930E02A0930F02B09388
:1030900010025CCD40E060E080E00E94710802EF29
:1030A00011E01B821A820E943C0681FF11C0D801E8
:1030B0001C9211961C92119712961C92EA81FB8128
:1030C0003196FB83EA830D5F1F4F399761F78CCFF1
:1030D0000E943C06F82E0E943C06B0E88B9FC0017F
:1030E00011247FE7790F8A819B81880F991FEA81DC
:1030F000FB818E0F9F1F9C012E503E4F69016F2D4B
:103100008091D2020E947E05D6016D937D938C93AF
:10311000D5CFF701E85DFE4F838D9091050189239E
:10312000811559F0AA81BB8112962C9112974C916E
:1031300011966C91C7010E946E08EA81FB8133965B
:10314000FB83EA83FFEFEF1AFF0A5ECF0E943C0683
:10315000082F0E943C06B0E88B9FC00111247FE736
:10316000790FEA81FB81EE0DFF1DEE50FE4FFB83D0
:10317000EA83602F8091D2020E947E05AA81BB81E2
:103180006D937D938C936DCF80910601811529F00D
:1031900040E060E080E00E947108809104010E949C
:1031A0007408F92E80911D0290911E02A0911F02B9
:1031B000B0912002409114025091150260911602C4
:1031C00070911702481759076A077B0708F073C008
:1031D0006091D0027091D1028091D2020E947E054E
:1031E000E62EB72EA82EE1E1F2E0FB83EA8308E2A7
:1031F00011E0A4E1CA2EA2E0DA2EAA81BB818D9152
:10320000BB83AA83712C912C812C811519F07A2C07
:103210009E2C8B2CD801EC91F0E0DF01A85DBE4F15
:103220005B969C91809105019823911531F0272D93
:10323000482D692DCF010E946E08D8011296EC919D
:10324000F0E0DF01A85DBE4F5B969C918091050187
:103250009823911531F0272D482D692DCF010E941B
:103260006E080E943C06EA81FB813197837091E0F1
:10327000811190E090830D5F1F4FEA81FB81CE1694
:10328000DF0609F0BACF0E94980700911D02109145
:103290001E0220911F0230912002DC01CB01800F21
:1032A000911FA21FB31F8093140290931502A09345
:1032B0001602B093170281E0F9E0FF1674CE8091F8
:1032C00004010E947408882EB92E80910601811590
:1032D00061F040E060E080E00E947108E4E5F2E027
:1032E00089E0DF011D928A95E9F78091040181113F
:1032F0001BC08091190290911A020E94F00A8A83E1
:103300009B8381E0EA81FB81799708F480E08093D8
:1033100018022A813B812931310530F00E94EB09E6
:1033200090931A0280931902E12CF12C912C8701C1
:10333000A12CF801E85DFE4F30813983381508F47F
:1033400044C03B1508F041C0432F50E05B834A83E3
:10335000FA01E85DFE4F838D909105018923811567
:1033600009F432C0C8018C5A9D4F6C01DC017C907D
:10337000472D25E5421B08F440E07091D1026AEA2E
:10338000362F272D320F08F43FEF5091D202232F12
:10339000220F230F2E5F259F212D1124641B822FC6
:1033A0000E947E05462F672F282F8A819B810E94CD
:1033B0006E0880911802811539F0272D31E0231B0A
:1033C00008F420E0D6012C939394A3940F5F1F4F31
:1033D000B3E0AB12AECFE6E0EE16F10421F481E0EB
:1033E00039E0B316E0CDF3E0EF0EF11C22E09216C7
:1033F00008F49DCFF4CF5090D202E52CF12CA70118
:10340000440F551F4E0D5F1D569547955695479590
:103410005B834A835A8159838FEF90E0B7010E9402
:103420006228362E80910601811571F040E060E03F
:1034300080E00E947108E4E5F2E089E0DF011D927E
:103440008A95E9F710921C0280911B028F5F80938E
:103450001B0274E5C72E72E0D72EA12CB12C3701C8
:10346000EA81FB816E1A7F0A45018601212C809139
:103470001C02822981114BC00E94FF28853595408E
:103480000CF045C0D6015C92F401E85DFE4FE0818E
:10349000EF3FD9F0D8012C91F0E0B981B21708F0D4
:1034A00045C030E04A815B81241B350B249FC0015D
:1034B000259F900D349F900D1124B3010E944E283A
:1034C000262F452DCF010E946E0823940D5F1F4FBC
:1034D00053E0850E911C83E02812C9CF9FEFA91AF3
:1034E000B90AAFEFCA1ADA0AB3E0AB16B10409F0B1
:1034F000BBCF80911B02381202C010921B02809138
:103500001C028F5F8D31F8F480931C0203CBF8010D
:103510008081811509F4B8CF851508F0B5CF909159
:103520001B023912B1CF81508083AECF2E9DC001D6
:103530002F9D900D11246A817B810E944E28462F79
:1035400020E060E0BFCF10921C0222E030E082E079
:103550009FEF950D482F50E0FA01EE0FFF1FE40F8B
:10356000F51FBF016F5A7D4FA4E5B2E0823051F4E0
:1035700016964C911697541205C04FEF450D1696AE
:103580004C931697FB014191BF01451538F08F010F
:1035900001501109F8019083FB0152821196F2E06B
:1035A000A735BF0719F781E02130310509F4B2CA08
:1035B00021E030E0CFCF8BEA97E00E948C0D30CB3A
:1035C00082EB97E0FACF8091240221E0382F321B62
:1035D00008F430E0832F69EB77E00E94FA0D20CBEE
:1035E00069EB77E080E0F9CF8091240221E0482F59
:1035F000421B08F440E0842F62ED77E0EECF62EDED
:1036000077E0F0CF8091240221E0582F521B08F47C
:1036100050E0852F6AE078E0E0CF6AE078E0E2CF22
:103620008091240221E0382F321B08F430E0832FF0
:1036300060E478E0D2CF60E478E0D4CF80912402D7
:1036400021E0482F421B08F440E0842F68E578E031
:10365000C4CF68E578E0C6CF4F925F926F927F92B9
:103660008F929F92AF92BF92CF92DF92EF92FF9292
:10367000C090E601D090E701E090E801F090E90108
:103680008FB7F8944090EA015090EB016090EC0104
:103690007090ED018FBF530142018C189D08AE0858
:1036A000BF080E94E40A282F6093E6017093E701A7
:1036B0008093E8019093E901A0915D02EDE5F2E0CD
:1036C0008A2F30E04FEFC40ED41EE11CF11CC41849
:1036D000D508E608F708A3132DC080935D028091FA
:1036E0004E02811137C03091CF02832F8370811534
:1036F00019F0832F86958695309116013230F1F1BD
:1037000058F5311138C01092040160931D02709376
:103710001E0220931F029093200289E2EDE5F2E061
:10372000A4E2B2E001900D928A95E1F781E08093E6
:10373000160114C0418D528DC416D506E104F10462
:1037400020F481503F5F3296C6CF480D591D528FED
:10375000418FF8CF80E0D0CF3330D9F0FF90EF9099
:10376000DF90CF90BF90AF909F908F907F906F90A1
:103770005F904F9008950E945115F0CF80931401EF
:103780008091CF028370809313010E94690F83E0C0
:10379000CECF8091CE02811551F048E050E067E134
:1037A00070E08FEC92E00E945C291092CE02409172
:1037B0001D0250911E0260911F02709120022FB7CE
:1037C000F8948091EA019091EB01A091EC01B09105
:1037D000ED012FBF841B950BA60BB70B4097A105DE
:1037E000B10508F4BBCF10921601B8CFFF920F932A
:1037F0001F93CF93DF93C62FD42F122F8115A9F0DB
:103800006093CC020E94EB099093B0018093AF01CA
:10381000C77081E001C0880FCA95EAF70E9497112E
:10382000CDB7DEB7E5E00C94A5288091CC026813F3
:1038300033C08091AF019091B0010E94F00A883CA2
:10384000910550F500E20D0FCD17A9F0C770FF24C8
:10385000F3948F2D01C0880FCA95EAF70E94A11139
:10386000083048F48D2F877001C0FF0C8A95EAF765
:103870008F2D0E949711812F0E948810812F0E9406
:103880003D11083068F6D77081E001C0880FDA95E5
:10389000EAF70E94A111C4CFC77081E001C0880F70
:1038A000CA95EAF7F6CFA0E0B0E0E9E5FCE10C94B8
:1038B00086288C01FC018481811531F161E0C80109
:1038C0000E940805EC01F8018581FE01E851FC47E2
:1038D000E730F105A8F5EC5CF54D0C94762826E26E
:1038E00041EE61EE0E94F61B8091DE028770811529
:1038F00059F0F8018581811539F08091E00282FF4D
:1039000003C082E00E947702CDB7DEB7E8E00C94F6
:10391000A22827E245EE65EEE5CF26E241EE60EE15
:10392000E1CF27E245EE64EEDDCF26E241EE62EE26
:10393000D9CF27E245EE66EED5CF28E241E0EBCFC6
:10394000811509F4D1C31092CC02CE019057839710
:1039500008F0D8C384E090E00E9456299093E002DA
:103960008093DF02FE01E150F047E232F10520F4DE
:10397000E55CF54D0C9476288091DF0281608093A0
:10398000DF026091DF027091E00284E090E00E942B
:103990008A290E94A811A8CF8091E00288608093B4
:1039A000E002EFCF8091DF028260E9CF8091DF02F9
:1039B0008460E5CF8091DF028860E1CF8091E002F2
:1039C0008160EDCF8091E0028260E9CF8091DF02DB
:1039D0008061D5CF8091DF028062D1CF8091DF02FC
:1039E0008064CDCF0E94A8118091DF028068C7CF8C
:1039F0008091DF028C60C3CF8091E0028360CFCFE3
:103A00008091DF028E7FBBCF8091E002877FC7CF9E
:103A10008091DF028D7FB3CF8091DF028B7FAFCFAC
:103A20008091DF02877FABCF8091E0028E7FB7CF9E
:103A30008091E0028D7FB3CF8091DF028F7E9FCF98
:103A40008091DF028F7D9BCF8091DF028F7B97CFAC
:103A50000E94A8118091DF028F7791CF8091DF02C1
:103A6000837F8DCF8091E0028C7F99CF8091DF02A0
:103A7000992782FF939590FB82F990FB83F97FCF82
:103A80008091E002982F909590FB80F990FB81F94E
:103A900086CF9091DF02892F8F7B96FF80646FCF56
:103AA0000E94A8119091DF02892F97FB87F9805817
:103AB00066CF61E08EE090E00E946C2962CF60E00A
:103AC000F9CF9091DF02892F8F7E94FF806157CFCD
:103AD0009091DF02892F8E7F90FF816050CF90916F
:103AE000E002892F877F93FF886059CF89E21CC34A
:103AF00089E205C3CA35FCE7DF0709F05CC081E055
:103B0000C6C08091D7028272FE01E052F847E531CB
:103B1000F10508F060C0E35AF54D0C9476288091C9
:103B2000CF0291E089278093CF02109216018091F5
:103B3000CE0281608093CE02D7CE45EB5EE06AEA8A
:103B40007EE00E94D808D0CE4AEA5EE065EB7EE0D7
:103B5000F8CF45EE5BE06BED7BE0F3CF4BED5BE048
:103B600065EE7BE0EECF4CEF5BE06FEE7BE0E9CF04
:103B70004FEE5BE06CEF7BE0E4CF46E15CE069E0B8
:103B80007CE0DFCF49E05CE066E17CE0DACF49E849
:103B900058E06BE778E0D5CF4BE758E069E878E08C
:103BA000D0CF81E00E94920E9FCE82E0FBCF84E0D6
:103BB000F9CF88E0F7CF08F05CC0C1303CE7D3070D
:103BC00009F47BC0C3308CE7D80709F470C0C11575
:103BD000DC4709F45FC0F8018581E080F180811540
:103BE00009F46FC0C7010E94D404C82F682FC70111
:103BF0000E940102B7018C2F0E94BE020E94D103D5
:103C0000D82FC92FF801D580C680C2942FE0C222D8
:103C10008091DE028770811501F1FD2CD114F1F045
:103C2000892F807F803461F080E28D0F8830A8F08A
:103C3000892F807E803221F4D23078F0C11469F06F
:103C40008091E00282FF09C082E00E9477028091A9
:103C5000DE028770FF24F3948111F12CEC2FE295A2
:103C6000EF70C03C08F098C0F0E0EE58F54D0C94B1
:103C70007628CB35ECE7DE0711F18091E0020024D5
:103C800082FF0394802DCC35DC4709F0A4CF0E943D
:103C90001F10A1CF0E94A8112FEF34E38CE0215018
:103CA00030408040E1F700C000000E94950F6FEFA8
:103CB0007FEF80E090E00E948A290E94D91180E085
:103CC000E6CFC7010E943802C82F94CFFC2FFF70A7
:103CD000EF2EC03118F0E29490EFE922D114B9F040
:103CE000E11469F080E28D0F883010F0D11109C025
:103CF0008091D7028E298093D7020E9436108D2F93
:103D000043C08091E1028E298093E102F6CF8D2F8E
:103D10000E943D11E11409F43FC080E28D0F88300C
:103D200010F0D11104C08E2D0E94B60206C0E0949E
:103D30008091E1028E218093E1020E9436102CC016
:103D40002C2F2F70E22EC07FC03219F0E29480EF4A
:103D5000E822D11549F0D13009F46BC0D11409F42F
:103D600077C0C114C9F1CBCF8091E00282FD30C091
:103D7000D11469F0E11439F08091D7028E29809333
:103D8000D7020E94361080E00E94881005C080E0B3
:103D90000E943D11E110C7CFF114A9F08091DE021D
:103DA00080FD11C0F80115828695869586950E9442
:103DB000DF01C8010E94531C8091DE028695869522
:103DC00086950E94EF0160E0C8010E9408059CCD25
:103DD000D11499F0C11004C08E2D0E949711DCCF30
:103DE00031E0C312D9CF8091D8029E2D9823E916D5
:103DF00099F28E298093D802CFCFC110CDCF8E2DCE
:103E00000E94A1119091D8028E2D8923811529F04D
:103E10008E2D809589238093D8028091D9029E2D82
:103E20009823911509F4B8CFE094E822E092D902E2
:103E3000B3CFD11429F086E0C81608F0ADCFCCCFAF
:103E400095E0C91608F0A8CF8E2D0E94A111A4CF2D
:103E5000C114D1F3D93349F4EFEFF7EE23E0E15089
:103E6000F0402040E1F700C000008D2F0E943D117E
:103E700093CF8C2F869586958370811569F081305C
:103E800009F08ACF8D2F9C2F9370D11002C080E053
:103E900090E00E94650980CF8D2F9C2F9370D110E8
:103EA00002C080E090E00E943F0976CF6D2D8D2FFB
:103EB0000E941F0A71CF8C2F8370811142C0D110D4
:103EC0002FC04D2F429546954770440F440F2D2F1C
:103ED0002F7030E0042E02C0220F331F0A94E2F745
:103EE00080E090E0D4FF09C08FE090E002C0880F2E
:103EF000991F4A95E2F780959095C695C695C3702F
:103F0000C230B1F0C33089F04091DA025091DB0247
:103F1000C13049F0822B932B842395230E94D50135
:103F20000E94320939CF242B352B822B932BF6CFCD
:103F3000822B932B2091DA023091DB028227932788
:103F4000EDCFD11491F1C0FFEBCF4D2F42954695A7
:103F50004770440F440F2D2F2F7030E0042E02C005
:103F6000220F331F0A94E2F780E090E0D4FF09C0EB
:103F70008FE090E002C0880F991F4A95E2F7809584
:103F80009095C695C695C370C230B9F0C33091F014
:103F90004091DC025091DD02C13051F0822B932B15
:103FA000842395230E94DA01BBCF823070F6B8CF0C
:103FB000242B352B822B932BF5CF822B932B209107
:103FC000DC023091DD0282279327ECCFCF70D11431
:103FD00039F08C2F0E94DF018D2F0E949711A0CF06
:103FE0008D2F0E94A1118C2F0E94EF0199CFD23FFB
:103FF000B1F170F4D03FC9F0D13F91F0D11409F480
:104000005FC0C11409F459C08D2F0E94881088CF59
:10401000D33F61F1D43F91F79091E00292FD34C01B
:104020008C2F8F71D11401F31EC0D114A9F035E08B
:10403000C31608F075CFCF7181E090E0FC0102C09B
:10404000EE0FFF1FCA95E2F7EF018091DC0290911D
:10405000DD028E279D27A6CFF6E0CF16EACF8C2F64
:104060008F71D110C1CF0E94DF015ACF80E090E064
:10407000D11409F497CFCF7181E090E002C0880F8E
:10408000991FCA95E2F78ECFD11461F08C2F8F71F2
:1040900092FFE9CF982F990F990F990F9360909302
:1040A000DE02E1CF81E00E94770222E0C21608F42E
:1040B00037CF82E00E94770233CF8C2F8F71D3CF1E
:1040C000C11479F0D93349F43FEF87EE93E03150D2
:1040D00080409040E1F700C000008D2F0E943D110C
:1040E0001FCF8C2F8F7180CFC631FCE7DF0709F01F
:1040F00008CD8091CD02811509F4FACC85E30E94A8
:10410000BF0914C0C6312CE7D20709F0F3CC809167
:10411000D7028A7A91E0811101C090E09093CD029C
:10412000811509F4E3CC85E30E948B090E943610C7
:10413000DBCB80912203803178F4809121038115BB
:1041400059F0E091E3022091E20230911D03409189
:104150001C0357E02E1301C008956E2F70E05E9F80
:10416000F0011124DF01AC51BD4F14968C911497CE
:10417000811561F111968C911197831327C08C9151
:10418000841324C015968C91159781111FC0129627
:104190008D919C91A0911E03B0911F038A1B9B0BD4
:1041A000883C910598F4809122038F708061809300
:1041B0002203E651FD4F80818F70806180838CE106
:1041C00093E00E94531C0E946D020895FB013196FA
:1041D000E770C0CFADE0B0E0E0EFF0E20C948128F2
:1041E0008C0186E0F801DE01189601900D928A9507
:1041F000E1F7F801F580C4808CE1882E83E0982EE9
:1042000070902003711020C0C114D9F0F11409F48A
:104210001CC1C8010E943705811509F416C187E049
:10422000F801D40101900D928A95E1F7F1E0CF12E7
:1042300006C080911C0390911D030E9428050E94D6
:104240009920FF24F39454C0E080A280B380D090E2
:10425000210380911E0390911F039501281B390BA8
:10426000D11409F4BAC0283C310508F090C0C1143B
:1042700041F390911D03C18080912203803108F0A9
:1042800058C0C91214C090911C039E1110C0F110A7
:104290004AC08F708061809322038CE193E00E947A
:1042A000531C80912203F8018683F12C21C0F11068
:1042B0003AC040E06C2D8E2D0E944A0F40E06C2DDC
:1042C0008E2D0E944A0FF82E8111EFCF8885998597
:1042D0000E942805292F22952F70903470F49F702A
:1042E0002230A0F09115B1F0F8019681903190F450
:1042F0008F2D2D96EDE00C949D282A5F2F70223093
:1043000068F0C8010E94531CFD2CF2CF911511F0EA
:10431000811571F3805E883058F3F3CF803F40F30E
:10432000815F8330F9CF80912203816080932203E3
:10433000BCCFC91207C090911C039E1103C0F11499
:1043400009F46CC0C8010E943705811509F47DC0CD
:10435000F11409F47AC080912203803278F0209120
:104360001C0330911D033A832983BC82AB827D827A
:104370001E828F83CE0101960E94531C87E0F801B4
:10438000ACE1B3E001900D928A95E1F758CF8091AE
:104390002203803150F48CE193E00E94531C87E0AB
:1043A000F40111928A95E9F780CFC11409F449CF3D
:1043B00020911D0391812913C5CF90911C039E115B
:1043C000C1CFF110BFCF8683C8010E94531C87E084
:1043D000F40111928A95E9F734CF283C3105F8F6BB
:1043E000C11409F42ECFF11481F190911D03818144
:1043F000981321C080911C038E111DC0809122034F
:1044000080FD10C0803170F08683807F803F39F05E
:104410008681982F907F905F8F70892B8683C8014B
:104420000E94531C87E0F801ACE1B3E001900D92CB
:104430008A95E1F706CFC8010E94370581119ECF0A
:1044400080912203816080932203C8010E94531C43
:10445000F8CEABE1B0E0EFE2F2E20C948A284E8BAA
:104460005F8B688F798F8A8F192F9B8F9111109294
:10447000E1021D8A86E0FE017696DE011F9601901C
:104480000D928A95E1F70A8D011539F00B8B1C8B83
:1044900061E0CE010F960E9408050B8B1C8B87E014
:1044A000FE013F96DE01189601900D928A95E1F784
:1044B000CE0108960E94EA20811128C02091E202D4
:1044C0003091E30287E0FE013896DE0111960190FB
:1044D0000D928A95E1F78C858115C1F0822F90E0CD
:1044E00001968770992738171906D9F097E0929F9F
:1044F000D0011124AC51BD4FFE01319601900D92B7
:104500009A95E1F78093E2020E946D0217E0809194
:10451000E3029091E202891312C06B96E4E00C94DE
:10452000A6280E94A8111092E2021092E30287E0EE
:10453000ECE1F3E0DF011D928A95E9F7E7CF189FE0
:10454000C00111248C519D4F0E94EA20811529F34E
:104550008091E30290E00196877099278093E302AF
:10456000D6CFA6E0B0E0E7EBF2E20C948A280E94F6
:10457000EB098C0180918F02909190028017910736
:1045800079F019821A820E94EB09BC0149815A8193
:1045900080E090E00E9429221093900200938F0205
:1045A0002696E4E00C94A628CDB7DEB766970FB642
:1045B000F894DEBF0FBECDBF85B7806885BF85B7D5
:1045C000806885BF84B7877F84BF0FB6F894A895AD
:1045D00080916000886180936000109260000FBE3F
:1045E00080E890E00FB6F8948093610090936100AA
:1045F0000FBE83E695E090938301809382010E9431
:10460000AB0B0E94EF0E8091E20084608093E20089
:10461000789480915002811599F08091E900109171
:10462000EC008F70179511271795182B1092E90041
:104630008091E80083FD0E94EF111F701093E90044
:1046400082E084BD13E015BD9AEF97BD80936E00A4
:1046500086E90E94650582E90E94650581E90E945C
:10466000650585EF0E94650584EF0E94650581EF71
:104670000E946505E1E5F2E0DF01212F1D922A95F8
:10468000E9F7E1E2F2E0DF011D921A95E9F780E037
:1046900090E00E945629853E9E4F09F461C065EE68
:1046A0007EEF80E090E00E948A2960E082E090E066
:1046B0000E946C2981E090E09093DB028093DA0203
:1046C00061E083E090E00E946C2960E074E184E0A6
:1046D00090E00E948A2960E086E090E00E946C29C8
:1046E00060E087E090E00E946C2940E050E0BA0171
:1046F00088E090E00E947E2960E083E290E00E94E2
:104700006C2960E08CE090E00E946C2960E08DE014
:1047100090E00E946C2919821A821B821C821D82E1
:104720001E821F82188648E050E067E170E0CE01EB
:1047300001960E945C2940E050E0BA018FE190E0D0
:104740000E947E2940E050E0BA018FE090E00E9494
:104750007E2940E050E0BA0183E190E00E947E298A
:1047600082E090E00E944E298093860284E090E0EF
:104770000E9456299093E0028093DF020E949F14CA
:10478000EFEFF6E721E0E150F0402040E1F700C014
:1047900000000E949F148091510280FF08C06FEFBB
:1047A0007FEF80E090E00E948A290E94950F83E0CD
:1047B00090E00E944E2990E00E94D5010E94970847
:1047C0001092240240E150E06FEF70E08DE392E040
:1047D0000E94372910925D0240E150E06FEF70E0D7
:1047E00086E792E00E94372981E08093CE0248E07C
:1047F00050E067E170E08FEC92E00E943E29109259
:10480000CE028091CF028430F8F481E18093CF0210
:104810008091170190911801A09119018093D00205
:104820009093D102A093D2028FE78093D3028FEFAF
:104830008093D40248E050E067E170E08FEC92E0B2
:104840000E945C291092CE0289E091E09093B2021E
:104850008093B102CE010196888B998B8091500292
:10486000853089F410E403E0B0E1FB2E82E1E82E0C
:1048700080915002853009F4F9C00E94A8110E946D
:10488000320910924E020E949F1490915102809121
:104890008702981351C19091520280918802981317
:1048A0004BC19091890280915302981345C10E9497
:1048B000B1220E942C1B86E0E6ECF2E0A889B989BF
:1048C00001900D928A95E1F7C090C7020091C8024D
:1048D000F090C902E090CA021091CB021092C80277
:1048E0001092C9021092CA021092CB02802F8F2917
:1048F000811509F440C080918C0290918D020E9434
:10490000F00A3C018091C402811509F453C2A5E16B
:104910006A16710480F18F3F19F08F5F8093C40293
:10492000011559F00E94ED0891E010160CF09FEF70
:10493000899F802D11248093C802F11459F00E94A0
:10494000ED0891E01F140CF09FEF899F802D11243A
:104950008093C9028091C802811569F0D090C90284
:10496000D11449F00E94DF088093C8028D2D0E9467
:10497000DF088093C902812F8E29811509F442C076
:1049800080918A0290918B020E94F00A8B879C870B
:104990008091C302811509F406C2EB85FC85E135DF
:1049A000F10580F18F3F19F08F5F8093C302E1140E
:1049B00059F00E940D0991E01E140CF09FEF899FA1
:1049C000802D11248093CA02111559F00E940D09FF
:1049D00091E011160CF09FEF899F802D1124809398
:1049E000CB028091CA02811569F0E090CB02E114FC
:1049F00049F00E94DF088093CA028E2D0E94DF08D2
:104A00008093CB028091C702C81219C08091C8025E
:104A1000811511F0081313C02091C902211511F05E
:104A2000F2120DC09091CB02911511F0191307C02D
:104A30003091CA02311103C0822B892B81110E944F
:104A4000F70986E0E889F989A6ECB2E001900D92B9
:104A50008A95E1F70E94320990918E02891709F434
:104A6000FDCE80938E020E94E40AF8CE809150021F
:104A7000843009F439C00E942C1B80914E028111B0
:104A80000DC00E945115109214018091CF028370C5
:104A9000809313010E94690F0093160131E0309357
:104AA0004E0210924D0248E150E00FB6F894A895DE
:104AB000409360000FBE1093600083B7817F8460D5
:104AC00083BF83B7816083BF7894889583B78E7FD7
:104AD00083BF0FB6F894A895809160008861809399
:104AE0006000109260000FBE0E949F1480915202DD
:104AF00090915102892B90915302892B811509F4D1
:104B0000B7CE80914F02811509F4B2CEF9BCE9BC51
:104B100009B400FEFDCF8091D8008F7D8093D8002E
:104B20008091E00082608093E0008091E00081FD50
:104B3000FCCF0E94A8119CCE81E592E09E878D87D4
:104B4000A7E8B2E0BA87A987412C512CF12CED855A
:104B5000FE85B190FE87ED87A985BA858D91BA87CC
:104B6000A9878B1509F4D6C08B258A8B6201E12CAD
:104B7000AA24A3948A898A21811509F4C0C02B2C08
:104B80002A20E982FA820E94EB099C838B83B1E0A0
:104B9000BD8391E0211001C090E09E8349815A813C
:104BA0006B817C818D810E942922211439F0F601CC
:104BB000E85DFE4F80818F3F09F0B6C0312C032D98
:104BC00010E080915D02830D9927991F09976CF180
:104BD000E8E08E2E912C801A910AB801625A7D4F1E
:104BE000A4018EE592E00E941C29B8016A597D4F0C
:104BF000A40186E692E00E941C29A401440F551FDF
:104C0000B801660F771F6A587D4F86E792E00E94D1
:104C10001C29B80162597D4FA4018EE692E00E94E2
:104C20001C2988E0831980935D02311429F1409199
:104C30005D02EF858E2F90E0242F30E0F901E35ADA
:104C4000FD4FDC01AA0FBB1FA85DBE4F19965C91FA
:104C50005183880F991FDC01AE5CBE4F8C91818718
:104C60005F85518BF901EE0FFF1FE35AFD4F128E46
:104C7000118E4F5F40935D02211409F440C0809172
:104C8000CF028C7F803509F03AC0F601E85DFE4F17
:104C900080818F3FA1F1812C912C212C90E09C01EF
:104CA000220F331FD901AF5CBE4FBC8BAB8BF90118
:104CB000EE5CFE4FFE8BED8B8401312CF801E85D3C
:104CC000FE4F80818F3F69F0F21032C0E31030C098
:104CD000F601EC5AFD4F208130E2230F08F42FEF4C
:104CE000208333940F5F1F4FF3E03F12E7CF2394ED
:104CF00023E0820E911C39E083169104E9F6E394D7
:104D0000AA0C4FEFC41AD40A53E0E51233CFE98559
:104D1000FA85B292F39483E0480E511C93E0F912A5
:104D200016CF0E94E40AC5CD8F873324339447CF32
:104D300090E0AB89BC894C91FC01EE0FFF1FE85D50
:104D4000FE4F2185421B550BED89FE892081880F7E
:104D5000991FFC01EE5CFE4F8081281B330B449FA2
:104D6000B001459F700D700D1124229FC001239F3B
:104D7000900D900D1124860F971F0E940C06382F5E
:104D8000893208F0AECF28E2231B08F420E0F801B6
:104D9000EC5AFD4F213108F020E13081320F08F448
:104DA0003FEF30839ECF2B853C852B30310508F0BB
:104DB000FBCD28CE3BE06316710408F0AECDDBCD11
:104DC0001F921FB61F9211248F939F93AF93BF938F
:104DD00080914D02811113C08091EA019091EB0105
:104DE000A091EC01B091ED014196A11DB11D809300
:104DF000EA019093EB01A093EC01B093ED01BF9118
:104E0000AF919F918F911F901FBE1F90189578941E
:104E10001F921FB61F9211248F939F93AF93BF933E
:104E20008091EA019091EB01A091EC01B091ED012C
:104E30000196A11DB11D8093EA019093EB01A0930F
:104E4000EC01B093ED01BF91AF919F918F911F90B5
:104E50001FBE1F9018951F920F920FB60F9211242C
:104E60002F933F934F935F936F937F938F939F9372
:104E7000AF93BF93EF93FF938091E10082FF09C04E
:104E80008091E20082FF05C08091E1008B7F8093DA
:104E9000E1008091DA0080FF24C08091D80080FF7B
:104EA00020C08091DA008E7F8093DA008091D90053
:104EB00080FF9BC080E189BD82E189BD09B400FE0D
:104EC000FDCF81E0809350028091B401811109C02F
:104ED0000E94AB0B0E94EF0E8091E20084608093F1
:104EE000E2008091E10080FF17C08091E20080FF26
:104EF00013C08091E2008E7F8093E2008091E200F7
:104F000080618093E2008091D80080628093D80015
:104F100019BC85E0809350028091E10084FF29C094
:104F20008091E20084FF25C080E189BD82E189BDD6
:104F300009B400FEFDCF8091D8008F7D8093D8000A
:104F40008091E1008F7E8093E1008091E2008F7E6E
:104F50008093E2008091E20081608093E200809182
:104F6000B301811509F447C084E080935002809119
:104F700050028091E10083FF27C08091E20083FF0F
:104F800023C08091E100877F8093E10082E08093DD
:104F900050021092B3018091E1008E7F8093E10076
:104FA0008091E2008E7F8093E2008091E200806138
:104FB0008093E20042E060E080E00E94BF0E8091BA
:104FC000F00088608093F000FF91EF91BF91AF9166
:104FD0009F918F917F916F915F914F913F912F9111
:104FE0000F900FBE0F901F90189519BC1092500291
:104FF0001092B40176CF8091E30087FF02C083E076
:10500000B4CF81E0B2CF1F920F920FB60F9211244E
:10501000EF92FF920F931F932F933F934F935F93C2
:105020006F937F938F939F93AF93BF93CF93EF93A0
:10503000FF9309EE10E0F8018081C091EC008F70C1
:10504000C795CC27C795C82B108280EFE82EF12C8E
:10505000F7018081877F808378940E94EF11F801A7
:105060001082F701808188608083CF70F801C0834F
:10507000FF91EF91CF91BF91AF919F918F917F91D0
:105080006F915F914F913F912F911F910F91FF90E1
:10509000EF900F900FBE0F901F901895AA1BBB1B8F
:1050A00051E107C0AA1FBB1FA617B70710F0A61B28
:1050B000B70B881F991F5A95A9F780959095BC0149
:1050C000CD01089597FB072E16F4009407D077FDC5
:1050D00009D00E944E2807FC05D03EF4909581959A
:1050E0009F4F0895709561957F4F0895EE0FFF1FB4
:1050F0000590F491E02D09942F923F924F925F9288
:105100006F927F928F929F92AF92BF92CF92DF92D7
:10511000EF92FF920F931F93CF93DF93CDB7DEB73C
:10512000CA1BDB0B0FB6F894DEBF0FBECDBF0994D0
:105130002A88398848885F846E847D848C849B8427
:10514000AA84B984C884DF80EE80FD800C811B8135
:10515000AA81B981CE0FD11D0FB6F894DEBF0FBE64
:10516000CDBFED0108958F929F92AF92BF92CF92E3
:10517000DF92EF92FF92CF93DF93EC016881798108
:105180008A819B81611571058105910521F464E295
:1051900079ED8BE597E02DE133EF41E050E00E949F
:1051A000902949015A019B01AC01A7EAB1E40E9490
:1051B000AF296B017C01ACEEB4EFA50194010E9414
:1051C000BD29DC01CB018C0D9D1DAE1DBF1DB7FFA0
:1051D00003C00197A109B04888839983AA83BB8340
:1051E0009F77DF91CF91FF90EF90DF90CF90BF90AE
:1051F000AF909F908F9008950E94B328089580E00B
:1052000091E00E94B3280895A0E0B0E080930001EF
:1052100090930101A0930201B09303010895FB0153
:10522000DC0104C08D910190801921F4415050405F
:10523000C8F7881B990B0895FB01DC0102C001909F
:105240000D9241505040D8F708956817790768F4D7
:10525000FB01DC01E40FF51FA40FB51F02C0029093
:105260000E9241505040D8F708950C941C29DC014F
:1052700001C06D9341505040E0F70895DC01CB012F
:10528000FC01F999FECF06C0F2BDE1BDF89A319656
:1052900000B40D9241505040B8F70895F999FECFEF
:1052A00092BD81BDF89A992780B50895A8E1B0E034
:1052B00042E050E00C944029DC01A40FB51F41509E
:1052C000504048F0CB01840F951F2E910E946D290C
:1052D00041505040D0F70895262FF999FECF92BD46
:1052E00081BDF89A019700B4021639F01FBA20BDAB
:1052F0000FB6F894FA9AF99A0FBE08950396272FDD
:105300000E946D290E946C29252F0E946D29242F4F
:105310000C946D290196272F0E946D290C946C29FD
:10532000052E97FB1EF400940E94A72957FD07D075
:105330000E94C22907FC03D04EF40C94A729509573
:105340004095309521953F4F4F4F5F4F0895909571
:105350008095709561957F4F8F4F9F4F08950E9464
:10536000E429A59F900DB49F900DA49F800D911DE1
:1053700011240895B7FF0C94AF290E94AF29821B16
:10538000930B0895A1E21A2EAA1BBB1BFD010DC0B1
:10539000AA1FBB1FEE1FFF1FA217B307E407F507E5
:1053A00020F0A21BB30BE40BF50B661F771F881FC1
:1053B000991F1A9469F760957095809590959B0157
:1053C000AC01BD01CF010895A29FB001B39FC00100
:1053D000A39F700D811D1124911DB29F700D811D21
:1053E0001124911D0895F894FFCF2B0A330A360A31
:1053F0003C0A510A510A510A510A510A510A510AEA
:10540000510A3F0A440A480A4E0A5F0A650A690AB5
:10541000CC12F212F812F212F8124B136D13F812AA
:105420006A14771481158C15C0150C1627162A16C8
:105430002D1630163516851688168D169016CF1631
:105440000E175B175E176117DA17C4185F19FB197F
:10545000DB1AE01AE31AF01AF41AFF1A021B0D1BEA
:10546000101B1B1B1E1B291B8D1C911C6F1C891CD8
:10547000951C991C9D1C001D681D081DD21CD61C66
:105480000C1DDA1C101D1C1DE61C611DEA1C201DD4
:10549000EE1C241D491DF21C281D501DF81C2E1D3C
:1054A000361DDE1C141DE21C181DFC1C321D401D87
:1054B000591D5F1DCC1C041D6F1D8F1D9D1DA41D3E
:1054C000A91DAE1DB31DB81DBD1DC21DC71DCC1D20
:1054D000D11DD51DD71DD91D741C741C741C741CC2
:1054E000741C741C661E661EA01EA01E391F561F4B
:0C54F000CC1ECC1E5B1FE61FF71FF71F31
:1054FC000100000000FF003905FF0AF30F0A10112C
:10550C00101810FFFF010300FFFF003131295A1B57
:10551C00750A969291F5F4F102010005040308074F
:10552C0006400020000000402020200020404020A9
:10553C00400040040404040404040404E200E900F0
:10554C00EA00B500B600B700CD008301CC008A019B
:10555C009201940121022302240225022602270231
:10556C002A02B300B4006F0070009F01CB019F02B0
:02557C00A0028B
:00000001FF
