:100000000C9408020C944F020C944F020C944F0273
:100010000C944F020C944F020C944F020C944F021C
:100020000C944F020C944F020C94191D0C94D51C87
:100030000C9488210C944F020C944F020C944F02A4
:100040000C944F020C944F020C944F020C944F02EC
:100050000C944F020C9464210C944F020C944F02A8
:100060000C944F020C944F020C944F020C944F02CC
:100070000C944F020C944F020C944F020C944F02BC
:100080000C944F020C944F020C944F020C944F02AC
:100090000C944F020C944F020C944F020C944F029C
:1000A0000C944F020C944F020C944F02000101017A
:1000B0000101010101010202020202020202020325
:1000C00003030303030303040404040404040505F5
:1000D00005050506060606060707070707080808B8
:1000E00008090909090A0A0A0B0B0B0C0C0C0D0D67
:1000F0000D0E0E0E0F0F0F101011111112121313FF
:100100001414151516161717181819191A1A1B1B77
:100110001C1D1D1E1E1F20202122222324242526D3
:1001200026272829292A2B2C2D2D2E2F303132320B
:10013000333435363738393A3B3C3D3E3F40414217
:10014000434445464748494A4C4D4E4F50515354FD
:10015000555658595A5B5D5E5F61626465666869B1
:100160006B6C6D6F7072737577787A7B7D7E808231
:10017000838587888A8C8E8F91939596989A9C9E7A
:10018000A0A2A3A5A7A9ABADAFB1B3B5B7BABCBE8A
:10019000C0C2C4C6C9CBCDCFD1D4D6D8DBDDDFE257
:1001A000E4E7E9EBEEF0F3F5F8FAFDFFFFAA7F557F
:1001B000402223252628292A2C2D2F30323335366C
:1001C000383A3B3D3E4042434547494A4C4E5051E8
:1001D000535557595A5C5E6062646668696B6D6F0F
:1001E00071737577797B7D7F81838587898A8C8E12
:1001F00090929496989A9C9E9FA1A3A5A7A8AAAC1A
:10020000AEAFB1B3B4B6B8B9BBBCBEBFC1C2C3C553
:10021000C6C7C9CACBCCCDCED0D1D2D2D3D4D5D6F5
:10022000D7D7D8D9D9DADADBDBDBDCDCDCDCDCDD28
:10023000DDDDDDDCDCDCDCDCDBDBDBDADAD9D9D80C
:10024000D7D7D6D5D4D3D2D2D1D0CECDCCCBCAC9A4
:10025000C7C6C5C3C2C1BFBEBCBBB9B8B6B4B3B1D3
:10026000AFAEACAAA8A7A5A3A19F9E9C9A9896946E
:1002700092908E8C8A89878583817F7D7B79777543
:1002800073716F6D6B6968666462605E5C5A595722
:10029000555351504E4C4A4947454342403E3D3BE1
:1002A0003A3836353332302F2D2C2A29282625236B
:1002B000222F00050030001D0808001D0A06410F0E
:1002C000002C00C65CCA5CC45CC75CC35CC85C0133
:1002D00000CB5CC95C1E0F0500047F3F1F64321415
:1002E000643214783C1E1E140A0505010902A1019E
:1002F00085020901A1000509190129081500250138
:100300009508750181020501093009311581257FA4
:1003100095027508810609381581257F95017508B4
:100320008106050C0A38021581257F950175088123
:1003300006C0C005010980A101850319012AB70083
:10034000150126B700950175108100C0050C090143
:10035000A101850419012AA002150126A002950118
:1003600075108100C005010906A101050719E029E2
:10037000E715002501950875018102950175088131
:10038000010507190029FF150026FF0095067508CD
:10039000810005081901290595057501910295014E
:1003A00075039101C009023B00020100A0FA090493
:1003B0000000010301010009211101000122400098
:1003C0000705810308000A09040100010300000079
:1003D000092111010001227B000705820320000A88
:1003E00012011001000000084D59094401000102EA
:1003F00000010C0359004D0044003000390000009A
:100400000A0359004D0044004B0000000403090496
:1004100011241FBECFEFDAE0DEBFCDBF04B603FE6E
:1004200027C08091730290917402A0917502B091DF
:1004300076028730904BA740B04BD1F410927302F4
:1004400010927402109275021092760214BE84B754
:10045000877F84BF0FB6F894A8958091600088616B
:1004600080936000109260000FBEE0E0F8E3099511
:1004700022E0ACE7B1E001C01D92A337B207E1F77B
:1004800011E0A0E0B1E0EAEFF6E402C005900D92C1
:10049000AC37B107D9F70E94EF1D0C9436230C94AA
:1004A0000000E8EDF0E080818E7F80831092E20012
:1004B0001092DA001092E100A0EEB0E08C91816021
:1004C0008C9380818F77808319BCA7EDB0E08C91ED
:1004D0008E7F8C9380818F7E808310925902089545
:1004E0002091E4003091E50095E6A9012091EC000F
:1004F000822F817020FF06C08091E80080FF06C037
:1005000080E008952091E80022FD1AC080916602E3
:10051000882389F0853089F08091EB0085FD0FC03C
:100520002091E4003091E50042175307F9F2915011
:10053000E1F684E0089582E0089583E0089581E083
:100540000895EF92FF920F931F93CF937C018B013D
:100550000E947002C82F811117C08091E80085FDAC
:100560000BC08091E8008E778093E8000E947002B3
:10057000882399F3C82F08C0F70181917F018093E8
:10058000F1000150110949F78C2FCF911F910F9164
:10059000FF90EF9008958091680287FF13C08091CB
:1005A000E80082FF06C08091E8008B778093E80026
:1005B00004C0809166028111F2CF08958091660295
:1005C0008823D9F38091E80080FFF8CF8091E8007C
:1005D0008E77ECCF982F9093E900242F762F50E060
:1005E000891731F07091EC002091ED005091F000EE
:1005F00021FD07C09F5F973071F78093E90081E08C
:1006000008953091EB003E7F3093EB003091ED0088
:100610003D7F3093ED003091EB0031603093EB0083
:100620007093EC002093ED005093F0002091EE00C9
:1006300027FDE0CF80E00895CF92DF92EF92FF9206
:100640000F931F93CF93DF93C8EDD0E088818F7E07
:100650008883E7EDF0E080818160808384E082BF61
:1006600081E08093590288818E7F888302EE10E0BA
:10067000F80110821092DA0081EEC82ED12CF6011A
:10068000108288818F7788838881806888838881B9
:100690008F7D888319BC10926602109267021092B7
:1006A00065021092640290EEE92EF12CF701808130
:1006B0008B7F808388818160888342E060E080E076
:1006C0000E94EA02F60180818E7F8083F80180819A
:1006D00081608083808188608083F70180818E7F44
:1006E0008083888180618883DF91CF911F910F91F2
:1006F000FF90EF90DF90CF900895FC01CB01209107
:100700006E0230916F022617370790F0009729F498
:100710002091E8002E772093E80040E0009751F404
:10072000411108C08091E80082FF31C080E0089547
:10073000C901F3CF209166022223A9F12530A9F146
:100740002091E80023FD2DC02091E80022FDEACF92
:100750002091E80020FFE2CF3091F3002091F200D9
:10076000009719F02830310558F041E02830310564
:1007700009F040E02091E8002E772093E800CECFEA
:1007800041914093F10001972F5F3F4FE9CF809156
:100790006602882341F0853041F08091E80083FFB4
:1007A000C1CF81E0089582E0089583E0089508951F
:1007B00080E0089580915B0208959C014FB7F89402
:1007C0008091340290913502A0913602B0913702A7
:1007D0004FBF821B930B08952FB7F894809134027A
:1007E00090913502A0913602B09137022FBF089543
:1007F00080912002811110922002089580911F02A1
:1008000090911E02892B90911D02892B80937E016D
:1008100090912002992391F0892B80937E0120E012
:1008200080E891E0FC013081019631112F5F31E0C9
:1008300086389307B9F721110E94F803E0912F023F
:10084000F0913002309731F00280F381E02D8EE795
:1008500091E009940895E0E8F1E09191891303C0D3
:10086000DF0111971C9291E0E638F907B1F708957E
:10087000A0E8B1E0EFEF90E02D91821751F0EF3F4B
:1008800019F4211101C0E92F9F5F9630A9F7EF3FBE
:1008900009F408950E2E000CFF0BE258FE4F8283E0
:1008A0000895292F220FE22FE90FE80F9E2F97704E
:1008B000E695E695E69585E0E89FF0011124EE5E69
:1008C000FD4F50E040E080E0219130E0092E02C071
:1008D000369527950A94E2F721703327042E01C03C
:1008E000220F0A94EAF7822B4F5F5F4F4530510584
:1008F00059F70895292F220FE22FE90FE80F8E2FC5
:10090000877041E001C0440F8A95EAF7E695E695C5
:10091000E69585E0E89FF0011124EE5EFD4F30E0A2
:1009200020E070E05191DF011197CB01022E02C04F
:10093000969587950A94E2F781708195852784239F
:1009400085278C932F5F3F4F2530310559F7089548
:10095000809111029091E001981301C008958F5F7A
:100960008770FACF882341F0809590911F028923E8
:1009700080931F020C94FE030895882339F0909110
:100980001F02892B80931F020C94FE03089520916F
:10099000D6013091D7012817390771F09093D7010C
:1009A0008093D601E0912F02F0913002309721F030
:1009B0000084F185E02D099408952091D4013091AF
:1009C000D5012817390771F09093D5018093D40190
:1009D000E0912F02F0913002309721F00680F781EC
:1009E000E02D09940895E0912F02F09130023097A4
:1009F00021F00190F081E02D099480E00895FA0142
:100A000081110994FB01FDCF80914102982F9E7FB7
:100A100029F4817082608093410208958635E8F35D
:100A200081708465F8CF8F929F92AF92BF92CF92E0
:100A3000DF92EF92FF920F931F93CF93DF93D82E05
:100A4000C62EE901E42FF0E0E455FF4F611113C019
:100A50004491942FE42FE98348839A83DF91CF91C7
:100A60001F910F91FF90EF90DF90CF90BF90AF90CC
:100A70009F908F900895062F10E0E49186E0D89E15
:100A8000700111242FEF30E0C701B9010E94C92184
:100A90008D2D90E0880F991FF5E5F69FA001F79F37
:100AA000500D1124841B950B982F990F890FA901C4
:100AB000401B510BE49FD001E59FB00D11244B2F3B
:100AC000C89E60011124CD2CDD245901AC18BD084D
:100AD000EA9D6001EB9DD00C11249D2D4901881ADF
:100AE0009108809E5001819EB00C909EB00C112404
:100AF000AB2CBB242A193B09E29F8001E39F100D18
:100B0000112463307105D1F08CEFE81683E0F8060C
:100B100070F461307105B1F062307105B9F08FEF9A
:100B2000E816F10408F097CF9B2F412F94CF643043
:100B3000710579F066307105B9F38DCF4D2D9E2F7B
:100B4000EB2F89CF4E2FED2D9B2F85CF912F4E2F41
:100B5000F7CF9E2FE12F7FCF0E94EC032091500210
:100B600030915102232B21F080934C0290934D023F
:100B70002091520230915302232B21F0809349029D
:100B800090934A02E0912F02F0913002309749F0A1
:100B900082E080934E020480F581E02D8EE492E0A5
:100BA0000994089590E080E00E94DD0490E080E0E8
:100BB0000E94C70410921E0210921D020E94FE03A2
:100BC00086E0EEE4F2E0DF011D928A95E9F71092EB
:100BD0004B02109248021092D9010C94AC0560931C
:100BE00025027093260280932702909328020C948A
:100BF000D2050F931F93CF93DF9300D000D0CDB7D2
:100C0000DEB741E050E060E070E004C0440F551FE3
:100C1000661F771F8A95D2F740955095609570951D
:100C20008091250290912602A0912702B09128027E
:100C30008A019B01082319232A233B2309831A8352
:100C40002B833C83C901B8010F900F900F900F9038
:100C5000DF91CF911F910F910C94EF0590911C02A1
:100C60008095892380931C02282F277039F4282F20
:100C7000082E000C330B9217130621F490912A02D0
:100C800092FF07C08595859585950E94F90510927C
:100C90001C0208950F931F93CF93DF9300D000D0D1
:100CA000CDB7DEB741E050E060E070E004C0440F33
:100CB000551F661F771F8A95D2F780912502909164
:100CC0002602A0912702B09128028A019B01082BDD
:100CD000192B2A2B3B2B09831A832B833C83C901B5
:100CE000B8010F900F900F900F90DF91CF911F914F
:100CF0000F910C94EF056093210270932202809370
:100D00002302909324020C94D205409150028D3E10
:100D100059F48091510287FF0DC010925102411188
:100D20000BC010924B0208C08E3E81F4809151029C
:100D300018169CF3442381F0809152029091530243
:100D4000892B09F05AC01092480208958F3E49F449
:100D500047FFF0CF10925002809151028111ECCFE9
:100D6000E0CF803F19F41416ACF3E4CF9091520217
:100D7000893F29F41916F4F610925202DBCF8A3F0C
:100D800019F497FFD7CFF8CF909153028B3F29F4F6
:100D900097FFD0CF10925302CDCF8C3F19F4191684
:100DA000CCF3C8CF9FE0980F983090F4815F990BF7
:100DB00021E030E0B90102C0660F771F8A95E2F7A3
:100DC000CB01809590914F02892380934F02B2CF3F
:100DD0008D3F31F48091D9018E7F8093D901AACFC4
:100DE0008E3F21F48091D9018D7FF7CF8F3F09F09D
:100DF000A1CF8091D9018B7FF0CF0895882309F48A
:100E000059C0823871F40E94F30481FF53C089E312
:100E10000E9438040E94FE0389E30E942B040C9474
:100E2000FE03833859F40E94F30480FF43C083E536
:100E30000E9438040E94FE0383E5EFCF843859F402
:100E40000E94F30482FF36C087E40E9438040E94A7
:100E5000FE0387E4E2CF9CEF980F913AF0F290E224
:100E6000980F983088F4877021E030E0A90102C023
:100E7000440F551F8A95E2F7CA01809590911F0291
:100E8000892380931F02CBCF9BE5980F933020F4EA
:100E900090E080E00C94DD0498E5980F973120F401
:100EA00090E080E00C94C7048D3E20F00E948506FF
:100EB0000C94AC0508958091D90180FD16C081FD88
:100EC00016C082FD16C0809148028823A1F08832A6
:100ED00080F428E0829FC001112468E270E00E9443
:100EE000DD21862F672B39F0089582E0089584E094
:100EF000089588E0089581E008958091D90180FDEA
:100F000014C081FD14C082FD16C080914B0288235D
:100F100081F0843180F422E3829FC001112464E1D6
:100F200070E00E94DD21862F08958CE0089589E10C
:100F3000089585E0089582E308958D3E31F40E947E
:100F40007D0781958093510208958E3E19F40E9489
:100F50007D07F8CF8F3E31F40E947D078195809305
:100F600050020895803F19F40E947D07F8CF893F11
:100F700029F40E945B078093520208958A3F21F46E
:100F80000E945B078195F7CF8B3F31F40E945B078E
:100F900081958093530208958C3F19F40E945B075A
:100FA000F8CF9FE0980F983070F4815F990B21E0A3
:100FB00030E001C0220F8A95EAF780914F02822B20
:100FC00080934F0208958D3F31F48091D901816063
:100FD0008093D90108958E3F21F48091D9018260D8
:100FE000F7CF8F3FB9F78091D9018460F1CFF894A2
:100FF000E82FE295EF70F0E041A18F7021E030E042
:10100000B90102C0660F771F8A95E2F7CB01962FD0
:101010009095942391A392A1892B82A3789408950B
:101020009091290292FF06C0282F28712830F9F4E8
:10103000877F846093FF06C0282F28712831F1F440
:10104000877E846120912A0220FF06C0382F3871E4
:101050003830D9F4877F816021FF06C0282F28719E
:101060002831D1F4877E816194FD877E0895282FF1
:1010700024712430F9F68B7F8860DCCF282F24710F
:10108000243101F78B7E8861DDCF382F317131300B
:1010900019F78E7F8860E0CF282F2171213121F749
:1010A0008E7E8861E1CFCF93DF93972F70E023E0AE
:1010B000929F600D711D1124FB0139E0839FE00DAB
:1010C000F11D1124EE0FFF1FEF54FD4FC591D49178
:1010D000CE01C03ED10509F46DC060F5C133D10524
:1010E00009F4B2C088F4C932D10509F4A6C0CA32E5
:1010F000D10509F4B0C0C130D10549F12497C13AF6
:10110000D10508F063C023C0C933D10509F44BC031
:10111000C238D10509F447C0C533D10509F486C0EA
:10112000C83AD10508F09EC0C53AD10520F384978E
:1011300090640DC0C43ED10509F45BC058F4C23EB2
:10114000D10509F446C0C33ED10509F447C0DF917B
:10115000CF910895C63ED10509F456C0C73ED105CA
:1011600009F459C0C11542E5D40708F0AEC0C11555
:1011700021E5D20708F0F8C0C83ED10540F3C115FB
:1011800030E5D30708F086C0C11540E4D40708F065
:10119000E8C0CF3FD10511F008F076C09065CD3E94
:1011A000D105A8F613C020912902237081F280EEA8
:1011B00090E0CDCF2091290220FDF8C030912A0285
:1011C00030FFC5CF83EE90E024FFC1CF90E080E0F8
:1011D000BECF2091290222FDF5CFB9CF209129025F
:1011E00022FDE7C030912A0230FDE1CF24FFAFCFCE
:1011F000EDCF20912A0221FFAACF8091290284FD00
:10120000E5CF87EE90E0A3CF2091290223FF9FCF67
:1012100024FDDCCFF6CF2091290223FDCDC03091F3
:101220002A0231FFE3CF84EE90E091CF2091290292
:1012300025FF8DCF89E290E08ACF2091290225FFFA
:1012400086CF85E390E083CF2091290226FF7FCFD0
:101250008AE290E07CCF2091290226FF78CF81E3BB
:1012600090E075CF9E01285A31092731310508F0E9
:10127000ADCF885AE82FF0E0EE0FFF1FE85BFE4F7E
:1012800080819181946463CFDA95C115DF4108F4C0
:101290005ECF9CCF9E01F4E036952795FA95E1F755
:1012A000237086958695837030E2839FC001112458
:1012B000922BC37021E030E002C0220F331FCA9589
:1012C000E2F7822B932B9C6842CFC11546E5D407E9
:1012D00018F5C11525E5D20708F052C0C11534E54F
:1012E000D307A8F49C2F96959695AE014370552789
:1012F00021E030E002C0220F331F4A95E2F740E2BE
:10130000C115D345B0F5949FC0011124DACF9C2FAD
:101310008827846F906A1BCFC1158AE5D80780F4AF
:10132000C11599E5D907A8F5CE0198558F3F9105CC
:1013300011F008F04BCF9C2F8827806F906A07CF61
:10134000CE0190568115904208F040CF8D2F8F71BD
:101350000E94100890E0982F882788279F718C2B77
:1013600016C09F70906AF3CE9C2F8827816F906A79
:10137000EECE949FC0011124822B932B9A68E7CE66
:101380000E94100890E0982F882788279F7190620C
:10139000DECE8C2F8F700E94100834E0D695C79552
:1013A0003A95E1F7CF709C2F9069D1CE89E390E018
:1013B000CECE82EE90E0CBCE86EE90E0C8CEBF924D
:1013C000CF92DF92EF92FF920F931F93CF93DF9311
:1013D0008C01C0902502D0902602E0902702F09068
:1013E00028028091210290912202A0912302B091C3
:1013F0002402C82AD92AEA2AFB2ACFE1D0E0BC2E4F
:10140000D701C6010C2E04C0B695A7959795879570
:101410000A94D2F780FD0EC0219788F7B12C8B2D4E
:10142000DF91CF911F910F91FF90EF90DF90CF90C0
:10143000BF900895B8018C2F0E945308019761F363
:10144000EECFCF93DF93D82FC92F0E94DF096D2FE6
:101450007C2FDF91CF910C9453080E94210A282FF2
:10146000892F8F70392F32953F70903C80F43A303D
:10147000B0F4343020F4323090F480E00895363007
:10148000E1F781E0283E88F0213FB9F70EC03C30FB
:1014900011F03F3091F7869586958695089581E005
:1014A000203F39F018F4283E40F70895243F29F7EB
:1014B000FCCF0895CF93DF9300D00F92CDB7DEB766
:1014C00090916602943019F589836A837B8382E068
:1014D0008093E9008FEF9091E800815095FD06C060
:1014E00095ED9A95F1F700008111F5CF8091E80014
:1014F00085FF0DC050E040E063E070E0CE01019652
:101500000E94A1028091E8008E778093E8000F90FE
:101510000F900F90DF91CF910895BC0184E00C945F
:101520005A0ABC0183E00C945A0A22E02093E90095
:101530002FEF3091E800215035FD06C035ED3A958A
:10154000F1F700002111F5CF2091E80025FF0BC035
:1015500050E040E066E070E00E94A1028091E80067
:101560008E778093E8000895CF93DF93D82FC92F0B
:1015700081E08093E9008FEF9091E800815095FD24
:1015800006C095ED9A95F1F700008111F5CF809195
:10159000E80085FF16C050E040E068E070E08D2F65
:1015A0009C2F0E94A1028091E8008E778093E80032
:1015B00088E0ED2FFC2FACE5B2E001900D928A950A
:1015C000E1F7DF91CF91089581E08093E00080E220
:1015D0008093D8001092C9008FE19EE40197F1F743
:1015E00000C0000087E090EBDC01809373029093D1
:1015F0007402A0937502B093760288E19CE00FB666
:10160000F894A895809360000FBE90936000FFCF80
:10161000CF93C82F882309F48FC08238C1F40E9469
:10162000F30481FD89C089E30E9438040E94FE030F
:101630002FEF31EE84E0215030408040E1F700C0D0
:10164000000089E30E942B04CF910C94FE038338A1
:10165000A1F40E94F30480FD6FC083E50E9438046A
:101660000E94FE039FEF21EE34E091502040304075
:10167000E1F700C0000083E5E5CF8438A1F40E94C3
:10168000F30482FD59C087E40E9438040E94FE03DF
:101690008FEF91EE24E0815090402040E1F700C0B0
:1016A000000087E4CFCF8CEF8C0F813A68F4E0E83C
:1016B000F1E08191C817D1F131E0E638F307C9F7BD
:1016C0008C2F0E943804C0CF80E28C0F883068F4E1
:1016D000C77021E030E001C0220FCA95EAF780917F
:1016E0001F02822B80931F02AFCF8BE58C0F8330BC
:1016F00038F42C2F2452330BC901CF910C94DD0404
:10170000E8E5EC0FE73150F4F0E0EE0FFF1FE85B87
:10171000FE4F80819181CF910C94C704CD3E60F043
:101720008C2F0E949D07CF910C94AC058C2F0E94AA
:101730002B040E94FE03C4CFCF910895FF920F9314
:101740001F93CF93DF93C62FD42F122FFC018281DA
:101750008823A9F0609372020E94EC0390937102B7
:1017600080937002C77081E001C0880FCA95EAF7C4
:10177000DF91CF911F910F91FF900C94BD04809148
:101780007202681337C080917002909171020E94BA
:10179000DD03883C910570F500E20D0FCD17A9F02F
:1017A000C770FF24F3948F2D01C0880FCA95EAF704
:1017B0000E94B204083048F48D2F877001C0FF0CDE
:1017C0008A95EAF78F2D0E94BD04812F0E94080B95
:1017D000812F0E94FE060830A0F4D77081E001C07E
:1017E000880FDA95EAF7DF91CF911F910F91FF9063
:1017F0000C94B204C77081E001C0880FCA95EAF763
:10180000F2CFDF91CF911F910F91FF9008958091BA
:10181000410280FD0AC0ECE8F1E0118210821282E0
:10182000339651E0E73AF507C1F76A9A3EB13B7F3C
:101830002EB124604FB7F8948CE891E0FC0101963A
:10184000508168E02EB9000000C057FF3EB9550F27
:10185000000000C000C000C03EB900C06A9591F70A
:1018600051E0873A950751F74FBF8FE594E0019714
:10187000F1F700C000000895EF92FF921F93CF93FD
:10188000DF93EC018CE8E82E81E0F82E10E08C81EB
:1018900097014091440260914302810F0E94130519
:1018A000145E83E0E80EF11C1C3F89F70E94070CD0
:1018B0009A818C8190FF08C08F5F8C83DF91CF91DC
:1018C0001F91FF90EF9008958150F7CFCF92DF9254
:1018D000EF92FF920F931F93CF93DF93FC018281CE
:1018E000DD24DA9480FD02C0DD24D3940CE811E0FD
:1018F000D0E0C0E0F80111821082128294E0E92E5B
:10190000F12CC12C809189018C0D8A30E4F169E0C1
:101910000E94BB21892F082E000C990B8C179D0764
:1019200091F4809144028E9DA0018F9D500D112451
:10193000559547955595479598016091430280913B
:1019400042020E941305CD0CF1E0EF1AF108D1F626
:1019500021960D5F1F4FC930D10561F60E94070C1B
:101960008091890191E0D91214C0811110C088E0E2
:1019700080938901DF91CF911F910F91FF90EF909C
:10198000DF90CF90089587FFC6CF875FC4CF815087
:10199000EFCF90E00196BE010E94DD21E9CF0F93C9
:1019A0001F93CF93DF93CCE8D1E0FE011182108228
:1019B0001282339681E0E73AF807C1F710E000E0C1
:1019C00080918A01082E000C990B081719078CF1D9
:1019D00080911001082E000C990B801791074CF193
:1019E0009E014091440260914302809142020E9414
:1019F00013050F5F1F4F23960930110509F70E9449
:101A0000070C80910F0190918A01980F90938A01A1
:101A100020911001280F20931001121614F4983011
:101A20001CF0819580930F01DF91CF911F910F9151
:101A30000895198218821A82DCCFCF92DF92EF923A
:101A4000FF920F931F93CF93DF93CDB7DEB72E97FF
:101A50000FB6F894DEBF0FBECDBF8D879E87AD85D4
:101A6000BE8514961C91212F30E0D9010E942723B6
:101A70009B01AC010E94F22269837A838B839C8351
:101A8000E0E2F0E0E11BF109A5E5B0E09B01AC016B
:101A90000E94F22269877A878B879C879F01DF01EA
:101AA0000E94F7219B01AC010E94FD226D837E8381
:101AB0008F8398879B01AC0189819A81AB81BC811E
:101AC000280F391F4A1F5B1F69857A858B859C8586
:101AD0000E940523F22E822F90E0A9E2A21708F4BB
:101AE00042C0B3E02B9F9001112435952795122F0A
:101AF00010959CE8C92E91E0D92E00E085E5E82EEE
:101B0000EF188E2D01FD8F2D9601412F609143021C
:101B10000E9413050F5FF3E0CF0ED11C093089F747
:101B20000E94070CAD85BE8514969C9181E0992397
:101B300019F0903219F48FEF809311018091110107
:101B4000890FED85FE8584832E960FB6F894DEBF4F
:101B50000FBECDBFDF91CF911F910F91FF90EF90FE
:101B6000DF90CF90089525E530E0F901E81BF90BEF
:101B70009F01220F331F2E0F3F1F37FFB6CF2F5F5E
:101B80003F4FB3CFEF92FF920F931F93CF93DF930B
:101B9000EC010CE811E0F12CE12C60914302809102
:101BA00042029C8124E0E216F104FCF49923F9F04E
:101BB0009801409144020E9413058FEFE81AF80A39
:101BC0000D5F1F4F29E0E216F10439F70E94070C60
:101BD0008C8190E00196817099278C83DF91CF9161
:101BE0001F910F91FF90EF900895992309F39801A9
:101BF00040E0E1CF9091410290FF0CC0ECE8F1E0B1
:101C0000818360834283339691E0E73AF907C1F715
:101C10000C94070C08950F931F93CF93DF9300D07C
:101C20000F92CDB7DEB78C0180918B0181110AC074
:101C30009E012F5F3F4F4FEF6FEF0E9413058A8188
:101C400080938B01F8016481613049F06230F1F0DA
:101C500080918B0140E0662331F040E019C0609133
:101C60008B0140E080E00E94FA0DF801848190E051
:101C7000019663E070E00E94DD2184830F900F9055
:101C80000F90DF91CF911F910F91089540918B019B
:101C900080E060E0E8CFCF93DF9300D00F92CDB724
:101CA000DEB79091410290FF0AC09E012F5F3F4F27
:101CB0000E9413054B8169818A810E94FA0D0F9061
:101CC0000F900F90DF91CF910895CF93DF93EC01A8
:101CD000EC81F0E0EF54FE4F4491E1E4F2E06281E8
:101CE00081810E944B0E8C818F5F8C83DF91CF911D
:101CF0000895CF93DF93EC01E1E4F2E04381628148
:101D00008C810E944B0E8C818F5F8C83DF91CF91F1
:101D100008958F929F92AF92BF92CF92DF92EF92EF
:101D2000FF920F931F93CF93DF9306E711E0D0E06C
:101D3000C0E0B12CCC24C394D12C2EE2E22E22E0C0
:101D4000F22ED8018D918D01F894E82FE295EF7075
:101D5000F0E021A18F70A60102C0440F551F8A95A3
:101D6000E2F7CA01922F982B91A392A18095892323
:101D700082A3789400C096010C2E01C0220F0A9411
:101D8000EAF7522F2095EBE2F2E089E7882E81E016
:101D9000982EA12C4191D4013D914D01832F829524
:101DA0008F7090E0DC0190968C9190E03F7002C0C3
:101DB000959587953A95E2F780FD3EC0852F842B57
:101DC000481739F0BF0161507109DB018C93AA24D7
:101DD000A394EE16FF06F1F6F801319780810E9478
:101DE000F707B0EABA95F1F7BA282196C330D105C2
:101DF00009F0A7CFBB2019F181E0809388010E94F0
:101E0000EC039093870180938601809186019091E5
:101E100087010E94DD030697B0F080912B0280932A
:101E2000380280912C028093390280912D02809398
:101E30003A021092880107C0822F8423C1CF80917B
:101E400088018111E2CF8B2DDF91CF911F910F91EE
:101E5000FF90EF90DF90CF90BF90AF909F908F90CA
:101E600008954F925F926F927F928F929F92AF925E
:101E7000BF92CF92DF92EF92FF920F931F93CF9377
:101E8000DF93FC016280448081E08483E1EBF1E038
:101E90007490E0E3F2E0E491C7EAD1E09CE8E92E37
:101EA00091E0F92E24EDC22E21E0D22E32E0A32EB5
:101EB000BB24B39488248A94912C55245A94E7190E
:101EC0000E2F10E082E0861530F080914202888368
:101ED000809143028983411021C01B821A8297019D
:101EE0004A81698188810E941305259683E0E80E66
:101EF000F11CCC16DD0631F7DF91CF911F910F91C8
:101F0000FF90EF90DF90CF90BF90AF909F908F9019
:101F10007F906F905F904F900C94070C8B8188237B
:101F2000E9F081508B83859DC00111246C8170E0A4
:101F30000E94C921FB01FF27EF54FE4F8491E82F37
:101F4000E719E59DC0011124B8010E94C9218091C3
:101F50004402689FB00111247A83C1CF0E946E228F
:101F6000AC0190914402969591589A9D90019B9D49
:101F7000300D1124232F3327421753070CF0AFCF16
:101F800082E0861588F40E946E22B4010E94DD2151
:101F900088830E946E22209143022695622F70E072
:101FA0000E94DD21280F29831A8280914402893CF6
:101FB00020F088EC8C838B8392CF8431D8F784E136
:101FC000F9CFCF9384E090E00E948B22C82F82E269
:101FD00090E00E948B22982F8C2FCF9108950F9321
:101FE0001F93CF93DF938B01D82FC92F0E94040535
:101FF000A8016D2F7C2F88E090E0DF91CF911F9199
:102000000F910C94B1225F926F927F928F929F9268
:10201000AF92BF92CF92DF92EF92FF920F931F93F6
:10202000CF93DF9300D000D000D00F92CDB7DEB7B2
:10203000182F762E042F622E9091410290FF2BC014
:10204000E92FE695AE2FB0E0A35EBE4F8C91809352
:1020500046029E7F9230A9F59E012F5F3F4F812F50
:102060000E9413054B8169818A810E94FA0D1093A9
:1020700042027092430200934402662061F0809114
:10208000410290914202A0914302B0914402BC01EE
:10209000CD010E94EF0F27960FB6F894DEBF0FBE5A
:1020A000CDBFDF91CF911F910F91FF90EF90DF9007
:1020B000CF90BF90AF909F908F907F906F905F90E8
:1020C0000895823019F400914402D1CF863019F47A
:1020D00010914202CCCF8930D9F3893141F6E951D0
:1020E0008E2F8170582EE695F0E0E455FE4FA590B6
:1020F000B490BB248CE8E82E81E0F82ED12CC12CC2
:1021000099E0892E912CC601B4010E94C921812F2A
:10211000511013C0860F9701402F672D0E941305A1
:10212000CA0CDB1C93E0E90EF11CA7EAEA16A1E059
:10213000FA0649F70E94070C9ACF861BECCFE1E420
:10214000F2E0438128E0421B08F440E021E0628194
:1021500081810C940310E1E4F2E0438128E0420F16
:1021600008F44FEF21E0628181810C940310E1E4D7
:10217000F2E0628128E0621B08F460E021E0438124
:1021800081810C940310E1E4F2E0628128E0620FA7
:1021900008F46FEF21E0438181810C940310E1E4A6
:1021A000F2E0818121E04381628188500C94031028
:1021B000E1E4F2E0818121E043816281885F0C9457
:1021C0000310CF93DF9300D000D0CDB7DEB780915E
:1021D0004502882319F08150809345028091410285
:1021E00090914202A0914302B091440289839A8364
:1021F000AB83BC83BC01CD010F900F900F900F906B
:10220000DF91CF910C94EF0FCF93DF9300D000D0EC
:10221000CDB7DEB780914502833018F48F5F80938D
:1022200045028091410290914202A0914302B091F7
:10223000440289839A83AB83BC83BC01CD010F9098
:102240000F900F900F90DF91CF910C94EF0FCF93E1
:10225000DF9300D000D0CDB7DEB7E1E4F2E083E059
:10226000808311828FEF82838383148280819181A6
:10227000A281B38189839A83AB83BC83BC01CD01E6
:102280000F900F900F900F90DF91CF910C94EF0F64
:102290006AEE7EEF90E080E00E94BD2260E082E086
:1022A00090E00E949F2260E083E090E00E949F22E5
:1022B0001092210210922202109223021092240204
:1022C00060E084E090E00E949F2260E082E290E083
:1022D0000E949F2260E085E090E00E949F2260E0E3
:1022E00086E090E00E949F226FEF87E090E00E94DE
:1022F0009F2240E050E0BA0188E090E00E94B122C5
:1023000060E08DE090E00E949F2240E050E0BA0142
:1023100088E190E00E94B12260E087E190E00E94B5
:102320009F2240E050E0BA018CE190E00E94B1228F
:1023300070E060E080E290E00E94BD2240E050E06A
:10234000BA0188E190E00E94B12240E050E0BA0179
:102350008FE090E00E94B12240E050E0BA0183E1BA
:1023600090E00C94B122CF93C0912A02C2FB99272E
:1023700090F9981781F080FBC2F9C0932A0260910E
:10238000290284E090E00E949F226C2F82E290E07C
:10239000CF910C949F22CF91089510921F02E0E8F4
:1023A000F1E086E0DF011D928A95E9F70C94D205F1
:1023B0001F93CF93DF93CDB7DEB7AA970FB6F894EC
:1023C000DEBF0FBECDBF88E692E0FC0101962091F2
:1023D000F100208322E080379207B9F780916902EB
:1023E000893009F456C0C8F4823009F4B1C0833092
:1023F00009F480C0813071F18091E80083FF79C2D7
:1024000080916802909169029A3008F072C2E92FB7
:10241000F0E0E85CFC4D0C94F1218A3009F487C0AF
:102420008B3051F780916802813231F780916C02D4
:1024300090916D02892B01F78091E800877F80934E
:10244000E8000E94CB0280916A0280931C010E94E6
:10245000CD11D2CF80916802813A71F68091E80067
:10246000877F8093E80080916C0290916D02892BA8
:1024700061F468E08CE592E070E00E947D03809159
:10248000E8008B778093E800B7CF60E090E080E0D1
:10249000F3CF80916802813209F0AECF80916C0257
:1024A00090916D02029708F0A7CF8091E800877F96
:1024B0008093E8008091E80082FF17C09091F300BC
:1024C0008091F200029729F48091F1008B7F813096
:1024D00021F48091F10080935B028091E8008B777A
:1024E0008093E8000E94CB0287CF80916602811121
:1024F000E1CF82CF80916802813A09F07DCF80914F
:102500006C0290916D02892B09F076CF8091E800E2
:10251000877F8093E8008091E80080FFFCCF809166
:102520001C018093F1008091E8008E77D9CF8091D3
:102530006802813209F060CF8091E800877F809344
:10254000E8000E94CB0280916B0280935A0254CF24
:1025500080916802813A09F04FCF8091E800877F2F
:102560008093E8008091E80080FFFCCF80915A02C0
:10257000D8CF803899F0823809F0BBC180916C02C5
:102580008F70873008F0B5C18093E9008091EB002F
:1025900085FB882780F91092E90006C080916402CB
:1025A00090916502911182609091E800977F9093DD
:1025B000E8008093F1001092F1008091E8008E779E
:1025C00094C1882309F482C1823009F092C18091BC
:1025D0006A02811185C180916C028F702FEF280FE4
:1025E000263008F086C18093E9002091EB0020FF9F
:1025F00077C1933031F48091EB0080628093EB00DF
:102600006FC19091EB0090619093EB0021E030E07E
:1026100001C0220F8A95EAF72093EA001092EA009F
:102620008091EB008860EACF811163C110916A024A
:102630001F778091E3008078812B8093E300809165
:10264000E800877F8093E8000E94CB028091E80039
:1026500080FFFCCF8091E30080688093E30082E0FC
:10266000111183E08093660244C18058823008F0E3
:1026700040C140916A0250916B024C3D83E0580783
:10268000A1F583E08A838AE289834FB7F894DE015B
:10269000139620E03EE051E2E32FF0E05093570024
:1026A000E49120FF03C0E295EF703F5FEF708E2F43
:1026B00090E0EA30C0F0C7968D939D932F5F243150
:1026C00059F74FBF8091E800877F8093E8006AE266
:1026D00070E0CE0101960E947D038091E8008B7727
:1026E0008093E80006C1C096E7CF20916C0230913C
:1026F0006D02852F99278330910509F160F48130AF
:10270000910509F472C0029709F0F3C08BE390E0E1
:10271000E5EAF3E029C08132910509F45AC08297B5
:1027200009F0E7C02115310509F469C021303105F0
:1027300009F0DFC08BE790E0EAEEF2E015C0CA01D5
:1027400099274130B1F18230910509F43AC0892BC3
:1027500009F0CFC0ECE0F4E0E4918E2F90E0ECE0E3
:10276000F4E0009709F4C5C02091E800277F20938A
:10277000E80020916E0230916F028217930708F4EF
:102780009C0140E02115310509F03EC041113CC0DB
:102790008091E80082FDA1CF80916602882309F430
:1027A0009CCF853009F499CF8091E80083FFF0CF6A
:1027B00094CFE0E0F4E0E4918E2F90E0E0E0F4E0EC
:1027C000D0CFE2EFF3E0E4918E2F90E0E2EFF3E080
:1027D000C8CF2115310571F02130310509F089C0CC
:1027E00089E090E0E0EDF3E0BFCF82E190E0E0EE41
:1027F000F3E0BACF89E090E0E7EBF3E0B5CF80E417
:1028000090E0E5E6F3E0B0CF80916602882309F41A
:1028100064CF853009F461CF8091E80083FD5DCFFE
:102820008091E80082FDB4CF8091E80080FFAACFBC
:102830009091F3008091F2002115310519F0883054
:10284000910550F041E0089709F040E08091E800E0
:102850008E778093E80096CF44914093F1003196B3
:10286000215031090196E8CF803809F042C08091AB
:10287000E800877F8093E800809167028093F100F1
:102880009CCE811136C010916A02123090F5809171
:10289000E800877F8093E800109367020E94CB02D4
:1028A000112311F084E005C08091E30087FDFACF89
:1028B00081E08093660242E061EC81E00E94EA02DE
:1028C00042E261EC82E00E94EA0213C080916A0257
:1028D000813079F481E0933009F080E080936502E3
:1028E0001092E9008091E800877F8093E8000E94C1
:1028F000CB028091E80083FF0AC08091E800877FC7
:102900008093E8008091EB0080628093EB00AA96B0
:102910000FB6F894DEBF0FBECDBFDF91CF911F91F0
:10292000089560914102669570E04BE050E084E0CC
:1029300091E00E947E22892B19F481E08093470266
:102940000E94EC0390933C0280933B020895CF9346
:10295000DF9300D000D0CDB7DEB79091410290FF59
:1029600042C09170811135C09260909341026623FC
:1029700081F08091410290914202A0914302B09176
:10298000440289839A83AB83BC83BC01CD010E943E
:10299000EF0F60914102669570E04BE050E084E0FB
:1029A00091E00E947E22892BD9F01092470281E0AB
:1029B00080933E0220E04091440260914302809166
:1029C00042020F900F900F900F90DF91CF910C94D7
:1029D00003108B3210F09465C8CF880F982BC5CFA9
:1029E0000E949114E4CF0F900F900F900F90DF9101
:1029F000CF9108959091410296958FEF890F913074
:102A000009F48AE261E00C94A71480914102869552
:102A10008F5F8B3208F081E061E00C94A7149091F5
:102A2000410290FF07C09695981720F0961710F472
:102A30000C94051561E00C94A7145F926F927F923D
:102A4000AF92BF92CF92DF92EF92FF920F931F93BC
:102A5000CF93DF93CDB7DEB729970FB6F894DEBFDB
:102A60000FBECDBF7C01DC0113968D919C91149714
:102A7000892B41F01C911196DC90812F8D218F3F85
:102A800009F01CC529960FB6F894DEBF0FBECDBF66
:102A9000DF91CF911F910F91FF90EF90DF90CF903A
:102AA000BF90AF907F906F905F9008950E94DF0974
:102AB000082F682F89819A810E947A04E12FF0E023
:102AC000B3E0DB9EE00DF11D112419E0019FE00D44
:102AD000F11D1124EE0FFF1FEF54FD4F05911491CE
:102AE000043F2CE5120709F485C008F043C0093DF6
:102AF0004CE5140709F47AC028E241E00A3D5CE5A0
:102B0000150709F475C0083D6CE5160709F46AC09D
:102B1000D70112968C91882309F4E3C410927202B3
:102B20000631BCE51B0708F06DC00230ECE51E075E
:102B300008F42AC10E94E10F90932A02809329028F
:102B40000631FCE51F0708F085C002302CE51207AE
:102B500008F073C06091290210912A0284E090E08D
:102B60000E949F22612F82E290E00E949F220E9499
:102B7000CD1117C0063F7CE5170709F43FC027E2D7
:102B800045EE66EE073F8CE5180741F027E245EE7B
:102B900064EE053F9CE5190709F0BACFC7010E9412
:102BA0009E0B80911C02877009F46CCFD70112969E
:102BB0008C91882309F466CF82E029960FB6F894A9
:102BC000DEBF0FBECDBFDF91CF911F910F91FF9060
:102BD000EF90DF90CF90BF90AF907F906F905F901D
:102BE0000C942E0626E241EE61EED8CF27E245EEA8
:102BF00065EED4CF26E241EE60EED0CF26E241EE84
:102C000062EECCCFC8018B5F9C45099708F492CF48
:102C10000631BCE51B0709F0B7C080911F028A7A14
:102C200091E009F490E09093D8018111A9C089E264
:102C30000E9438040E94FE03B4CFF801E350FC4523
:102C4000809129028160E331F10590F4EE5BFC4D47
:102C50000C94F1210B5F1C450930110508F07ACF67
:102C60000B5A1C4DF8010C94F121809129028260CD
:102C7000809329026FCF809129028460F9CF8091DF
:102C800029028860F5CF80912A02816080932A0210
:102C900061CF80912A028260F9CF80912902806100
:102CA000E7CF809129028062E3CF8091290280647E
:102CB000DFCF0E94CD11809129028068D9CF809109
:102CC00029028C60D5CF80912A028360DFCF80916A
:102CD00029028E7FCDCF809129028D7FC9CF80912F
:102CE00029028B7FC5CF80912902877FC1CF809138
:102CF0002A028E7FCBCF80912A028D7FC7CF809111
:102D000029028F7EB5CF809129028F7DB1CF80912E
:102D100029028F7BADCF0E94CD11809129028F7740
:102D2000A7CF80912902837FA3CF80912A028C7F35
:102D3000ADCF8091290282FB992790F921E092275B
:102D400090FB82F990FB83F993CF80912A02982F10
:102D5000909591708E7F892B90FB81F997CF0E947F
:102D6000CD1190912902892F97FB87F9805880CF48
:102D700061E08EE090E00E949F22ECCE60E0F9CF0F
:102D800085E356CF85E3B6C380911F028272073D6B
:102D9000FCE51F0778F4033C2CE51207C8F0F801A6
:102DA000E45CFC45E331F10508F05FC0E25AFC4DFC
:102DB0000C94F1216AE285E20E353DE5130709F432
:102DC000BAC00B358DE5180709F4EFC008F0CBC089
:102DD0000115ACE51A0709F4D8C00F3D1C4509F4EC
:102DE000E1C0F7018281C080D180882309F4E1C06D
:102DF000C6010E94DF09182F682FC6010E947A04BD
:102E0000B601812F0E9453088C01582ED7011296CB
:102E10007C90129715966C9062943FE063228091AB
:102E20001C028770A1F0B72C772091F0812F807F52
:102E3000803421F080E2800F883048F082E00E94E8
:102E40002E0680911C028770BB24B3948111B12C93
:102E5000812F82958F70C82ED12C8C3008F0E3C062
:102E6000F601EF58FC4D0C94F1218091410280FF56
:102E700021C08E7F809341024091410250914202D5
:102E800060914302709144024E835F836887798723
:102E9000CB01BA010E94EF0F109247025FEF60E78B
:102EA00072E0515060407040E1F700C000000E94A5
:102EB000070C77CE81608093410261E086950E9485
:102EC000A7146FCE4AEF54E165E075E10E94FF045C
:102ED00068CE45E055E16AEF74E1F8CF4FEC50E180
:102EE00068ED70E1F3CF48ED50E16FEC70E1EECFAB
:102EF00047EB50E163EC70E1E9CF43EC50E167EB65
:102F000070E1E4CF4FE950E16BEA70E1DFCF4BEACB
:102F100050E16FE970E1DACF41EE50E164E071E138
:102F2000D5CF44E051E161EE70E1D0CF61E081E0C6
:102F3000C6CF65E082E00E940F1533CE68E086E0E0
:102F4000FACF6EE089E0F7CF64E18FE0F4CF67E17C
:102F500085E1F1CF61E088E1B2CF62E289E1EBCFB8
:102F600061E083E2ACCF0C35EDE51E0701F10D35D4
:102F70001D4509F036CF80912A0282FB882780F90F
:102F800091E089270E94B3112CCF0E94CD110FEF41
:102F900014E32CE0015010402040E1F700C0000095
:102FA0000E94E40A0E944811FCCD81E0EBCF80E052
:102FB000E9CFC6010E945104182F22CFB12FBF7054
:102FC000AB2E107F19F0A29420EFA222802F772041
:102FD000C9F0AA2069F090E2900F983010F001112A
:102FE0000BC080911F02A82AA0921F020E94FE031C
:102FF000802F0E94080B17C080911E02A82AA09261
:103000001E02F4CF0E94FE06AA2069F0A094005E82
:10301000083010F0511047C080911F02A822A092E2
:103020001F020E94FE03A8E0CA1AD108B4E0CB1622
:10303000D10410F40E94F304BB20A9F080911C027B
:1030400080FD11C0F70112828595859585950E94B6
:103050004A06C7010E941D1580911C028595859521
:1030600085950E94F90585E0F701DE011196019032
:103070000D928A95E1F789819A810E9451049A8183
:10308000E981F0E003E0909FE00DF11D112419E0CB
:10309000819FE00DF11D1124EE0FFF1FEF54FD4F36
:1030A00085919491EFCC80911E02A822A0921E02DD
:1030B000B8CFE12FEF70AE2E107F103219F0A2942E
:1030C00090EFA922552089F0F1E05F1699F1772061
:1030D000F1F16620A9F1D70115968C91159780FF23
:1030E00087CF8F7015968C932BC07720B1F090917D
:1030F00020028A2D892B611003C00E94BD0493CF4A
:1031000001E06012FACF20912A0222FD8CCF98179D
:1031100009F489CF8093200286CF611006C00E94F7
:10312000F8038A2D0E94B2047ECF11E0611609F4E3
:103130007ACFF5CF772031F025E0261508F473CF4C
:103140008A2DDBCF34E0361508F46DCFEACF662048
:1031500041F3093349F4BFEFE7EEF3E0B150E0404B
:10316000F040E1F700C00000802F0E94FE065BCF18
:10317000812F86958695837061F0813009F053CF59
:10318000C8019370711002C090E080E00E94C704F3
:103190004ACFC8019370711002C090E080E00E9495
:1031A000DD0441CF802F772029F00E949D070E94E7
:1031B000AC0539CF0E948506FACF812F837009F0C4
:1031C00072C0711030CF202F229526952770220FC4
:1031D000220F402F4F7050E070E060E0022E04C0DC
:1031E000440F551F661F771F0A94D2F780E090E0C6
:1031F000DC0104FF0FC08FE090E0A0E0B0E004C06D
:10320000880F991FAA1FBB1F2A95D2F7809590950A
:10321000A095B095E12FE695E695E370E23051F187
:10322000E33009F100912102109122022091230242
:1032300030912402E13099F0842B952BA62BB72BEB
:10324000AC01BD0140235123622373234E835F836E
:1032500068877987CB01BA010E947B06E4CE402BB8
:10326000512B622B732B8A019B01082B192B2A2BC4
:103270003B2B12C0842B952BA62BB72B4091210200
:103280005091220260912302709124028C019D01D1
:1032900004271527262737270E831F83288739877A
:1032A000C901B801D9CF8695772011F0812F81709F
:1032B000882309F4B8CE202F229526952770220F57
:1032C000220F402F4F7050E070E060E0022E04C0EB
:1032D000440F551F661F771F0A94D2F780E090E0D5
:1032E000DC0104FF0FC08FE090E0A0E0B0E004C07C
:1032F000880F991FAA1FBB1F2A95D2F7809590951A
:10330000A095B095E12FE695E695E370E23081F166
:10331000E330F9F000912502109126022091270256
:1033200030912802E13089F0842B952BA62BB72B06
:10333000AC01BD0140235123622373234E835F837D
:1033400068877987CB01BA0110C0402B512B622BC3
:10335000732B8A019B01082B192B2A2B3B2B0E83E5
:103360001F8328873987C901B8010E94EF055BCE0A
:10337000842B952BA62BB72B40912502509126022A
:1033800060912702709128028C019D010427152766
:1033900026273727E4CF1F70772029F0812F0E943E
:1033A0004A06802FAACE802F0E94B204812F0E944D
:1033B000F90539CE802F22EF521609F44AC025159F
:1033C00070F030EF531629F141EF5416D1F1772008
:1033D00009F464C061100CCE812F8F7137C053EF98
:1033E0005516E1F164EF5612F2CF772009F44BC085
:1033F0001F71812F0E944A0680912A0282FD07C018
:1034000058E0159FC0011124836080931C02812F16
:103410001DC0772089F074E0761508F404CE1F7182
:1034200081E090E0A0E0B0E004C0880F991FAA1FDF
:10343000BB1F1A95D2F7A0CF25E0261508F4F3CDCF
:10344000EECF812F8F71772009F4B1CF0E944A0609
:10345000EACD812F8F717720C9F3A9CF60E070E0AA
:10346000CB01772009F481CF1F7181E090E0A0E0CB
:10347000B0E0AC01BD0104C0440F551F661F771FAB
:103480001A95D2F75BCF81E00E942E0661E06615A7
:1034900008F0C9CD82E00E942E06C5CD662059F005
:1034A000893309F061CE7FEF87EE93E07150804061
:1034B0009040E1F757CE812F8F7179CF85E0F701EA
:1034C000DE01119601900D928A95E1F7D7011296CF
:1034D0002C9189819A812111E9CA0E945104082FF7
:1034E000EDCA06311C4509F07CCC8091D8018111D0
:1034F00049CC89E20E942B049DCB1F93CF93DF938D
:103500008091DF01807FA9F48091DC01882389F01C
:1035100080911102D091E0016091DA017091DB019C
:10352000A091DD01B091DE01C62FC72316E0D813AC
:1035300004C0DF91CF911F91089590E0109711F092
:10354000CF3F19F401968770F2CF189F9001199F11
:10355000300D1124F901EF51FE4F41814713F2CF95
:1035600040814613EFCF42814111ECCF438154811A
:103570004A1B5B0B483C510528F78091DF018F7097
:1035800080618093DF01F901EA51FE4F80818F70E5
:10359000806180838AED91E00E941D15DF91CF91BB
:1035A0001F910C94A804AF92BF92CF92DF92EF923A
:1035B000FF920F931F93CF93DF93CDB7DEB72B9777
:1035C0000FB6F894DEBF0FBECDBF8C0185E0F801C9
:1035D000DE01179601900D928A95E1F7F80180813E
:1035E0009181E2802AEDA22E21E0B22E6091DD01D0
:1035F0007091DE016115710509F421C13091DA0184
:103600004091DB01242F23232F3F09F418C1C380ED
:10361000D480F090DC01F601E61BF70BFF2009F4E3
:10362000DFC02091DF01522F507FE83CF10508F008
:10363000BAC0511177C0FE2C491321C038131FC0E6
:10364000E1101DC02F7020612093DF01C5010E9491
:103650001D158091DF01F80185838F2D2B960FB604
:10366000F894DEBF0FBECDBFDF91CF911F910F91B8
:10367000FF90EF90DF90CF90BF90AF900895CD284E
:1036800029F0282F29232F3F09F0F7C020E0F22F3F
:10369000F170DF2EE09111024091E00156E020FD33
:1036A0001CC0EE20D1F28091DF0181608093DF01A8
:1036B000F12CD3CF2E2F30E05E9FF0011124EF517B
:1036C000FE4F6181961306C06081861303C062813C
:1036D000E612E7CFF9013196E770E413EBCF8F8361
:1036E00098878F8198850E94210A292F22952F7013
:1036F000903260F0225F2F70223078F49F7051F08A
:10370000F8019581907F31F4D12C0AC09F7011F09F
:103710008823D1F3805E8830B8F3C8010E941D155C
:10372000FD2C9BCF491312C0381310C0E1100EC0FE
:10373000F8012583C8010E941D1586E0F801AAED55
:10374000B1E001900D928A95E1F787CF8F8398873A
:103750008F8198850E942D0A882309F1EE20F9F0C7
:103760008091DF01803270F02091DA013091DB012D
:103770003A8329831B82DD82CC828E83CE0101961F
:103780000E941D1586E0F801AAEDB1E001900D92AE
:103790008A95E1F70E947D1AFF24F3945ECFC80159
:1037A0000E941D15F9CF51110AC08AED91E00E94C7
:1037B0001D1586E0F50111928A95E9F779CF491335
:1037C000C5CF3813C3CFE110C1CFF8012583C8019D
:1037D0000E941D1586E0F50111928A95E9F73DCF0B
:1037E000E83CF105B8F7FE2CEE20C9F2491316C0EB
:1037F000381314C08091DF0180FD9FCF982F907FF8
:1038000009F49BCFF8018583903F09F493CF982F5B
:10381000907F905F8F70892B85838CCF8F83988763
:103820008F8198850E942D0A8111ACCF8091DF0194
:1038300081608093DF01C8010E941D150ECFEE202C
:1038400009F4ADCF8F8398878F8198850E942D0AC8
:10385000F82E882309F4A3CF86E0F801AAEDB1E0A1
:1038600001900D928A95E1F78091DA019091DB0148
:103870000E94210A0E947D1AF0CE21E02E2507CF5A
:103880001F93CF93DF93CDB7DEB767970FB6F8944A
:10389000DEBF0FBECDBF342F4B8B252F5C8B6D8BC6
:1038A0007E8B8F8B8E899F89611110921E021A8ADE
:1038B0003D872E876F87998B888B86E0FE013D962A
:1038C000DE01179601900D928A95E1F7CE010796D9
:1038D0000E94D31A882389F016E0809111029091FA
:1038E000E00189134FC067960FB6F894DEBF0FBE94
:1038F000CDBFDF91CF911F91089586E0FE013796ED
:10390000DE01119601900D928A95E1F74A855B855B
:103910004115510509F37F816885862F87238F3FE5
:10392000D9F22091E00130E0C90101968770992712
:10393000E0911102E817190671F40E94CD1110925E
:10394000E0011092110286E0EAEDF1E0DF011D9244
:103950008A95E9F7C1CF79836A835D834C8396E0CA
:10396000929FD001939FB00D1124AF51BE4FFE0125
:10397000319601900D929A95E1F78093E0010E94B3
:10398000A804AACF819FC00111248F519E4F0E948D
:10399000D31A882309F4A7CF8091110290E00196F1
:1039A000877099278093110298CF1F920F920FB6BC
:1039B0000F9211242F933F934F935F936F937F93B5
:1039C0008F939F93AF93BF93CF93DF93EF93FF9327
:1039D000D091E900DF708091EC00C82FC17080FDAC
:1039E000C0E81092E9008091F000877F8093F0009A
:1039F00078940E94D8111092E9008091F0008860BC
:103A00008093F000CD2BCF70C093E900FF91EF9130
:103A1000DF91CF91BF91AF919F918F917F916F91E6
:103A20005F914F913F912F910F900FBE0F901F907C
:103A300018951F920F920FB60F9211242F933F9358
:103A40004F935F936F937F938F939F93AF93BF93A6
:103A5000EF93FF938091E10082FF09C08091E20023
:103A600082FF05C08091E1008B7F8093E10080910F
:103A7000DA0080FF24C08091D80080FF20C08091B0
:103A8000DA008E7F8093DA008091D90080FF99C0A0
:103A900080E189BD82E189BD09B400FEFDCF81E0EE
:103AA0008093660280915902811109C00E945102DF
:103AB0000E941C038091E20084608093E200809168
:103AC000E10080FF17C08091E20080FF13C0809169
:103AD000E2008E7F8093E2008091E200806180931B
:103AE000E2008091D80080628093D80019BC85E004
:103AF000809366028091E10084FF27C08091E200FC
:103B000084FF23C080E189BD82E189BD09B400FE44
:103B1000FDCF8091D8008F7D8093D8008091E10007
:103B20008F7E8093E1008091E2008F7E8093E2009F
:103B30008091E20081608093E20080916702882397
:103B400009F445C084E0809366028091E10083FF20
:103B500027C08091E20083FF23C08091E100877F2E
:103B60008093E10082E08093660210926702809168
:103B7000E1008E7F8093E1008091E2008E7F809350
:103B8000E2008091E20080618093E20042E060E028
:103B900080E00E94EA028091F00088608093F0004B
:103BA000FF91EF91BF91AF919F918F917F916F9115
:103BB0005F914F913F912F910F900FBE0F901F90EB
:103BC000189519BC109266021092590278CF809114
:103BD000E30087FD02C081E0B6CF83E0B4CFCDB76C
:103BE000DEB72F970FB6F894DEBF0FBECDBF84B7F8
:103BF000877F84BF0FB6F894A89580916000886194
:103C000080936000109260000FBE80E890E00FB6D5
:103C1000F89480936100909361000FBE85B780682F
:103C200085BF85B7806885BF88ED93E090937D015F
:103C300080937C010E9451020E941C038091E2004B
:103C400084608093E2007894809166028823A1F0DA
:103C50001091E9001F709091EC00892F817090FD08
:103C600080E8182B1092E9008091E80083FD0E9403
:103C7000D8111F701093E90082E084BD93E095BDD8
:103C80009AEF97BD80936E0086E90E94F70782E95C
:103C90000E94F70781E90E94F70785EF0E94F70766
:103CA00084EF0E94F70781EF0E94F70710922B0222
:103CB0001092380210922C021092390210922D02AA
:103CC00010923A0290E080E00E9499228A3E9E4F34
:103CD00011F00E94481182E090E00E948B228093B4
:103CE00055020E94E10F90932A02809329020E94BC
:103CF000890E8FE39CE90197F1F700C000000E9454
:103D0000890E8091380280FF08C06FEF7FEF90E04E
:103D100080E00E94BD220E94E40A83E090E00E94BD
:103D20008B22282F30E050E040E02C873D874E87E3
:103D30005F87CA01B9010E947B0680912E02811122
:103D400036C090E080E00E9499228A3E9E4F21F08A
:103D50000E9448110E94271188E090E00E9493225F
:103D60006093410270934202809343029093440215
:103D70006E7F71F40E94271188E090E00E949322E8
:103D800060934102709342028093430290934402F5
:103D90000E940405109247028091410280FF04C0F6
:103DA00060E086950E94A71481E080932E0282E154
:103DB00091E09093300280932F0218E1E12EF12CD4
:103DC00000E4C02EDD24D394BB24B394809166021A
:103DD00010E102E1853009F4BDC10E94890E8823FB
:103DE00059F08FB7F89440913402509135026091A8
:103DF0003602709137028FBFA8E3B2E0E6E5F2E049
:103E000010E000E0202F9D918191891709F4C3C132
:103E10008927382F3170932E80FDB7C181FDB7C13E
:103E200082FFB9C1B4E09B2E82E089832A83992165
:103E300081E009F480E08B830E94EC038160782F9D
:103E40009D838C8349815A816B818D810E94401CA6
:103E5000F801EA5AFD4F80819826908280914702AE
:103E60008823D1F180914602E0914102E695E81B5A
:103E7000E0933D02823009F0A5C1F0E0EA51FD4F28
:103E8000E4910E2F10E0F5E68F2EFEE09F2E80913C
:103E90003E02882361F010923E020E94EC03909350
:103EA0003C0280933B021092400210923F020E941B
:103EB000EC03E0913B02F0913C028E1B9F0B8F3F85
:103EC0009F4750F4E00FF11FF0933C02E0933B0258
:103ED0008BE392E0F401099586E0EEE4F2E0DE0186
:103EE000119601900D928A95E1F700915002809011
:103EF000510290905202109153021092500210926F
:103F000051021092520210925302802F882909F414
:103F100048C080914C0290914D020E94DD039C01AB
:103F200080914B02882309F4CAC123333105C8F1BB
:103F30008F3F19F08F5F80934B02002359F00E944E
:103F40007D079FEF10160CF491E0899F802D1124BE
:103F500080935002882059F00E947D079FEF18142B
:103F60000CF491E0899F802D1124809351023091AF
:103F700050023323B1F020915102222391F045EBFE
:103F80003403C0011124992309F488C1909350028D
:103F900055EB250390011124332309F482C130939A
:103FA0005102812F892909F448C0809149029091DA
:103FB0004A020E94DD039C0180914802882309F493
:103FC00079C125363105C8F18F3F19F08F5F809395
:103FD0004802992059F00E945B079FEF19140CF4D6
:103FE00091E0899F802D112480935202112359F072
:103FF0000E945B079FEF11160CF491E0899F802DC2
:10400000112480935302309152023323B1F0209156
:104010005302222391F045EB3403C001112499236C
:1040200009F442C19093520255EB250390011124EB
:10403000332309F43CC13093530280915002909194
:104040005102892B90915202892B90915302892B16
:1040500011F00E94AC050B838C829D821E8386E04A
:10406000FE013196AEE4B2E001900D928A95E1F73F
:104070000E94F30490915402891709F4A7CE0E947C
:10408000F30480935402A2CE80916602843009F436
:104090003DC01092470280913302811116C0B09248
:1040A000330280914102982F9170909332028E7F5B
:1040B000809341024FEF50E782E0415050408040F2
:1040C000E1F700C000000E94070C109231020FB609
:1040D000F894A895E09260000FBEC092600083B78C
:1040E000817F846083BF83B7816083BF7894889524
:1040F00083B78E7F83BF0FB6F894A8958091600038
:10410000886180936000109260000FBE809165020C
:10411000882301F10E94890E809138029091390222
:10412000892B90913A02892BA9F019BD09BD09B4D8
:1041300000FEFDCF8091D8008F7D8093D8008091C4
:10414000E00082608093E0008091E00081FDFCCF80
:104150000E94CD1180916602853009F495CF0E94AE
:10416000CD110E94F3041092330280913202882311
:1041700049F08091410281608093410260E0869520
:104180000E94A7140E94911428CE80E04ECEA2E097
:104190009A2E81E04ACE0F5F1F4F0330110509F0C0
:1041A00031CE8FEF8F83888719860E94EC03816060
:1041B000782F9B878A874F81588569858B850E94D8
:1041C000401C4CCE863059F4F0E0ED51FD4FE491A7
:1041D0000E2F10E0E9E78E2EEEE09E2E58CE8930AD
:1041E00061F4E695F0E0E052FD4FE4910E2F10E00F
:1041F0007CE3872E7CE0972E4ACE8F3061F4E695E3
:10420000F0E0E352FD4FE4910E2F10E066E6862EBB
:104210006CE0962E3CCE853159F4F0E0E652FD4F2D
:10422000E4910E2F10E05FEC852E5CE0952E2FCEF2
:1042300008E210E02DE1822E2DE0922E883109F463
:1042400026CE833249F4E8EDF2E0059114914BE07B
:10425000842E4EE0942E1BCE04EF11E092EC892EBA
:104260009DE0992E843209F412CE853281F48E2F8E
:1042700063E00E94AF21E92FF0E0EB52FD4FE491A3
:104280000E2F10E031E3832E3FE0932E00CE00EDA1
:1042900017E087ED882E83E0982EF9CDD09250025A
:1042A00077CED09251027DCED0925202BDCED09226
:1042B0005302C3CE2D32314008F088CEBECE2D320F
:1042C000314008F037CE6DCE78941F921FB61F9202
:1042D00011248F939F93AF93BF9380913402909159
:1042E0003502A0913602B09137020196A11DB11D91
:1042F0008093340290933502A0933602B093370234
:10430000BF91AF919F918F911F901FBE1F901895E5
:104310001F921FB61F9211248F939F93AF93BF9349
:1043200080913102811113C0809134029091350245
:10433000A0913602B09137024196A11DB11D809324
:10434000340290933502A0933602B0933702BF91A6
:10435000AF919F918F911F901FBE1F901895991B31
:1043600079E004C0991F961708F0961B881F7A956C
:10437000C9F78095089587FB082E062687FD81954D
:1043800067FD61950E94AF210EF4919507FC819520
:104390000895AA1BBB1B51E107C0AA1FBB1FA6178C
:1043A000B70710F0A61BB70B881F991F5A95A9F7DE
:1043B00080959095BC01CD01089597FB072E16F4CA
:1043C000009407D077FD09D00E94C92107FC05D0D1
:1043D0003EF4909581959F4F0895709561957F4F1C
:1043E0000895EE0FFF1F0590F491E02D09940E94AF
:1043F0002723332312F48A1B9B0B0C9401220E9467
:104400002723B7FF0895821B930B0895CF92DF9265
:10441000EF92FF92CF93DF93CDB7DEB72A970FB617
:10442000F894DEBF0FBECDBF89879A87A985BA856C
:104430002D913D914D915C9129833A834B835C830F
:10444000232B242B252B41F424E239ED4BE557E0B7
:1044500029833A834B835C8369817A818B819C8138
:104460002DE133EF41E050E00E94D32269017A014F
:10447000A7EAB1E49B01AC010E94F22269837A832E
:104480008B839C83ACEEB4EFA70196010E940023BE
:104490009B01AC0189819A81AB81BC81820F931F02
:1044A000A41FB51FB7FF03C00197A109B048E98554
:1044B000FA8580839183A283B3839F772A960FB670
:1044C000F894DEBF0FBECDBFDF91CF91FF90EF908C
:1044D000DF90CF9008950E940622089580E091E039
:1044E0000E9406220895B0E0A0E08093000190931E
:1044F0000101A0930201B09303010895FC01415012
:10450000504030F001900616D1F73197CF01089551
:10451000882799270895F999FECF92BD81BDF89A11
:10452000992780B50895A6E1B0E044E050E00C94EE
:10453000C522A8E1B0E042E050E00C94C522262F4D
:10454000F999FECF92BD81BDF89A019700B4021689
:1045500039F01FBA20BD0FB6F894FA9AF99A0FBE37
:1045600008950396272F0E94A0220E949F22252FA4
:104570000E94A022242F0C94A0220196272F0E9493
:10458000A0220C949F22DC01CB01FC01F999FECF03
:1045900006C0F2BDE1BDF89A319600B40D924150CB
:1045A0005040B8F70895052E97FB1EF400940E9422
:1045B000EA2257FD07D00E94052307FC03D04EF4E2
:1045C0000C94EA2250954095309521953F4F4F4FDE
:1045D0005F4F089590958095709561957F4F8F4FAF
:1045E0009F4F08950E942723A59F900DB49F900D83
:1045F000A49F800D911D11240895B7FF0C94F22201
:104600000E94F222821B930B0895A1E21A2EAA1B8C
:10461000BB1BFD010DC0AA1FBB1FEE1FFF1FA21772
:10462000B307E407F50720F0A21BB30BE40BF50B6F
:10463000661F771F881F991F1A9469F760957095F8
:10464000809590959B01AC01BD01CF010895A29F7B
:10465000B001B39FC001A39F700D811D1124911D56
:10466000B29F700D811D1124911D0895F894FFCF04
:10467000B912E1127914E112791414133513791473
:104680003414411435163B163F164D165116551667
:1046900059165F1667166B166F1673167F168316FC
:1046A00087168B169116AF1699164316491677166C
:1046B0007B1663169516A516B816BE1662176917EF
:1046C0006E17731778177D17821787178C17911736
:1046D000961799179E17A117A417A717AA17AD1712
:1046E000B017DE17DE1759185918B818D218131852
:0A46F0001318DD18CB19DA19DA19D6
:1046FA000100000001191A1B1C1D1E1F2021220186
:10470A000201DA03B40A950A910A8D0A010001022C
:10471A000202020606060909090909090F0F0F0F05
:10472A000F0F151515181919191919191919191910
:10473A002324252525252525E200E900EA00B500E0
:10474A00B600B700CD008301CC008A019201940122
:10475A002102230224022502260227022A02B3008A
:0C476A00B4006F007000969291F5F4F11D
:00000001FF
