:100000000C9435020C947C020C947C020C947C02BF
:100010000C947C020C947C020C947C020C947C0268
:100020000C947C020C947C020C943C1B0C94781A6B
:100030000C9419200C947C020C947C020C947C028D
:100040000C947C020C947C020C947C020C947C0238
:100050000C947C020C94D81F0C947C020C947C02AF
:100060000C947C020C947C020C947C020C947C0218
:100070000C947C020C947C020C947C020C947C0208
:100080000C947C020C947C020C947C020C947C02F8
:100090000C947C020C947C020C947C020C947C02E8
:1000A0000C947C020C947C020C947C02D005D0054C
:1000B0000A060A0663067F06150815088A066807F9
:1000C000790779079318BA18501ABA18501A0219F2
:1000D0002519501A141A271A231C231C361C361CE7
:1000E0002C1C361C361C361C231C231C311C361CB5
:1000F000361C311C0E422F003000E1002C001D4147
:10010000E000E200E300140015001E004C00520065
:100110000100500051004F000100C35CC45CC65C8C
:10012000C85CCA5CC75CC95CCB5C00010101010111
:1001300001010101020202020202020202030303A0
:100140000303030303040404040404040505050570
:100150000506060606060707070707080808080930
:100160000909090A0A0A0B0B0B0C0C0C0D0D0D0EDC
:100170000E0E0F0F0F101011111112121313141471
:10018000151516161717181819191A1A1B1B1C1DE6
:100190001D1E1E1F2020212222232424252626273F
:1001A0002829292A2B2C2D2D2E2F30313232333471
:1001B00035363738393A3B3C3D3E3F404142434477
:1001C00045464748494A4C4D4E4F50515354555659
:1001D00058595A5B5D5E5F616264656668696B6C05
:1001E0006D6F7072737577787A7B7D7E8082838580
:1001F00087888A8C8E8F91939596989A9C9EA0A2C0
:10020000A3A5A7A9ABADAFB1B3B5B7BABCBEC0C2C9
:10021000C4C6C9CBCDCFD1D4D6D8DBDDDFE2E4E78D
:10022000E9EBEEF0F3F5F8FAFDFFFFAA7F55401E6B
:100230000F0500047F3F1F643214643214783C1EA3
:100240001E140A052223252628292A2C2D2F303278
:10025000333536383A3B3D3E4042434547494A4CA8
:100260004E5051535557595A5C5E606264666869D6
:100270006B6D6F71737577797B7D7F8183858789DE
:100280008A8C8E90929496989A9C9E9FA1A3A5A7E3
:10029000A8AAACAEAFB1B3B4B6B8B9BBBCBEBFC10F
:1002A000C2C3C5C6C7C9CACBCCCDCED0D1D2D2D39A
:1002B000D4D5D6D7D7D8D9D9DADADBDBDBDCDCDCAE
:1002C000DCDCDDDDDDDDDCDCDCDCDCDBDBDBDADA71
:1002D000D9D9D8D7D7D6D5D4D3D2D2D1D0CECDCCE8
:1002E000CBCAC9C7C6C5C3C2C1BFBEBCBBB9B8B6FD
:1002F000B4B3B1AFAEACAAA8A7A5A3A19F9E9C9A88
:1003000098969492908E8C8A89878583817F7D7B55
:1003100079777573716F6D6B6968666462605E5C36
:100320005A5957555351504E4C4A494745434240FC
:100330003E3D3B3A3836353332302F2D2C2A292892
:100340002625232205010902A10185020901A10038
:100350000509190129081500250195087501810273
:100360000501093009311581257F9502750881063F
:1003700009381581257F950175088106050C0A3815
:10038000021581257F950175088106C0C005010908
:1003900080A101850319012AB700150126B7009530
:1003A0000175108100C0050C0901A1018504190126
:1003B0002AA002150126A002950175108100C00532
:1003C000010906A101050719E029E7150025019596
:1003D0000875018102950175088101050719002939
:1003E000FF150026FF009506750881000508190114
:1003F0002905950575019102950175039101C009C3
:10040000023B00020100A0FA0904000001030101FF
:1004100000092111010001224000070581030800A5
:100420000A09040100010300000009211101000173
:10043000227B000705820320000A12011001000040
:1004400000084D5909440100010200010C03590044
:100450004D0044003000390000000A0359004D00EF
:1004600044004B0000000403090411241FBECFEF19
:10047000DAE0DEBFCDBF04B603FE27C0809177026D
:1004800090917802A0917902B0917A028730904BD6
:10049000A740B04BD1F410927702109278021092DC
:1004A000790210927A0214BE84B7877F84BF0FB698
:1004B000F894A89580916000886180936000109204
:1004C00060000FBEE0E0F8E3099511E0A0E0B1E0C4
:1004D000E0E6F8E402C005900D92A038B107D9F724
:1004E00022E0A0E8B1E001C01D92A737B207E1F712
:1004F0000E949D0F0C942E240C9400008F929F92CA
:10050000AF92BF92CF92DF92EF92FF920F931F9321
:10051000CF93DF93CDB7DEB72A970FB6F894DEBF3F
:100520000FBECDBFFC01D080118183819481892BC6
:1005300039F01F3F39F491E00FEFD01203C003C030
:1005400091E001C090E090FDCFC57F0185E0DE0124
:10055000169601900D928A95E1F7F70122818E811E
:100560009F81222349F00E943221082F682F8E811B
:100570009F810E94AB2103C00E947F21082F812F01
:1005800090E0FC01EE0FFF1FE80FF91F19E0019F3B
:10059000E00DF11D1124ED0DF11DEE0FFF1FEC50CC
:1005A000FF4F05911491043F2CE5120759F190F487
:1005B000093D8CE51807E9F00A3D9CE51907A1F112
:1005C000083DECE51E07B1F506E221EE41EE68EDCF
:1005D0007CE514C0063FFCE51F0701F1C8F0073FAA
:1005E0003CE5130739F507E225EE46EE67EF7CE5BB
:1005F00005C007E225EE45EE69ED7CE5C7010E94E6
:100600004B1453C506E221EE40EE64EF7CE5F6CFD5
:1006100007E225EE44EE65EF7CE5F0CF06E221EE41
:1006200042EE66EF7CE5EACF08E221E045EE6AEDB6
:100630007CE5E4CFF7018281882309F43EC1109262
:1006400082010230FCE51F0708F421C106312CE5C8
:10065000120730F0C8018B5F9C45099708F017C15D
:100660000E94692090938C0180938B0100313CE5BE
:10067000130709F4C3C008F041C008309CE519070E
:1006800009F49AC0F0F40430FCE51F0709F487C0B0
:1006900068F402303CE5130709F477C003301C45C9
:1006A00009F0E5C080918B01826076C006309CE540
:1006B000190709F46EC008F07BC080918B01886037
:1006C0006BC00C30FCE51F0709F485C068F40A30E4
:1006D0003CE5130709F474C008F079C00E94061EB7
:1006E00080918B01806858C00E309CE5190709F491
:1006F00076C008F07FC080918B018BC00C3FFCE579
:100700001F0709F44FC018F503313CE5130709F43E
:100710007DC078F401319CE5190709F473C00231FA
:100720001C4509F0A4C00E94061E80918B018F77A2
:1007300033C00531FCE51F0709F472C008F486C018
:100740000B3F1C4509F093C080918C013EC0011500
:100750008DE5180709F45FC058F40E3FECE51E075D
:1007600009F444C008F43FC080918C0182602DC020
:1007700002302DE5120709F475C008F45DC003309E
:100780001D4509F074C060E06EC080918B018160EE
:1007900003C080918B01806180938B0168C0809140
:1007A0008B0111C080918C01826080938C015FC0AD
:1007B00080918B018062F0CF80918B018064ECCFBF
:1007C00080918B0188608460E7CF8160EECF80915B
:1007D0008B018E7FE1CF80918B018D7FDDCF80916A
:1007E0008B01877FD9CF80918C0118C080918C01BB
:1007F0008D7FDBCF80918B018F7ECECF80918B015F
:100800008F7DCACF80918B018F7BC6CF80918B016A
:10081000877F8B7FC1CF80918C018D7F8E7FC5CFED
:1008200080918B0182FB222720F991E0922790FB97
:1008300082F990FB83F9B0CF80918C01982F90952D
:1008400091708E7F892B90FB81F9AFCF0E94061E9D
:1008500080918B0187FB222720F991E0922790FB62
:1008600087F99ACF61E08EE090E00E943323609197
:100870008B0110918C0184E090E00E943323612F62
:1008800082E290E00E9433230E94061E0EC48091F3
:10089000710206312CE5120709F58A7A91E009F414
:1008A00090E090938301882311F065E301C069E231
:1008B00084E292E00E944F200EC006311C4509F0F0
:1008C00029C180918301882309F40CC465E384E283
:1008D00092E00E9442200E94EB20E7C382720D3C0E
:1008E0009CE5190709F4C4C008F045C0073CFCE5C5
:1008F0001F0709F4A9C0D8F4043C3CE5130709F428
:1009000099C030F4033CECE51E0709F46EC0D1C079
:10091000053CFCE51F0709F492C0063C2CE51207D4
:1009200009F0C7C04CEA5AE065EB7AE0A5C00A3C82
:100930003CE5130709F492C078F4083CECE51E0787
:1009400009F487C0093CFCE51F0709F0B2C040EA82
:100950005AE064E97AE090C00B3C2CE5120709F4F8
:1009600082C00C3C3CE5130709F0A3C040E059E00D
:1009700061E179E081C0023D8CE5180709F488C087
:10098000A0F40F3CECE51E0709F47CC008F477C026
:10099000003D2CE5120709F478C0013D3CE5130742
:1009A00009F087C06EE089E081C0053D8CE518073D
:1009B00009F474C068F4033DECE51E0709F46BC04C
:1009C000043DFCE51F0709F074C061E088E16BC0DD
:1009D000063D2CE5120709F464C00E353DE513070A
:1009E00009F067C06AE285E261C08091A30180FFDF
:1009F0001BC08E7F8093A3016091A3017091A4011D
:100A00008091A5019091A6010E94EE081092A90183
:100A10008FEF90E7E2E081509040E040E1F700C0C6
:100A200000000E94041541C381608093A30161E02E
:100A3000869539C049EF5AE062E07BE01DC042E094
:100A40005BE069EF7AE018C045EB5AE06CEA7AE0C7
:100A500013C044E95AE060EA7AE00EC04CE75AE07D
:100A600068E87AE009C048E85AE06CE77AE004C038
:100A700041E159E060E079E00E94E81416C361E0CA
:100A800081E011C065E082E011C068E086E00EC040
:100A900064E18FE00BC067E185E108C062E289E1B3
:100AA00005C061E083E20E94BE0AFFC20E94D61424
:100AB000FCC20B35FDE51F0741F150F401153CE583
:100AC0001307A9F00F3D1C4529F50E947A20EDC2BD
:100AD0000C359DE51907D9F00D351D45D9F48091E8
:100AE0008C0182FB882780F991E0892711C00E9440
:100AF000061EFFEF04E31CE0F15000401040E1F758
:100B000000C000000E94B41FD0C281E001C080E09C
:100B10000E941821F701828100811181882349F008
:100B2000C8010E943221D82E682FC8010E94AB2133
:100B300004C0C8010E947F21D82EB8018D2D0E94CB
:100B4000050D8C01982EF701D280A580A2944FE06C
:100B5000A42280916E02877099F0DD2089F0812FA8
:100B6000807F803421F080E2800F883048F082E07E
:100B70000E94052280916E028770CC24C39481115B
:100B8000C12CB12EB2943FE0B3228B2D90E08C307B
:100B9000910508F04AC2FC01EA5AFF4F0C940C245C
:100BA000812F807F1F70882311F01295107FDD2028
:100BB000B9F0112309F424C280E2800F883010F0CC
:100BC000911006C080917102182B1093710205C01C
:100BD00080917002182B109370020E94EB2010C2BB
:100BE000802F0E94261E112309F41FC2005E10955B
:100BF000083010F0911006C08091710218231093F4
:100C0000710205C0809170021823109370020E9437
:100C1000EB200BC2812F807F1F70803211F0129564
:100C2000107F992021F0F1E09F1611F130C0DD20F6
:100C3000B1F0AA2081F001E0A0120DC080918C01DA
:100C400082FDF3C180917202182B181709F4EDC1CF
:100C500010937202EAC180917202812B10C0AA2007
:100C600021F021E0A21609F4E0C10E94E52027C08E
:100C7000DD2041F035E03A1508F4D7C1812F0E94FC
:100C80001C1ED3C184E08A1508F4CFC118C0DD2032
:100C900049F0AA2099F3F701858180FFB1C18F70D7
:100CA0008583ECCFAA2059F0093309F0BBC1FFEFCF
:100CB00017EE23E0F15010402040E1F7B1C1812F41
:100CC0000E94111EB2C1812F86958695837019F0FE
:100CD000813059F0AAC1DD2019F0C801937002C01B
:100CE00080E090E00E942914A6C1DD2019F0C8011F
:100CF000937002C080E090E00E9413149CC1802F8A
:100D0000DD2019F00E94EF0B02C00E94360B0E94FA
:100D10000C0B91C1812F837009F069C0D11089C17A
:100D2000902F929596959770990F990F802F8F70AD
:100D3000882E912CA12CB12C092E04C0880C991C52
:100D4000AA1CBB1C0A94D2F704FF12C04FE050E06B
:100D500060E070E004C0440F551F661F771F9A952E
:100D6000D2F7DB01CA0180959095A095B09503C09C
:100D700080E090E0DC0116951695412F43704230DB
:100D800019F1C8F400917302109174022091750258
:100D900030917602413059F088299929AA29BB2936
:100DA000BC01CD0160237123822393230AC0802AD2
:100DB000912AA22AB32ABC01CD01682979298A295E
:100DC0009B290E94432235C188299929AA29BB2938
:100DD0000091730210917402209175023091760295
:100DE000BC01CD016027712782279327EACFDD2040
:100DF00019F0812F817001C08695882309F419C1EB
:100E0000902F929596959770990F990F802F8F70CC
:100E1000882E912CA12CB12C092E04C0880C991C71
:100E2000AA1CBB1C0A94D2F704FF12C04FE050E08A
:100E300060E070E004C0440F551F661F771F9A954D
:100E4000D2F7DB01CA0180959095A095B09503C0BB
:100E500080E090E0DC0116951695412F43704230FA
:100E6000D9F068F5009187011091880120918901DE
:100E700030918A01413059F088299929AA29BB2942
:100E8000BC01CD0160237123822393231EC0802ADD
:100E9000912AA22AB32A13C088299929AA29BB29F1
:100EA00000918701109188012091890130918A0178
:100EB000BC01CD01602771278227932706C0BC01A2
:100EC000CD01682979298A299B290E94D621B1C0A0
:100ED0001F70DD2039F0812F0E942222802F0E9476
:100EE0001C1EA7C0802F0E94111E812F0E94E0218E
:100EF000A0C0802F32EF931609F440C0391538F0A6
:100F000090EF991661F0E1EF9E1699F174C0F3EF3E
:100F10009F16D9F124EF921609F44EC06CC0DD2063
:100F200019F134E03A1508F480C01F7181E090E0B7
:100F3000A0E0B0E0AC01BD0104C0440F551F661F26
:100F4000771F1A95D2F78091870190918801A0911F
:100F50008901B0918A018A019B01082719272A2754
:100F60003B27C901B80125C025E02A1508F45DC05A
:100F7000DCCFDD2029F0812F8F7130C0DD20D9F347
:100F8000812F8F710E94E02150C0DD2079F01F7108
:100F900081E090E0A0E0B0E0BC01CD0104C0660FAC
:100FA000771F881F991F1A95D2F703C060E070E081
:100FB000CB010E94D62139C0DD2099F01F71812F0D
:100FC0000E94222280918C0182FD07C038E0139F8D
:100FD000C0011124836080936E02812F0E9422221F
:100FE00024C081E00E94052281E08A15F0F482E0AD
:100FF0000E9405221AC0DD2039F0AA2009F4BBCFD7
:10100000802F0E948D1E11C0AA2009F4B9CF893308
:1010100049F49FEFE7EEF3E09150E040F040E1F754
:1010200000C00000802F0E94261E88EF8B0D8430A8
:1010300010F40E943F14CC20A9F080916E0280FD34
:1010400011C0F70112828595859585950E9422220F
:10105000C7010E947E0280916E02859585958595D7
:101060000E94E02185E0F701DE01119601900D92CA
:101070008A95E1F789819A810E947F212A8130E057
:10108000F901EE0FFF1F2E0F3F1FF90109E0809FAE
:10109000E00DF11D11248981E80FF11DEE0FFF1FF6
:1010A000EC50FF4F859194911FC080916E02877024
:1010B000D9F0F70182818823B9F082E02A960FB631
:1010C000F894DEBF0FBECDBFDF91CF911F910F917E
:1010D000FF90EF90DF90CF90BF90AF909F908F9058
:1010E0000C94052269E2F3CB2A960FB6F894DEBF82
:1010F0000FBECDBFDF91CF911F910F91FF90EF9069
:10110000DF90CF90BF90AF909F908F900895909177
:101110008B0192FF0DC0282F2871283019F4877F8A
:10112000846006C0282F2471243011F48B7F8860DE
:1011300093FF0DC0282F2871283119F4877E846110
:1011400006C0282F2471243111F48B7E88612091F0
:101150008C0120FF0DC0382F3871383019F4877F8B
:10116000816006C0382F3171313011F48E7F886074
:1011700021FF0DC0282F2871283119F4877E816145
:1011800006C0282F2171213111F48E7E886194FDD3
:10119000877E08959091A30190FF0CC0EEEBF1E0E3
:1011A000818360834283339691E0E93DF907C1F77B
:1011B0000C94041508958091A301282F269530E002
:1011C0002115310519F48170826005C02B3231057B
:1011D00024F0817084658093A3010895CF92DF92FB
:1011E000EF92FF926B017C010E94DB08B701A60120
:1011F00088E090E0FF90EF90DF90CF900C94452333
:101200008091A701882319F081508093A7016091F4
:10121000A3017091A4018091A5019091A6010C9465
:10122000EE088091A701833018F48F5F8093A701A7
:101230006091A3017091A4018091A5019091A601F4
:101240000C94EE08E3EAF1E083E0808311828FEFF3
:1012500082838383148260817181828193810C9463
:10126000EE08AF92BF92CF92DF92EF92FF920F9370
:101270001F93CF93DF93E82EF62EE901E42FF0E0E1
:10128000611106C0E65DFE4FE4914E2F2E2F71C016
:10129000062F10E0E65DFE4F4491F42FC42ED12CB2
:1012A00026E0829FC00111242FEF30E0B9010E9497
:1012B000E4235BEA5603C001579F900D11248E0D65
:1012C000911D8E0D911D582F550F580FD901A01B40
:1012D000B10BAC9DC001AD9D900DBC9D900D112436
:1012E000E92FF59ED0011124AB2FBB277901EA1A13
:1012F000FB0AEC9CD001ED9CB00DFC9CB00D1124C0
:101300005901A51AB108A09E7001A19EF00CB09ED3
:10131000F00C1124EF2CFF242E193F092C9D800185
:101320002D9D100D3C9D100D1124212F6230710553
:1013300091F048F461157105E1F061307105B9F47F
:10134000242F4B2F16C06430710569F040F06630D1
:10135000710579F00CC0242F492FE12F0AC0492FC5
:10136000EF2F2B2F06C0292FE42F412F02C0292F4A
:10137000EB2F49832883EA83DF91CF911F910F914F
:10138000FF90EF90DF90CF90BF90AF900895CF93F4
:10139000DF9300D01F92CDB7DEB79091A30190FFED
:1013A0000AC09E012F5F3F4F0E9431094B81698126
:1013B0008A810E94CA080F900F900F90DF91CF9101
:1013C00008955F926F927F928F929F92AF92BF9299
:1013D000CF92DF92EF92FF920F931F93CF93DF9301
:1013E00000D01F92CDB7DEB7182F762E042F622EB5
:1013F0009091A30190FF6DC0E92FE695AE2FB0E06C
:10140000A35EBE4F8C918093A8019E7F923061F4C1
:101410009E012F5F3F4F812F0E9431094B816981CF
:101420008A810E94CA0843C0823019F40091A60143
:101430003EC0863019F41091A40139C08930D9F327
:101440008931A9F5E9518E2F8170582EE695F0E08B
:10145000E65DFD4FA590B4908EEBC82E81E0D82EAE
:10146000E12CF12CBB2499E0892E912CAE9CC0017B
:10147000AF9C900DBE9C900D1124B4010E94E423FA
:10148000812F511002C0860F01C0861B9601402F8C
:10149000672D0E9431098FEFE81AF80A83E0C80E21
:1014A000D11C89E0E816F10409F70E940415109395
:1014B000A4017092A5010093A601662051F06091ED
:1014C000A3017091A4018091A5019091A6010E94B1
:1014D000EE080F900F900F90DF91CF911F910F9119
:1014E000FF90EF90DF90CF90BF90AF909F908F9044
:1014F0007F906F905F900895E3EAF1E0438128E0E8
:10150000421B08F440E021E0628181810C94E109F2
:10151000E3EAF1E0438128E0420F08F44FEF21E0D5
:10152000628181810C94E109E3EAF1E0628128E0C3
:10153000621B08F460E021E0438181810C94E109A1
:10154000E3EAF1E0628128E0620F08F46FEF21E046
:10155000438181810C94E109E3EAF1E0818121E09A
:101560004381628188500C94E109E3EAF1E08181D2
:1015700021E043816281885F0C94E1099091A3018D
:1015800090FF36C09170811102C0926006C08B320C
:1015900010F0946502C0880F982B9093A3016623E6
:1015A00051F06091A3017091A4018091A5019091E7
:1015B000A6010E94EE086091A301669570E04BE0E1
:1015C00050E08EE091E00E942124892B19F01092C6
:1015D000A90102C00E94EE1481E08093A00120E0E6
:1015E0004091A6016091A5018091A4010C94E109AC
:1015F00008958091A3018695815009F48AE261E003
:101600000C94BE0A8091A30186958F5F8B3208F0FF
:1016100081E061E00C94BE0A0E940D202091B2018D
:10162000211104C02091B301222321F09093AF0136
:101630008093AE012091B401211104C02091B50125
:10164000222321F09093AC018093AB01E0919101B2
:10165000F0919201309749F082E08093B0010480CC
:10166000F581E02D80EB91E0099408958D3E39F4E9
:101670009091B30197FF35C01092B30159C08E3ECF
:1016800029F49091B3011916BCF32BC09091B201CB
:101690008F3E29F497FF25C01092B20149C0803FC8
:1016A00019F41916CCF31DC09091B401893F29F4A7
:1016B0001916BCF41092B4013BC08A3F19F497FF8D
:1016C00010C0F8CF8B3F39F49091B50197FF09C056
:1016D0001092B5012DC08C3F21F49091B5011916DF
:1016E000BCF39FE0980F983080F421E030E0A9012E
:1016F00002C0440F551F9A95E2F7CA018095909158
:10170000B10189238093B10113C08D3F21F48091F1
:1017100023028E7F0BC08E3F21F4809123028D7FA8
:1017200005C08F3F29F4809123028B7F8093230291
:101730008091B201811106C08091B301811102C074
:101740001092AD018091B401811106C08091B50164
:10175000811102C01092AA0108958091230280FD98
:1017600016C081FD16C082FD18C08091AA01882391
:1017700091F0883290F428E0829FC001112468E241
:1017800070E00E94F823862F672B29F007C082E0C3
:10179000089584E0089581E0089588E00895809197
:1017A000230280FD14C081FD14C082FD16C080910B
:1017B000AD01882381F0843180F422E3829FC0014F
:1017C000112464E170E00E94F823862F08958CE0D4
:1017D000089589E1089585E0089582E308958D3E96
:1017E00021F40E94CF0B819504C08E3E29F40E9403
:1017F000CF0B8093B30108958F3E21F40E94CF0B4D
:10180000819504C0803F29F40E94CF0B8093B201E0
:101810000895893F19F40E94AD0B05C08A3F31F449
:101820000E94AD0B81958093B40108958B3F21F404
:101830000E94AD0B819504C08C3F29F40E94AD0B32
:101840008093B50108959FE0980F983078F421E0D7
:1018500030E0A90102C0440F551F9A95E2F7CA0172
:101860009091B101892B8093B10108958D3F21F4AE
:101870008091230281600BC08E3F21F4809123026E
:10188000826005C08F3F29F4809123028460809399
:1018900023020895F894E82FE295EF70F0E031A16B
:1018A000282F2F7081E090E001C0880F2A95EAF779
:1018B000982F9095932391A392A1892B82A378943A
:1018C00008958F929F92AF92BF92CF92DF92EF9244
:1018D000FF920F931F93CF93DF9308E411E0C0E0D2
:1018E000D0E0B12CCC24C394D12C90E9E92E91E026
:1018F000F92E4801D8018C91F894E82FE295EF7009
:10190000F0E021A18F70A60102C0440F551F8A95F7
:10191000E2F7CA01922F982B91A392A18095892377
:1019200082A3789400C0C6010C2E01C0880F0A94CF
:10193000EAF7782F282F2095EDE8F1E04BE451E00D
:10194000A12C6081DA013D91AD01832F82958F70CA
:1019500090E0DC0190968C9190E03F7002C09595EC
:1019600087953A95E2F780FD03C0862F872B02C04A
:10197000862F8223681719F08083AA24A3943196B6
:10198000EE16FF06F1F60F5F1F4FF40180810E94F3
:101990004A0CF0EAFA95F1F7BA282196C330D1053E
:1019A00009F0A7CFBB2049F081E0809386010E9417
:1019B0000D20909385018093840180918601882376
:1019C000B1F080918401909185010E94FE1F0697DD
:1019D00070F080918D0180939A0180918E018093A7
:1019E0009B0180918F0180939C01109286018B2D29
:1019F000DF91CF911F910F91FF90EF90DF90CF90EB
:101A0000BF90AF909F908F900895CF93DF93272F33
:101A100030E0F901EE0FFF1F2E0F3F1FF90149E0E3
:101A2000849FE00DF11D1124E60FF11DEE0FFF1F45
:101A3000EC50FF4FC591D491CE01C238D10569F168
:101A4000B0F4C133D10509F475C048F4C932D105E9
:101A500009F469C0CA32D10509F473C085C0C53321
:101A6000D10509F459C0C933D105B9F07DC0C33ED1
:101A7000D10571F138F4C03ED105B1F0C23ED105B7
:101A800011F172C0C63ED105B9F1C73ED105C9F109
:101A9000C43ED10509F068C024C020918B0120FD0F
:101AA0005DC021FD5BC060C020918B0120FD50C056
:101AB00020918C0120FF51C180918B0184FD4BC18D
:101AC00083EE90E04AC120918B0122FF46C1F4CF02
:101AD00080918B0182FD3FC080918C0180FD3EC0D2
:101AE000EBCF20918C0121FF38C180918B0184FDC7
:101AF00032C187EE90E031C120918B0123FF2DC1CF
:101B0000F4CF80918B0183FD2CC080918C0181FFEB
:101B1000ECCF84EE90E021C120918B0125FF1DC107
:101B200089E290E01AC120918B0125FF16C185E35F
:101B300090E013C120918B0126FF0FC18AE290E053
:101B40000CC120918B0126FF08C181E390E005C103
:101B500089E390E002C182EE90E0FFC080EE90E069
:101B6000FCC086EE90E0F9C0C11551E5D50708F03C
:101B70006CC0C11520E5D207F0F0CE01F4E09695D7
:101B80008795FA95E1F7282F23703C2F337081E079
:101B900090E002C0880F991F3A95E2F79C68922B5B
:101BA0002C2F2F702695269550E2259F9001112409
:101BB000822B932BD2C0C83ED10570F5C03ED10513
:101BC00008F0CBC0C83AD105B8F4C53AD10550F0F9
:101BD0002C2F255AC22FD0E0C25BDE4F888190E0C7
:101BE0009064BBC0C130D10509F4B7C008F4B3C0DC
:101BF000249708F4B0C0B1C0CF3BD10508F0ABC00A
:101C00002C2F285AC22FD0E0CC0FDD1FCF5ADE4F29
:101C1000888199819464A1C0C11540E2D40760F421
:101C2000C11551E0D50708F098C0CD3ED10508F4A4
:101C300092C0CE01906591C0C11580E4D80708F428
:101C40008AC0CE019F70906A88C0C11595E5D907FA
:101C500008F040C0C11524E5D20728F09C2F882742
:101C6000846F906A7AC0C11543E5D407A8F09E013D
:101C70002370332781E090E002C0880F991F2A95D6
:101C8000E2F72C2F2695269550E2259F90011124EE
:101C9000822B932B9A6861C0C11552E5D50728F4B1
:101CA0009C2F8827816F906A58C09E01237033272C
:101CB00081E090E002C0880F991F2A95E2F72C2F4F
:101CC0002695269540E2249F90011124822B932B88
:101CD0009C6843C0C11589E5D807B0F4C11598E5E3
:101CE000D90728F09C2F8827806F906A36C0C115CD
:101CF00026E5D20780F58C2F0E9487088F7190E02F
:101D0000982F8827906229C0C1154AE5D40790F41E
:101D10008C2F8F700E9487089E0194E0369527953E
:101D20009A95E1F72F7030E0322F22273069A90110
:101D3000482B0FC0CE0190568115904260F48D2F34
:101D40008F710E9487089E01332730628F71A9012D
:101D5000582BCA0102C080E090E0DF91CF91089536
:101D6000BC0184E00C94811FBC0183E00C94811FB2
:101D70002091E4003091E50095E64091EC00842F3D
:101D8000817040FF23C08091E80080FD1DC08091DC
:101D90001902882399F0853099F08091EB0085FD38
:101DA00011C04091E4005091E5002417350729F354
:101DB000915011F09A01E1CF84E0089582E00895F6
:101DC00083E0089581E0089580E008954091E8005F
:101DD00042FFDDCF089580911B0287FF11C08091E3
:101DE000E80082FD05C0809119028111F8CF11C071
:101DF0008091E8008B770BC080911902882349F00D
:101E00008091E80080FFF8CF8091E8008E77809382
:101E1000E8000895982F973068F59093E900981797
:101E200039F07091EC002091ED005091F00003C06A
:101E3000242F762F50E021FD02C09F5FECCF309120
:101E4000EB003E7F3093EB003091ED003D7F30930F
:101E5000ED003091EB0031603093EB007093EC00BB
:101E60002093ED005093F0002091EE0027FDE5CF88
:101E700080E008958F708093E90081E008952091BB
:101E80002102309122022617370748F061157105AB
:101E900039F42091E8002E772093E80001C0B901C1
:101EA000FC0120E06115710579F180911902882308
:101EB000F1F18530F1F18091E80083FD3CC0809123
:101EC000E80082FD2EC08091E80080FFEBCF2091DA
:101ED000F3008091F20090E0922B6115710551F0B2
:101EE0008830910538F421912093F10061507109F7
:101EF0000196F3CF21E0089709F020E08091E800F7
:101F00008E778093E800CECF2111CFCF0AC0809189
:101F10001902882361F0853061F08091E80083FD2B
:101F20000AC08091E80082FFF2CF80E0089582E04D
:101F3000089583E0089581E00895CF93DF93CDB7AE
:101F4000DEB760970FB6F894DEBF0FBECDBF84B783
:101F5000877F84BF0FB6F894A89580916000886150
:101F600080936000109260000FBE90E080E80FB692
:101F7000F89480936100909361000FBE85B78068EC
:101F800085BF85B7806885BF84E39FE19093810119
:101F9000809380010E94BC1A0E94DB1A8091E200AB
:101FA00084608093E2007894809119028823A1F0E4
:101FB0001091E9001F709091EC00892F817090FDC5
:101FC00080E8182B1092E9008091E80083FD0E94C0
:101FD000AF171F701093E90082E084BD93E095BDB8
:101FE0009AEF97BD80936E0086E90E944A0C82E9C1
:101FF0000E944A0C81E90E944A0C85EF0E944A0C1B
:1020000084EF0E944A0C81EF0E944A0C10928D01CD
:1020100010929A0110928E0110929B0110928F01E2
:1020200010929C0180E090E00E942D238A3E9E4FFA
:1020300011F00E947A2082E090E00E941F2380939A
:10204000B7010E94692090938C0180938B010E94BC
:10205000610C8FE39CE90197F1F700C000000E943A
:10206000610C80919A0180FF08C06FEF7FEF80E0E4
:1020700090E00E9451230E94B41F83E090E00E94F0
:102080001F23682F70E080E090E00E94432280913F
:102090009001811136C080E090E00E942D238A3E9D
:1020A0009E4F21F00E947A200E94220988E090E051
:1020B0000E9427236093A3017093A4018093A5013C
:1020C0009093A6016E7F71F40E94220988E090E04F
:1020D0000E9427236093A3017093A4018093A5011C
:1020E0009093A6010E94DB081092A9018091A301A0
:1020F00080FF04C060E086950E94BE0A81E0809364
:10210000900184E091E09093920180939101A8E185
:10211000EA2EF12CB0E4CB2EDD24D394BB24B3946F
:1021200080911902853009F073C000E112E18091BD
:102130001902853009F057C080911902843009F4E2
:102140003DC01092A90180919501811116C0B092F5
:1021500095018091A301982F9170909394018E7FA7
:102160008093A301FFEF20E732E0F15020403040A0
:10217000E1F700C000000E940415109293010FB611
:10218000F894A895E09260000FBEC092600083B7FB
:10219000817F846083BF83B7816083BF7894889593
:1021A00083B78E7F83BF0FB6F894A89580916000A7
:1021B000886180936000109260000FBE80911802C9
:1021C000882309F4B4CF0E94610C80919A01811197
:1021D00007C280919B01811103C280919C018823D9
:1021E00009F4A5CFFDC10E94061E0E943F14109263
:1021F000950180919401882349F08091A301816029
:102200008093A30160E086950E94BE0A0E94EE14AE
:102210000E94610C882359F08FB7F8944091960181
:102220005091970160919801709199018FBFEAE9EF
:10223000F1E0A8EBB1E000E010E0302F21919D919A
:10224000922721F180E099249394492F4921D1F0DC
:102250008F833887292181E009F480E089870E94F3
:102260000D208160782F9B878A874F8158856985EB
:102270008B850E947513F801E854FE4F80819826E3
:10228000908219C08F5F990C8330F9F60F5F1F4F52
:102290000330110591F68FEF8C878D871E860E9483
:1022A0000D208160782F988B8F874C855D856E859A
:1022B00088890E9475138091A901882309F4A5C01B
:1022C0008091A801E091A301E695E81BE0939F01AE
:1022D000823059F4F0E0E05CFD4FE4910E2F10E005
:1022E000F1E68F2EF3E19F2E6BC0863059F4F0E0BB
:1022F000E35CFD4FE4910E2F10E0E1E58E2EE3E16B
:102300009E2E5EC0893061F4E695F0E0E65CFD4FFC
:10231000E4910E2F10E079E5872E77E1972E50C0DB
:102320008F3061F4E695F0E0E95CFD4FE4910E2F0B
:1023300010E06CEE862E66E1962E42C0853159F48F
:10234000F0E0EC5CFD4FE4910E2F10E05EE9852E8D
:1023500056E1952E35C08831F9F0833249F4E2E335
:10236000F2E00591149141E1842E43E1942E28C0BE
:102370008432C9F08532F1F48E2F63E00E94CA23C3
:10238000E92FF0E0E15DFD4FE4910E2F10E03AE31C
:10239000832E35E1932E14C008E210E025E1822E51
:1023A00026E1922E0DC004EF11E09BED892E95E100
:1023B000992E06C000ED17E080E1882E83E1982E6B
:1023C0008091A001882361F01092A0010E940D204D
:1023D00090939E0180939D011092A2011092A10101
:1023E0000E940D20E0919D01F0919E018E1B9F0B9C
:1023F0008F3F9F4750F40E0F1F1F10939E010093B5
:102400009D018DE991E0F401099586E0E0EBF1E0B2
:10241000DE01119601900D928A95E1F78090B2014C
:102420009090B3010091B4011091B5011092B201E6
:102430001092B3011092B4011092B501811003C043
:10244000992009F44FC08091AE019091AF010E9494
:10245000FE1F9C019091AD01992309F4D7C023334D
:10246000310508F43FC09F3F19F09F5F9093AD0185
:10247000882061F00E94CF0B181414F09FEF01C068
:1024800091E0899F802D11248093B201992061F001
:102490000E94CF0B191414F09FEF01C091E0899FA7
:1024A000802D11248093B3013091B2013323D1F0F8
:1024B0002091B3012223B1F045EB3403C001112474
:1024C000992319F09093B20102C0D092B20135EB7A
:1024D0002303C0011124992319F09093B30102C082
:1024E000D092B301011103C0112309F44FC08091B0
:1024F000AB019091AC010E94FE1F9C019091AA013A
:10250000992309F488C02536310508F43FC09F3F60
:1025100019F09F5F9093AA01002361F00E94AD0B18
:10252000101614F09FEF01C091E0899F802D1124B7
:102530008093B401112361F00E94AD0B111614F0C9
:102540009FEF01C091E0899F802D11248093B501F8
:102550003091B4013323D1F02091B5012223B1F0A1
:1025600045EB3403C0011124992319F09093B40171
:1025700002C0D092B40135EB2303C001112499238A
:1025800019F09093B50102C0D092B5018091B201CB
:1025900081110BC08091B301811107C08091B401FA
:1025A000811103C08091B50181110E940C0B8B82B7
:1025B0009C820D831E8386E0FE013196A0EBB1E084
:1025C00001900D928A95E1F70E943F149091B60117
:1025D000891709F4A5CD0E943F148093B601A0CDC0
:1025E00009BD19BD09B400FEFDCF8091D8008F7DD3
:1025F0008093D8008091E00082608093E000809119
:10260000E00081FDFCCF0E94061E91CD2D323140AD
:1026100008F02BCF67CF2D32314008F07ACFB6CFFC
:1026200008950F931F93CF93DF9300D01F92CDB7E0
:10263000DEB78C018091BD0181110AC09E012F5F20
:102640003F4F4FEF6FEF0E9431098A818093BD01A8
:10265000F8018481813051F028F0823061F440919A
:10266000BD010AC08091BD0140E007C06091BD017D
:1026700040E080E003C040E080E060E00E94CA08E3
:10268000F801848190E0019663E070E00E94F823F5
:1026900084830F900F900F90DF91CF911F910F9136
:1026A0000895CF93DF93EC01E3EAF1E04381628187
:1026B0008C810E94C7098C818F5F8C83DF91CF91C1
:1026C0000895CF93DF93EC01EC81F0E0EC5BFD4FDC
:1026D0004491E3EAF1E0628181810E94C7098C8123
:1026E0008F5F8C83DF91CF9108951F93CF93DF93FA
:1026F000CDB7DEB767970FB6F894DEBF0FBECDBF7C
:10270000342F4B8B252F5C8B6D8B7E8B8F8B4E8963
:102710005F8961111092700286E0FE013D96DF0133
:10272000982F1D929A95E9F73D872E876F87598BD1
:10273000488BDE01179601900D928A95E1F7CE0144
:1027400007960E943A1C81113EC086E0FE01379632
:10275000DE01119601900D928A95E1F7FF81E885DF
:102760006A857B856115710531F0EF3F31F481E0B9
:10277000FF3F19F403C081E001C080E080FD23C069
:102780002091320230E0C90101968770992740916B
:10279000630250E08417950779F1F983EA837D831A
:1027A0006C8396E0929FD001939FB00D1124AD5C95
:1027B000BD4FFE01319601900D929A95E1F78093FD
:1027C00032020E944D2216E0809163029091320203
:1027D0008917F9F0189FC00111248D5C9D4F0E944C
:1027E0003A1C8823B1F08091630290E001968770D3
:1027F000992780936302E8CF0E94061E109232024E
:1028000010926302ECE2F2E086E0DF011D928A950D
:10281000E9F767960FB6F894DEBF0FBECDBFDF9124
:10282000CF911F91089520910A0230910B02281731
:10283000390771F090930B0280930A02E0919101A5
:10284000F0919201309721F00084F185E02D0994F8
:10285000089520910802309109022817390771F074
:102860009093090280930802E0919101F091920106
:10287000309721F00680F781E02D09940895E091CA
:102880009101F0919201309721F00190F081E02DBB
:10289000099480E00895EF92FF920F93CF93DF9316
:1028A000C42FD22FFC0182818823D1F04093820172
:1028B0000E940D20909307028093060280E28C0F05
:1028C000883008F06DC0C77081E001C0880FCA95DC
:1028D000EAF7DF91CF910F91FF90EF900C941C1EBF
:1028E0008091820148134BC08091060290910702AB
:1028F0000E94FE1F883C910508F041C0CD17C9F029
:1029000080E28C0F883040F4C77081E001C0880FEE
:10291000CA95EAF70E94111E80E28D0F883048F4B4
:1029200081E09D2F977001C0880F9A95EAF70E9469
:102930001C1E093319F0E12CF12C03C080E5E82EB0
:10294000F12C802F0E948D1EE114F10451F08FE9CB
:102950009FE00197F1F700C0000091E0E91AF1084B
:10296000F3CF802F0E94261E80E28D0F8830C0F4A6
:10297000D77081E001C0880FDA95EAF70AC080E2DB
:102980008C0F883068F4C77081E001C0880FCA9549
:10299000EAF7DF91CF910F91FF90EF900C94111E09
:1029A000DF91CF910F91FF90EF9008959091A30147
:1029B00090FF04C09695981740F003C0811105C0A0
:1029C00090E0961710F40C94020B61E00C94BE0A90
:1029D000882311F0FA0101C0FB0109946091A30161
:1029E000669570E04BE050E08EE091E00E9421247B
:1029F000892B19F481E08093A9010E940D20909306
:102A00009E0180939D0108958091A30180FF0AC0DB
:102A10006A9A8EB18B7F9EB194602FB7F894EEEBDB
:102A2000F1E00BC0EEEBF1E01182108212823396DE
:102A300031E0E93DF307C1F7EBCF31E0E93DF307C2
:102A400089F0319148E09EB9000000C037FF8EB98F
:102A5000330F000000C000C000C08EB900C04A950E
:102A600091F7EBCF2FBF8FE594E00197F1F700C00E
:102A7000000008959F92AF92BF92CF92DF92EF92A3
:102A8000FF920F931F93CF93DF93FC01A28094805A
:102A900081E08483E4E4F2E0B490E3ECF2E0E491DA
:102AA000C9EDD1E0FEEBEF2EF1E0FF2ECC24CA946D
:102AB000D12CEB190E2F10E022E02A1530F0809176
:102AC000A40188838091A5018983911003C01B8292
:102AD0001A8255C08B818823F9F081508B832FEFA8
:102AE000829FC00111246C8170E00E94E423FB01ED
:102AF000FF27EC5BFD4F8491E82FEB192FEFE29F4E
:102B0000C0011124B8010E94E4238091A601689FAE
:102B1000B00111247A8333C00E940F232091A601B3
:102B20002695215830E0A901440F551F322F222746
:102B3000240F351F232F33278217930704F582E0D4
:102B40008A1588F40E940F23B6010E94F823888317
:102B50000E940F232091A5012695622F70E00E940C
:102B6000F823280F29831A828091A601843120F04E
:102B7000893C18F088EC01C084E18C838B83970139
:102B80004A81698188810E943109259623E0E20EFD
:102B9000F11C82E0C630D80709F08ECFDF91CF91CB
:102BA0001F910F91FF90EF90DF90CF90BF90AF906B
:102BB0009F900C940415EF92FF920F931F93CF9365
:102BC000DF938C01CEEBD1E0E12CF12CF801848174
:102BD000F4E0EF16F1041CF4882339F002C08111EF
:102BE00004C09E014091A60102C09E0140E0609198
:102BF000A5018091A4010E9431098FEFE81AF80A1B
:102C0000239699E0E916F10409F70E940415F801EA
:102C1000848190E00196817099278483DF91CF9120
:102C20001F910F91FF90EF9008958F929F92AF9216
:102C3000BF92CF92DF92EF92FF920F931F93CF93A9
:102C4000DF93EC014C81042F10E09801D8010E9421
:102C5000BB239B01AC010E9486236B017C01E0E257
:102C6000F0E0E01BF10BA5E5B0E09B01AC010E9498
:102C700086234B015C019F01DF010E9412249B010E
:102C8000AC010E9491239B01AC012C0D3D1D4E1DFA
:102C90005F1DC501B4010E949923822FF22E99E293
:102CA000921728F093E0299F900111240DC025E58B
:102CB00030E0281B3109C901880F991F280F391FDF
:102CC00037FF02C02F5F3F4F35952795122F109584
:102CD0009EEBC92E91E0D92E00E085E5E82EEF1895
:102CE00001FD02C08E2D01C08F2D9601412F6091F4
:102CF000A5010E9431090F5F83E0C80ED11C093085
:102D000079F70E9404158C81811102C091E003C003
:102D1000803219F49FEF90931B0190911B01890F52
:102D20008C83DF91CF911F910F91FF90EF90DF90F7
:102D3000CF90BF90AF909F908F9008950F931F9367
:102D4000CF93DF93CEEBD1E0FE011182108212828D
:102D5000339681E0E93DF807C1F700E010E080918B
:102D6000BC01082E000C990B0817190794F08091EC
:102D70001A01082E000C990B8017910754F09E0140
:102D80004091A6016091A5018091A4010E943109A2
:102D900003C0198218821A820F5F1F4F23960930D1
:102DA0001105E9F60E940415809119019091BC016A
:102DB000980F9093BC0120911A01280F20931A01BB
:102DC000121614F498301CF0819580931901DF914C
:102DD000CF911F910F910895BF92CF92DF92EF9202
:102DE000FF920F931F93CF93DF93FC01828180FFAB
:102DF00003C0DD24DA9402C0DD24D3940EEB11E08D
:102E0000C0E0D0E029E0B22EF801118210821282D7
:102E100094E0E92EF12CC12C8091BB018C0D8A30FD
:102E20002CF06B2D0E94D623892F02C087FD875F6F
:102E3000082E000C990BC817D90791F48091A601B0
:102E40008E9DA0018F9D500D112455954795559548
:102E5000479598016091A5018091A4010E943109D4
:102E6000CD0CF1E0EF1AF108B9F621960D5F1F4F76
:102E7000C930D10549F60E9404158091BB0191E04B
:102E8000D91206C0811102C088E007C0815005C078
:102E900090E00196BE010E94F8238093BB01DF9170
:102EA000CF911F910F91FF90EF90DF90CF90BF9047
:102EB0000895EF92FF921F93CF93DF93EC018EEB77
:102EC000E82E81E0F82E10E08C8197014091A60158
:102ED0006091A501810F0E943109145E83E0E80E24
:102EE000F11C1C3F89F70E9404159A818C8190FF88
:102EF00002C08F5F01C081508C83DF91CF911F9101
:102F0000FF90EF900895EF92FF920F931F93CF934E
:102F1000DF937C018B010E94B80E811119C0E7017B
:102F200001151105A1F08091E80085FD0AC080918E
:102F3000E8008E778093E8000E94B80E882381F322
:102F400007C089918093F10001501109E9CF80E019
:102F5000DF91CF911F910F91FF90EF9008951F93F4
:102F6000CF93DF93CDB7DEB7AA970FB6F894DEBF45
:102F70000FBECDBFEBE1F2E08091F100819322E042
:102F8000E332F207C9F780911C02833009F460C074
:102F900030F4813071F0823009F49AC0B1C08A30C7
:102FA00009F486C08B3009F46BC0893009F0A8C0E1
:102FB00020C080911B02813A09F0A2C08091E800F4
:102FC000877F8093E80080911F0290912002892BD7
:102FD00021F468E08FE092E003C060E080E090E0E0
:102FE00070E00E943F0F8091E8008B778093E800AB
:102FF00087C080911B02813209F082C080911F023C
:1030000090912002029708F07BC08091E800877FB2
:103010008093E8008091E80082FD05C0809119024C
:103020008111F8CF6DC02091F3008091F20090E003
:10303000922B029729F48091F1008B7F813021F44B
:103040008091F10080930E028091E8008B7754C04C
:1030500080911B02813A09F053C080911F02909128
:103060002002892B09F04CC08091E800877F809373
:10307000E8008091E80080FFFCCF80911C0137C000
:1030800080911B028132E1F580911F029091200214
:10309000892BB1F58091E800877F8093E8000E943A
:1030A000EB0E80911D0280931C010E94061E28C019
:1030B00080911B02813221F58091E800877F809307
:1030C000E8000E94EB0E80911E0280930D0218C052
:1030D00080911B02813AA1F48091E800877F809360
:1030E000E8008091E80080FFFCCF80910D02809382
:1030F000F1008091E8008E778093E8000E94EB0E4B
:103100008091E80083FFCCC180911B0290911C024A
:10311000492F50E04A30510508F0C2C1FA01EE597A
:10312000FF4F0C940C24803821F0823809F0B8C18C
:1031300008C08091170290911802992389F082604B
:103140000FC080911F028F70873008F0A9C1809353
:10315000E9008091EB0085FB882780F91092E90057
:103160009091E800977F9093E8008093F10010928F
:10317000F10065C1282F2D7F09F092C1882319F035
:10318000823061F08DC180911D02813009F088C1CB
:10319000933009F080E0809318022EC080911D02C8
:1031A00081112AC080911F028F702FEF280F2630C7
:1031B00008F076C18093E9002091EB0020FF1CC04D
:1031C000933021F48091EB00806214C09091EB0069
:1031D00090619093EB0021E030E0A90102C0440F20
:1031E000551F8A95E2F74093EA001092EA00809119
:1031F000EB0088608093EB001092E9008091E8007A
:10320000877F20C181114CC110911D021F778091D1
:10321000E3008078812B8093E3008091E800877F32
:103220008093E8000E94EB0E8091E80080FFFCCFC5
:103230008091E30080688093E300111102C082E076
:1032400001C083E0809319022BC18058823008F0BE
:1032500027C180911D0290911E028C3D53E095077D
:1032600079F583E08A838AE289834FB7F894DE0197
:10327000139620E03EE051E2E32FF0E05093570038
:10328000E49120FF03C0E295EF703F5FEF708E2F57
:1032900090E0EA3010F0C79601C0C0968D939D93E0
:1032A0002F5F243149F74FBF8091E800877F8093DB
:1032B000E8006AE270E0CE0101960E943F0FAEC0C6
:1032C00040911F0250912002292F332723303105CE
:1032D000A9F068F42130310509F4F1C0223031053C
:1032E00009F0DEC08BE390E0EFEFF3E044C0213261
:1032F000310521F12232310571F1D2C09927813097
:103300009105A1F058F0029709F0CAC0ECE4F4E08E
:10331000E4918E2F90E0ECE4F4E02AC0E6E6F4E0DD
:10332000E4918E2F90E0E6E6F4E022C0EAE5F4E0D6
:10333000E4918E2F90E0EAE5F4E01AC041155105C2
:1033400009F4C2C04130510509F0AAC089E090E0FB
:10335000EAE2F4E010C04115510509F4BAC0413069
:10336000510509F09DC08BE790E0E4E4F3E003C071
:10337000009709F495C02091E800277F2093E8008A
:1033800020912102309122028217930708F49C01B8
:1033900040E02115310589F180911902882309F453
:1033A0003DC08530D9F18091E80083FD37C0809120
:1033B000E80082FD2FC08091E80080FFEACF4091B5
:1033C000F3008091F20090E0942B2115310559F023
:1033D0008830910540F444914093F100319621509A
:1033E00031090196F2CF41E0089709F040E0809161
:1033F000E8008E778093E800CCCF4111CDCF0AC092
:1034000080911902882351F0853041F08091E800C5
:1034100083FD04C08091E80082FFF2CF8091E80034
:103420008B778093E8003CC08038D1F58091E8002C
:10343000877F8093E80080911A028093F100809149
:10344000E8008E778093E8000E94EB0E29C081117E
:1034500027C080911D0290911E029927029704F5C2
:103460008091E800877F8093E80010911D021093FF
:103470001A020E94EB0E111106C08091E30087FD35
:1034800002C081E001C084E08093190242E061EC57
:1034900081E00E940A0F42E261EC82E00E940A0F82
:1034A0008091E80083FF1AC08091E800877F8093B5
:1034B000E8008091EB0080628093EB000FC082E116
:1034C00090E0EAE3F4E057CF89E090E0E1E1F4E056
:1034D00052CF80E490E0EFEBF3E04DCFAA960FB629
:1034E000F894DEBF0FBECDBFDF91CF911F9108953D
:1034F0001F920F920FB60F9211242F933F934F9369
:103500005F936F937F938F939F93AF93BF93CF936B
:10351000DF93EF93FF93C091E900CF708091EC00AF
:10352000D82FD17080FDD0E81092E9008091F00092
:10353000877F8093F00078940E94AF171092E90083
:103540008091F00088608093F000CD2BCF70C09305
:10355000E900FF91EF91DF91CF91BF91AF919F91E2
:103560008F917F916F915F914F913F912F910F902C
:103570000FBE0F901F901895E8EDF0E080818E7FD0
:1035800080831092E2001092DA001092E100A0EE27
:10359000B0E08C9181608C9380818F77808319BC9F
:1035A000A7EDB0E08C918E7F8C9380818F7E80839D
:1035B00010920C020895CF92DF92EF92FF920F9338
:1035C0001F93CF93DF93C8EDD0E088818F7E8883EF
:1035D000E7EDF0E080818160808384E082BF81E05C
:1035E00080930C0288818E7F888302EE10E0F801C0
:1035F00010821092DA0081EEC82ED12CF6011082D2
:1036000088818F77888388818068888388818F7D8F
:10361000888319BC1092190210921A021092180293
:103620001092170290EEE92EF12CF70180818B7F2A
:10363000808388818160888342E060E080E00E942E
:103640000A0FF60180818E7F8083F801808181607E
:103650008083808188608083F70180818E7F808372
:10366000888180618883DF91CF911F910F91FF90B6
:10367000EF90DF90CF9008951F920F920FB60F92A8
:1036800011242F933F934F935F936F937F938F9367
:103690009F93AF93BF93EF93FF938091E10082FFDD
:1036A00009C08091E20082FF05C08091E1008B7F1C
:1036B0008093E1008091DA0080FF2AC08091D800D9
:1036C00080FF26C08091DA008E7F8093DA0080919F
:1036D000D90080FF18C080E189BD82E189BD09B4AD
:1036E00000FEFDCF81E08093190280910C028111D0
:1036F0000FC00E94BC1A0E94DB1A8091E200846015
:103700008093E20005C019BC1092190210920C02BD
:103710008091E10080FF17C08091E20080FF13C01C
:103720008091E2008E7F8093E2008091E2008061D0
:103730008093E2008091D80080628093D80019BC09
:1037400085E0809319028091E10084FF2EC0809172
:10375000E20084FF2AC080E189BD82E189BD09B40D
:1037600000FEFDCF8091D8008F7D8093D80080919E
:10377000E1008F7E8093E1008091E2008F7E809354
:10378000E2008091E20081608093E20080911A0261
:10379000882311F084E007C08091E30087FD02C018
:1037A00081E001C083E0809319028091E10083FFF2
:1037B00027C08091E20083FF23C08091E100877FD2
:1037C0008093E10082E08093190210921A028091A6
:1037D000E1008E7F8093E1008091E2008E7F8093F4
:1037E000E2008091E20080618093E20042E060E0CC
:1037F00080E00E940A0F8091F00088608093F000C2
:10380000FF91EF91BF91AF919F918F917F916F91B8
:103810005F914F913F912F910F900FBE0F901F908E
:1038200018950E947421292F2F70E92FE295EF70CF
:103830004E2F50E0FA013297EE30F105B8F4E4591A
:10384000FF4F0C940C24803F99F018F4883E70F4DC
:103850000FC0843F59F40CC0883E50F0813F31F4D2
:1038600007C0822F869586958695089580E00895F5
:1038700081E008959F92AF92BF92CF92DF92EF9234
:10388000FF920F931F93CF93DF93CDB7DEB761976E
:103890000FB6F894DEBF0FBECDBF8C0185E0F801F6
:1038A000DE011D9601900D928A95E1F7F801908155
:1038B0008181E28030912C0260912D0240912F0293
:1038C000509130024115510531F06F3F31F421E044
:1038D0003F3F19F403C021E001C020E0F22FF17056
:1038E0009F2E20FD23C1F801C380D4802CE2A22E9C
:1038F00022E0B22EF0902E02F601E41BF50BFF2021
:1039000009F4CEC020913102E83CF10508F099C0DD
:10391000422F407F09F051C0681311C039130FC006
:10392000FE2CE1100CC02F70206120933102C501E4
:103930000E947E0280913102F801858337C1CD2833
:1039400031F08F3F31F421E09F3F19F403C021E0B3
:1039500001C020E020FD03C021E02E2502C020E0B0
:1039600030E0F22FF170FF2E20FF1DC02091630286
:103970004091320256E0241709F4F6C030E0529F1D
:10398000F001539FF00D1124ED5CFD4F6181861312
:1039900006C06081961303C06281E61204C02F5FE7
:1039A0003F4F2770E8CFFE2CEE2009F4FFC0809136
:1039B000310281608093310250C0681307C039130F
:1039C00005C0E11003C0F80125838DC09D878E8757
:1039D0008D859E850E94111C882369F1EE2059F186
:1039E00020913102822F82958F7090E0029774F0BF
:1039F00080912C0290912D0298878F831986DB8607
:103A0000CA862C87CE0107960E947E0286E0F801C6
:103A1000ACE2B2E001900D928A95E1F70E94572244
:103A20000DC06817E1F09D878E878D859E850E9469
:103A3000111C81111EC0C8010E947E02FF24F39454
:103A4000B5C0422F407F69F78CE292E00E947E026F
:103A500086E0F50111928A95E9F7F12CA7C0391398
:103A6000E2CFE110E0CFF8012583C8010E947E0279
:103A700057C0EE2001F320913102822F82958F7082
:103A800090E002971CF280912C0290912D029A8373
:103A900089831B82DD82CC822E83CE010196B4CF36
:103AA000E83CF105E8F5FE2CEE2029F2681327C06A
:103AB000391325C02091310220FD18C0822F829534
:103AC0008F70482F50E04115510581F0F801258392
:103AD0004F30510541F08F5F982F9295907F822F44
:103AE0008F70892B8583C8010E947E0286E0F801D1
:103AF000ACE2B2E001900D928A95E1F757C09D8744
:103B00008E878D859E850E94111C81117FCF8091AB
:103B10003102816080933102C8010E947E0246C05A
:103B200086E0F50111928A95E9F740C0EE2009F48C
:103B300082CF9D878E878D859E850E94111CF82ED1
:103B4000882309F478CF86E0F801ACE2B2E0019076
:103B50000D928A95E1F780912C0290912D020E949E
:103B600074210E94572222C09D878E878D859E8555
:103B70000E947421292F22952F70223028F49F70E3
:103B800039F0811105C00BC0243028F49F7049F42E
:103B9000805E883020F0C8010E947E029F2CF92CA4
:103BA00005C0F8019581907F99F7F9CF8F2D619627
:103BB0000FB6F894DEBF0FBECDBFDF91CF911F913E
:103BC0000F91FF90EF90DF90CF90BF90AF909F90BC
:103BD000089580E090E00E94291480E090E00E9427
:103BE00013141092700210926F020E94EB20E0EB0F
:103BF000F1E086E0DF011D928A95E9F71092AD01B0
:103C00001092AA01109223020C940C0B10927102D4
:103C100086E0E6E2F2E0DF011D928A95E9F70C9476
:103C2000E91D882341F0809590917102892380934A
:103C300071020C94EB200895882339F09091710261
:103C4000892B809371020C94EB200895882309F44A
:103C500063C0823869F40E943F1481FF5DC069E34C
:103C600084E292E00E944F200E94EB2069E30EC0A4
:103C7000833891F40E943F1480FF4EC063E584E2D4
:103C800092E00E944F200E94EB2063E584E292E0E4
:103C90000E9442200C94EB20843869F40E943F1467
:103CA00082FF3AC067E484E292E00E944F200E94C3
:103CB000EB2067E4EBCF9CEF980F913A10F4682F5C
:103CC000E5CF90E2980F983088F4877021E030E0DB
:103CD000A90102C0440F551F8A95E2F7CA018095D9
:103CE00090917102892380937102D4CF9BE5980F44
:103CF000933020F480E090E00C94291498E5980F1C
:103D0000973120F480E090E00C9413148D3E20F065
:103D10000E94360B0C940C0B0895CF93882309F462
:103D20009EC0C82F8238B1F40E943F1481FD97C015
:103D300069E384E292E00E944F200E94EB202FEF83
:103D400081EE94E0215080409040E1F700C00000F7
:103D500069E317C08338E1F40E943F1480FD7FC0FF
:103D600063E584E292E00E944F200E94EB202FEF57
:103D700081EE94E0215080409040E1F700C00000C7
:103D800063E584E292E00E944220CF910C94EB2004
:103D90008438B1F40E943F1482FD61C067E484E27C
:103DA00092E00E944F200E94EB202FEF81EE94E0E2
:103DB000215080409040E1F700C0000067E4E1CF6F
:103DC0008CEF8C0F813A80F4E6E2F2E08CE292E034
:103DD0002191C217E1F18E179F07D1F76C2F84E272
:103DE00092E00E944F20D1CF80E28C0F883068F49F
:103DF000C77081E090E001C0880FCA95EAF7909102
:103E00007102892B80937102C0CFEBE5EC0FE33098
:103E100040F4F0E0E25BFE4F808190E0CF910C94A3
:103E20002914E8E5EC0FE73150F4F0E0EE0FFF1F46
:103E3000EF5AFE4F80819181CF910C941314CD3EA7
:103E400070F08C2F0E94EF0BCF910C940C0B6C2F09
:103E500084E292E00E9442200E94EB20BFCFCF91EB
:103E6000089580910E02089580E0089522E0209345
:103E7000E9002FEF3091E800215035FD06C035ED07
:103E80003A95F1F700002111F5CF2091E80025FFC8
:103E90000BC040E050E066E070E00E948317809124
:103EA000E8008E778093E8000895CF93DF9321E0B8
:103EB0002093E9002FEF3091E800215035FD06C036
:103EC00035ED3A95F1F700002111F5CF2091E8008A
:103ED00025FF14C0EC0140E050E068E070E00E9473
:103EE00083178091E8008E778093E80088E0FE01D8
:103EF000AFE0B2E001900D928A95E1F7DF91CF91AA
:103F00000895CF93DF9300D01F92CDB7DEB7909185
:103F10001902943019F589837B836A8382E0809348
:103F2000E9008FEF9091E800815095FD06C095ED76
:103F30009A95F1F700008111F5CF8091E80085FF97
:103F40000DC040E050E063E070E0CE0101960E94B9
:103F500083178091E8008E778093E8000F900F9090
:103F60000F90DF91CF91089581E08093E00080E28F
:103F70008093D8001092C9008FE19EE40197F1F779
:103F800000C0000087E090EBDC0180937702909303
:103F90007802A0937902B0937A029CE088E10FB690
:103FA000F894A895809360000FBE90936000FFCFB7
:103FB00078941F920F920FB60F9211248F939F93B4
:103FC000AF93BF938091960190919701A091980132
:103FD000B09199010196A11DB11D80939601909316
:103FE0009701A0939801B0939901BF91AF919F91D0
:103FF0008F910F900FBE0F901F9018959C014FB797
:10400000F8948091960190919701A0919801B091B8
:1040100099014FBF821B930B08952FB7F89480919D
:10402000960190919701A0919801B09199012FBFAD
:1040300008951F920F920FB60F9211248F939F93A2
:10404000AF93BF9380919301811113C0809196012A
:1040500090919701A0919801B09199014196A11D6D
:10406000B11D8093960190939701A0939801B0930E
:104070009901BF91AF919F918F910F900FBE0F90BB
:104080001F9018959C012A5F3F4FFC014281461307
:1040900001C01282019682179307B9F708959C0117
:1040A000FC0132969FEF80E04191461789F09F3FD7
:1040B00019F4411101C0982F8F5F8630A9F79F3FF7
:1040C00039F0F901E90FF11D97FDFA956283089522
:1040D0000895CF9384E090E00E941F23C82F82E2CE
:1040E00090E00E941F232C2F30E0A901582BCA0119
:1040F000CF9108956AEE7EEF80E090E00E94512318
:1041000060E082E090E00E94332360E083E090E092
:104110000E9433231092730210927402109275025F
:104120001092760260E084E090E00E94332360E029
:1041300082E290E00E94332360E085E090E00E94FC
:10414000332360E086E090E00E9433236FEF87E046
:1041500090E00E94332340E050E0BA0188E090E014
:104160000E94452360E08DE090E00E94332340E010
:1041700050E0BA0188E190E00E94452360E087E1C9
:1041800090E00E94332340E050E0BA018CE190E0DF
:104190000E94452360E070E080E290E00E9451239D
:1041A00040E050E0BA0188E190E00E94452340E001
:1041B00050E0BA018FE090E00E94452340E050E0DB
:1041C000BA0183E190E00C94452380917202811141
:1041D0001092720208959091710280917002892B61
:1041E00020916F02982F922B90932402809172025B
:1041F000882389F0892B80932402E6E2F2E097E09D
:1042000080E0915029F021912223D9F38F5FF9CFDB
:1042100081110E94E520E0919101F0919201309787
:1042200031F00280F381E02D84E292E00994089558
:10423000CF93C0918C01C2FB992790F9981781F018
:1042400080FBC2F9C0938C0160918B0184E090E007
:104250000E9433236C2F82E290E0CF910C943323A1
:10426000CF910895BF92CF92DF92EF92FF920F937A
:104270001F93CF93DF938C01C0908701D09088016A
:10428000E0908901F0908A0180917302909174020C
:10429000A0917502B0917602C82AD92AEA2AFB2A8F
:1042A000CFE1D0E0D701C6010C2E04C0B695A7958A
:1042B000979587950A94D2F780FD04C0219790F7CF
:1042C000B12C07C0BC2EB8018C2F0E94050D0197A0
:1042D000A9F38B2DDF91CF911F910F91FF90EF905C
:1042E000DF90CF90BF900895CF93DF93EC010E94B1
:1042F0003221BE010E94050DDF91CF910895292F33
:10430000220F920F890F682F669566956695982FF4
:10431000977085E0689FB001112440E050E080E094
:10432000FB01E40FF51FEC59FD4F208130E0092E11
:1043300002C0369527950A94E2F721703327042EA0
:1043400001C0220F0A94EAF7822B4F5F5F4F45307E
:10435000510531F70895292F220F920F890FE82F69
:10436000E695E695E695877051E001C0550F8A9570
:10437000EAF785E0E89FF0011124EC59FD4F20E0B9
:1043800030E070E04081CB01022E02C09695879507
:104390000A94E2F78170819584278523842781938D
:1043A0002F5F3F4F2530310569F7089560938701EE
:1043B000709388018093890190938A010C94E91D80
:1043C0000F931F9341E050E060E070E004C0440FA1
:1043D000551F661F771F8A95D2F7409550956095B7
:1043E00070958091870190918801A0918901B09189
:1043F0008A018A019B01082319232A233B23C9012F
:10440000B8011F910F910C94D62120916E028095D6
:10441000822380936E02982F977041F430E0482FEA
:10442000082E000C550B2417350721F490918C01B0
:1044300092FF07C08595859585950E94E021109291
:104440006E0208950F931F9341E050E060E070E02A
:1044500004C0440F551F661F771F8A95D2F78091BD
:10446000870190918801A0918901B0918A018A0108
:104470009B01082B192B2A2B3B2BC901B8011F913B
:104480000F910C94D6216093730270937402809301
:104490007502909376020C94E91D809163029091CD
:1044A0003202891719F08F5F8770FBCF08950F9341
:1044B0001F93CF93DF938091310282958F7009F023
:1044C0005DC080912E02882309F458C08091630258
:1044D0001091320260912C0270912D02C0912F0236
:1044E000D091300291E06F3F09F090E0292F06E073
:1044F000811709F443C0209721F07F3F21F030E07D
:1045000003C031E001C0322F90E030FD34C0089F7D
:10451000F001099FF00D1124DF01AD5CBD4F119634
:104520003C911197371327C03C91361324C0129643
:104530003C91129731111FC013964D915C911497C5
:104540004C1B5D0B483C5105B0F4809131028F70DB
:10455000806180933102E85CFD4F80818F708061C3
:1045600080838CE292E00E947E02DF91CF911F91C6
:104570000F910C944D2201968770BACFDF91CF91A5
:104580001F910F9108958F929F92AF92BF92CF92F9
:10459000DF92EF92FF92CF93DF93EC0168817981F4
:1045A0008A819B81611571058105910521F464E281
:1045B00079ED8BE597E02DE133EF41E050E00E948B
:1045C000672349015A019B01AC01A7EAB1E40E94AB
:1045D00086236B017C01ACEEB4EFA50194010E942F
:1045E0009423DC01CB018C0D9D1DAE1DBF1DB7FFBB
:1045F00003C00197A109B04888839983AA83BB832C
:104600009F77DF91CF91FF90EF90DF90CF90BF9099
:10461000AF909F908F9008950E94C322089580E0EC
:1046200091E00E94C3220895A0E0B0E080930001D1
:1046300090930101A0930201B09303010895F999A9
:10464000FECF92BD81BDF89A992780B50895A6E165
:10465000B0E044E050E00C945923A8E1B0E042E01F
:1046600050E00C945923262FF999FECF92BD81BDBD
:10467000F89A019700B4021639F01FBA20BD0FB6A0
:10468000F894FA9AF99A0FBE08950396272F0E947C
:1046900034230E943323252F0E943423242F0C948B
:1046A00034230196272F0E9434230C943323DC01FA
:1046B000CB01FC01F999FECF06C0F2BDE1BDF89A2D
:1046C000319600B40D9241505040B8F70895052E30
:1046D00097FB1EF400940E947E2357FD07D00E9492
:1046E000992307FC03D04EF40C947E2350954095FB
:1046F000309521953F4F4F4F5F4F0895909580958E
:10470000709561957F4F8F4F9F4F08950E94BB23F7
:10471000A59F900DB49F900DA49F800D911D112415
:104720000895B7FF0C9486230E948623821B930B67
:104730000895A1E21A2EAA1BBB1BFD010DC0AA1FE2
:10474000BB1FEE1FFF1FA217B307E407F50720F0FA
:10475000A21BB30BE40BF50B661F771F881F991F75
:104760001A9469F760957095809590959B01AC01BE
:10477000BD01CF010895A29FB001B39FC001A39FC7
:10478000700D811D1124911DB29F700D811D11248A
:10479000911D0895991B79E004C0991F961708F0A0
:1047A000961B881F7A95C9F78095089587FB082E78
:1047B000062687FD819567FD61950E94CA230EF448
:1047C000919507FC81950895AA1BBB1B51E107C079
:1047D000AA1FBB1FA617B70710F0A61BB70B881F91
:1047E000991F5A95A9F780959095BC01CD01089520
:1047F00097FB072E16F4009407D077FD09D00E948E
:10480000E42307FC05D03EF4909581959F4F0895D1
:10481000709561957F4F0895EE0FFF1F0590F491FD
:10482000E02D09940E94BB23332312F48A1B9B0BB7
:104830000C941C240E94BB23B7FF0895821B930B8A
:104840000895FC014150504030F001900616D1F718
:104850003197CF010895882799270895F894FFCFBD
:1048600001000000311F551F361FB40EB00E011994
:104870001A1B1C1D1E1F2021220102010100010222
:104880000202020606060909090909090F0F0F0F9E
:104890000F0F1515151819191919191919191919A9
:1048A0002324252525252525969291F5F4F181824D
:1048B00083E200E900EA00B500B600B700CD00834E
:1048C00001CC008A019201940121022302240225D5
:1048D00002260227022A02B300B4006F0070000013
:00000001FF
