:100000000C9434020C947B020C947B020C947B02C3
:100010000C947B020C947B020C947B020C947B026C
:100020000C947B020C947B020C9450160C948C154F
:100030000C94001B0C947B020C947B020C947B02AE
:100040000C947B020C947B020C947B020C947B023C
:100050000C947B020C94BF1A0C947B020C947B02D0
:100060000C947B020C947B020C947B020C947B021C
:100070000C947B020C947B020C947B020C947B020C
:100080000C947B020C947B020C947B020C947B02FC
:100090000C947B020C947B020C947B020C947B02EC
:1000A0000C947B020C947B020C947B0291069106CB
:1000B000C306C30635075107E808E8085C073A0895
:1000C0004B084B08A513CC136415CC1364151414FA
:1000D0003714641526153915362136214921492151
:1000E0003F214921492149213621362144214921F5
:1000F000492144212B422F003000E1002C001D41FA
:10010000E000E200E3000D61040107014C00520031
:100110000100500051004F000100C35CC45CC65C8C
:10012000C85CCA5CC75CC95CCB5C00047F3F1F64D1
:100130003214643214783C1E1E140A0505010902AB
:10014000A10185020901A10005091901290815006D
:1001500025019508750181020501093009311581D4
:10016000257F95027508810609381581257F95013F
:1001700075088106050C0A38021581257F950175E1
:10018000088106C0C005010980A101850319012A63
:10019000B700150126B700950175108100C0050C48
:1001A0000901A101850419012AA002150126A00256
:1001B000950175108100C005010906A10105071907
:1001C000E029E71500250195087501810295017563
:1001D0000881010507190029FF150026FF00950673
:1001E0007508810005081901290595057501910219
:1001F000950175039101C009023B00020100A0FABC
:10020000090400000103010100092111010001227C
:1002100040000705810308000A09040100010300EA
:100220000000092111010001227B00070582032043
:10023000000A12010002000000084D5909440100A3
:10024000010200010C0359004D0044003000390048
:1002500000000A0359004D0044004B000000040355
:1002600009042223252628292A2C2D2F3032333524
:1002700036383A3B3D3E4042434547494A4C4E5052
:1002800051535557595A5C5E6062646668696B6D7C
:100290006F71737577797B7D7F81838587898A8C80
:1002A0008E90929496989A9C9E9FA1A3A5A7A8AA87
:1002B000ACAEAFB1B3B4B6B8B9BBBCBEBFC1C2C3BC
:1002C000C5C6C7C9CACBCCCDCED0D1D2D2D3D4D556
:1002D000D6D7D7D8D9D9DADADBDBDBDCDCDCDCDC7F
:1002E000DDDDDDDDDCDCDCDCDCDBDBDBDADAD9D957
:1002F000D8D7D7D6D5D4D3D2D2D1D0CECDCCCBCAE5
:10030000C9C7C6C5C3C2C1BFBEBCBBB9B8B6B4B30A
:10031000B1AFAEACAAA8A7A5A3A19F9E9C9A9896A0
:100320009492908E8C8A89878583817F7D7B797773
:100330007573716F6D6B6968666462605E5C5A5953
:1003400057555351504E4C4A4947454342403E3D14
:100350003B3A3836353332302F2D2C2A29282625A2
:100360002322000101010101010101010202020237
:10037000020202020203030303030303030404044F
:100380000404040405050505050606060606070718
:1003900007070708080808090909090A0A0A0B0BD0
:1003A0000B0C0C0C0D0D0D0E0E0E0F0F0F1010116F
:1003B00011111212131314141515161617171818F5
:1003C00019191A1A1B1B1C1D1D1E1E1F202021225D
:1003D00022232424252626272829292A2B2C2D2DA3
:1003E0002E2F30313232333435363738393A3B3CC0
:1003F0003D3E3F404142434445464748494A4C4DB3
:100400004E4F50515354555658595A5B5D5E5F617B
:100410006264656668696B6C6D6F7072737577780E
:100420007A7B7D7E8082838587888A8C8E8F91936C
:100430009596989A9C9EA0A2A3A5A7A9ABADAFB193
:10044000B3B5B7BABCBEC0C2C4C6C9CBCDCFD1D478
:10045000D6D8DBDDDFE2E4E7E9EBEEF0F3F5F8FA1E
:10046000FDFFFFAA7F55400011241FBECFEFDAE049
:10047000DEBFCDBF04B603FE27C080914502909138
:100480004602A0914702B09148028730904BA740A6
:10049000B04BD1F4109245021092460210924702DE
:1004A0001092480214BE84B7877F84BF0FB6F894B9
:1004B000A895809160008861809360001092600030
:1004C0000FBEE0E0F8E3099511E0A0E0B1E0E8ED4F
:1004D000F6E402C005900D92A837B107D9F722E0E3
:1004E000A8E7B1E001C01D92A534B207E1F70E9470
:1004F000310F0C946A230C9400001F93CF93DF9369
:10050000CDB7DEB767970FB6F894DEBF0FBECDBF8D
:100510004B8B5C8B6D8B7E8B8F8B61111092BD0131
:1005200086E09E01235F3F4FD901E82F1D92EA9597
:10053000E9F795E0FE017396D90101900D929A9525
:10054000E1F79C894E895F897B897D879E876F87CC
:10055000598B488BF901DE01179601900D928A950F
:10056000E1F7CE0107960E94900D81113EC086E012
:10057000FE013796DE01119601900D928A95E1F702
:10058000FF81E8856A857B856115710531F0EF3F54
:1005900031F481E0FF3F19F403C081E001C080E045
:1005A00080FD23C02091890130E0C9010196877048
:1005B00099274091BA0150E08417950779F1F983A2
:1005C000EA837D836C8396E0929FD001939FB00D68
:1005D0001124A657BE4FFE01319601900D929A95B7
:1005E000E1F7809389010E94FA0C16E08091BA012C
:1005F000909189018917F9F0189FC001112486573D
:100600009E4F0E94900D8823B1F08091BA0190E036
:100610000196877099278093BA01E8CF0E944D21F7
:10062000109289011092BA01E3E8F1E086E0DF015F
:100630001D928A95E9F767960FB6F894DEBF0FBE54
:10064000CDBFDF91CF911F9108958F929F92AF926E
:10065000BF92CF92DF92EF92FF920F931F93CF93AF
:10066000DF93CDB7DEB72A970FB6F894DEBF0FBE83
:10067000CDBFFC01D080118183819481892B39F019
:100680001F3F39F491E00FEFD01203C003C091E097
:1006900001C090E090FDFFC57F0185E0DE01169668
:1006A00001900D928A95E1F7F70122818E819F8159
:1006B000222349F00E941420082F682F8E819F81E9
:1006C0000E949C2003C00E947020082F812F90E080
:1006D000FC01EE0FFF1FE80FF91F19E0019FE00D6D
:1006E000F11D1124ED0DF11DEE0FFF1FEC50FF4F1A
:1006F00005911491043F2CE5120759F190F4093D3E
:100700008CE51807E9F00A3D9CE51907A1F1083DC1
:10071000ECE51E07B1F506E221EE41EE68ED7CE561
:1007200014C0063FFCE51F0701F1C8F0073F3CE598
:10073000130739F507E225EE46EE67EF7CE505C0C5
:1007400007E225EE45EE69ED7CE5C7010E94881BB6
:100750007FC506E221EE40EE64EF7CE5F6CF07E2CE
:1007600025EE44EE65EF7CE5F0CF06E221EE42EEA9
:1007700066EF7CE5EACF08E221E045EE6AED7CE534
:10078000E4CFF7018281882309F445C11092170252
:100790000430FDE51F0758F40B3F2CE5120760F409
:1007A000C80182509C45449708F01FC105C002361D
:1007B0003DE5130709F019C10E940A0C9093CC0182
:1007C0008093CB0100318CE5180709F4CAC008F00A
:1007D00041C00830ECE51E0709F4A4C0F0F4043071
:1007E0002CE5120709F48CC068F402308CE5180778
:1007F00009F482C003301C4509F0E7C08091CB01A9
:100800008260E1C00630ECE51E0709F483C008F001
:1008100085C08091CB018860D6C00C302CE51207D2
:1008200009F490C068F40A308CE5180709F47EC01A
:1008300008F084C00E944D218091CB018068C3C024
:100840000E30ECE51E0709F481C008F086C08091E7
:10085000CB0194C00D3F2CE5120709F47BC038F59D
:1008600004318CE5180709F49AC058F40231ECE51C
:100870001E0709F47AC008F07EC08091CB018F7BFF
:10088000A2C00B3F2CE51207F1F108F03FC0053183
:100890001C4509F09AC08091CB0182FB222720F9E8
:1008A00091E0922790FB82F990FB83F98CC0013094
:1008B0009DE5190709F467C050F48091CC010F3F02
:1008C000FCE51F07C1F108F05BC08D7F65C00330F8
:1008D0003DE5130709F471C008F46DC002361D45EB
:1008E00009F073C08091CB0184FB222720F991E0AD
:1008F000922790FB84F967C08091CB01816063C02F
:100900008091CB0116C08091CC0116C08091CC01A2
:10091000826042C08091CB01806155C08091CB0143
:10092000806251C08091CB0180644DC08091CB0129
:100930008860846048C0826081602EC08091CB0155
:100940008E7F41C08091CB018D7F3DC08091CB01D6
:10095000877F39C08091CC0114C08091CB018F7EFC
:1009600032C08091CB018F7D2EC00E944D2180919D
:10097000CB018F7728C08091CB01877F8B7F23C0ED
:100980008D7F8E7F09C08091CC01982F90959170BA
:100990008E7F892B90FB81F98093CC0116C00E9439
:1009A0004D218091CB0187FB222720F991E09227EE
:1009B00090FB87F908C061E001C060E08EE090E044
:1009C0000E94812202C08093CB016091CB011091E3
:1009D000CC0184E090E00E948122612F82E290E0CD
:1009E0000E9481220E944D2133C48091BE010631B4
:1009F0002CE5120709F58A7A91E009F490E09093CA
:100A00007A01882311F065E301C069E28BE791E088
:100A10000E94361B0EC006311C4509F026C180918C
:100A20007A01882309F435C465E38BE791E00E94DD
:100A3000291B0E94930C0CC482720D3CECE51E072E
:100A400009F4C2C008F045C0073C2CE5120709F4C0
:100A5000A7C0D8F4043C9CE5190709F497C030F40A
:100A6000033CFCE51F0709F46CC0CEC0053C2CE537
:100A7000120709F490C0063C3CE5130709F0C4C016
:100A800049E55EE162E67EE1A3C00A3C9CE5190708
:100A900009F490C078F4083CFCE51F0709F485C010
:100AA000093C2CE5120709F0AFC04DE45EE161E4BA
:100AB0007EE18EC00B3C3CE5130709F480C00C3C82
:100AC0009CE5190709F0A0C04DEA5CE16EEB7CE102
:100AD0007FC0023DECE51E0709F486C0A0F40F3C80
:100AE0002CE5120709F47AC008F475C0003D8CE5C6
:100AF000180709F476C0013D9CE5190709F084C088
:100B00006EE089E079C0053DECE51E0709F472C08E
:100B100068F4033D2CE5120709F469C0043D3CE587
:100B2000130709F071C061E088E16BC0063D8CE5F8
:100B3000180709F464C00E359DE5190709F488C348
:100B400063C08091100280FF1BC08E7F80931002D3
:100B50006091100270911102809112029091130223
:100B60000E949B1C10923A02EFEFF0E702E0E15086
:100B7000F0400040E1F700C000000E94411C68C343
:100B800081608093100261E086953BC046EA5EE199
:100B90006FEA7EE11DC04FEA5EE166EA7EE118C0C1
:100BA00042E65EE169E57EE113C041E45EE16DE4A9
:100BB0007EE10EC049E25EE165E37EE109C045E306
:100BC0005EE169E27EE104C04EEB5CE16DEA7CE14E
:100BD0000E94251C3DC361E081E013C065E082E016
:100BE0000BC068E086E008C064E18FE005C067E103
:100BF00085E102C062E289E10E94131C29C361E021
:100C000083E20E946B1E24C30B352DE5120741F1D0
:100C100050F401158CE51807A9F00F3D1C4529F586
:100C20000E941B0C15C30C35EDE51E07D9F00D35E0
:100C30001D45D9F48091CC0182FB882780F991E091
:100C4000892711C00E944D210FEF14E32CE00150C1
:100C500010402040E1F700C000000E949B1AF8C23B
:100C600081E001C080E00E94DD0CF70182810081FB
:100C70001181882349F0C8010E941420D82E682FC2
:100C8000C8010E949C2004C0C8010E947020D82E78
:100C9000812F90E0FC01EE0FFF1FE80FF91F19E014
:100CA000D19EE00DF11D1124E00FF11DEE0FFF1F8D
:100CB000EC50FF4F859194910E94700A8C01982E00
:100CC000F701D280A580A2946FE0A6228091BB019B
:100CD0008770B9F0DD20A9F0812F807F803421F06A
:100CE00080E2800F883068F08091CC0182FD09C0DD
:100CF00082E00E94C00C8091BB018770CC24C39419
:100D00008111C12CB12EB2943FE0B3228B2D90E023
:100D10008C30910508F05CC2FC01EA5AFF4F0C943C
:100D20000D23812F807F1F70882311F01295107F73
:100D3000DD20B9F0112309F438C280E2800F883039
:100D400010F0911006C08091BE01182B1093BE01C7
:100D500005C08091BD01182B1093BD010E94930C1A
:100D600024C2802F0E946921112309F431C2005E40
:100D7000083078F1992069F110958091BD01182310
:100D80001093BD0129C0812F807F1F70803211F028
:100D90001295107F992021F0F1E09F16D9F149C0FA
:100DA0008091CC0182FF1BC0DD2069F0112339F056
:100DB0008091BE01182B1093BE010E94930C80E01D
:100DC0000E94C92105C280E00E946921112309F413
:100DD000FFC1812F0E948C0C0E94930CF9C1DD2071
:100DE00081F08091BF01AA2051F001E0A01207C05C
:100DF000182B181709F4ECC11093BF01E9C1812B1E
:100E000010C0AA2021F021E0A21609F4E1C10E943D
:100E1000860C27C0DD2041F035E03A1508F4D8C132
:100E2000812F0E945F21D4C184E08A1508F4D0C1CB
:100E300018C0DD2049F0AA2099F3F701858180FFD1
:100E4000B4C18F708583ECCFAA2059F0093309F023
:100E5000BCC1FFEF17EE23E0F15010402040E1F756
:100E6000B2C1812F0E945821B3C1812F86958695EA
:100E7000837019F0813059F0ABC1DD2019F0C80141
:100E8000937002C080E090E00E94661BA7C1DD2045
:100E900019F0C801937002C080E090E00E94501BDE
:100EA0009DC1802FDD2019F00E949C1F02C00E946E
:100EB000E31E0E94B91E92C1812F837009F069C0A0
:100EC000D1108AC1902F929596959770990F990F8E
:100ED000802F8F70882E912CA12CB12C092E04C04C
:100EE000880C991CAA1CBB1C0A94D2F704FF12C0E0
:100EF0004FE050E060E070E004C0440F551F661FF3
:100F0000771F9A95D2F7DB01CA0180959095A0953D
:100F1000B09503C080E090E0DC0116951695412F56
:100F20004370423019F1C8F40091C0011091C10121
:100F30002091C2013091C301413059F0882999298B
:100F4000AA29BB29BC01CD016023712382239323ED
:100F50000AC0802A912AA22AB32ABC01CD0168299D
:100F600079298A299B290E94172136C18829992924
:100F7000AA29BB290091C0011091C1012091C20191
:100F80003091C301BC01CD016027712782279327CF
:100F9000EACFDD2019F0812F817001C0869588236A
:100FA00009F41AC1902F929596959770990F990F01
:100FB000802F8F70882E912CA12CB12C092E04C06B
:100FC000880C991CAA1CBB1C0A94D2F704FF12C0FF
:100FD0004FE050E060E070E004C0440F551F661F12
:100FE000771F9A95D2F7DB01CA0180959095A0955D
:100FF000B09503C080E090E0DC0116951695412F76
:1010000043704230D9F068F50091C7011091C801D2
:101010002091C9013091CA01413059F0882999299C
:10102000AA29BB29BC01CD0160237123822393230C
:101030001EC0802A912AA22AB32A13C0882999297E
:10104000AA29BB290091C7011091C8012091C901AB
:101050003091CA01BC01CD016027712782279327F7
:1010600006C0BC01CD01682979298A299B290E94E3
:10107000C720B2C01F70DD2039F0812F0E94F620FA
:10108000802F0E945F21A8C0802F0E945821812FAD
:101090000E94D120A1C0802F32EF931609F443C0E3
:1010A000391538F090EF991659F0E1EF9E16B1F12D
:1010B00077C0F3EF9F16F1F124EF921659F170C04B
:1010C000DD2019F134E03A1508F482C01F7181E087
:1010D00090E0A0E0B0E0AC01BD0104C0440F551F9A
:1010E000661F771F1A95D2F78091C7019091C801AA
:1010F000A091C901B091CA018A019B010827192753
:101100002A273B27C901B80129C025E02A1508F480
:101110005FC0DCCF8091CC0182FF23C0DD2029F0AD
:10112000812F8F7130C0DD20D9F3812F8F710E9404
:10113000D1204EC0DD2079F01F7181E090E0A0E069
:10114000B0E0BC01CD0104C0660F771F881F991F56
:101150001A95D2F703C060E070E0CB010E94C7206F
:1011600037C0DD2099F01F71812F0E94F6208091F9
:10117000CC0182FD07C038E0139FC00111248360B9
:101180008093BB01812F0E94F62022C081E00E9443
:10119000C00C81E08A15E0F482E00E94C00C18C007
:1011A000DD2029F0AA2009F4BBCF802F09CEAA2088
:1011B00009F4BBCF893349F49FEFE7EEF3E0915098
:1011C000E040F040E1F700C00000802F0E9469215C
:1011D00088EF8B0D843010F40E947C1BCC20A9F08A
:1011E0008091BB0180FD11C0F70112828595859524
:1011F00085950E94F620C7010E9425038091BB01BE
:101200008595859585950E94D12085E0F701DE01C1
:10121000119601900D928A95E1F789819A810E9439
:1012200070202A8130E0F901EE0FFF1F2E0F3F1FC3
:10123000F90109E0809FE00DF11D11248981E80F7B
:10124000F11DEE0FFF1FEC50FF4F8591949123C0CD
:101250008091BB018770F9F0F70182818823D9F072
:101260008091CC0182FD17C082E02A960FB6F894D7
:10127000DEBF0FBECDBFDF91CF911F910F91FF90C9
:10128000EF90DF90CF90BF90AF909F908F900C9495
:10129000C00C69E2CACB2A960FB6F894DEBF0FBE27
:1012A000CDBFDF91CF911F910F91FF90EF90DF9015
:1012B000CF90BF90AF909F908F90089580E0089559
:1012C0009091CB0192FF0DC0282F2871283019F47E
:1012D000877F846006C0282F2471243011F48B7F0F
:1012E000886093FF0DC0282F2871283119F4877E5C
:1012F000846106C0282F2471243111F48B7E88610B
:101300002091CC0120FF0DC0382F3871383019F4EE
:10131000877F816006C0382F3171313011F48E7FA4
:10132000886021FF0DC0282F2871283119F4877E8D
:10133000816106C0282F2171213111F48E7E8861D0
:1013400094FD877E0895F894E82FE295EF70F0E021
:1013500031A1282F2F7081E090E001C0880F2A95DD
:10136000EAF7982F9095932391A392A1892B82A3BA
:1013700078940895BF92CF92DF92EF92FF920F93ED
:101380001F93CF93DF9300D01F92CDB7DEB71982A2
:101390001A821B820CE411E0BB24B394EE24E39484
:1013A000F12C6E0144E0C40ED11CD8018C918F3F0A
:1013B00009F445C0F894E82FE295EF70F0E021A120
:1013C0008F70A70102C0440F551F8A95E2F7CA012A
:1013D000922F982B91A392A18095892382A3789430
:1013E00000C04FE451E0FE0131963B2D3095DA010B
:1013F0002D91AD012F3F99F0822F82958F7090E053
:10140000DC0190968C9190E02F7002C095958795A5
:101410002A95E2F780FD03C080818B2902C080817C
:10142000832380833196CE16DF0609F7F801808189
:101430008F3F11F00E94A309F0EAFA95F1F7BB0C77
:101440000F5F1F4F41E00F34140709F0AECF43E0A8
:1014500050E0BE016F5F7F4F8DEC91E00E945D23F5
:1014600011E0009709F410E0892B91F089819A81AD
:10147000AB818093CD019093CE01A093CF0181E009
:101480008093C6010E94F41A9093C5018093C40111
:101490008091C6018823B1F08091C4019091C5016B
:1014A0000E94E51A059770F08091CD018093D301D9
:1014B0008091CE018093D4018091CF018093D5019A
:1014C0001092C601812F0F900F900F90DF91CF9156
:1014D0001F910F91FF90EF90DF90CF90BF900895F4
:1014E000CF93DF938238910569F1B0F48133910590
:1014F00009F46FC048F48932910509F465C08A3255
:10150000910509F46BC08AC08533910509F457C071
:1015100089339105B9F082C0833E910571F138F4A9
:10152000803E9105B1F0823E910511F177C0863E73
:101530009105B9F1873E9105C9F1843E910509F005
:101540006DC024C02091CB0120FD53C021FD51C0AE
:1015500065C08091CB0180FD46C08091CC0180FFA9
:1015600048C08091CB0184FD50C183EE90E04FC113
:101570008091CB0182FF3AC0F4CF8091CB0182FDF4
:1015800035C08091CC0180FD34C0EBCF8091CC017F
:1015900081FF35C08091CB0184FD37C187EE90E09B
:1015A00036C18091CB0183FF27C0F4CF8091CB015E
:1015B00083FD22C08091CC0181FD21C0EBCF8091C1
:1015C000CB0185FD1FC021C08091CB0185FD1DC0D1
:1015D00019C08091CB0186FD1BC01DC08091CB013D
:1015E00086FD19C015C089E390E011C182EE90E03C
:1015F0000EC180EE90E00BC186EE90E008C184EE53
:1016000090E005C189E290E002C185E390E0FFC06F
:101610008AE290E0FCC081E390E0F9C0811531E5F9
:10162000930708F069C0811540E59407F0F09C012C
:1016300074E0369527957A95E1F7922F9370482FAD
:10164000437021E030E002C0220F331F4A95E2F7D9
:101650003C68392B982F9F709695969540E2949F01
:10166000C0011124822B932BD2C0883E910568F5CE
:10167000803E910508F0CBC0883A9105B8F4853AD0
:10168000910548F0855AE82FF0E0E55EFE4F808135
:1016900090E09064BCC08130910509F4B3C008F4B7
:1016A000B4C08430910508F4B0C0B1C08F3B91053F
:1016B00008F0ABC0885AE82FF0E0EE0FFF1FE25EA3
:1016C000FE4F808191819464A2C0811520E292072F
:1016D00058F4811531E0930708F099C08D3E9105CB
:1016E00008F493C0906593C0811540E4940708F412
:1016F0008CC09F70906A8BC0811525E5920708F019
:1017000042C0811534E5930728F0982F8827846F0D
:10171000906A7DC0811543E59407B0F09C01237069
:10172000332741E050E002C0440F551F2A95E2F7ED
:10173000282F2695269580E2289F90011124CA0122
:10174000822B932B9A6863C0811522E5920728F4B7
:10175000982F8827816F906A5AC09C012370332785
:1017600041E050E002C0440F551F2A95E2F7282FB0
:101770002695269580E2289F90011124CA01822B8C
:10178000932B9C6844C0EC01811539E59307A8F4BC
:101790008115984528F09C2F8827806F906A37C064
:1017A000C11586E5D80788F58C2F0E9460098F71D6
:1017B00090E0982F882790622AC081152AE5920729
:1017C00090F48C2F8F700E94600994E0D695C79595
:1017D0009A95E1F7CF70D0E0DC2FCC27D0699E013D
:1017E000282BC90114C090568115904270F48D2F9A
:1017F0008F710E946009282F2F71CE019927906266
:10180000922B05C081E090E002C080E090E0DF9183
:10181000CF910895CF9384E090E00E946D22C82F6D
:1018200082E290E00E946D222C2F30E0A901582B1B
:10183000CA01CF91089569EE7EEF80E090E00E94AA
:101840009F2260E082E090E00E94812260E083E0DD
:1018500090E00E9481221092C0011092C10110926A
:10186000C2011092C30160E084E090E00E948122F6
:1018700060E082E290E00E94812260E085E090E0FA
:101880000E94812260E086E090E00E9481226FEF5A
:1018900087E090E00E94812240E050E0BA0188E0B9
:1018A00090E00E94932260E08DE090E00E9481220F
:1018B00040E050E0BA0188E190E00E94932260E0AD
:1018C00087E190E00E94812240E050E0BA018CE183
:1018D00090E00E94932260E070E080E290E00E943D
:1018E0009F2240E050E0BA0188E190E00E949322FC
:1018F00040E050E0BA018FE090E00E94932240E087
:1019000050E0BA0183E190E00C9493228091BF01F2
:1019100081111092BF01089580959091BE01892395
:101920008093BE0108959091BE018091BD01892BE5
:101930002091BC01982F922B90937B018091BF0145
:10194000882389F0892B80937B01EDE7F1E097E014
:1019500080E0915029F021912223D9F38F5FF9CFB4
:1019600081110E94860CE0911A02F0911B023097BF
:1019700031F00280F381E02D8BE791E00994089526
:101980002091BB01809582238093BB01982F977093
:1019900099F430E0482F082E000C550B241735071A
:1019A00059F09091CC0192FD07C08595859585955C
:1019B0000E94D1201092BB010895CF93C091CC0119
:1019C000C2FB992790F9981799F080FBC2F9C09350
:1019D000CC016091CB0184E090E00E9481226C2FC9
:1019E00082E290E00E94812282E0CF910C94C00CB0
:1019F000CF9108958091BA0190918901891719F0CA
:101A00008F5F8770FBCF08950F931F93CF93DF9362
:101A10008091880182958F7009F05DC08091850169
:101A2000882309F458C08091BA011091890160910E
:101A3000830170918401C0918601D091870191E06A
:101A40006F3F09F090E0292F06E0811709F443C0A9
:101A5000209721F07F3F21F030E003C031E001C04A
:101A6000322F90E030FD34C0089FF001099FF00D47
:101A70001124DF01A657BE4F11963C9111973713E1
:101A800027C03C91361324C012963C911297311115
:101A90001FC013964D915C9114974C1B5D0B483CF5
:101AA0005105B0F4809188018F7080618093880126
:101AB000E157FE4F80818F708061808383E891E0E1
:101AC0000E942503DF91CF911F910F910C94FA0C86
:101AD00001968770BACFDF91CF911F910F91089532
:101AE000CF93DF93D82FC92F0E9414202C2F30E0E2
:101AF000F901EE0FFF1F2E0F3F1FF90199E0899F9B
:101B0000E00DF11D1124ED0FF11DEE0FFF1FEC5044
:101B1000FF4F859194910E94700ADF91CF910895B3
:101B20009F92AF92BF92CF92DF92EF92FF920F936C
:101B30001F93CF93DF93CDB7DEB761970FB6F894BD
:101B4000DEBF0FBECDBF8C0185E0F801DE011D9622
:101B500001900D928A95E1F7F801E280909183015E
:101B60006091840140918601509187014115510592
:101B700031F06F3F31F481E09F3F19F403C081E001
:101B800001C080E0F82FF1709F2E80FD1AC1F8018E
:101B900030812181C380D48083E8A82E81E0B82ED3
:101BA000F0908501F601E41BF50BFF2009F4C6C097
:101BB00080918801E83CF10508F091C0482F407FF2
:101BC00009F050C0621311C093130FC0FE2CE11036
:101BD0000CC08F70806180938801C5010E9425032D
:101BE00080918801F801858329C1CD2831F02F3FEC
:101BF00031F481E03F3F19F403C081E001C080E08F
:101C000080FD03C081E08E2502C080E090E0F82FC7
:101C1000F170FF2E80FF1CC08091BA0140918901B4
:101C200056E0841709F4E8C090E0589FF001599FEE
:101C3000F00D1124E657FE4F6181261306C0608126
:101C4000631303C06281E61203C001968770E9CF77
:101C5000FE2CEE2009F4F2C080918801816080930F
:101C6000880149C0621306C0931304C0E11002C08A
:101C7000F80186C0C8010E942121882351F1EE207D
:101C800041F120918801822F82958F7090E0029718
:101C900074F0809183019091840198878F831986D5
:101CA000DB86CA862C87CE0107960E94250386E034
:101CB000F801A3E8B1E001900D928A95E1F70E9446
:101CC000040D0AC06217C9F0C8010E9421218111C8
:101CD0001EC0C8010E942503FF24F394AFC0482F03
:101CE000407F81F783E891E00E94250386E0F501BB
:101CF00011928A95E9F7F12CA1C09313E5CFE11079
:101D0000E3CFF8018583C8010E94250354C0EE206B
:101D100001F320918801822F82958F7090E00297C5
:101D200034F280918301909184019A8389831B828C
:101D3000DD82CC822E83CE010196B7CFE83CF1053F
:101D4000D0F5FE2CEE2029F2621327C0931325C094
:101D50002091880120FD18C0822F82958F70482F16
:101D600050E04115510581F0F80125834F305105B0
:101D700041F08F5F982F9295907F822F8F70892BE3
:101D80008583C8010E94250386E0F801A3E8B1E03D
:101D900001900D928A95E1F751C0C8010E9421215E
:101DA000811185CF80918801816080938801C8016D
:101DB0000E94250343C086E0F50111928A95E9F758
:101DC0003DC0EE2009F485CFC8010E942121F82EE4
:101DD000882309F47ECF86E0F801A3E8B1E0019002
:101DE0000D928A95E1F780918301909184010E9480
:101DF000700D0E94040D22C03D872E878D859E8523
:101E00000E94700D292F22952F70223028F49F7088
:101E100039F0811105C00BC0243028F49F7049F4BB
:101E2000805E883020F0C8010E9425039F2CF92C89
:101E300005C0F8019581907F99F7F9CF8F2D6196B4
:101E40000FB6F894DEBF0FBECDBFDF91CF911F91CB
:101E50000F91FF90EF90DF90CF90BF90AF909F9049
:101E60000895CF93DF93CDB7DEB760970FB6F894A0
:101E7000DEBF0FBECDBF84B7877F84BF0FB6F89497
:101E8000A895809160008861809360001092600046
:101E90000FBE90E080E80FB6F894809361009093B5
:101EA00061000FBE85B7806885BF85B7806885BF34
:101EB0008EE599E090937901809378010E94D01586
:101EC0000E94EF158091E20084608093E200789494
:101ED0008091E8018823A1F01091E9001F70909192
:101EE000EC00892F817090FD80E8182B1092E9009A
:101EF0008091E80083FD0E94BF121F701093E900DB
:101F000082E084BD13E015BD9AEF97BD80936E000B
:101F100086E90E94A30982E90E94A30981E90E943F
:101F2000A30985EF0E94A30984EF0E94A30981EF12
:101F30000E94A309E3EDF1E0DF01212F1D922A9514
:101F4000E9F7EDECF1E0DF011D921A95E9F780E089
:101F500090E00E947B22893E9E4F11F00E941B0C54
:101F600082E090E00E946D228093D7010E940A0CCB
:101F70009093CC018093CB010E94BA09EFE3FCE976
:101F80003197F1F700C000000E94BA098091D30197
:101F900080FF08C06FEF7FEF80E090E00E949F22FB
:101FA0000E949B1A83E090E00E946D22682F70E0EF
:101FB00080E090E00E9417218091D001811136C00D
:101FC00080E090E00E947B22893E9E4F21F00E949B
:101FD0001B0C0E94CF1C88E090E00E947522609349
:101FE00010027093110280931202909313026E7F7D
:101FF00071F40E94CF1C88E090E00E9475226093EB
:1020000010027093110280931202909313020E94A7
:10201000881C10923A028091100280FF04C060E098
:1020200086950E946B1E81E08093D00180E091E054
:1020300090931B0280931A02F8E1EF2EF12CA0E49A
:10204000CA2EDD24D394BB24B3948091E80185305B
:1020500009F073C000E112E18091E801853009F0D8
:1020600057C08091E801843009F43DC010923A02D3
:102070008091D201811116C0B092D20180911002DC
:10208000982F91709093D1018E7F809310022FEF43
:1020900030E742E0215030404040E1F700C000000E
:1020A0000E94411C10921E020FB6F894A895E0926F
:1020B00060000FBEC092600083B7817F846083BFE1
:1020C00083B7816083BF7894889583B78E7F83BF01
:1020D0000FB6F894A89580916000886180936000A5
:1020E000109260000FBE8091E701882309F4B4CFFD
:1020F0000E94BA098091D3018111F5C18091D40168
:102100008111F1C18091D501882309F4A5CFEBC1DC
:102110000E944D210E947C1B1092D2018091D1011E
:10212000882349F08091100281608093100260E062
:1021300086950E946B1E0E942B1C0E94BA09882360
:1021400059F08FB7F89440911F025091200260918E
:102150002102709122028FBFA3EDB1E0E8EDF1E022
:1021600000E010E0302F2D919191922721F180E035
:1021700099249394492D4923D1F08F8338872921BD
:1021800081E009F480E089870E94F41A8160782F49
:102190009B878A874F81588569858B850E947D0240
:1021A000F801E852FE4F80819826908219C08F5F17
:1021B000990C8330F9F60F5F1F4F0330110591F62C
:1021C0008FEF8C878D871E860E94F41A8160782F8E
:1021D000988B8F874C855D856E8588890E947D02EE
:1021E00080913A02882309F493C080913902E091EA
:1021F0001002E695E81BE0933502823059F4F0E0D6
:10220000E85CFE4FE4910E2F10E0E2EA8E2EE9E149
:102210009E2E59C0863059F4F0E0EB5CFE4FE491FD
:102220000E2F10E072E9872E79E1972E4CC089308D
:1022300061F4E695F0E0EE5CFE4FE4910E2F10E0C5
:1022400068E2862E69E1962E3EC08F3061F4E695F5
:10225000F0E0E15DFE4FE4910E2F10E05BEB852E88
:1022600058E1952E30C0853159F4F0E0E45DFE4F21
:10227000E4910E2F10E04DE6842E48E1942E23C009
:102280008831A1F0833249F4EAE2F1E0059114913A
:1022900032E5832E39E1932E16C0843271F404EFB7
:1022A00011E02AEA822E27E1922E0DC008E210E00A
:1022B00094EE892E97E1992E06C000ED17E08BE28F
:1022C000882E87E1982E80913602882361F0109243
:1022D00036020E94F41A90933402809333021092D3
:1022E0003802109237020E94F41AE0913302F09102
:1022F00034028E1B9F0B8F3F9F4750F40E0F1F1F02
:10230000109334020093330283E392E0F4010995C1
:1023100086E0EDE2F2E0DE01119601900D928A95E1
:10232000E1F780902F0290903002009131021091DD
:10233000320210922F02109230021092310210924B
:102340003202811003C0992009F44FC080912B0202
:1023500090912C020E94E51A9C01909127029923EA
:1023600009F4D7C02333310508F43FC09F3F19F06B
:102370009F5F90932702882061F00E947C1F1814B1
:1023800014F09FEF01C091E0899F802D112480936C
:102390002F02992061F00E947C1F191414F09FEF06
:1023A00001C091E0899F802D1124809330023091EB
:1023B0002F023323D1F0209130022223B1F045EBDC
:1023C0003403C0011124992319F090932F0202C005
:1023D000D0922F0235EB2303C0011124992319F069
:1023E0009093300202C0D0923002011103C0112339
:1023F00009F44FC08091290290912A020E94E51AA7
:102400009C0190912602992309F488C02536310554
:1024100008F43FC09F3F19F09F5F9093260200236E
:1024200061F00E945A1F101614F09FEF01C091E056
:10243000899F802D112480933102112361F00E9425
:102440005A1F111614F09FEF01C091E0899F802D53
:10245000112480933202309131023323D1F0209144
:1024600032022223B1F045EB3403C0011124992339
:1024700019F09093310202C0D092310235EB230360
:10248000C0011124992319F09093320202C0D09216
:10249000320280912F0281110BC080913002811194
:1024A00007C080913102811103C0809132028111F5
:1024B0000E94B91E8B829C820D831E8386E0FE01E2
:1024C0003196ADE2B2E001900D928A95E1F70E945B
:1024D0007C1B9091D601891709F4B7CD0E947C1B13
:1024E0008093D601B2CD09BD19BD09B400FEFDCF60
:1024F0008091D8008F7D8093D8008091E000826029
:102500008093E0008091E00081FDFCCF0E944D218E
:10251000A3CD2D32314008F02BCF67CF2D32314083
:1025200008F07ACFB6CFEF92FF920F931F93CF931D
:10253000DF937C018B010E94B619811119C0E7015C
:1025400001151105A1F08091E80085FD0AC0809178
:10255000E8008E778093E8000E94B619882381F303
:1025600007C089918093F10001501109E9CF80E003
:10257000DF91CF911F910F91FF90EF9008951F93DE
:10258000CF93DF93CDB7DEB7AA970FB6F894DEBF2F
:102590000FBECDBFEAEEF1E082EF91E02091F100B5
:1025A00021938E179F07D1F78091EB01833009F4B7
:1025B00061C030F4813071F0823009F49BC0B2C048
:1025C0008A3009F487C08B3009F46CC0893009F077
:1025D000A9C020C08091EA01813A09F0A3C080918E
:1025E000E800877F8093E8008091EE019091EF01F1
:1025F000892B21F468E08EED91E003C060E080E07B
:1026000090E070E00E943D1A8091E8008B77809303
:10261000E80088C08091EA01813209F083C080918E
:10262000EE019091EF01029708F07CC08091E800E4
:10263000877F8093E8008091E80082FD05C080914B
:10264000E8018111F8CF6EC02091F3008091F20073
:1026500090E0922B029731F48091F100813011F0DB
:10266000863021F48091F1008093DD018091E800B3
:102670008B7754C08091EA01813A09F053C0809170
:10268000EE019091EF01892B09F04CC08091E80098
:10269000877F8093E8008091E80080FFFCCF8091E5
:1026A0000C0137C08091EA018132E1F58091EE01A1
:1026B0009091EF01892BB1F58091E800877F80939D
:1026C000E8000E94E9198091EC0180930C010E94BE
:1026D0004D2128C08091EA01813221F58091E800E6
:1026E000877F8093E8000E94E9198091ED01809333
:1026F000DC0118C08091EA01813AA1F48091E800E0
:10270000877F8093E8008091E80080FFFCCF809174
:10271000DC018093F1008091E8008E778093E800DF
:102720000E94E9198091E80083FFCEC18091EA01FF
:102730009091EB01492F50E04A30510508F0C4C197
:10274000FA01EE59FF4F0C940D23803821F08238A6
:1027500009F0BAC108C08091E6019091E701992380
:1027600089F082600FC08091EE018F70873008F091
:10277000ABC18093E9008091EB0085FB882780F94D
:102780001092E9009091E800977F9093E800809381
:10279000F1001092F10065C1282F2D7F09F094C13E
:1027A000882319F0823061F08FC18091EC01813073
:1027B00009F08AC1933009F080E08093E7012EC0D0
:1027C0008091EC0181112AC08091EE018F702FEF72
:1027D000280F263008F078C18093E9002091EB00A3
:1027E00020FF1CC0933021F48091EB00806214C064
:1027F0009091EB0090619093EB0021E030E0A90113
:1028000002C0440F551F8A95E2F74093EA001092E8
:10281000EA008091EB0088608093EB001092E90061
:102820008091E800877F20C181114EC11091EC0199
:102830001F778091E3008078812B8093E300809163
:10284000E800877F8093E8000E94E9198091E80002
:1028500080FFFCCF8091E30080688093E30011113A
:1028600002C082E001C083E08093E8012DC180585E
:10287000823008F029C18091EC019091ED018C3DEE
:1028800053E0950779F583E08A838AE289834FB71D
:10289000F894DE01139620E03EE051E2E32FF0E0F1
:1028A00050935700E49120FF03C0E295EF703F5F23
:1028B000EF708E2F90E0EA3010F0C79601C0C096FE
:1028C0008D939D932F5F243149F74FBF8091E8008E
:1028D000877F8093E8006AE270E0CE0101960E9453
:1028E0003D1AAEC04091EE015091EF01292F3327E0
:1028F00023303105A9F068F42130310509F4F3C023
:102900002230310509F0E0C08BE390E0E7EFF1E021
:1029100044C02132310521F12232310571F1D4C098
:10292000992781309105A1F058F0029709F0CCC0A9
:10293000E4E4F2E0E4918E2F90E0E4E4F2E02AC0D7
:10294000EEE5F2E0E4918E2F90E0EEE5F2E022C0B9
:10295000E2E5F2E0E4918E2F90E0E2E5F2E01AC0C9
:102960004115510509F4C4C04130510509F0ACC00E
:1029700089E090E0E2E2F2E010C04115510509F46F
:10298000BCC04130510509F09FC08BE790E0ECE3FB
:10299000F1E003C0009709F497C02091E800277F79
:1029A0002093E8002091F0013091F1018217930704
:1029B00008F49C0140E02115310589F18091E8017E
:1029C000882309F43DC08530D9F18091E80083FD6A
:1029D00037C08091E80082FD2FC08091E80080FF21
:1029E000EACF4091F3008091F20090E0942B211502
:1029F000310559F08830910540F444914093F1003D
:102A00003196215031090196F2CF41E0089709F043
:102A100040E08091E8008E778093E800CCCF4111B0
:102A2000CDCF0AC08091E801882351F0853041F074
:102A30008091E80083FD04C08091E80082FFF2CF1E
:102A40008091E8008B778093E8003EC08038E1F504
:102A50008091E800877F8093E8008091E90180936E
:102A6000F1008091E8008E778093E8000E94E919D8
:102A70002BC0811129C08091EC019091ED01992723
:102A8000029714F58091E800877F8093E800109109
:102A9000EC011093E9010E94E919111106C080911F
:102AA000E30087FD02C081E001C084E08093E8017B
:102AB00042E061EC81E00E94081A42E261EC82E0AF
:102AC0000E94081A8091E8018091E80083FF1AC0F3
:102AD0008091E800877F8093E8008091EB0080621E
:102AE0008093EB000FC082E190E0E2E3F2E055CF8B
:102AF00089E090E0E9E0F2E050CF80E490E0E7EB9D
:102B0000F1E04BCFAA960FB6F894DEBF0FBECDBF53
:102B1000DF91CF911F9108951F920F920FB60F92E0
:102B200011242F933F934F935F936F937F938F93D2
:102B30009F93AF93BF93CF93DF93EF93FF93C09196
:102B4000E900CF708091EC00D82FD17080FDD0E8E3
:102B50001092E9008091F000877F8093F0007894D4
:102B60000E94BF121092E9008091F000886080936B
:102B7000F000CD2BCF70C093E900FF91EF91DF9172
:102B8000CF91BF91AF919F918F917F916F915F9105
:102B90004F913F912F910F900FBE0F901F9018955E
:102BA000E8EDF0E080818E7F80831092E200109249
:102BB000DA001092E100A0EEB0E08C9181608C937D
:102BC00080818F77808319BCA7EDB0E08C918E7FD8
:102BD0008C9380818F7E80831092DB010895CF9249
:102BE000DF92EF92FF920F931F93CF93DF93C8ED85
:102BF000D0E088818F7E8883E7EDF0E0808181607E
:102C0000808384E082BF81E08093DB0188818E7FB6
:102C1000888302EE10E0F80110821092DA0081EE53
:102C2000C82ED12CF601108288818F778883888105
:102C30008068888388818F7D888319BC1092E80121
:102C40001092E9011092E7011092E60190EEE92E50
:102C5000F12CF70180818B7F80838881816088835C
:102C600042E060E080E00E94081AF60180818E7FD9
:102C70008083F80180818160808380818860808387
:102C8000F70180818E7F8083888180618883DF91D6
:102C9000CF911F910F91FF90EF90DF90CF9008950B
:102CA0001F920F920FB60F9211242F933F934F93C1
:102CB0005F936F937F938F939F93AF93BF93EF93A4
:102CC000FF938091E10082FF09C08091E20082FFC2
:102CD00005C08091E1008B7F8093E1008091DA0054
:102CE00080FF2AC08091D80080FF26C08091DA0042
:102CF0008E7F8093DA008091D90080FF18C080E138
:102D000089BD82E189BD09B400FEFDCF81E08093D9
:102D1000E8018091DB0181110FC00E94D0150E9453
:102D2000EF158091E20084608093E20005C019BC39
:102D30001092E8011092DB018091E10080FF17C042
:102D40008091E20080FF13C08091E2008E7F80932B
:102D5000E2008091E20080618093E2008091D800DF
:102D600080628093D80019BC85E08093E80180914F
:102D7000E10084FF30C08091E20084FF2CC080E13C
:102D800089BD82E189BD09B400FEFDCF8091D800E4
:102D90008F7D8093D8008091E1008F7E8093E10049
:102DA0008091E2008F7E8093E2008091E20081605A
:102DB0008093E2008091E901882311F084E007C04C
:102DC0008091E30087FD02C081E001C083E0809331
:102DD000E8018091E8018091E10083FF27C08091A4
:102DE000E20083FF23C08091E100877F8093E100B0
:102DF00082E08093E8011092E9018091E1008E7FEA
:102E00008093E1008091E2008E7F8093E2008091C8
:102E1000E20080618093E20042E060E080E00E9496
:102E2000081A8091F00088608093F000FF91EF9184
:102E3000BF91AF919F918F917F916F915F914F91D2
:102E40003F912F910F900FBE0F901F9018950895EE
:102E50008091DD01089508958093230270932502E7
:102E6000609324028091E801843001F582E0809330
:102E7000E9008FEF9091E800815095FD06C095ED37
:102E80009A95F1F700008111F5CF8091E80085FF58
:102E90000DC040E050E063E070E083E292E00E9409
:102EA00093128091E8008E778093E8000895BC012A
:102EB00084E00C942C17BC0183E00C942C1722E0C6
:102EC0002093E9002FEF3091E800215035FD06C036
:102ED00035ED3A95F1F700002111F5CF2091E8008A
:102EE00025FF0BC040E050E066E070E00E949312C6
:102EF0008091E8008E778093E8000895CF93DF9368
:102F000021E02093E9002FEF3091E800215035FDBA
:102F100006C035ED3A95F1F700002111F5CF20916B
:102F2000E80025FF14C0EC0140E050E068E070E0EC
:102F30000E9493128091E8008E778093E80088E0E9
:102F4000FE01AEEDB1E001900D928A95E1F7DF91BF
:102F5000CF910895EF92FF920F931F93CF93DF933A
:102F60008C01C5EFD1E0E12CF12CF8018481F4E073
:102F7000EF16F1041CF4882339F002C0811104C05B
:102F80009E014091130202C09E0140E06091120236
:102F9000809111020E94DE1C8FEFE81AF80A239636
:102FA00099E0E916F10409F70E94411CF8018481B7
:102FB00090E00196817099278483DF91CF911F91D2
:102FC0000F91FF90EF9008958F929F92AF92BF92D2
:102FD000CF92DF92EF92FF920F931F93CF93DF93E5
:102FE000EC014C81042F10E09801D8010E941B23B2
:102FF0009B01AC010E9431236B017C01E0E2F0E017
:10300000E01BF10BA5E5B0E09B01AC010E94312370
:103010004B015C019F01DF010E9413239B01AC0166
:103020000E943C239B01AC012C0D3D1D4E1D5F1DDC
:10303000C501B4010E94EB22822FF22E99E2921771
:1030400028F093E0299F900111240DC025E530E080
:10305000281B3109C901880F991F280F391F37FF15
:1030600002C02F5F3F4F35952795122F109595EF92
:10307000C92E91E0D92E00E085E5E82EEF1801FD7C
:1030800002C08E2D01C08F2D9601412F609112023A
:103090000E94DE1C0F5F83E0C80ED11C093079F757
:1030A0000E94411C8C81811102C091E003C08032DA
:1030B00019F49FEF90930F0190910F01890F8C836A
:1030C000DF91CF911F910F91FF90EF90DF90CF9004
:1030D000BF90AF909F908F9008950F931F93CF93C1
:1030E000DF93C5EFD1E0FE01118210821282339688
:1030F00082E0E031F807C1F700E010E08091F301D1
:10310000082E000C990B0817190794F080910E01F6
:10311000082E000C990B8017910754F09E014091E6
:10312000130260911202809111020E94DE1C03C002
:10313000198218821A820F5F1F4F239609301105DA
:10314000E9F60E94411C80910D019091F301980FC6
:103150009093F30120910E01280F20930E01121677
:1031600014F498301CF0819580930D01DF91CF917C
:103170001F910F910895BF92CF92DF92EF92FF922D
:103180000F931F93CF93DF93FC01828180FF03C0D5
:10319000DD24DA9402C0DD24D39405EF11E0C0E011
:1031A000D0E029E0B22EF80111821082128294E060
:1031B000E92EF12CC12C8091F2018C0D8A302CF07B
:1031C0006B2D0E94B522892F02C087FD875F082ED4
:1031D000000C990BC817D90791F4809113028E9DAA
:1031E000A0018F9D500D11245595479555954795F4
:1031F000980160911202809111020E94DE1CCD0C98
:10320000F1E0EF1AF108B9F621960D5F1F4FC930B2
:10321000D10549F60E94411C8091F20191E0D9123A
:1032200006C0811102C088E007C0815005C090E04F
:103230000196BE010E94D7228093F201DF91CF91C7
:103240001F910F91FF90EF90DF90CF90BF90089566
:10325000EF92FF921F93CF93DF93EC0185EFE82E5F
:1032600081E0F82E10E08C8197014091130260916B
:103270001202810F0E94DE1C145E83E0E80EF11C36
:103280001C3F89F70E94411C9A818C8190FF02C0EB
:103290008F5F01C081508C83DF91CF911F91FF9090
:1032A000EF9008950F931F93CF93DF9300D01F9259
:1032B000CDB7DEB78C018091F40181110AC09E0167
:1032C0002F5F3F4F4FEF6FEF0E94DE1C8A8180938C
:1032D000F401F8018481813051F028F0823061F4EA
:1032E0004091F4010AC08091F40140E007C0609170
:1032F000F40140E080E003C040E080E060E00E9434
:10330000771CF801848190E0019663E070E00E94F0
:10331000D72284830F900F900F90DF91CF911F9150
:103320000F910895CF93DF93EC01E0E1F2E0438148
:1033300062818C810E94741D8C818F5F8C83DF91F0
:10334000CF910895CF93DF93EC01EC81F0E0EE593B
:10335000FD4F4491E0E1F2E0628181810E94741DA1
:103360008C818F5F8C83DF91CF9108952091E40051
:103370003091E50095E64091EC00842F817040FF8C
:1033800023C08091E80080FD1DC08091E801882362
:1033900099F0853099F08091EB0085FD11C0409146
:1033A000E4005091E5002417350729F3915011F0FE
:1033B0009A01E1CF84E0089582E0089583E00895C2
:1033C00081E0089580E008954091E80042FFDDCF5C
:1033D00008958091EA0187FF11C08091E80082FD85
:1033E00005C08091E8018111F8CF11C08091E800FB
:1033F0008B770BC08091E801882349F08091E80029
:1034000080FFF8CF8091E8008E778093E8000895E0
:10341000982F973068F59093E900981739F07091DC
:10342000EC002091ED005091F00003C0242F762F86
:1034300050E021FD02C09F5FECCF3091EB003E7F5A
:103440003093EB003091ED003D7F3093ED003091F3
:10345000EB0031603093EB007093EC002093ED00B3
:103460005093F0002091EE0027FDE5CF80E0089515
:103470008F708093E90081E008952091F0013091F0
:10348000F1012617370748F06115710539F42091CD
:10349000E8002E772093E80001C0B901FC0120E08C
:1034A0006115710579F18091E8018823F1F185308A
:1034B000F1F18091E80083FD3CC08091E80082FD3D
:1034C0002EC08091E80080FFEBCF2091F300809127
:1034D000F20090E0922B6115710551F08830910552
:1034E00038F421912093F100615071090196F3CFD6
:1034F00021E0089709F020E08091E8008E77809322
:10350000E800CECF2111CFCF0AC08091E8018823F7
:1035100061F0853061F08091E80083FD0AC0809100
:10352000E80082FFF2CF80E0089582E0089583E012
:10353000089581E0089581E08093E00080E2809327
:10354000D8001092C9008FE19EE40197F1F700C006
:10355000000087E090EBDC018093450290934602E7
:10356000A0934702B09348029CE088E10FB6F8941C
:10357000A895809360000FBE90936000FFCF789471
:103580001F920F920FB60F9211248F939F93AF93B8
:10359000BF9380911F0290912002A0912102B091CF
:1035A00022020196A11DB11D80931F02909320025B
:1035B000A0932102B0932202BF91AF919F918F916E
:1035C0000F900FBE0F901F9018959C014FB7F89465
:1035D00080911F0290912002A0912102B0912202BD
:1035E0004FBF821B930B08952FB7F89480911F0251
:1035F00090912002A0912102B09122022FBF089544
:103600001F920F920FB60F9211248F939F93AF9337
:10361000BF9380911E02811113C080911F0290916F
:103620002002A0912102B09122024196A11DB11D5C
:1036300080931F0290932002A0932102B093220254
:10364000BF91AF919F918F910F900FBE0F901F90E0
:1036500018959C012A5F3F4FFC014281461301C02F
:103660001282019682179307B9F708959C01FC0115
:1036700032969FEF80E04191461789F09F3F19F401
:10368000411101C0982F8F5F8630A9F79F3F39F015
:10369000F901E90FF11D97FDFA95628308950895E8
:1036A00020911C0230911D022817390771F0909368
:1036B0001D0280931C02E0911A02F0911B023097C8
:1036C00021F00084F185E02D0994089520911802DD
:1036D000309119022817390771F0909319028093DD
:1036E0001802E0911A02F0911B02309721F0068037
:1036F000F781E02D09940895E0911A02F0911B02E0
:10370000309721F00190F081E02D099480E0089538
:10371000EF92FF920F93CF93DF93C42FD22FFC0130
:1037200082818823D1F0409317020E94F41A90936B
:1037300016028093150280E28C0F883008F06DC06D
:10374000C77081E001C0880FCA95EAF7DF91CF9179
:103750000F91FF90EF900C945F2180911702481316
:103760004BC080911502909116020E94E51A883C88
:10377000910508F041C0CD17C9F080E28C0F883068
:1037800040F4C77081E001C0880FCA95EAF70E9433
:10379000582180E28D0F883048F481E09D2F97708A
:1037A00001C0880F9A95EAF70E945F21093319F04A
:1037B000E12CF12C03C080E5E82EF12C802F0E9433
:1037C000C921E114F10451F08FE99FE00197F1F76D
:1037D00000C0000091E0E91AF108F3CF802F0E94A9
:1037E000692180E28D0F8830C0F4D77081E001C07C
:1037F000880FDA95EAF70AC080E28C0F883068F407
:10380000C77081E001C0880FCA95EAF7DF91CF91B8
:103810000F91FF90EF900C945821DF91CF910F9171
:10382000FF90EF9008959091100290FF04C096953C
:10383000981740F003C0811105C090E0961710F46E
:103840000C94AF1E61E00C946B1E882311F0FA01FA
:1038500001C0FB01099460911002669570E04BE095
:1038600050E080E191E00E945023892B19F481E01F
:1038700080933A020E94F41A9093340280933302A8
:1038800008958091100280FF0AC06A9A8EB18B7FE2
:103890009EB194602FB7F894E5EFF1E00BC0E5EF2F
:1038A000F1E0118210821282339632E0E031F307A8
:1038B000C1F7EBCF32E0E031F30789F0319148E016
:1038C0009EB9000000C037FF8EB9330F000000C062
:1038D00000C000C08EB900C04A9591F7EBCF2FBF52
:1038E0008FE594E00197F1F700C0000008959091F2
:1038F000100290FF0CC0E5EFF1E08183608342830A
:10390000339692E0E031F907C1F70C94411C089519
:1039100080911002282F269530E02115310519F4E9
:103920008170826005C02532310524F08170886481
:10393000809310020895CF92DF92EF92FF926B0175
:103940007C010E94881CB701A60188E090E0FF90EE
:10395000EF90DF90CF900C949322809114028823F3
:1039600019F081508093140260911002709111023D
:1039700080911202909113020C949B1C809114026E
:10398000833018F48F5F809314026091100270915D
:10399000110280911202909113020C949B1CE0E1A1
:1039A000F2E083E0808311828FEF8283838314822D
:1039B00060817181828193810C949B1CAF92BF9234
:1039C000CF92DF92EF92FF920F931F93CF93DF93EB
:1039D000E82EF62EE901E42FF0E0611106C0EE5961
:1039E000FC4FE4914E2F2E2F71C0062F10E0EE59A0
:1039F000FC4F4491F42FC42ED12C26E0829FC001AD
:103A000011242FEF30E0B9010E94C3225BEA560374
:103A1000C001579F900D11248E0D911D8E0D911D8B
:103A2000582F550F580FD901A01BB10BAC9DC001E9
:103A3000AD9D900DBC9D900D1124E92FF59ED001F8
:103A40001124AB2FBB277901EA1AFB0AEC9CD001A9
:103A5000ED9CB00DFC9CB00D11245901A51AB108C4
:103A6000A09E7001A19EF00CB09EF00C1124EF2CD2
:103A7000FF242E193F092C9D80012D9D100D3C9D8A
:103A8000100D1124212F6230710591F048F4611559
:103A90007105E1F061307105B9F4242F4B2F16C088
:103AA0006430710569F040F06630710579F00CC042
:103AB000242F492FE12F0AC0492FEF2F2B2F06C0AB
:103AC000292FE42F412F02C0292FEB2F4983288370
:103AD000EA83DF91CF911F910F91FF90EF90DF90DC
:103AE000CF90BF90AF900895CF93DF9300D01F92F7
:103AF000CDB7DEB79091100290FF0AC09E012F5FF4
:103B00003F4F0E94DE1C4B8169818A810E94771C95
:103B10000F900F900F90DF91CF9108955F926F9269
:103B20007F928F929F92AF92BF92CF92DF92EF924D
:103B3000FF920F931F93CF93DF9300D01F92CDB7C7
:103B4000DEB7182F762E042F622E9091100290FF70
:103B50006DC0E92FE695AE2FB0E0AE5ABE4F8C9106
:103B6000809339029E7F923061F49E012F5F3F4F18
:103B7000812F0E94DE1C4B8169818A810E94771C03
:103B800043C0823019F4009113023EC0863019F40C
:103B90001091110239C08930D9F38931A9F5E95161
:103BA0008E2F8170582EE695F0E0EE59FB4FA590D0
:103BB000B49085EFC82E81E0D82EE12CF12CBB24E7
:103BC00099E0892E912CAE9CC001AF9C900DBE9CBB
:103BD000900D1124B4010E94C322812F511002C004
:103BE000860F01C0861B9601402F672D0E94DE1CA8
:103BF0008FEFE81AF80A83E0C80ED11C89E0E816B6
:103C0000F10409F70E94411C1093110270921202F4
:103C100000931302662051F060911002709111021E
:103C200080911202909113020E949B1C0F900F90A2
:103C30000F90DF91CF911F910F91FF90EF90DF9048
:103C4000CF90BF90AF909F908F907F906F905F903C
:103C50000895E0E1F2E0438128E0421B08F440E0EF
:103C600021E0628181810C948E1DE0E1F2E04381CC
:103C700028E0420F08F44FEF21E0628181810C942B
:103C80008E1DE0E1F2E0628128E0621B08F460E052
:103C900021E0438181810C948E1DE0E1F2E062819C
:103CA00028E0620F08F46FEF21E0438181810C94DA
:103CB0008E1DE0E1F2E0818121E043816281885044
:103CC0000C948E1DE0E1F2E0818121E0438162816C
:103CD000885F0C948E1D9091100290FF36C09170F9
:103CE000811102C0926006C0853210F0986402C053
:103CF000880F982B90931002662351F06091100268
:103D00007091110280911202909113020E949B1CEB
:103D100060911002669570E04BE050E080E191E028
:103D20000E945023892B19F010923A0202C00E947F
:103D30002B1C81E08093360220E0409113026091B9
:103D40001202809111020C948E1D08958091100230
:103D50008695815009F484E261E00C946B1E809199
:103D6000100286958F5F853208F081E061E00C9447
:103D70006B1E0E94F41A20912F02211104C0209181
:103D80003002222321F090932C0280932B02209169
:103D90003102211104C020913202222321F090939C
:103DA0002A0280932902E0911A02F0911B023097B7
:103DB00049F082E080932D020480F581E02D8DE2B0
:103DC00092E0099408958D3E39F49091300297FF66
:103DD00035C01092300259C08E3E29F490913002C5
:103DE0001916BCF32BC090912F028F3E29F497FF38
:103DF00025C010922F0249C0803F19F41916CCF348
:103E00001DC090913102893F29F41916BCF410921B
:103E100031023BC08A3F19F497FF10C0F8CF8B3FA7
:103E200039F49091320297FF09C0109232022DC0EE
:103E30008C3F21F4909132021916BCF39FE0980F49
:103E4000983080F421E030E0A90102C0440F551FF2
:103E50009A95E2F7CA01809590912E02892380936A
:103E60002E0213C08D3F21F4809128028E7F0BC05B
:103E70008E3F21F4809128028D7F05C08F3F29F469
:103E8000809128028B7F8093280280912F028111DC
:103E900006C080913002811102C0109227028091E9
:103EA0003102811106C080913202811102C010924C
:103EB000260208958091280280FD16C081FD16C05B
:103EC00082FD18C080912602882391F0883290F4F8
:103ED00028E0829FC001112468E270E00E94D7228E
:103EE000862F672B29F007C082E0089584E00895AB
:103EF00081E0089588E008958091280280FD14C033
:103F000081FD14C082FD16C080912702882381F0B4
:103F1000843180F422E3829FC001112464E170E0C7
:103F20000E94D722862F08958CE0089589E1089594
:103F300085E0089582E308958D3E21F40E947C1F60
:103F4000819504C08E3E29F40E947C1F809330022C
:103F500008958F3E21F40E947C1F819504C0803F0C
:103F600029F40E947C1F80932F020895893F19F441
:103F70000E945A1F05C08A3F31F40E945A1F819542
:103F80008093310208958B3F21F40E945A1F81953E
:103F900004C08C3F29F40E945A1F80933202089576
:103FA0009FE0980F983078F421E030E0A90102C03A
:103FB000440F551F9A95E2F7CA0190912E02892B62
:103FC00080932E0208958D3F21F480912802816014
:103FD0000BC08E3F21F480912802826005C08F3F84
:103FE00029F480912802846080932802089580E05B
:103FF00090E00E94661B80E090E00E94501B1092AF
:10400000BD011092BC010E94930CEDE2F2E086E04B
:10401000DF011D928A95E9F710922702109226027D
:10402000109228020C94B91E8F929F92AF92BF9269
:10403000DF92EF92FF920F931F93CF93DF938090C5
:10404000C7019090C801A090C901B090CA014091E9
:10405000C0015091C1016091C2017091C301842AD5
:10406000952AA62AB72ACFE1D0E0292F30E089018E
:10407000000F111F020F131F29E0D22EE82EF12C82
:10408000D501C4010C2E04C0B695A79597958795C8
:104090000A94D2F780FD04C0219790F780E014C005
:1040A000DC9EF001DD9EF00D1124E00FF11FEE0DFE
:1040B000FF1DEE0FFF1FEC50FF4F859194910E9462
:1040C000700A019749F38C2FDF91CF911F910F91C7
:1040D000FF90EF90DF90BF90AF909F908F900895EA
:1040E000292F220F920F890F682F66956695669586
:1040F000982F977085E0689FB001112440E050E050
:1041000080E0FB01E40FF51FE55CFD4F208130E00E
:10411000092E02C0369527950A94E2F721703327BD
:10412000042E01C0220F0A94EAF7822B4F5F5F4FE3
:104130004530510531F70895292F220F920F890F2D
:10414000E82FE695E695E695877051E001C0550F9A
:104150008A95EAF785E0E89FF0011124E55CFD4FC0
:1041600020E030E070E04081CB01022E02C0969545
:1041700087950A94E2F781708195842785238427A7
:1041800081932F5F3F4F2530310569F70895609384
:10419000C7017093C8018093C9019093CA010C9420
:1041A000F71F0F931F9341E050E060E070E004C000
:1041B000440F551F661F771F8A95D2F7409550957B
:1041C000609570958091C7019091C801A091C90137
:1041D000B091CA018A019B01082319232A233B239A
:1041E000C901B8011F910F910C94C7200F931F9321
:1041F00041E050E060E070E004C0440F551F661FCE
:10420000771F8A95D2F78091C7019091C801A0913C
:10421000C901B091CA018A019B01082B192B2A2BD5
:104220003B2BC901B8011F910F910C94C7206093DB
:10423000C0017093C1018093C2019093C3010C949B
:10424000F71FFC01808191810E94700D292F2F7032
:10425000E92FE295EF704E2F50E0FA013297EE30E1
:10426000F105B8F4E459FF4F0C940D23803F99F009
:1042700018F4883E70F40FC0843F59F40CC0883E97
:1042800050F0813F31F407C0822F86958695869540
:10429000089580E0089581E008951092BE0186E0BF
:1042A000EDE7F1E0DF011D928A95E9F70C94F71F25
:1042B000882321F00E948C0C0C94930C0895882381
:1042C00039F09091BE01892B8093BE010C94930C20
:1042D0000895882309F45CC0823869F40E947C1B2D
:1042E00081FF56C069E38BE791E00E94361B0E9474
:1042F000930C69E30EC0833891F40E947C1B80FF0D
:1043000047C063E58BE791E00E94361B0E94930C47
:1043100063E58BE791E00E94291B0C94930C843891
:1043200069F40E947C1B82FF33C067E48BE791E055
:104330000E94361B0E94930C67E4EBCF9CEF980F12
:10434000913A10F4682FE5CF90E2980F983050F42E
:10435000877091E001C0990F8A95EAF7892F0E9432
:104360008C0CDBCF9BE5980F933020F480E090E03D
:104370000C94661B98E5980F973120F480E090E04C
:104380000C94501B8D3E20F00E94E31E0C94B91E2D
:104390000895CF93882309F49EC0C82F8238B1F4C2
:1043A0000E947C1B81FD97C069E38BE791E00E942E
:1043B000361B0E94930C2FEF81EE94E02150804039
:1043C0009040E1F700C0000069E317C08338E1F4D2
:1043D0000E947C1B80FD7FC063E58BE791E00E941B
:1043E000361B0E94930C2FEF81EE94E02150804009
:1043F0009040E1F700C0000063E58BE791E00E9488
:10440000291BCF910C94930C8438B1F40E947C1B2F
:1044100082FD61C067E48BE791E00E94361B0E9439
:10442000930C2FEF81EE94E0215080409040E1F713
:1044300000C0000067E4E1CF8CEF8C0F813A80F47C
:10444000EDE7F1E083E891E02191C217E1F18E17E9
:104450009F07D1F76C2F8BE791E00E94361BD1CFDD
:1044600080E28C0F883068F4C77081E090E001C072
:10447000880FCA95EAF79091BE01892B8093BE01FF
:10448000C0CFEBE5EC0FE33040F4F0E0E55EFE4F2B
:10449000808190E0CF910C94661BE8E5EC0FE7314A
:1044A00050F4F0E0EE0FFF1FE25EFE4F808191813D
:1044B000CF910C94501BCD3E70F08C2F0E949C1F0E
:1044C000CF910C94B91E6C2F8BE791E00E94291BB1
:1044D0000E94930CBFCFCF910895F999FECF92BD62
:1044E00081BDF89A992780B50895A6E1B0E044E02F
:1044F00050E00C94A722A8E1B0E042E050E00C9418
:10450000A722262FF999FECF92BD81BDF89A019777
:1045100000B4021639F01FBA20BD0FB6F894FA9A0B
:10452000F99A0FBE08950396272F0E9482220E94B7
:104530008122252F0E948222242F0C948222019610
:10454000272F0E9482220C948122DC01CB01FC01E6
:10455000F999FECF06C0F2BDE1BDF89A319600B4DC
:104560000D9241505040B8F7089587FB082E06265B
:1045700087FD819567FD61950E9444230EF4919516
:1045800007FC81950895AA1BBB1B51E107C0AA1F18
:10459000BB1FA617B70710F0A61BB70B881F991FE4
:1045A0005A95A9F780959095BC01CD01089597FB88
:1045B000072E16F4009407D077FD09D00E94C3227D
:1045C00007FC05D03EF4909581959F4F0895709516
:1045D00061957F4F0895A1E21A2EAA1BBB1BFD0116
:1045E0000DC0AA1FBB1FEE1FFF1FA217B307E407D2
:1045F000F50720F0A21BB30BE40BF50B661F771F2A
:10460000881F991F1A9469F7609570958095909509
:104610009B01AC01BD01CF010895EE0FFF1F059076
:10462000F491E02D09940E941B23332312F48A1B7A
:104630009B0B0C942C23A29FB001B39FC001A39F9E
:10464000700D811D1124911DB29F700D811D1124CB
:10465000911D08950E941B23B7FF0895821B930BA1
:1046600008950E941B23A59F900DB49F900DA49FB9
:10467000800D911D11240895B7FF0C9431230E94E1
:104680003123821B930B0895991B79E004C0991F75
:10469000961708F0961B881F7A95C9F7809508959C
:1046A000FC014150504030F001900616D1F731978F
:1046B000CF010895882799270895FB01DC0104C0E4
:1046C0008D910190801921F441505040C8F7881B0A
:0846D000990B0895F894FFCF47
:1046D80028177E175F175B17571727170101020165
:1046E80001191A1B1C1D1E1F202122818283E20032
:1046F800E900EA00B500B600B700CD008301CC00A0
:104708008A01920194012102230224022502260231
:1047180027022A02B300B4006F007000969291F548
:10472800F4F1000102020202060606090909090954
:10473800090F0F0F0F0F0F1515151819191919193A
:084748001919191919232400A5
:00000001FF
