:100000000C9491020C94D8020C94D8020C94D8024F
:100010000C94D8020C94D8020C94D8020C94D802F8
:100020000C94D8020C94D8020C94541F0C94101FFA
:100030000C94F1250C94D8020C94D8020C94D8029C
:100040000C94D8020C94D8020C94D8020C94D802C8
:100050000C94D8020C94CD250C94D8020C94D802A0
:100060000C94D8020C94D8020C94D8020C94D802A8
:100070000C94D8020C94D8020C94D8020C94D80298
:100080000C94D8020C94D8020C94D8020C94D80288
:100090000C94D8020C94D8020C94D8020C94D80278
:1000A0000C94D8020C94D8020C94D80205010902D1
:1000B000A10185020901A100050919012905150001
:1000C00025019505750181029501750381010501E1
:1000D000093009311581257F950275088106093897
:1000E0001581257F950175088106050C0A380215D2
:1000F00081257F950175088106C0C005010980A191
:1001000001850319012AB700150126B7009501756D
:10011000108100C0050C0901A101850419012AA064
:1001200002150126A002950175108100C00660FF2E
:100130000961A1010962150026FF0095207508815B
:10014000020963150026FF00952075089102C0057D
:10015000010906A101050719E029E7150025019508
:1001600008750181029501750881010507190029AB
:10017000FF150026FF009506750881000508190186
:100180002905950575019102950175039101C0003E
:100190000101010101010101010202020202020248
:1001A000020203030303030303030404040404041B
:1001B00004050505050506060606060707070707E1
:1001C00008080808090909090A0A0A0B0B0B0C0C94
:1001D0000C0D0D0D0E0E0E0F0F0F10101111111230
:1001E0001213131414151516161717181819191AAF
:1001F0001A1B1B1C1D1D1E1E1F2020212222232412
:1002000024252626272829292A2B2C2D2D2E2F3050
:10021000313232333435363738393A3B3C3D3E3F64
:10022000404142434445464748494A4C4D4E4F5051
:10023000515354555658595A5B5D5E5F616264650F
:100240006668696B6C6D6F7072737577787A7B7D99
:100250007E8082838587888A8C8E8F9193959698ED
:100260009A9C9EA0A2A3A5A7A9ABADAFB1B3B5B709
:10027000BABCBEC0C2C4C6C9CBCDCFD1D4D6D8DBE0
:10028000DDDFE2E4E7E9EBEEF0F3F5F8FAFDFFFF7E
:10029000AA7F55402223252628292A2C2D2F3032AB
:1002A000333536383A3B3D3E4042434547494A4C58
:1002B0004E5051535557595A5C5E60626466686986
:1002C0006B6D6F71737577797B7D7F81838587898E
:1002D0008A8C8E90929496989A9C9E9FA1A3A5A793
:1002E000A8AAACAEAFB1B3B4B6B8B9BBBCBEBFC1BF
:1002F000C2C3C5C6C7C9CACBCCCDCED0D1D2D2D34A
:10030000D4D5D6D7D7D8D9D9DADADBDBDBDCDCDC5D
:10031000DCDCDDDDDDDDDCDCDCDCDCDBDBDBDADA20
:10032000D9D9D8D7D7D6D5D4D3D2D2D1D0CECDCC97
:10033000CBCAC9C7C6C5C3C2C1BFBEBCBBB9B8B6AC
:10034000B4B3B1AFAEACAAA8A7A5A3A19F9E9C9A37
:1003500098969492908E8C8A89878583817F7D7B05
:1003600079777573716F6D6B6968666462605E5CE6
:100370005A5957555351504E4C4A494745434240AC
:100380003E3D3B3A3836353332302F2D2C2A292842
:10039000262523225F00600061005C005D415E0055
:1003A00059005A005B00C45CC95CC35CC55C005C5E
:1003B000C75CC65CCA5CC85C0100010001000100AA
:1003C0000100010001000100010001000100010025
:1003D0000100010001000100010001000000000017
:1003E000000000000000000000000000000000000D
:1003F0007E0F00D4FFFFFFC7000000780000000060
:10040000000000002A2B280000000000000000006F
:100410000000000000000029000000002C1E342015
:10042000212224342627252E362D3738271E1F203B
:100430002122232425263333362E37381F04050680
:100440000708090A0B0C0D0E0F10111213141516C4
:100450001718191A1B1C1D2F3130232D35040506C2
:100460000708090A0B0C0D0E0F10111213141516A4
:100470001718191A1B1C1D2F3130354C32190A0060
:10048000047F3F1F643214643214783C1E1E140A29
:100490000509025B00030100A0FA09040000010342
:1004A000010100092111010001224000070581031B
:1004B00008000A09040100020300000009211101DB
:1004C0000001222200070582032000010705030323
:1004D00020000109040200010300000009211101AC
:1004E00000012281000705840320000A1201100187
:1004F000000000084D5909440100010203010403F2
:10050000300000000C0359004D0044003000390059
:1005100000000A0359004D0044004B000000040392
:10052000090411241FBECFEFDAE0DEBFCDBF04B651
:1005300003FE27C08091850290918602A0918702D8
:10054000B09188028730904BA740B04BD1F4109205
:10055000850210928602109287021092880214BEC1
:1005600084B7877F84BF0FB6F894A8958091600008
:10057000886180936000109260000FBEE0E0F8E3B5
:10058000099522E0A0E9B1E001C01D92A538B207AB
:10059000E1F711E0A0E0B1E0E2E0F0E502C0059093
:1005A0000D92A039B107D9F70E9437200C94A627E5
:1005B0000C940000E8EDF0E080818E7F8083109243
:1005C000E2001092DA001092E100A0EEB0E08C910F
:1005D00081608C9380818F77808319BCA7EDB0E018
:1005E0008C918E7F8C9380818F7E808310926802A5
:1005F00008952091E4003091E50095E6A90120914D
:10060000EC00822F817020FF06C08091E80080FFFF
:1006100006C080E008952091E80022FD1AC0809174
:100620008002882389F0853089F08091EB0085FD78
:100630000FC02091E4003091E50042175307F9F212
:100640009150E1F684E0089582E0089583E00895F2
:1006500081E00895EF92FF920F931F93CF937C0157
:100660008B010E94F902C82F811117C08091E80008
:1006700085FD0BC08091E8008E778093E8000E9492
:10068000F902882399F3C82F08C0F70181917F01EF
:100690008093F1000150110949F78C2FCF911F91E0
:1006A0000F91FF90EF900895CF9320918002243016
:1006B000F9F4C091E900CF703091EC00232F217044
:1006C00030FD20E8C22B22E02093E9002091E800D1
:1006D00020FF0BC050E040E060E270E00E942A037F
:1006E0008091E8008E778093E800CF70C093E90096
:1006F000CF9108958091780287FF13C08091E80020
:1007000082FF06C08091E8008B778093E80004C0E8
:10071000809180028111F2CF089580918002882318
:10072000D9F38091E80080FFF8CF8091E8008E77C0
:10073000ECCF982F9093E900242F762F50E0891763
:1007400031F07091EC002091ED005091F00021FD0E
:1007500007C09F5F973071F78093E90081E00895AB
:100760003091EB003E7F3093EB003091ED003D7F08
:100770003093ED003091EB0031603093EB007093DB
:10078000EC002093ED005093F0002091EE0027FD47
:10079000E0CF80E00895CF92DF92EF92FF920F9327
:1007A0001F93CF93DF93C8EDD0E088818F7E88833D
:1007B000E7EDF0E080818160808384E082BF81E0AA
:1007C0008093680288818E7F888302EE10E0F801B2
:1007D00010821092DA0081EEC82ED12CF601108220
:1007E00088818F77888388818068888388818F7DDE
:1007F000888319BC109280021092770210927602C0
:100800001092750290EEE92EF12CF70180818B7F1A
:10081000808388818160888342E060E080E00E947C
:100820009903F60180818E7F8083F8018081816049
:100830008083808188608083F70180818E7F8083C0
:10084000888180618883DF91CF911F910F91FF9004
:10085000EF90DF90CF900895FC01CB0120917E02B4
:1008600030917F022617370790F0009729F42091E6
:10087000E8002E772093E80040E0009751F4411102
:1008800008C08091E80082FF31C080E00895C9016E
:10089000F3CF209180022223A9F12530A9F12091E4
:1008A000E80023FD2DC02091E80022FDEACF209131
:1008B000E80020FFE2CF3091F3002091F200009792
:1008C00019F02830310558F041E02830310509F0A1
:1008D00040E02091E8002E772093E800CECF4191B0
:1008E0004093F10001972F5F3F4FE9CF8091800245
:1008F000882341F0853041F08091E80083FFC1CF2B
:1009000081E0089582E0089583E00895089580913C
:100910006C02089590915102803F59F480915202E7
:1009200087FF0DC01092520291110BC010924C0221
:1009300008C0813F81F48091520218169CF39923DC
:1009400081F08091530290915402892B09F064C088
:10095000109249020895823F49F497FFF0CF109218
:100960005102809152028111ECCFE0CF833F19F404
:100970001916ACF3E4CF20915302893F29F41216E3
:10098000F4F610925302DBCF8A3F19F427FFD7CF3A
:10099000F8CF209154028B3F29F427FFD0CF10923B
:1009A0005402CDCF8C3F19F41216CCF3C8CF843F3C
:1009B00031F4809150028E7F80935002C0CF853FEA
:1009C00021F4809150028D7FF7CF863F21F48091F2
:1009D00050028B7FF1CF873F21F480915002877FB7
:1009E000EBCF883F21F4809150028F7EE5CF8D3F81
:1009F00031F4809139028E7F80933902A0CF8E3FEF
:100A000021F4809139028D7FF7CF8F3F09F097CF86
:100A1000809139028B7FF0CF08958091390280FD5B
:100A200016C081FD16C082FD16C080914902882340
:100A3000A1F0883280F428E0829FC001112468E28E
:100A400070E00E944626862F672B39F0089582E0D9
:100A5000089584E0089588E0089581E008958091E4
:100A6000390280FD14C081FD14C082FD16C0809142
:100A70004C02882381F0843180F422E3829FC001FC
:100A8000112464E170E00E944626862F08958CE0D0
:100A9000089589E1089585E0089582E30895803FEF
:100AA00031F40E942F058195809352020895813F71
:100AB00019F40E942F05F8CF823F31F40E942F05D0
:100AC0008195809351020895833F19F40E942F0568
:100AD000F8CF893F29F40E940D05809353020895B1
:100AE0008A3F21F40E940D058195F7CF8B3F31F4A9
:100AF0000E940D0581958093540208958C3F19F44E
:100B00000E940D05F8CF843F31F48091500281603E
:100B1000809350020895853F21F4809150028260B5
:100B2000F7CF863F21F4809150028460F1CF873F58
:100B300021F4809150028860EBCF883F21F48091AE
:100B400050028061E5CF8D3F31F4809139028160A0
:100B50008093390208958E3F21F48091390282609A
:100B6000F7CF8F3FB9F7809139028460F1CF9C01B4
:100B70004FB7F8948091640290916502A09166024B
:100B8000B09167024FBF821B930B08952FB7F89463
:100B90008091640290916502A0916602B091670213
:100BA0002FBF08950E94C605209151023091520234
:100BB000232B21F080934D0290934E0220915302FB
:100BC00030915402232B21F080934A0290934B02E0
:100BD000E0914002F0914102309749F082E0809329
:100BE0004F020480F581E02D8FE492E0099408958E
:100BF0008091340281111092340208958091330261
:100C000090913202892B90913102892B809390012F
:100C100090913402992391F0892B8093900120E0E8
:100C200082E991E0FC013081019631112F5F31E0C2
:100C300088399307B9F721110E94F805E091400225
:100C4000F0914102309731F00280F381E02D80E98C
:100C500091E009940895E2E9F1E09191891303C0CC
:100C6000DF0111971C9291E0E839F907B1F7089577
:100C7000A2E9B1E0EFEF90E02D91821751F0EF3F44
:100C800019F4211101C0E92F9F5F9630A9F7EF3FBA
:100C900009F408950E2E000CFF0BE057FE4F8283DF
:100CA0000895292F220FE22FE90FE80F9E2F97704A
:100CB000E695E695E69585E0E89FF0011124EA5D6A
:100CC000FD4F50E040E080E0219130E0092E02C06D
:100CD000369527950A94E2F721703327042E01C038
:100CE000220F0A94EAF7822B4F5F5F4F4530510580
:100CF00059F70895292F220FE22FE90FE80F8E2FC1
:100D0000877041E001C0440F8A95EAF7E695E695C1
:100D1000E69585E0E89FF0011124EA5DFD4F30E0A3
:100D200020E070E05191DF011197CB01022E02C04B
:100D3000969587950A94E2F781708195852784239B
:100D400085278C932F5F3F4F2530310559F7089544
:100D5000809125029091F401981301C008958F5F4E
:100D60008770FACF882341F08095909133028923D0
:100D7000809333020C94FE050895882339F09091F6
:100D80003302892B809333020C94FE050895209141
:100D9000EA013091EB012817390771F09093EB01CC
:100DA0008093EA01E0914002F0914102309721F0F6
:100DB0000084F185E02D099408952091E801309197
:100DC000E9012817390771F09093E9018093E80150
:100DD000E0914002F0914102309721F00680F781C6
:100DE000E02D0994089510923202109231020E946F
:100DF000FE0586E0EFE4F2E0DF011D928A95E9F757
:100E000010924C0210924902109239020E94D205AF
:100E100090E080E00E94DD0690E080E00C94C70640
:100E20006093810270938202809383029093840284
:100E30000C94F306CF93DF9300D000D0CDB7DEB78C
:100E40008091810290918202A0918302B0918402EC
:100E5000AC01BD0146705527662777279C014630B7
:100E600051056105710591F4AD01286029833A832C
:100E70004B835C8369817A818B819C810F900F9079
:100E80000F900F90DF91CF910C941007AD01277F49
:100E9000EDCF0F931F93CF93DF9300D000D0CDB74A
:100EA000DEB741E050E060E070E004C0440F551F41
:100EB000661F771F8A95D2F740955095609570957B
:100EC0008091810290918202A0918302B09184026C
:100ED0008A019B01082319232A233B2309831A83B0
:100EE0002B833C83C901B8010F900F900F900F9096
:100EF000DF91CF911F910F910C94100790913002C8
:100F00008095892380933002282F277071F4282F31
:100F1000082E000C330B9217130639F08595859532
:100F200085950E9449071092300208950F931F93F0
:100F3000CF93DF9300D000D0CDB7DEB741E050E0D3
:100F400060E070E004C0440F551F661F771F8A954C
:100F5000D2F78091810290918202A0918302B09198
:100F600084028A019B01082B192B2A2B3B2B098316
:100F70001A832B833C83C901B8010F900F900F9007
:100F80000F90DF91CF911F910F910C9410076093F8
:100F900035027093360280933702909338020C9496
:100FA000F306E0914002F0914102309721F0019068
:100FB000F081E02D099480E00895882309F459C058
:100FC000823871F40E94D10781FF53C089E30E94E7
:100FD00038060E94FE0589E30E942B060C94FE054C
:100FE000833859F40E94D10780FF43C083E50E94F3
:100FF00038060E94FE0583E5EFCF843859F40E943D
:10100000D10782FF36C087E40E9438060E94FE05A1
:1010100087E4E2CF9CEF980F913AF0F290E2980FBC
:10102000983088F4877021E030E0A90102C0440FB5
:10103000551F8A95E2F7CA01809590913302892362
:1010400080933302CBCF9BE5980F933020F490E050
:1010500080E00C94DD0698E5980F973120F490E03D
:1010600080E00C94C706803F20F00E948A040C9414
:10107000D2050895FA0181110994FB01FDCF8091F9
:101080005C02982F9E7F29F48170826080935C02BD
:1010900008958635E8F381708465F8CF8F929F922A
:1010A000AF92BF92CF92DF92EF92FF920F931F9376
:1010B000CF93DF93D82EC62EE901E42FF0E0E1575D
:1010C000FE4F611113C04491942FE42FE9834883AC
:1010D0009A83DF91CF911F910F91FF90EF90DF9056
:1010E000CF90BF90AF909F908F900895062F10E003
:1010F000E49186E0D89E700111242FEF30E0C70103
:10110000B9010E9432268D2D90E0880F991FF5E5D8
:10111000F69FA001F79F500D1124841B950B982F6B
:10112000990F890FA901401B510BE49FD001E59F46
:10113000B00D11244B2FC89E60011124CD2CDD244D
:101140005901AC18BD08EA9D6001EB9DD00C11243B
:101150009D2D4901881A9108809E5001819EB00CF6
:10116000909EB00C1124AB2CBB242A193B09E29FA2
:101170008001E39F100D112463307105D1F08CEFD5
:10118000E81683E0F80670F461307105B1F0623062
:101190007105B9F08FEFE816F10408F097CF9B2F97
:1011A000412F94CF6430710579F066307105B9F341
:1011B0008DCF4D2D9E2FEB2F89CF4E2FED2D9B2FB9
:1011C00085CF912F4E2FF7CF9E2FE12F7FCF90917C
:1011D0003D0292FF06C0282F28712830F9F4877F3E
:1011E000846093FF06C0282F28712831F1F4877E90
:1011F000846120913E0220FF06C0382F38713830BC
:10120000D9F4877F816021FF06C0282F28712831FB
:10121000D1F4877E816194FD877E0895282F247103
:101220002430F9F68B7F8860DCCF282F247124319D
:1012300001F78B7E8861DDCF382F3171313019F79E
:101240008E7F8860E0CF282F2171213121F78E7E9B
:101250008861E1CFCF93DF9300D00F92CDB7DEB797
:1012600090918002943011F589836A837B839093F7
:10127000E9008FEF9091E800815095FD06C095ED53
:101280009A95F1F700008111F5CF8091E80085FF74
:101290000DC050E040E063E070E0CE0101960E9496
:1012A0002A038091E8008E778093E8000F900F90DA
:1012B0000F90DF91CF910895BC0184E00C942A092E
:1012C000BC0183E00C942A0924E02093E9002FEF6D
:1012D0003091E800215035FD06C035ED3A95F1F723
:1012E00000002111F5CF2091E80025FF0BC050E050
:1012F00040E066E070E00E942A038091E8008E776B
:101300008093E8000895CF93DF93D82FC92F81E011
:101310008093E9008FEF9091E800815095FD06C021
:1013200095ED9A95F1F700008111F5CF8091E800D5
:1013300085FF16C050E040E068E070E08D2F9C2FE4
:101340000E942A038091E8008E778093E80088E06D
:10135000ED2FFC2FADE6B2E001900D928A95E1F7FA
:10136000DF91CF91089581E08093E00080E2809347
:10137000D8001092C9008FE19EE40197F1F700C0F8
:10138000000087E090EBDC01809385029093860259
:10139000A0938702B093880288E19CE00FB6F8948E
:1013A000A895809360000FBE90936000FFCFCF930D
:1013B000C82F882309F48FC08238C1F40E94D10756
:1013C00081FD89C089E30E9438060E94FE052FEF47
:1013D00031EE84E0215030408040E1F700C0000051
:1013E00089E30E942B06CF910C94FE058338A1F46B
:1013F0000E94D10780FD6FC083E50E9438060E94DD
:10140000FE059FEF21EE34E0915020403040E1F79F
:1014100000C0000083E5E5CF8438A1F40E94D10725
:1014200082FD59C087E40E9438060E94FE058FEFB6
:1014300091EE24E0815090402040E1F700C0000090
:1014400087E4CFCF8CEF8C0F813A68F4E2E9F1E0CA
:101450008191C817D1F131E0E839F307C9F78C2F32
:101460000E943806C0CF80E28C0F883068F4C770C5
:1014700021E030E001C0220FCA95EAF780913302E3
:10148000822B80933302AFCF8BE58C0F833038F4FF
:101490002C2F2452330BC901CF910C94DD06E8E5C3
:1014A000EC0FE73150F4F0E0EE0FFF1FE45BFE4F6E
:1014B00080819181CF910C94C706C03F60F08C2F42
:1014C0000E944F05CF910C94D2058C2F0E942B06C1
:1014D0000E94FE05C4CFCF910895CF93C82F0E94DC
:1014E000D709C93349F42FEF87EE93E021508040AC
:1014F0009040E1F700C000008C2FCF910C94DD07E5
:10150000FF920F931F93CF93DF93C42FD22FFC0131
:1015100082818823A9F04093EC010E94C605909334
:10152000E7018093E601C77081E001C0880FCA958A
:10153000EAF7DF91CF911F910F91FF900C94BD06B8
:101540001091EC01141334C08091E6019091E701F1
:101550000E94B705883C910558F5C0E2CD0F1D17D4
:10156000A9F01770FF24F3948F2D01C0880F1A95EE
:10157000EAF70E94B206C83048F48D2F877001C088
:10158000FF0C8A95EAF78F2D0E94BD06802F0E94DE
:101590006D0AC830A0F4D77081E001C0880FDA95D9
:1015A000EAF7DF91CF911F910F91FF900C94B20653
:1015B000C77081E001C0880FCA95EAF7F2CFDF91CA
:1015C000CF911F910F91FF90089580915C0280FD53
:1015D0000AC0EEE9F1E0118210821282339651E0E6
:1015E000E93BF507C1F76A9A3EB13B7F2EB1246013
:1015F0004FB7F8948EE991E0FC010196508168E0C4
:101600002EB9000000C057FF3EB9550F000000C0C2
:1016100000C000C03EB900C06A9591F751E0893B17
:10162000950751F74FBF8FE594E00197F1F700C0A0
:1016300000000895EF92FF921F93CF93DF93EC0188
:101640008EE9E82E81E0F82E10E08C819701409120
:101650005F0260915E02810F0E944E08145E83E07B
:10166000E80EF11C1C3F89F70E94E50A9A818C81E3
:1016700090FF08C08F5F8C83DF91CF911F91FF9007
:10168000EF9008958150F7CFCF92DF92EF92FF92C3
:101690000F931F93CF93DF93FC018281DD24DA94B3
:1016A00080FD02C0DD24D3940EE911E0D0E0C0E05B
:1016B000F80111821082128294E0E92EF12CC12CE3
:1016C00080919B018C0D8A30E4F169E00E94242610
:1016D000892F082E000C990B8C179D0791F480918F
:1016E0005F028E9DA0018F9D500D11245595479549
:1016F00055954795980160915E0280915D020E9428
:101700004E08CD0CF1E0EF1AF108D1F621960D5FED
:101710001F4FC930D10561F60E94E50A80919B01F7
:1017200091E0D91214C0811110C088E080939B0110
:10173000DF91CF911F910F91FF90EF90DF90CF90AD
:10174000089587FFC6CF875FC4CF8150EFCF90E069
:101750000196BE010E944626E9CF0F931F93CF93B7
:10176000DF93CEE9D1E0FE0111821082128233961E
:1017700081E0E93BF807C1F710E000E080919C01AF
:10178000082E000C990B081719078CF18091100195
:10179000082E000C990B801791074CF19E01409187
:1017A0005F0260915E0280915D020E944E080F5FB1
:1017B0001F4F23960930110509F70E94E50A809111
:1017C0000F0190919C01980F90939C012091100122
:1017D000280F20931001121614F498301CF08195F4
:1017E00080930F01DF91CF911F910F91089519827E
:1017F00018821A82DCCFCF92DF92EF92FF920F9382
:101800001F93CF93DF93CDB7DEB72E970FB6F89423
:10181000DEBF0FBECDBF8D879E87AD85BE8514967A
:101820001C91212F30E0D9010E9497279B01AC0128
:101830000E94622769837A838B839C83E0E2F0E0D5
:10184000E11BF109A5E5B0E09B01AC010E94622714
:1018500069877A878B879C879F01DF010E946726B3
:101860009B01AC010E946D276D837E838F839887D7
:101870009B01AC0189819A81AB81BC81280F391F02
:101880004A1F5B1F69857A858B859C850E94752719
:10189000F22E822F90E0A9E2A21708F442C0B3E032
:1018A0002B9F9001112435952795122F10959EE9B5
:1018B000C92E91E0D92E00E085E5E82EEF188E2D97
:1018C00001FD8F2D9601412F60915E020E944E080E
:1018D0000F5FF3E0CF0ED11C093089F70E94E50AB3
:1018E000AD85BE8514969C9181E0992319F09032C4
:1018F00019F48FEF8093110180911101890FED850B
:10190000FE8584832E960FB6F894DEBF0FBECDBF42
:10191000DF91CF911F910F91FF90EF90DF90CF90CB
:10192000089525E530E0F901E81BF90B9F01220F2E
:10193000331F2E0F3F1F37FFB6CF2F5F3F4FB3CF61
:10194000EF92FF920F931F93CF93DF93EC010EE979
:1019500011E0F12CE12C60915E0280915D029C818E
:1019600024E0E216F104FCF49923F9F09801409187
:101970005F020E944E088FEFE81AF80A0D5F1F4FB2
:1019800029E0E216F10439F70E94E50A8C8190E023
:101990000196817099278C83DF91CF911F910F91D0
:1019A000FF90EF900895992309F3980140E0E1CF6B
:1019B00090915C0290FF0CC0EEE9F1E081836083BE
:1019C0004283339691E0E93BF907C1F70C94E50AAD
:1019D00008950F931F93CF93DF9300D00F92CDB74D
:1019E000DEB78C0180919D0181110AC09E012F5F9D
:1019F0003F4F4FEF6FEF0E944E088A8180939D0109
:101A0000F8016481613049F06230F1F080919D010C
:101A100040E0662331F040E019C060919D0140E054
:101A200080E00E94D80CF801848190E0019663E088
:101A300070E00E94462684830F900F900F90DF91F4
:101A4000CF911F910F91089540919D0180E060E03A
:101A5000E8CFCF93DF9300D00F92CDB7DEB7909150
:101A60005C0290FF0AC09E012F5F3F4F0E944E080C
:101A70004B8169818A810E94D80C0F900F900F9042
:101A8000DF91CF910895CF93DF93EC01EC81F0E0EB
:101A9000EC56FD4F4491ECE5F2E0628181810E94B9
:101AA000290D8C818F5F8C83DF91CF910895CF9327
:101AB000DF93EC01ECE5F2E0438162818C810E94CE
:101AC000290D8C818F5F8C83DF91CF9108954F9288
:101AD0005F927F928F929F92AF92BF92CF92DF924E
:101AE000EF92FF920F931F93CF93DF930AE711E0DA
:101AF00030E020E0C0E0EE24E394F12C5DE3A52E7D
:101B000052E0B52ED8018D918D01E82FE295EF704E
:101B1000F0E091A18F70B70101C0660F8A95EAF7D6
:101B2000892F862B81A382A1D62FD0958D2382A3C6
:101B3000B0EABA95F1F7A701022E01C0440F0A944A
:101B4000EAF7942E40958AE3482E82E0582E9DE7CE
:101B5000C92E91E0D92E812CD2017D902D01D60184
:101B60005D916D01852F82958F7090E0DC019096DC
:101B70008C9190E05F7002C0959587955A95E2F739
:101B8000592D572980FF02C0542F5721751631F067
:101B9000C2010197DC015C9388248394A414B504EA
:101BA000D9F681A1D823D1A382A1682B62A3C82929
:101BB0002F5F3F4F2330310509F0A4CFCC2301F133
:101BC00081E080939A010E94C605909399018093C9
:101BD000980180919801909199010E94B70506970C
:101BE00098F080913A028093610280913B02809349
:101BF000620280913C028093630210929A0104C0B9
:101C000080919A018111E5CF8C2FDF91CF911F91A7
:101C10000F91FF90EF90DF90CF90BF90AF909F908B
:101C20008F907F905F904F900895CF9384E090E0E5
:101C30000E94FB26C82F81E290E00E94FB26982F8D
:101C40008C2FCF9108950F931F93CF93DF93C42FC1
:101C5000D0E0CC0FDD1F26E0629FC00DD11D112406
:101C600032E1839FC00DD11D1124CE0186960E94C2
:101C7000FB26082F10E0102F0027CE0187960E9428
:101C8000FB269801282BC901DF91CF911F910F915D
:101C90000895462F672F843030F4733020F443309A
:101CA00010F40C94230E90E080E00895CF93DF931E
:101CB0000E94490EEC01803E910509F46EC060F56A
:101CC0008133910509F4B1C088F48932910509F492
:101CD000A5C08A9709F4B0C0C130D10551F1CE0139
:101CE0000497813A910508F064C023C089339105B7
:101CF00009F44CC08238910509F448C08533910538
:101D000009F485C0883A910508F09DC0853A91058F
:101D100018F3A497D0640DC0843E910509F45CC00B
:101D200060F4823E910509F447C0833E910509F4B1
:101D300048C0CE01DF91CF910895863E910509F408
:101D400056C0873E910509F457C0811522E59207D8
:101D500008F0ACC0811531E5930708F0FCC0883E5F
:101D6000910538F3811540E5940708F083C0C1154B
:101D700080E4D80708F0ECC0CF3FD10511F008F09F
:101D800072C0C03FD105A8F0D065D3CF80913D028D
:101D9000837079F2C0EED0E0CCCF80913D0280FD1F
:101DA00007C190913E0290FFC4CFC3EED0E084FF04
:101DB000C0CFD0E0C0E0BDCF80913D0282FDF5CF25
:101DC000B8CF80913D0282FDF6C090913E0290FD19
:101DD000E1CF84FFAECFEDCF80913E0281FFA9CF4E
:101DE00080913D02C7EED0E084FDE3CFA2CF809189
:101DF0003D0283FDF7CF9DCF80913D0283FDDEC084
:101E000090913E0291FFE5CFC4EED0E092CF809159
:101E10003D0285FF8ECFC9E2D0E08BCF80913D029D
:101E200085FF87CFC5E3D0E084CF80913D0286FF58
:101E300080CFCAE2D0E07DCF80913D0286FF79CF8E
:101E4000C1E3D0E076CF885A9109479708F0B1CF27
:101E5000C85AD0E0CC0FDD1FC45BDE4F0990D8819B
:101E6000C02DD46466CFCE019A9581159F4108F4A8
:101E700060CF9FCFF4E096958795FA95E1F7837050
:101E80002C2F26952695237040E2249F9001112443
:101E9000382B8C2F8370C1E0D0E002C0CC0FDD1F47
:101EA0008A95E2F7C22BD32BDC6843CFC11586E5B8
:101EB000D80730F5C11595E5D90708F060C0C11500
:101EC00024E5D207C0F49C2F969596959E01237029
:101ED0003327C115D34508F043C0C1E0D0E002C0AC
:101EE000CC0FDD1F2A95E2F720E2929FC00111245A
:101EF000C82BD92BD9CFDC2FCC27C46FD06A19CFF0
:101F0000C1153AE5D30788F4C11549E5D40708F0AF
:101F100041C0CE0198558F3F910511F008F049CF8F
:101F2000DC2FCC27C06FD06A04CFCE01905681152C
:101F3000904208F03ECF8D2F8F710E94E70890E00D
:101F4000982F882788279F719C012C2BE90120C09E
:101F5000DF70D06AEECED82FCC27C16FD06AE9CE21
:101F6000C1E0D0E002C0CC0FDD1F2A95E2F730E2DD
:101F7000939FC0011124C82BD92BDA68DACE8C2F9D
:101F80000E94E708C82FD0E0DC2FCC27CC27DF71D8
:101F9000D062CFCE8C2F8F700E94E70834E0D695A8
:101FA000C7953A95E1F7CF70DC2FC82FD069C1CE25
:101FB000C9E3D0E0BECEC2EED0E0BBCEC6EED0E0EC
:101FC000B8CEBF92CF92DF92EF92FF920F931F9302
:101FD000CF93DF938C01C0908102D0908202E09079
:101FE0008302F09084028091350290913602A09194
:101FF0003702B0913802C82AD92AEA2AFB2ACFE14F
:10200000D0E0BC2ED701C6010C2E04C0B695A79512
:10201000979587950A94D2F780FD0EC0219788F78F
:10202000B12C8B2DDF91CF911F910F91FF90EF90ED
:10203000DF90CF90BF900895B8018C2F0E94560E6C
:10204000019761F3EECFCF93DF93D82FC92F0E9472
:10205000E10F6D2F7C2FDF91CF910C94560E0E94D3
:102060002310282F892F8F70392F32953F70903C85
:1020700080F43A30B0F4343020F4323090F480E020
:1020800008953630E1F781E0283E88F0213FB9F726
:102090000EC03C3011F03F3091F7869586958695BD
:1020A000089581E0203F39F018F4283E40F7089564
:1020B000243F29F7FCCF08956F927F928F929F92D1
:1020C000AF92BF92CF92DF92EF92FF920F931F9346
:1020D000CF93DF93D12CC12C3EE3A32EB12CE5018D
:1020E000629736011BC0F70185909490692DC80155
:1020F0000E940F27682DC80101960E940F2722E039
:10210000E20EF11C0E5F1F4FC017D10761F733E0DD
:10211000630E711C2696CA15DB0559F0C301880FA2
:10212000991F9C012C563C4F79018E0106501109D4
:10213000DACFCE0142965C0199E0C90ED11CC437BA
:10214000D10569F6DF91CF911F910F91FF90EF902C
:10215000DF90CF90BF90AF909F908F907F906F90C7
:102160000895CF93DF93CEE6D0E060E0CE010E94E9
:102170000F272196C11584E0D807B9F7DF91CF91D9
:102180000895CF93C82F6FEF811160E282E290E053
:102190000E940F276FEFC11160E183E290E00E947F
:1021A0000F276FEFC11167E084E290E0CF910C94AC
:1021B0000F278F929F92AF92BF92CF92DF92EF92B2
:1021C000FF920F931F93CF93DF93FC01B280A48003
:1021D00081E08483C9EBD1E00EE911E08BE4982E15
:1021E00088248394EE24EA94F12C2BE4C22ED12C83
:1021F000A1101DC01B821A8298014A8169818881C1
:102200000E944E0825960D5F1F4F81E0C63ED807FD
:1022100079F7DF91CF911F910F91FF90EF90DF90B1
:10222000CF90BF90AF909F908F900C94E50A2B8138
:10223000222309F121502B833C81892D821B3111EE
:1022400001C0822F90915F02899FC0011124B601C5
:102250000E9432266A83211104C0332311F01C82AC
:102260009B8222E02B1540F280915D028883809151
:102270005E028983C1CF0E94DE26823091400CF03D
:10228000BBCF82E08B15C0F40E94DE26B7010E940E
:102290004626888322E02B1590F40E94DE262091AA
:1022A0005E022695622F70E00E944626280F298341
:1022B0001A829B828C82A0CF80915D02EACF20910E
:1022C0005E02F5CF6CEE7EEF90E080E00E942D275D
:1022D00060E082E090E00E940F2760E083E090E001
:1022E0000E940F2710923502109236021092370288
:1022F0001092380260E084E090E00E940F2760E0D6
:1023000081E290E00E940F2760E085E090E00E946B
:102310000F2760E086E090E00E940F276FEF87E0D4
:1023200090E00E940F2740E050E0BA0188E090E082
:102330000E94212760E08DE090E00E940F2740E09E
:1023400050E0BA0188E190E00E94212760E087E137
:1023500090E00E940F2740E050E0BA018CE190E04D
:102360000E94212760E080E290E00E940F2740E079
:1023700050E0BA018FE090E00E94212740E050E059
:10238000BA0183E190E00C9421270F931F93CF9320
:10239000DF938B01D82FC92F0E943F08A8016D2F12
:1023A0007C2F88E090E0DF91CF911F910F910C94EA
:1023B00021275F926F927F928F929F92AF92BF92EE
:1023C000CF92DF92EF92FF920F931F93CF93DF9301
:1023D00000D000D000D00F92CDB7DEB7182F762EE8
:1023E000042F622E90915C0290FF2BC0E92FE6959E
:1023F000AE2FB0E0AF5DBE4F8C9180935A029E7FAE
:102400009230A9F59E012F5F3F4F812F0E944E0809
:102410004B8169818A810E94D80C10935D02709271
:102420005E0200935F02662061F080915C029091F1
:102430005D02A0915E02B0915F02BC01CD010E94DD
:10244000C51127960FB6F894DEBF0FBECDBFDF9142
:10245000CF911F910F91FF90EF90DF90CF90BF90A1
:10246000AF909F908F907F906F905F900895823093
:1024700019F400915F02D1CF863019F410915D02FA
:10248000CCCF8930D9F3893141F6E9518E2F817053
:10249000582EE695F0E0E157FD4FA590B490BB248F
:1024A0008EE9E82E81E0F82ED12CC12C99E0892EFE
:1024B000912CC601B4010E943226812F511013C005
:1024C000860F9701402F672D0E944E08CA0CDB1C17
:1024D00093E0E90EF11CA9EBEA16A1E0FA0649F730
:1024E0000E94E50A9ACF861BECCFECE5F2E043812F
:1024F00028E0421B08F440E021E0628181810C94D5
:10250000D911ECE5F2E0438128E0420F08F44FEFE7
:1025100021E0628181810C94D911ECE5F2E06281C5
:1025200028E0621B08F460E021E0438181810C9483
:10253000D911ECE5F2E0628128E0620F08F46FEF58
:1025400021E0438181810C94D911ECE5F2E0818195
:1025500021E04381628188500C94D911ECE5F2E0CE
:10256000818121E043816281885F0C94D911CF93EE
:10257000DF9300D000D0CDB7DEB780916002882312
:1025800019F081508093600280915C0290915D020D
:10259000A0915E02B0915F0289839A83AB83BC8372
:1025A000BC01CD010F900F900F900F90DF91CF9154
:1025B0000C94C511CF93DF9300D000D0CDB7DEB718
:1025C00080916002833018F48F5F80936002809165
:1025D0005C0290915D02A0915E02B0915F028983DE
:1025E0009A83AB83BC83BC01CD010F900F900F90F9
:1025F0000F90DF91CF910C94C511CF93DF9300D052
:1026000000D0CDB7DEB7ECE5F2E083E08083118245
:102610008FEF82838383148280819181A281B38131
:1026200089839A83AB83BC83BC01CD010F900F904B
:102630000F900F90DF91CF910C94C511109233023F
:10264000E2E9F1E086E0DF011D928A95E9F70C945A
:10265000F3061F93CF93DF93CDB7DEB7AA970FB6DC
:10266000F894DEBF0FBECDBF88E792E0FC01019673
:102670002091F100208322E080389207B9F7809101
:102680007902893009F456C0C8F4823009F4B2C026
:10269000833009F481C0813071F18091E80083FFBB
:1026A00035C180917802909179029A3008F02EC15C
:1026B000E92FF0E0E855F84D0C945A268A3009F4D9
:1026C00088C08B3051F780917802813231F7809148
:1026D0007C0290917D02892B01F78091E800877F31
:1026E0008093E8000E947A0380917A0280931C0113
:1026F0000E941E13D2CF80917802813A71F68091A8
:10270000E800877F8093E80080917C0290917D02B1
:10271000892B61F468E08DE692E070E00E942C0461
:102720008091E8008B778093E800B7CF60E090E07D
:1027300080E0F3CF80917802813209F0AECF8091B2
:102740007C0290917D028D7F892B09F0A6CF80912C
:10275000E800877F8093E8008091E80082FF17C03F
:102760009091F3008091F200029729F48091F1009A
:102770008B7F813021F48091F10080936C028091F5
:10278000E8008B778093E8000E947A0386CF8091DF
:1027900080028111E1CF81CF80917802813A09F0E6
:1027A0007CCF80917C0290917D02892B09F075CFBE
:1027B0008091E800877F8093E8008091E80080FFA7
:1027C000FCCF80911C018093F1008091E8008E770E
:1027D000D9CF80917802813209F05FCF8091E800F3
:1027E000877F8093E8000E947A0380917B02809328
:1027F0006B0253CF80917802813A09F04ECF8091DD
:10280000E800877F8093E8008091E80080FFFCCF9C
:1028100080916B02D8CF803899F0823809F076C069
:1028200080917C028F70873008F070C08093E9003F
:102830008091EB0085FB882780F91092E90006C0A3
:102840008091750290917602911182609091E800DA
:10285000977F9093E8008093F1001092F1008091AF
:10286000E8008E77C1C1882309F4AEC1823009F037
:102870004DC080917A028111B2C180917C028F702B
:102880002FEF280F263008F041C08093E9002091F7
:10289000EB0020FFA4C1933031F48091EB00806203
:1028A0008093EB009CC19091EB0090619093EB00C2
:1028B00021E030E001C0220F8A95EAF72093EA0078
:1028C0001092EA008091EB008860EACF81111EC06F
:1028D00010917A021F778091E3008078812B80939A
:1028E000E3008091E800877F8093E8000E947A03EC
:1028F0008091E80080FFFCCF8091E30080688093A6
:10290000E30082E0111183E0809380028091E8006F
:1029100083FF0AC08091E800877F8093E800809160
:10292000EB0080628093EB00AA960FB6F894DEBFAE
:102930000FBECDBFDF91CF911F9108958058823097
:1029400028F740917A0250917B024C3D83E0580772
:10295000A1F583E08A838AE289834FB7F894DE0188
:10296000139620E03EE051E2E32FF0E05093570051
:10297000E49120FF03C0E295EF703F5FEF708E2F70
:1029800090E0EA30C0F0C7968D939D932F5F24317D
:1029900059F74FBF8091E800877F8093E8006AE293
:1029A00070E0CE0101960E942C048091E8008B77A4
:1029B0008093E800ABCFC096E7CF80917C029091E6
:1029C0007D02252F33272330310509F44AC078F5DD
:1029D0002130310509F486C08BE590E0E1E9F4E0AF
:1029E0002230310509F092CF2091E800277F209313
:1029F000E80020917E0230917F028217930708F44D
:102A00009C0140E02115310509F071C041116FC0F2
:102A10008091E80082FDC9CF80918002882329F24D
:102A2000853019F28091E80083FFF2CFBECF2132CA
:102A3000310509F448C02232310509F067CF8330EF
:102A4000910508F063CFFC01EE0FFF1FED57FE4F1D
:102A50000190F081E02D80589E4FDC018C9190E038
:102A600026C0CA019927423031F18330910568F4BC
:102A70000097B1F0019709F049CFE2E1F5E0E49168
:102A80008E2F90E0E2E1F5E012C0039709F03ECF0F
:102A9000EEEFF4E0E4918E2F90E0EEEFF4E007C06B
:102AA000EEE1F5E0E4918E2F90E0EEE1F5E00097A5
:102AB00009F42CCF99CFE4E0F5E0E4918E2F90E07B
:102AC000E4E0F5E0F4CF8330910508F01FCF880FE4
:102AD000991FFC01E757FE4F0190F081E02D89E03E
:102AE00090E082CF82E190E0ECEEF4E07DCF809147
:102AF0008002882309F459CF853009F456CF80919C
:102B0000E80083FD52CF8091E80082FD81CF809163
:102B1000E80080FF77CF9091F3008091F2002115BB
:102B2000310519F08830910550F041E0089709F01F
:102B300040E08091E8008E778093E80063CF449175
:102B40004093F1003196215031090196E8CF803849
:102B500009F0DCCE8091E800877F8093E8008091C7
:102B600077028093F1007BCE8111D0CE10917A0252
:102B7000123008F0CBCE8091E800877F8093E80088
:102B8000109377020E947A03112311F084E005C0AC
:102B90008091E30087FDFACF81E08093800242E0DC
:102BA00061EC81E00E94990342E261EC84E00E94C2
:102BB000990342E261EC82E00E94990342E260ECF8
:102BC00083E00E949903A2CE80917A02813009F0BD
:102BD0009DCE81E0933009F080E0809376021092E0
:102BE000E9008091E800877F8093E8000E947A03E3
:102BF0008DCE60915C02669570E04BE050E084E021
:102C000091E00E94EE26892B19F481E080935B020B
:102C10000E94C60590934402809343020895CF9387
:102C2000DF9300D000D0CDB7DEB790915C0290FF6B
:102C300042C09170811135C0926090935C0266230E
:102C400081F080915C0290915D02A0915E02B09152
:102C50005F0289839A83AB83BC83BC01CD010E9450
:102C6000C51160915C02669570E04BE050E084E035
:102C700091E00E94EE26892BD9F010925B0281E050
:102C80008093460220E040915F0260915E02809155
:102C90005D020F900F900F900F90DF91CF910C94E9
:102CA000D9118B3210F09465C8CF880F982BC5CFFF
:102CB0000E94F915E4CF0F900F900F900F90DF91C5
:102CC000CF910895ECE5F2E080818160808360E03F
:102CD00086950C940F1690915C0296958FEF890F54
:102CE000913009F48AE261E00C940F1680915C0245
:102CF00086958F5F8B3208F081E061E00C940F16AF
:102D000090915C0290FF07C09695981720F0961757
:102D100010F40C94761661E00C940F165F926F928B
:102D20007F928F929F92AF92BF92CF92DF92EF925B
:102D3000FF920F931F93CF93DF93CDB7DEB7299701
:102D40000FB6F894DEBF0FBECDBF7C01DC01139639
:102D50008D919C911497892B39F08C9111969C91AF
:102D600089238F3F09F0E8C529960FB6F894DEBF96
:102D70000FBECDBFDF91CF911F910F91FF90EF90CC
:102D8000DF90CF90BF90AF909F908F907F906F908B
:102D90005F9008950E94E10F182F682F89819A8112
:102DA0000E947A0669817A81812F0E94490E8C01E6
:102DB000F7019281992309F4B3C5980122513F4547
:102DC0002031310508F05DC58FEF93E00E94FB26AE
:102DD00002514EE6842E912C882379F180913002A5
:102DE000877011F2D70112968C91882309F4BCCF19
:102DF00082E029960FB6F894DEBF0FBECDBFDF91FB
:102E0000CF911F910F91FF90EF90DF90CF90BF90E7
:102E1000AF909F908F907F906F905F900C947E0703
:102E20008114F4E09F06D1F2C4010E94FB268111B7
:102E300001C001501FEF811A910A0111F1CF809159
:102E40001D0190911E01A0911F01B0912001898365
:102E50009A83AB83BC83662463943AE0532E840147
:102E60000F5F1F4FC4010E94FB2689831A828823AB
:102E700009F4B4CF9FEF980F933020F58A836982CD
:102E800022E0820E911CC8010E94FB268B838823BE
:102E900009F4A4CF8E010F5F1F4FD8012C9122237C
:102EA000F1F2213009F046C011969C9111971296CB
:102EB0008C91913049F40E5F1F4F0E946D0A0F5F95
:102EC0001F4FEBCF4801E6CF923029F40E5F1F4F22
:102ED0000E94D709F4CF933029F40E5F1F4F0E9450
:102EE000DD07EDCF943019F00F5F1F4FE8CF0E5F75
:102EF0001F4F30E020E0B8016F5F7F4FF801418144
:102F00008053990B8A30910550F021503109B8F265
:102F10008FE99FE00197F1F700C00000F6CF529EC5
:102F2000F001539EF00D11249C012E0F3F1F842FA2
:102F30008B01E1CFE22FF0E0E450FC4F7490822F40
:102F400086958695869590E0FC01E451FC4FA4900F
:102F50002770B12C022E02C0B594A7940A94E2F710
:102F6000A1E0AA22BB24FC01E452FC4FC490D12C66
:102F700002C0D594C7942A95E2F7B1E0CB22DD24B4
:102F8000A114B10419F081EE0E94D709C114D10433
:102F900019F086EE0E94D709872D0E946D0ACD2870
:102FA00019F086EE0E94DD07AB2809F488CF81EE88
:102FB00096CF81E00E9496070E941A070FCF81E00A
:102FC0000E944907F9CF82E0F5CF053F5CE5150780
:102FD00021F1063F6CE5160731F1043F7CE5170748
:102FE00009F06FC407E225EE44EE64EF7CE505C00E
:102FF00006E221EE41EE67ED7CE5C7010E94800A02
:10300000EDCE07E225EE45EE68ED7CE5F6CF06E273
:1030100021EE40EE63EF7CE5F0CF06E221EE42EEDA
:1030200065EF7CE5EACF07E225EE46EE66EF7CE54C
:10303000E4CF08E221E045EE69ED7CE5DECF9801C2
:103040002A5F3C452930310508F44AC40631BCE505
:103050001B0709F0B7C0809133028A7A91E009F426
:1030600090E09093ED018111A9C089E20E94380699
:103070000E94FE05B3CEF801E350FC4580913D026D
:103080008160E331F10590F4EE54F84D0C945A262A
:103090000A5F1C450930110508F032C40B53184D66
:1030A000F8010C945A2680913D02826080933D0283
:1030B00027C480913D028460F9CF80913D028860F1
:1030C000F5CF80913E02816080933E0219C48091C9
:1030D0003E028260F9CF80913D028061E7CF80910E
:1030E0003D028062E3CF80913D028064DFCF0E9489
:1030F0001E1380913D028068D9CF80913D028C6083
:10310000D5CF80913E028360DFCF80913D028E7FDC
:10311000CDCF80913D028D7FC9CF80913D028B7FC5
:10312000C5CF80913D02877FC1CF80913E028E7FC7
:10313000CBCF80913E028D7FC7CF80913D028F7EA5
:10314000B5CF80913D028F7DB1CF80913D028F7BC5
:10315000ADCF0E941E1380913D028F77A7CF809143
:103160003D02837FA3CF80913E028C7FADCF8091C3
:103170003D0282FB992790F921E0922790FB82F98A
:1031800090FB83F993CF80913E02982F9095917098
:103190008E7F892B90FB81F997CF0E941E1390910F
:1031A0003D02892F97FB87F9805880CF61E08EE040
:1031B00090E00E940F27A4C360E0F9CF85E356CFCB
:1031C00085E3D6C3809133028272F801E25CFC454C
:1031D000E431F10508F082C0E253F84D0C945A2610
:1031E00080915C0280FF21C08E7F80935C02009101
:1031F0005C0210915D0220915E0230915F020E83AD
:103200001F8328873987C901B8010E94C511109210
:103210005B021FEF20E732E0115020403040E1F721
:1032200000C000000E94E50AD9CD816080935C0255
:1032300061E086950E940F16D1CD4BE656E166E718
:1032400076E10E943A08CACD46E756E16BE676E1A0
:10325000F8CF45EA52E16EEA72E1F3CF4EEA52E16D
:1032600065EA72E1EECF4DE852E169E972E1E9CF3A
:1032700049E952E16DE872E1E4CF45E752E161E8E6
:1032800072E1DFCF41E852E165E772E1DACF47EB67
:1032900052E16AED72E1D5CF4AED52E167EB72E19E
:1032A000D0CF61E081E0C6CF65E082E00E94801669
:1032B00095CD68E086E0FACF6EE089E0F7CF64E173
:1032C0008FE0F4CF67E185E1F1CF61E088E1B2CF33
:1032D00062E289E1EBCF61E083E2ACCF992349F070
:1032E00001154CE5140709F449C00E3D1C4509F4CD
:1032F00052C0F701C080D180992309F44FC0C601A4
:103300000E94E10F182F682FC6010E947A06B601AD
:10331000812F0E94560E8C01882ED70115967C9025
:10332000159772942FE0722212969C909110109231
:10333000320280913002877099F0992089F0812FB4
:10334000807F803421F080E2800F883048F082E076
:103350000E947E07809130028770BB24B394811154
:10336000B12C812F82958F70C82ED12C8C3008F013
:103370004FC0F601EE51F84D0C945A260E941E13D0
:103380006FEF74E38CE0615070408040E1F700C063
:1033900000000E94B3090E94621120CDC6010E9464
:1033A0005106182FB4CFB12FBF70AB2E107F19F07C
:1033B000A29490EFA922802F9920C9F0AA2069F049
:1033C00090E2900F983010F001110BC08091330201
:1033D000A82AA09233020E94FE05802F0E94D709DE
:1033E00017C080913202A82AA0923202F4CF0E9424
:1033F000DD07AA2069F0A094005E083010F081106B
:103400003DC080913302A822A09233020E94FE05A3
:10341000A8E0CA1AD108B4E0CB16D10410F40E9477
:10342000D107BB2009F4A0CC8091300280FD9CCC58
:10343000F70112828595859585950E949607C701AB
:103440000E948E16809130028595859585952996E6
:103450000FB6F894DEBF0FBECDBFDF91CF911F91A5
:103460000F91FF90EF90DF90CF90BF90AF909F9023
:103470008F907F906F905F900C94490780913202FB
:10348000A822A0923202C2CFE12FEF70AE2E107FA1
:10349000103219F0A29480EFA822882089F0F1E080
:1034A0008F1679F19920D1F1772089F1D7011596FE
:1034B0008C91159780FF91CF8F7015968C9327C0B4
:1034C000992091F0909134028A2D892B711003C0BC
:1034D0000E94BD069DCF01E07012FACF981709F443
:1034E00097CF8093340294CF711006C00E94F805E4
:1034F0008A2D0E94B2068CCF11E0711609F488CF94
:10350000F5CF992031F025E0271508F481CF8A2DD9
:10351000DFCF34E0371508F47BCFEACF772041F3D3
:10352000093349F4BFEFE7EEF3E0B150E040F0407B
:10353000E1F700C00000802F0E94DD0769CF812FD6
:1035400086958695837061F0813009F061CFC8015E
:103550009370911002C090E080E00E94C70658CF9F
:10356000C8019370911002C090E080E00E94DD06D7
:103570004FCF802F992029F00E944F050E94D2053D
:1035800047CF0E948A04FACF812F837009F072C05E
:1035900091103ECF202F229526952770220F220FC3
:1035A000402F4F7050E070E060E0022E04C0440FE6
:1035B000551F661F771F0A94D2F780E090E0DC0168
:1035C00004FF0FC08FE090E0A0E0B0E004C0880FDF
:1035D000991FAA1FBB1F2A95D2F780959095A09599
:1035E000B095E12FE695E695E370E23051F1E330D6
:1035F00009F1009135021091360220913702309185
:103600003802E13099F0842B952BA62BB72BAC0117
:10361000BD0140235123622373234E835F83688758
:103620007987CB01BA010E94C707F2CE402B512BFC
:10363000622B732B8A019B01082B192B2A2B3B2B06
:1036400012C0842B952BA62BB72B4091350250919D
:10365000360260913702709138028C019D01042777
:103660001527262737270E831F8328873987C90107
:10367000B801D9CF8695992011F0812F81708823C8
:1036800009F4C6CE202F229526952770220F220FEF
:10369000402F4F7050E070E060E0022E04C0440FF5
:1036A000551F661F771F0A94D2F780E090E0DC0177
:1036B00004FF0FC08FE090E0A0E0B0E004C0880FEE
:1036C000991FAA1FBB1F2A95D2F780959095A095A8
:1036D000B095E12FE695E695E370E23081F1E330B5
:1036E000F9F00091810210918202209183023091C1
:1036F0008402E13089F0842B952BA62BB72BAC01EB
:10370000BD0140235123622373234E835F83688767
:103710007987CB01BA0110C0402B512B622B732B40
:103720008A019B01082B192B2A2B3B2B0E831F830D
:1037300028873987C901B8010E94100769CE842BF8
:10374000952BA62BB72B409181025091820260915C
:103750008302709184028C019D010427152726277E
:103760003727E4CF1F70992029F0812F0E949607F8
:10377000802FAECE802F0E94B206812F0E94490773
:1037800047CE802F22EF821609F446C0281570F02C
:1037900030EF831609F141EF8416B1F1992009F455
:1037A00060C071101ACE812F8F7133C053EF851610
:1037B000C1F164EF8612F2CF992009F447C01F715E
:1037C000812F0E94960758E0159FC0011124836045
:1037D00080933002812F1DC0992089F074E0771505
:1037E00008F416CE1F7181E090E0A0E0B0E004C0C4
:1037F000880F991FAA1FBB1F1A95D2F7A4CF25E0E7
:10380000271508F405CEEECF812F8F71992009F48A
:10381000B5CF0E949607FCCD812F8F719920C9F3F7
:10382000ADCF60E070E0CB01992009F485CF1F7126
:1038300081E090E0A0E0B0E0AC01BD0104C0440F25
:10384000551F661F771F1A95D2F75FCF81E00E9440
:103850007E0761E0671508F0DBCD82E00E947E07FD
:10386000D7CD772059F0893309F065CE7FEF87EE09
:1038700093E0715080409040E1F75BCE812F8F71D3
:103880007DCF0031FFE51F0709F493CB01312FE510
:10389000120709F498CB033FECE51E0709F4B7CBF8
:1038A00008F093CB083D2CE5120709F4AACB093D9B
:1038B0003CE5130709F4BDCB073D4CE5140709F4BB
:1038C00097CB992309F44BC01092EC0106318CE59B
:1038D000180708F0B4CB0230ACE51A0708F472CC34
:1038E0000E94150E90933E0280933D020631BCE586
:1038F0001B0708F0CDCB0230ECE51E0708F0BBCB70
:1039000060913D0210913E0284E090E00E940F27FA
:10391000612F81E290E00E940F270E941E135ECA71
:1039200000313FE5130709F44ACB01314FE5140795
:1039300009F0B1CF82E044CB85E0F701DE011196BA
:1039400001900D928A95E1F7D70112962C91898109
:103950009A8121111FCA0E945106182F23CA0631CD
:103960001C4509F0C6CC8091ED01811129CC89E27A
:103970000E942B067DCB1F93CF93DF938091F301A1
:10398000807FA9F48091F001882389F0809125023D
:10399000D091F4016091EE017091EF01A091F101DD
:1039A000B091F201C62FC72316E0D81304C0DF91EF
:1039B000CF911F91089590E0109711F0CF3F19F427
:1039C00001968770F2CF189F9001199F300D112436
:1039D000F901EB50FE4F41814713F2CF408146136E
:1039E000EFCF42814111ECCF438154814A1B5B0BE5
:1039F000483C510528F78091F3018F7080618093D6
:103A0000F301F901E650FE4F80818F708061808361
:103A10008EEE91E00E948E16DF91CF911F910C9453
:103A2000A806AF92BF92CF92DF92EF92FF920F93D0
:103A30001F93CF93DF93CDB7DEB72B970FB6F894D4
:103A4000DEBF0FBECDBF8C0185E0F801DE01179609
:103A500001900D928A95E1F7F80180819181E280D1
:103A60002EEEA22E21E0B22E6091F1017091F201B2
:103A70006115710509F421C13091EE014091EF010A
:103A8000242F23232F3F09F418C1C380D480F09042
:103A9000F001F601E61BF70BFF2009F4DFC02091CF
:103AA000F301522F507FE83CF10508F0BAC05111E4
:103AB00077C0FE2C491321C038131FC0E1101DC070
:103AC0002F7020612093F301C5010E948E16809112
:103AD000F301F80185838F2D2B960FB6F894DEBF86
:103AE0000FBECDBFDF91CF911F910F91FF90EF904F
:103AF000DF90CF90BF90AF900895CD2829F0282F68
:103B000029232F3F09F0F7C020E0F22FF170DF2EBC
:103B1000E09125024091F40156E020FD1CC0EE200A
:103B2000D1F28091F30181608093F301F12CD3CF26
:103B30002E2F30E05E9FF0011124EB50FE4F61818B
:103B4000961306C06081861303C06281E612E7CF38
:103B5000F9013196E770E413EBCF8F8398878F815B
:103B600098850E942310292F22952F70903260F0A3
:103B7000225F2F70223078F49F7051F0F801958108
:103B8000907F31F4D12C0AC09F7011F08823D1F3BB
:103B9000805E8830B8F3C8010E948E16FD2C9BCF42
:103BA000491312C0381310C0E1100EC0F80125836C
:103BB000C8010E948E1686E0F801AEEEB1E00190D9
:103BC0000D928A95E1F787CF8F8398878F819885AB
:103BD0000E942F10882309F1EE20F9F08091F30163
:103BE000803270F02091EE013091EF013A83298309
:103BF0001B82DD82CC828E83CE0101960E948E16BE
:103C000086E0F801AEEEB1E001900D928A95E1F701
:103C10000E94BB1CFF24F3945ECFC8010E948E1645
:103C2000F9CF51110AC08EEE91E00E948E1686E007
:103C3000F50111928A95E9F779CF4913C5CF381369
:103C4000C3CFE110C1CFF8012583C8010E948E16B1
:103C500086E0F50111928A95E9F73DCFE83CF10540
:103C6000B8F7FE2CEE20C9F2491316C0381314C061
:103C70008091F30180FD9FCF982F907F09F49BCF17
:103C8000F8018583903F09F493CF982F907F905F40
:103C90008F70892B85838CCF8F8398878F819885B0
:103CA0000E942F108111ACCF8091F301816080932D
:103CB000F301C8010E948E160ECFEE2009F4ADCF9D
:103CC0008F8398878F8198850E942F10F82E8823E4
:103CD00009F4A3CF86E0F801AEEEB1E001900D92B9
:103CE0008A95E1F78091EE019091EF010E942310F7
:103CF0000E94BB1CF0CE21E02E2507CF1F93CF934F
:103D0000DF93CDB7DEB767970FB6F894DEBF0FBE6F
:103D1000CDBF4B8B5C8B6D8B7E8B8F8B1A8A85E036
:103D2000FE017396DE011D9601900D928A95E1F7D2
:103D300086E0FE013D96DE01179601900D928A9570
:103D4000E1F7CE0107960E94111D882389F016E045
:103D5000809125029091F40189134FC067960FB6A8
:103D6000F894DEBF0FBECDBFDF91CF911F910895B4
:103D700086E0FE013796DE01119601900D928A953C
:103D8000E1F74A855B854115510509F37F81688517
:103D9000862F87238F3FD9F22091F40130E0C901AB
:103DA000019687709927E0912502E817190671F4AA
:103DB0000E941E131092F4011092250286E0EEEE8E
:103DC000F1E0DF011D928A95E9F7C1CF79836A831B
:103DD0005D834C8396E0929FD001939FB00D112498
:103DE000AB50BE4FFE01319601900D929A95E1F7CE
:103DF0008093F4010E94A806AACF819FC0011124DC
:103E00008B509E4F0E94111D882309F4A7CF8091EB
:103E1000250290E00196877099278093250298CF1C
:103E20001F920F920FB60F9211242F933F934F932F
:103E30005F936F937F938F939F93AF93BF93CF9332
:103E4000DF93EF93FF93D091E900DF708091EC0056
:103E5000C82FC17080FDC0E81092E9008091F00089
:103E6000877F8093F00078940E9429131092E900D4
:103E70008091F00088608093F000CD2BCF70C093CC
:103E8000E900FF91EF91DF91CF91BF91AF919F91A9
:103E90008F917F916F915F914F913F912F910F90F3
:103EA0000FBE0F901F9018951F920F920FB60F9292
:103EB00011242F933F934F935F936F937F938F932F
:103EC0009F93AF93BF93EF93FF938091E10082FFA5
:103ED00009C08091E20082FF05C08091E1008B7FE4
:103EE0008093E1008091DA0080FF24C08091D800A7
:103EF00080FF20C08091DA008E7F8093DA0080916D
:103F0000D90080FFA6C080E189BD82E189BD09B4E6
:103F100000FEFDCF81E080938002809168028111D4
:103F200009C00E94DA020E94CB038091E200846003
:103F30008093E2008091E10080FF17C08091E20051
:103F400080FF13C08091E2008E7F8093E200809119
:103F5000E20080618093E2008091D80080628093CB
:103F6000D80019BC85E0809380028091E10084FF35
:103F700034C08091E20084FF30C080E189BD82E1DD
:103F800089BD09B400FEFDCF8091D8008F7D80935C
:103F9000D8008091E1008F7E8093E1008091E20063
:103FA0008F7E8093E2008091E20081608093E20046
:103FB00080917702882309F452C084E080938002C4
:103FC0000E941E130E94D10710926A02809169021A
:103FD00081110E9462160E94F9158091E10083FF11
:103FE00027C08091E20083FF23C08091E100877F9A
:103FF0008093E10082E080938002109277028091AA
:10400000E1008E7F8093E1008091E2008E7F8093BB
:10401000E2008091E20080618093E20042E060E093
:1040200080E00E9499038091F00088608093F00006
:10403000FF91EF91BF91AF919F918F917F916F9180
:104040005F914F913F912F910F900FBE0F901F9056
:10405000189519BC10928002109268026BCF809163
:10406000E30087FD02C081E0A9CF83E0A7CFCDB7F1
:10407000DEB7A9970FB6F894DEBF0FBECDBF84B7E9
:10408000877F84BF0FB6F894A895809160008861FF
:1040900080936000109260000FBE80E890E00FB641
:1040A000F89480936100909361000FBE85B780689B
:1040B00085BF85B7806885BF0E94DA020E94CB0366
:1040C0008091E20084608093E20078948091800285
:1040D0008823A1F01091E9001F709091EC00892FC6
:1040E000817090FD80E8182B1092E9008091E80023
:1040F00083FD0E9429131F701093E90082E084BDA4
:1041000093E095BD9AEF97BD80936E00AAE7B1E06A
:104110004DE751E061E070E08D91E82FE295EF709E
:10412000F0E011A18F709B0101C0220F8A95EAF780
:10413000922F9095912391A382A1822B82A34A175B
:104140005B0751F7ADE7B1E040E851E061E070E0B6
:104150008D91E82FE295EF70F0E011A18F709B0137
:1041600001C0220F8A95EAF7922F9095912391A38F
:1041700082A1822B82A34A175B0751F710923A0261
:104180001092610210923B021092620210923C0265
:10419000109263020E94670D8FE39CE90197F1F78B
:1041A00000C000000E94670D8091610280FF0BC07B
:1041B00080E00E94C1106FEF7FEF90E080E00E94EE
:1041C0002D270E94B30990E080E00E9409278C3ED1
:1041D0009E4F11F00E94621182E290E00E94FB2645
:1041E000803209F0BAC483E290E00E94FB2680315D
:1041F00009F0B3C484E290E00E94FB26873009F006
:10420000ACC490E080E00E9409278C3E9E4F11F0E4
:104210000E94621182E090E00E94FB268093560289
:104220000E94150E90933E0280933D0283E090E041
:104230000E94FB26282F30E050E040E02EA33FA351
:1042400048A759A7CA01B9010E94C70780913F0238
:10425000811136C090E080E00E9409278C3E9E4F7D
:1042600021F00E9462110E94FD1288E090E00E94FD
:10427000032760935C0270935D0280935E029093CB
:104280005F026E7F71F40E94FD1288E090E00E9450
:10429000032760935C0270935D0280935E029093AB
:1042A0005F020E943F0810925B0280915C0280FFD7
:1042B00004C060E086950E940F1681E080933F0263
:1042C0000E94621620E04FEF60EB8BE00E94D91154
:1042D00060E081E00E940F1682E191E0909341023C
:1042E000809340025FE7E52E54E0F52E8091800236
:1042F000853009F479C10E94670DA1E6B2E0E7E5D7
:10430000F2E010E000E0202F9D918191891709F4DF
:10431000DEC18927382F3170D32E80FDD2C181FDB7
:10432000D2C182FFD4C182E044E0D42E89832A83A3
:104330009D2181E009F480E08B830E94C6058160A5
:10434000782F9D838C8349815A816B818D810E9456
:104350007E1EF801E95AFD4F8081D826D0828091D7
:104360005B02882309F441C080915A02E0915C020B
:10437000E695E81BE0934502823009F0BFC1F0E00A
:10438000E357FB4FE4910E2F10E083E4C82E8DE03D
:10439000D82E80914602882389F0109246020E940E
:1043A000C605980120953095280F391F3093440297
:1043B00020934302109248021092470280914302D8
:1043C000909144020E94B7058017910770F0E09128
:1043D0004302F09144020E0F1F1F109344020093FA
:1043E000430283E492E0F601099586E0EFE4F2E00F
:1043F000DE01119601900D928A95E1F7109151021C
:10440000C090520200915302D09054021092510277
:10441000109252021092530210925402812F8C2952
:1044200009F448C080914D0290914E020E94B70558
:104430009C0180914C02882309F4AAC323333105DF
:10444000C8F18F3F19F08F5F80934C02112359F010
:104450000E942F059FEF11160CF491E0899F802D8B
:10446000112480935102CC2059F00E942F059FEF18
:104470001C140CF491E0899F802D1124809352022A
:10448000309151023323B1F020915202222391F056
:1044900045EB3403C0011124992309F49AC1909388
:1044A000510255EB250390011124332309F495C1E2
:1044B00030935202802F8D2909F448C080914A021E
:1044C00090914B020E94B7059C018091490288237C
:1044D00009F459C325363105C8F18F3F19F08F5FB4
:1044E00080934902002359F00E940D059FEF10169A
:1044F0000CF491E0899F802D112480935302DD20DC
:1045000059F00E940D059FEF1D140CF491E0899F56
:10451000802D112480935402309153023323B1F043
:1045200020915402222391F045EB3403C001112461
:10453000992309F456C19093530255EB250390013A
:104540001124332309F451C1309354028091510254
:1045500090915202892B90915302892B9091540291
:10456000892B11F00E94D2051B83CC820D83DE8241
:1045700086E0FE013196AFE4B2E001900D928A959B
:10458000E1F70E94D10790915502891721F00E940E
:10459000D1078093550280918002843009F0A6CE25
:1045A00083E08093E9008091E80082FF9FCE8091B4
:1045B000E80090E085FF06C00E94F902882309F414
:1045C00018C191E08091E8008B778093E8009923EF
:1045D00009F48CCEE981E150E33108F06EC1F0E0DE
:1045E000E251F84D0C945A2680918002843009F4EF
:1045F00041C01092420288E190E020E40FB6F894A6
:10460000A895809360000FBE2093600010925B021B
:1046100080916A02811117C081E080936A028091C3
:104620005C02982F9170909369028E7F80935C0258
:104630004FEF50E782E0415050408040E1F700C02A
:1046400000000E94E50A83B7817F846083BF83B73F
:10465000816083BF7894889583B78E7F83BF0FB6C0
:10466000F894A89580916000886180936000109212
:1046700060000FBE80917602882309F437CE0E9435
:10468000670D8091620290916102892B9091630283
:10469000892B09F42BCE80E189BD82E189BD09B463
:1046A00000FEFDCF8091D8008F7D8093D80080914F
:1046B000E00082608093E0008091E00081FDFCCF0B
:1046C00015CE80E033CE81E032E0D32E2FCE0F5FC7
:1046D0001F4F0330110509F016CE8FEF89A38AA36F
:1046E0001BA20E94C6058160782F9DA38CA349A1BF
:1046F0005AA16BA18DA10E947E1E31CE863059F445
:10470000F0E0E657FB4FE4910E2F10E0B7E5CB2E1B
:10471000BDE0DB2E3ECE893061F4E695F0E0E9574E
:10472000FB4FE4910E2F10E0AAE1CA2EABE0DA2E87
:1047300030CE8F3061F4E695F0E0EC57FB4FE4911A
:104740000E2F10E0F4E4CF2EFBE0DF2E22CE8531D9
:1047500059F4F0E0EF57FB4FE4910E2F10E0EDEA33
:10476000CE2EEBE0DE2E15CE08E210E05BEFC52E7C
:104770005BE0D52E883109F40CCE833241F4F70189
:104780000591149179EEC72E7CE0D72E02CE04EF6E
:1047900011E040EAC42E4CE0D42E843209F4F9CD65
:1047A00000ED17E036E8C32E34E0D32E853209F051
:1047B000F0CD8E2F63E00E941826E92FF0E0E45838
:1047C000FB4FE4910E2F10E069EDC62E60E1D62E6E
:1047D000E0CD81E08093510264CE81E0809352026B
:1047E00069CE81E080935302A8CE81E08093540289
:1047F000ADCE00E210E0CE0101966C018091E800A0
:1048000085FD0AC08091E8008B778093E8000E94C4
:10481000F902882399F3D5CE8091F100D6018D93CA
:104820006D010150110951F7CCCE1A8289E08B83BA
:104830002BC08A81823009F49DC18330E1F0813040
:10484000E1F58FB7F89420916402309165024091B0
:104850006602509167022EA33FA348A759A78FBFB6
:104860006EA17FA188A599A50E9460266B837C8399
:104870008D839E8309C0809161028B838091620247
:104880008C83809163028D83CE0101960E94540334
:104890002DCD8A81823089F48B819C81AD81BE814E
:1048A0008EA39FA3A8A7B9A7BC01CD010E94602633
:1048B00085E290E00E940F27E7CF8FEF8983E4CF56
:1048C0004C816B818A810E94230E98278927982723
:1048D0009E838D83D9CFCD80DE80DC24CD24DC2463
:1048E0008A810B8196E0099F80011124A2E18A9FB1
:1048F000000D111D11248C8190E0880F991F080F65
:10490000191F6D2DC80186960E940F276C2DC801B6
:104910008796D0CF0E945C10B7CF8A818238A9F1E8
:10492000F8F4803831F1813809F0AECF60E08B8146
:104930000E940F168B81811125C080915C028E7FB1
:1049400080935C0210925B02BFEFE0E7F2E0B150AF
:10495000E040F040E1F700C000000E94E50A94CF7B
:10496000833809F091CF20E040915F026C818B8108
:1049700006C020E04B8160915E0280915D020E9442
:10498000D91182CF0E9462167FCF8B818093600203
:104990007BCF8A818238D9F058F4803899F08138F9
:1049A00009F072CF80915C0280FF0FC086953FCFE7
:1049B000833809F069CF80915D028B8380915E021C
:1049C0008C8362CF80915F0232CF80E030CF8091C4
:1049D00060022DCF20915C0230915D0240915E0219
:1049E00050915F022EA33FA348A759A7CA01B9015E
:1049F0000E94C51149CF80E18A8346CF83E08A8334
:104A000082E915CF0A811B81102701271027AE01EB
:104A10004F5F5F4F6A01AC80CA018A0D911D5C0136
:104A2000C80182599F4FAC14BD0409F42DCF02393F
:104A3000A3E01A0750F40E94FB26F60184830F5F5F
:104A40001F4FBFEFCB1ADB0AEBCFD60114961C9297
:104A5000F6CF0A811B81102701271027FE0131960E
:104A60005F01CC80C00ED12ED11CC80182599F4F4E
:104A70000C151D0509F408CF0239F3E01F0728F4CF
:104A8000D50114966C910E940F27BFEFAB1ABB0A99
:104A90000F5F1F4FEACF0E94B110F6CE84E0ACCF7B
:104AA0000A811B81102701271027FE0131966F0113
:104AB000AC809F012A0D311D5901C8018696CA1488
:104AC000DB0409F4E1CE0834110558F40E94FB26FA
:104AD000D60114968C930F5F1F4FFFEFCF1ADF0A9A
:104AE000ECCFF6011482F7CF0A811B811027012732
:104AF00010279E012F5F3F4F5901CC80C00ED12E51
:104B0000D11CC8018696C016D10609F4BDCE083462
:104B1000110528F4D50114966C910E940F27BFEF60
:104B2000AB1ABB0A0F5F1F4FECCF80E00E94C11091
:104B30006FEF7FEF90E080E00E942D27A5CECE01A1
:104B400001960E945403EFEFF1EE24E0E150F040B3
:104B50002040E1F700C0000034CB60E085E290E047
:104B60000E940F270E945C100E94B11081E00E94F9
:104B7000C11047CB85E290E00E94FB261B821C827D
:104B80001D828E8381CE2D32314008F0A8CCDECC40
:104B90002D32314008F057CC8DCC78941F921FB63F
:104BA0001F9211248F939F93AF93BF9380916402C0
:104BB00090916502A0916602B09167020196A11DD5
:104BC000B11D8093640290936502A0936602B09336
:104BD0006702BF91AF919F918F911F901FBE1F9051
:104BE00018951F921FB61F9211248F939F93AF9316
:104BF000BF9380914202811113C080916402909111
:104C00006502A0916602B09167024196A11DB11D97
:104C10008093640290936502A0936602B09367024A
:104C2000BF91AF919F918F911F901FBE1F901895BC
:104C3000991B79E004C0991F961708F0961B881FEE
:104C40007A95C9F78095089587FB082E062687FD7B
:104C5000819567FD61950E9418260EF4919507FCD9
:104C600081950895AA1BBB1B51E107C0AA1FBB1F5A
:104C7000A617B70710F0A61BB70B881F991F5A95E8
:104C8000A9F780959095BC01CD01089597FB072E5B
:104C900016F4009407D077FD09D00E94322607FC55
:104CA00005D03EF4909581959F4F0895709561953C
:104CB0007F4F0895EE0FFF1F0590F491E02D0994AA
:104CC00069279627692778278727782708950E94DC
:104CD0009727332312F48A1B9B0B0C9471260E9496
:104CE0009727B7FF0895821B930B0895CF92DF9209
:104CF000EF92FF92CF93DF93CDB7DEB72A970FB62F
:104D0000F894DEBF0FBECDBF89879A87A985BA8583
:104D10002D913D914D915C9129833A834B835C8326
:104D2000232B242B252B41F424E239ED4BE557E0CE
:104D300029833A834B835C8369817A818B819C814F
:104D40002DE133EF41E050E00E94432769017A01F1
:104D5000A7EAB1E49B01AC010E94622769837A83D0
:104D60008B839C83ACEEB4EFA70196010E94702761
:104D70009B01AC0189819A81AB81BC81820F931F19
:104D8000A41FB51FB7FF03C00197A109B048E9856B
:104D9000FA8580839183A283B3839F772A960FB687
:104DA000F894DEBF0FBECDBFDF91CF91FF90EF90A3
:104DB000DF90CF9008950E947626089580E091E0DC
:104DC0000E9476260895B0E0A0E0809300019093C1
:104DD0000101A0930201B09303010895FC01415029
:104DE000504030F001900616D1F73197CF01089569
:104DF000882799270895F999FECF92BD81BDF89A29
:104E0000992780B50895A6E1B0E044E050E00C9405
:104E10003527A8E1B0E042E050E00C943527262F7A
:104E2000F999FECF92BD81BDF89A019700B40216A0
:104E300039F01FBA20BD0FB6F894FA9AF99A0FBE4E
:104E400008950396272F0E9410270E940F27252FD1
:104E50000E941027242F0C9410270196272F0E94C0
:104E600010270C940F27DC01CB01FC01F999FECF30
:104E700006C0F2BDE1BDF89A319600B40D924150E2
:104E80005040B8F70895052E97FB1EF400940E9439
:104E90005A2757FD07D00E94752707FC03D04EF410
:104EA0000C945A2750954095309521953F4F4F4F80
:104EB0005F4F089590958095709561957F4F8F4FC6
:104EC0009F4F08950E949727A59F900DB49F900D26
:104ED000A49F800D911D11240895B7FF0C946227A3
:104EE0000E946227821B930B0895A1E21A2EAA1B2F
:104EF000BB1BFD010DC0AA1FBB1FEE1FFF1FA2178A
:104F0000B307E407F50720F0A21BB30BE40BF50B86
:104F1000661F771F881F991F1A9469F7609570950F
:104F2000809590959B01AC01BD01CF010895A29F92
:104F3000B001B39FC001A39F700D811D1124911D6D
:104F4000B29F700D811D1124911D0895F894FFCF1B
:104F50000B14331486143314861466149E148614AA
:104F6000A715B415531859185D186B186F187318D6
:104F700077187D18851889188D1891189D18A11813
:104F8000A518A918AF18CD18B71861186718951883
:104F900099188118B318C318D618DC18F0181D1901
:104FA000241929192E19331938193D19421947198D
:104FB0004C195119541959195C195F19621965195D
:104FC00068196B19D319D319441A441A9F1AB91ABC
:104FD000081A081AC41AB21BC11BC11B15241924B4
:104FE000492460246B248A248D24C924EA2495252D
:104FF0009F25FB24FE24022529254B254E255025DF
:02500000742515
:105002000100000001191A1B1C1D1E1F2021220174
:10501200020187048309640960095C090100000038
:10502200000001020202020606060909090909092D
:105032000F0F0F0F0F0F1515151819191919191927
:10504200191919192324252525252525E200E9000A
:10505200EA00B500B600B700CD008301CC008A019A
:105062009201940121022302240225022602270230
:105072002A02B300B4006F007000969291F5F4F129
:105082004022814F012D01AC00A304BC04DC0400CA
:00000001FF
