:100000000C9499010C94D1010C94D1010C94D10160
:100010000C94D1010C94D1010C94D1010C94D10118
:100020000C94D1010C94D1010C943F1F0C94FB1E35
:100030000C943C200C94D1010C94D1010C94D1016E
:100040000C94D1010C94D1010C94D1010C94D101E8
:100050000C94D1010C9418200C94D1010C94D10172
:100060000C94D1010C94D1010C94D1010C94D101C8
:100070000C94D1010C94D1010C94D1010C94D101B8
:100080000C94D1010C94D1010C94D1010C94D101A8
:100090000C94D1010C94D1010C94D1010C94D10198
:1000A0000C94D1010C94D1010C94D1015F0060003B
:1000B00061005C005D415E0059005A005B002278DF
:1000C00027782178237801002578247828782678E5
:1000D000000101010101010101010202020202020B
:1000E00002020203030303030303030404040404DE
:1000F00004040505050505060606060607070707A5
:100100000708080808090909090A0A0A0B0B0B0C59
:100110000C0C0D0D0D0E0E0E0F0F0F1010111111F6
:100120001212131314141515161617171818191977
:100130001A1A1B1B1C1D1D1E1E1F202021222223DC
:100140002424252626272829292A2B2C2D2D2E2F1D
:1001500030313232333435363738393A3B3C3D3E34
:100160003F404142434445464748494A4C4D4E4F23
:1001700050515354555658595A5B5D5E5F616264E5
:10018000656668696B6C6D6F7072737577787A7B72
:100190007D7E8082838587888A8C8E8F91939596C9
:1001A000989A9C9EA0A2A3A5A7A9ABADAFB1B3B5E9
:1001B000B7BABCBEC0C2C4C6C9CBCDCFD1D4D6D8C5
:1001C000DBDDDFE2E4E7E9EBEEF0F3F5F8FAFDFF63
:1001D00005010902A10185020901A1000509190112
:1001E00029081500250195087501810205010930CE
:1001F00009311581257F9502750881060938158119
:10020000257F950175088106050C0A3802158125A0
:100210007F950175088106C0C005010980A101858F
:100220000319012AB700150126B700950175108141
:1002300000C0050C0901A101850419012AA00215BD
:100240000126A002950175108100C005010906A1D3
:10025000018506050719E029E715002501950875B0
:100260000181020507190029EF1500250195F07598
:10027000018102050819012905950575019102956D
:100280000175039101C005010906A101050719E0E7
:1002900029E715002501950875018102950175086A
:1002A00081010507190029FF150026FF0095067535
:1002B0000881000508190129059505750191029528
:1002C0000175039101C009023B00020100A0FA0977
:1002D0000400000103010100092111010001224075
:1002E0000007058103080001090401000103000063
:1002F0000009211101000122B60007058203200038
:100300000112010002000000084D590944010001DA
:100310000200010C0359004D004400300039000078
:10032000000A0359004D0044004B0000000403097B
:10033000040011241FBECFEFDAE0DEBFCDBF04B64C
:1003400003FE18C08091C8029091C902A091CA0210
:10035000B091CB028730904BA740B04B59F410922C
:10036000C8021092C9021092CA021092CB02E0E0B9
:10037000F8E3099511E0A0E0B1E0E0E7F8E402C09D
:1003800005900D92A038B107D9F722E0A0E8B1E0BE
:1003900001C01D92A83CB207E1F70E9463200C94B3
:1003A000CE230C9400009091C002937061F08111F3
:1003B0000BC094609093C002109210018091BF0214
:1003C00081608093BF020895843110F09C64F2CF65
:1003D000880F880F982BEECF482F2091B70290916D
:1003E0007E0257E0291302C080E0089530E0529F5A
:1003F000F001539FF00D1124E158FD4F81816813E6
:1004000006C08081481303C085818111EECF2F5F24
:100410003F4F2770E7CF9091C002937059F08093BF
:10042000C1026093C2024093C3028091BF02816007
:100430008093BF020895E8EDF0E080818E7F808395
:100440001092E2001092DA001092E100A0EEB0E00B
:100450008C9181608C9380818F77808319BCA7ED0C
:10046000B0E08C918E7F8C9380818F7E8083109200
:100470004F0208952091E4003091E50095E6A9012E
:100480002091EC00822F817020FF06C08091E8004F
:1004900080FF06C080E008952091E80022FD1AC088
:1004A00080917402882389F0853089F08091EB0077
:1004B00085FD0FC02091E4003091E50042175307FD
:1004C000F9F29150E1F684E0089582E0089583E026
:1004D000089581E008958091760287FF13C080918E
:1004E000E80082FF06C08091E8008B778093E800E7
:1004F00004C0809174028111F2CF0895809174023A
:100500008823D9F38091E80080FFF8CF8091E8003C
:100510008E77ECCF982F9093E900242F762F50E020
:10052000891731F07091EC002091ED005091F000AE
:1005300021FD07C09F5F973071F78093E90081E04C
:1005400008953091EB003E7F3093EB003091ED0049
:100550003D7F3093ED003091EB0031603093EB0044
:100560007093EC002093ED005093F0002091EE008A
:1005700027FDE0CF80E00895B0E0A0E0E2ECF2E0FB
:100580000C944223C8EDD0E088818F7E8883E7ED0C
:10059000F0E080818160808384E082BF81E080938D
:1005A0004F0288818E7F888302EE10E0F80110826E
:1005B0001092DA0081EEC82ED12CF60110828881CB
:1005C0008F77888388818068888388818F7D8883FE
:1005D00019BC10927402109275021092730210925C
:1005E000720290EEE92EF12CF70180818B7F8083DF
:1005F00088818160888342E060E080E00E948A0216
:10060000F60180818E7F8083F80180818160808304
:10061000808188608083F70180818E7F80838881DC
:1006200080618883CDB7DEB7E8E00C945E23FC01DF
:1006300080917C0290917D0286179707A0F061154A
:10064000710529F49091E8009E779093E80090E07E
:100650006115710551F4911108C08091E80082FF85
:1006600034C080E00895BC01F2CF809174028823E9
:10067000C1F18530C1F18091E80083FD30C08091E7
:10068000E80082FDEACF8091E80080FFE1CF809111
:10069000F3002091F200382F6115710519F0283010
:1006A000310558F091E02830310509F090E02091B3
:1006B000E8002E772093E800CBCF81918093F10062
:1006C000615071092F5F3F4FE7CF809174028823FB
:1006D00041F0853041F08091E80083FFBECF81E09A
:1006E000089582E0089583E008958091510208956D
:1006F0009C014FB7F8948091490290914A02A091D1
:100700004B02B0914C024FBF821B930B08952FB741
:10071000F8948091490290914A02A0914B02B091C5
:100720004C022FBF0895A3E0B0E0E9E9F3E00C9498
:100730004823209146023091470228173907A1F03B
:100740009093470280934602E0914402F091450263
:10075000309751F024E029839B838A830680F781B8
:10076000E02DCE01019609952396E2E00C946423D6
:10077000A3E0B0E0EEEBF3E00C94482320914202BA
:100780003091430228173907A1F0909343028093D8
:100790004202E0914402F0914502309751F023E08B
:1007A00029839B838A830680F781E02DCE01019601
:1007B00009952396E2E00C946423E0914402F091C1
:1007C0004502309729F00190F081E02D09950895B8
:1007D00080E00895FA01811101C0FB010995089597
:1007E000E7E2F2E0818360834283339692E0E23471
:1007F000F907C1F70895FC01EE0FFF1FE80FF91F7D
:10080000E95DFD4F6183408322830895FC019B01D4
:10081000AC0197FF04C044275527481B590BBA0168
:10082000620F731F37FD0FC0241B350BC901A5E0F4
:10083000880F991FAA95E1F70E941E2380E2861B6C
:10084000F7FD81950895CB0165E0880F991F6A95A2
:10085000E1F7BA01621B730B0E941E2380E6EFCF03
:10086000E0ECF2E0248130E1231B08F420E0248353
:100870008091BF0281608093BF020895E0ECF2E0B6
:10088000248130E1230F08F42FEF24838091BF02ED
:1008900081608093BF020895E0ECF2E0438120E1A3
:1008A000421B08F440E08181628190E00E940B02CB
:1008B0000895E0ECF2E0438120E1420F08F44FEFAD
:1008C0008181628190E00E940B020895E0ECF2E0E9
:1008D000628120E1621B08F460E08181438190E045
:1008E0000E940B020895E0ECF2E0628120E1620FC9
:1008F00008F46FEF8181438190E00E940B0208951C
:10090000E0ECF2E08181438162818850990B0E9482
:100910000B020895E0ECF2E0818190E04381628176
:1009200008960E940B0208958091C00286958695D4
:10093000815009F483E10E94D30108958091C0029F
:10094000869586958F5F843108F081E00E94D301FF
:100950000895E42FF0E0EE0FFF1FE55AFE4F91855A
:10096000921B97FD9195292F38E1239F212D11246A
:10097000620F08950F931F93522F10E0F801EE0FAE
:10098000FF1FEB59FE4FA081A052BB0B9D015203EC
:10099000F001539FF00D1124000F111FD801A55A2B
:1009A000BE4F19960C910052110B40039001419FCC
:1009B000300D11242E0F3F1F37FF02C0215C3F4F27
:1009C00096E0359527959A95E1F7620F1F910F9163
:1009D00008950F931F93522F10E0F801EE0FFF1FA1
:1009E000EB59FE4FA081A052BB0B9D015203F001B9
:1009F000539FF00D1124000F111FD801A55ABE4FAF
:100A000019960C910052110B40039001419F300D3B
:100A100011242E0F3F1F37FF02C021583F4F220FD6
:100A2000232F221F330B620F1F910F910895EF9216
:100A30000F93972F23E0029FB001112475956795BE
:100A40006E0D792F0F91EF900895322F50E0FA013B
:100A5000EE0FFF1FEB59FE4F9081905297FD91953D
:100A6000440F551FFA01E55AFE4F2185231B330B16
:100A7000290F311D97FD3A95620F0895E42FF0E09C
:100A8000EE0FFF1FEB59FE4F6081621B0895E42FAC
:100A9000F0E0EE0FFF1FE55AFE4F6185621B0895DF
:100AA000622F08950E94F00308950E94FB030895A9
:100AB000EF920F93CF93DF93D72FC82FC9010E1951
:100AC000009729F480E857FD05C080E003C0BA0113
:100AD0000E940604602F681B7D2F8C2FDF91CF9121
:100AE0000F91EF9008950F93CF93DF93D72FC82FD7
:100AF000C901009729F480E857FD05C080E003C0D4
:100B0000BA010E940604602F680F7D2F8C2FDF91A1
:100B1000CF910F910895E82F86FDE0952E2F2F702D
:100B200086FD2F5FE695E695E695E670F0E0ED5AD6
:100B3000FE4F9181929F902D212D112492959F70AF
:100B40002295207F922B2081920F87FD919580E83E
:100B5000890F08950F931F93CF93DF938B01D82FA5
:100B6000C42F822F0E948B05EC2FF0E0EE0FFF1FA9
:100B7000E55AFE4F91859058890F87FD8195880F22
:100B8000682F2CE0629F612D1124600F712F8D2F33
:100B9000DF91CF911F910F910895409108015091DD
:100BA000090125E038E0429FC001439F900D529F0C
:100BB000900D1124875E994C909309018093080150
:100BC000890F089530E020E0869F212D969F200D0B
:100BD000311D1124C90108952091C40230E1230F71
:100BE00008F42FEF60E1822F90E00E94E205BC0143
:100BF00088EB9BE00E940A2390E080E00895AF928A
:100C0000BF92CF92DF92FF920F931F93CF93DF9308
:100C1000362F472FE82FF0E0E053FF4F71110FC040
:100C2000E4918E2F2E2F6E2F722FDF91CF911F9177
:100C30000F91FF90DF90CF90BF90AF900895C72F96
:100C4000D0E02491F22E022F10E056E0659FC00103
:100C50001124EFEFF0E0BF010E940A23832F90E000
:100C6000880F991F35E5369FD001379FB00D1124AD
:100C70008A1B9B0B982F990F980F6F01CC1ADD0AD6
:100C8000C09ED001C19EB00DD09EB00D11248B2FFF
:100C9000499FA0011124452F55276F01C41AD50A79
:100CA000C09EA001C19E500DD09E500D11245F0129
:100CB000A91AB108AC9E6001AD9ED00CBC9ED00CB0
:100CC0001124CD2CDD24EC19FD09E09FE001E19F0A
:100CD000D00DF09FD00D1124ED2F62307105A1F0E1
:100CE00050F46115710509F49ECF6130710581F0F2
:100CF000EB2F852F98CF6430710569F080F0663056
:100D0000710509F490CFF4CFE22F2B2F8D2F8BCFCD
:100D1000E22F252F88CFEB2F822F2D2F84CF2B2F43
:100D20008F2DE52F80CFB0E0A0E0E9E9F6E00C944C
:100D300043238C01FC01E55AFE4F838D682349F162
:100D4000D090C202D091C302C091C102EC2EF12C0E
:100D50000E94CD05282FC7018C549F4F68E671E093
:100D60000E941E238E199F0997FD039695958795DE
:100D70009595879523706C2F289F600D11247D2DEC
:100D80008D2F0E94FF05462F282F672FC8010E9434
:100D90005505CDB7DEB7E7E00C945F23B0E0A0E0E7
:100DA000E4EDF6E00C9443237C01C0910D01CC0FDF
:100DB00012E01C0F012F1A3008F009E06091C40204
:100DC0006695669521E0620F08F46FEF8091B80296
:100DD0009091B9020E94E205D82ED0E0C01748F0E9
:100DE00081E0193008F080E0CDB7DEB7E7E00C9481
:100DF0005F23FE01E55AFE4F838D90910E018923FA
:100E000091F06091C1027091C2028091C3022D2DB8
:100E10004C2FF70109950E94FF05462F282F672FB9
:100E2000CE010E9455052196D9CFB0E0A0E0EBE1BC
:100E3000F7E00C943F236C01C0910D01CC0F12E040
:100E40001C0FB12E1A3010F039E0B32E6091C4029D
:100E5000669566958091B8029091B9020E94E2056C
:100E6000F82E80E48F0D0E948B0590E8A92EA80E25
:100E70008F2D0E948B0520E8922E980ED0E0CB1586
:100E800048F081E0193008F080E0CDB7DEB7EBE044
:100E90000C945B23FE01E55AFE4F838D90910E0169
:100EA0008923A1F06091C1027091C2028091C302B6
:100EB000EF2C0C2F292D4A2DF60109950E94FF05D4
:100EC000462F282F672FCE010E9455052196D7CF98
:100ED000B0E0A0E0EEE6F7E00C943F235C01C091A7
:100EE0000D01CC0F12E01C0FF12E1A3010F0B9E0FA
:100EF000FB2E6091C40266958091B8029091B90270
:100F00000E94E205982ED0E0CE01880F991F9C0127
:100F1000255A3E4F6901CF1548F081E0193008F09D
:100F200080E0CDB7DEB7EBE00C945B23FE01E55A21
:100F3000FE4F838D90910E01892309F44EC0F60176
:100F400041854052550B22852052330B449FB001FE
:100F5000459F700D700D1124229FC001239F900D9D
:100F6000900D1124860F971F082F8230910520F1D4
:100F7000AFEF813EFEE19F0738F4DC01F5E0B69566
:100F8000A795FA95E1F7A85FB1E0EB2FEA0FFF27ED
:100F9000FF1FBF0175956795062F669FF001679F3C
:100FA000F00DF00D11248E179F07E0F4AFEFA60FA0
:100FB000AB1758F70FEF0B0F6091C1027091C2028F
:100FC0008091C302E92CF50109950E94FF05462F87
:100FD000282F672FCE010E9455052196F2E0CF0EF3
:100FE000D11C99CF6F3F41F3B1E0B60FE1CF1F9312
:100FF000CF93DF93EC01FC01E55AFE4F838D68230C
:10100000B1F00E94CD05182F0E94CD0520E8829FE7
:10101000C00111247FE7790F612F8091C3020E94E4
:10102000FF05462F282F672FCE010E945505DF911F
:10103000CF911F9108950E9487039C019091F40124
:101040008091F501982B21F03093F1012093F0016C
:101050009091F6018091F701982B21F03093EF01E8
:101060002093EE01E0914402F0914502309749F05F
:1010700082E08093F2010480F581E02D82EF91E01F
:10108000099508958091ED0180FD16C081FD16C07F
:1010900082FD16C08091EC018823A1F0883280F493
:1010A00028E0829FC001112468E270E00E941E23A4
:1010B000862F672B39F0089582E0089584E0089523
:1010C00088E0089581E008958091ED0180FD14C0CD
:1010D00081FD14C082FD16C08091EB01882381F050
:1010E0008E3180F420E5829FC00111246EE170E012
:1010F0000E941E23862F089584E1089588E20895B2
:1011000088E0089580E5089580E00895F894E82F38
:10111000E295EF70F0E031A1282F2F7081E090E090
:1011200001C0880F2A95EAF7982F9095932391A3F1
:1011300092A1892B82A37894089590914D0292FFF9
:1011400006C0282F28712830F9F4877F846093FF28
:1011500006C0282F28712831F1F4877E8461209100
:101160004E0220FF06C0382F38713830D9F4877FFF
:10117000816021FF06C0282F28712831D1F4877E95
:10118000816194FD877E0895282F24712430F9F61B
:101190008B7F8860DCCF282F2471243101F78B7E70
:1011A0008861DDCF382F3171313019F78E7F88603B
:1011B000E0CF282F2171213121F78E7E8861E1CF88
:1011C00082389105B9F1B0F48133910509F47DC0FD
:1011D00048F48932910509F46DC08A32910509F409
:1011E0007BC008958533910509F45FC0893391056B
:1011F00009F10895833E9105D9F138F4803E9105B7
:1012000029F1823E910579F10895863E9105D9F143
:10121000873E910509F43EC0843E910541F5209139
:101220004E0221FF24C080914D0284FD19C087EE3B
:1012300090E0089520914D02237009F05AC020914A
:101240004E0223FF14C089E290E0089520914D02E0
:1012500020FD38C030914E0230FF09C024FF43C04A
:1012600090E080E0089520914D0222FDF7CF08958F
:1012700020914D0222FD3AC030914E0230FD39C01E
:1012800024FFF5CFEDCF20914D0223FFF0CF24FDB9
:10129000E7CFCDCF20914D0223FD2EC030914E02DD
:1012A00031FFEECF84EE90E0089520914D0225FFAE
:1012B000DECFC9CF20914D0225FD21C020914E02E5
:1012C00023FFD5CF89E390E0D2CF20914D0226FFB6
:1012D000CECF8AE290E0089520914D0226FFC7CF3D
:1012E00081E390E0089583EE90E0089582EE90E02F
:1012F000089580EE90E0089586EE90E0089585E3ED
:1013000090E00895972F7330B8F46330A8F48230DA
:10131000B0F470E023E0929F600D711D1124FB0179
:1013200099E0899FE00DF11D1124EE0FFF1FE45598
:10133000FF4F85919491089580E090E0089581E0B9
:10134000FCCF1F93CF93DF930E94E008EC01C115FF
:1013500080E5D807F0F5C11580E4D80708F09CC0F7
:10136000C03ED10520F5CD3CD10508F082C0C83A79
:10137000D10578F4C53AD10508F073C0C130D10564
:1013800019F1209709F1C430D105F0F4D0E0C0E0A4
:101390001BC0C33CD105D0F7C85AD0E0CC0FDD1F2D
:1013A000C95EDE4F0990D881C02DD4640DC0C1152F
:1013B00080E2D80708F0D1C0C11581E0D80708F055
:1013C0005AC0C83ED10510F7CE01DF91CF911F91D1
:1013D0000895C03682E5D80718F5C03482E5D807ED
:1013E00008F06BC0C03282E5D80708F05FC0C115B5
:1013F00082E5D80708F497C02C2F2695269580E221
:10140000289F900111248C2F8370C1E0D0E002C08E
:10141000CC0FDD1F8A95E2F7C22BD32BDD68D4CF2A
:10142000C03A82E5D80760F4C03882E5D80708F4EE
:1014300059C0CF71D0E0DC2FCC27C46FD06AC4CFA5
:10144000C03C82E5D80708F462C0C03E82E5D807F8
:1014500008F09CCFDC2FCC27CC27DF71C06FD06A7F
:10146000B3CFC55AD0E0CC5EDE4FC881D0E0D064A7
:10147000ABCFD065A9CF8D2F0E949D08182FCE012C
:1014800099270E94E008C12FD0E0DC2FCC27CC2781
:10149000DF71C82BD92B98CFCE0199270E94E00885
:1014A000CC27DF70C82BD92BD06A8ECFCF71D0E07C
:1014B000DC2FCC27C16FD06A87CF2C2F269526959D
:1014C000277080E2289F900111248C2F8370C1E047
:1014D000D0E002C0CC0FDD1F8A95E2F7C22BD32BE0
:1014E000DC6872CF2C2F26952695277080E2289FE6
:1014F000900111248C2F8370C1E0D0E002C0CC0F8A
:10150000DD1F8A95E2F7C22BD32BDA685DCF8C2FD3
:101510008F710E949D08C82FD0E0DC2FCC27CC27EC
:10152000DF71D06251CF8C2F8F710E949D0855E0E2
:10153000D695C7955A95E1F7CF70D0E0DC2FCC2730
:10154000282F30E084FF05C044E0220F331F4A9566
:10155000E1F7C22BD32BD06937CF8D2F8F710E942B
:101560009D08182FCE0199270E94E008C12FD0E0D6
:10157000DC2FCC27CC27DF71C82BD92BD2CF80957D
:101580009091D60198239093D601089590910C01E3
:101590009923D1F090914D0297FF16C0E82FE69560
:1015A000E695E695EE31E0F4F0E0EE57FE4F282F99
:1015B000277081E090E001C0880F2A95EAF78095B6
:1015C0009281892382830895E4E8F1E0919189135F
:1015D00003C0DF0111971C9291E0EA38F907B1F7D7
:1015E000089590910C019923C1F090914D0297FFBD
:1015F00014C0E82FE695E695E695EE31F8F4F0E0B4
:10160000EE57FE4F877021E030E001C0220F8A952F
:10161000EAF78281822B82830895A4E8B1E0EFEF9C
:1016200090E02D91821751F0EF3F19F4211101C084
:10163000E92F9F5F9630A9F7EF3F09F408950E2E2A
:10164000000CFF0BEE57FE4FE6CF8091B702909152
:101650007E02981301C008958F5F8770FACFB0E0C3
:10166000A0E0E5E3FBE00C9441237C010091E10163
:101670001091E2018091D7019091D801082B192B8C
:10168000CFE0D0E0CC24C394D12CBC2EC6010C2ECC
:1016900002C0880F991F0A94E2F780239123892BB7
:1016A00049F4219790F7B12C8B2DCDB7DEB7E9E047
:1016B0000C945D23B7018C2F0E9482090E94A1091E
:1016C000019779F3F1CFCF93DF93EC010E942F0BB9
:1016D000BE010E9482090E94A109DF91CF91089565
:1016E000933078F5833068F5E82FF0E083E0989F39
:1016F000E00DF11D11249E2F977083E0F695E7957C
:101700008A95E1F7EE0FFF1FEE0FFF1FEC55FE4F1E
:1017100050E040E080E0219130E0092E02C0369593
:1017200027950A94E2F721703327042E01C0220F77
:101730000A94EAF7822B4F5F5F4F4430510559F707
:10174000089580E00895933098F5833088F5E82F68
:10175000F0E083E0989FE00DF11D11248E2F87703B
:1017600041E001C0440F8A95EAF783E0F695E795DA
:101770008A95E1F7EE0FFF1FEE0FFF1FEC55FE4FAE
:1017800030E020E070E05191DF011197CB01022E93
:1017900002C0969587950A94E2F781708195852716
:1017A000842385278C932F5F3F4F2430310559F7D1
:1017B00008959093E2018093E101089521E030E0E3
:1017C00002C0220F331F8A95E2F720953095809151
:1017D000E1019091E201822393230E94D90B0895A5
:1017E0009091B301809589238093B301282F2770AE
:1017F00069F4891759F090914E0292FF07C08695BF
:10180000869586950E94DE0B1092B301089521E023
:1018100030E002C0220F331F8A95E2F78091E10188
:101820009091E201822B932B0E94D90B0895909303
:10183000D8018093D7010895FC0124812223C1F0AF
:10184000808191810E94630B92959F70963091F0F8
:1018500058F4925F9F70923058F4803F19F030F442
:10186000883E30F481E008959A5FF4CF843FD1F34D
:1018700080E00895883EB0F3813FD1F7F3CF66232F
:1018800009F45DC08D3C41F40E9464088195809309
:10189000F5010E941B0808958E3C19F40E9464080B
:1018A000F6CF8F3C31F40E94640881958093F40157
:1018B000F0CF803D19F40E946408F8CF893D29F4E7
:1018C0000E9442088093F601E4CF8A3D21F40E94F1
:1018D00042088195F7CF8B3D31F40E9442088195F3
:1018E0008093F701D6CF8C3D19F40E944208F8CFBF
:1018F0009FE2980F983070F4815D990B21E030E001
:1019000001C0220F8A95EAF78091F301822B809320
:10191000F301BFCF8D3D31F48091ED018160809363
:10192000ED01B7CF8E3D21F48091ED018260F7CFBC
:101930008F3D09F0AECF8091ED018460F0CF4091F2
:10194000F4018D3C59F48091F50187FF0DC0109290
:10195000F50141110BC01092EB0108C08E3C81F4DF
:101960008091F50118169CF3442381F08091F601D3
:101970009091F701892B09F08CCF1092EC0189CF5F
:101980008F3C49F447FFF0CF1092F4018091F501AC
:101990008111ECCFE0CF803D19F41416ACF3E4CF05
:1019A0009091F601893D29F41916F4F61092F6018A
:1019B000DBCF8A3D19F497FFD7CFF8CF9091F7018D
:1019C0008B3D29F497FFD0CF1092F701CDCF8C3DFE
:1019D00019F41916CCF3C8CF9FE2980F983090F401
:1019E000815D990B21E030E0B90102C0660F771FDD
:1019F0008A95E2F7CB0180959091F301892380933A
:101A0000F301B2CF8D3D31F48091ED018E7F809353
:101A1000ED01AACF8E3D21F48091ED018D7FF7CFAE
:101A20008F3D09F0A1CF8091ED018B7FF0CFA6E033
:101A3000B0E0EDE1FDE00C94472349835A834981EE
:101A40005A819923A1F0222391F0CA010E942F0B01
:101A5000182F682F89819A810E94A30B69817A814E
:101A6000812F0E9482092696E3E00C946323CA0129
:101A70000E94700B182FF2CF0F931F93CF93DF9319
:101A80008B01EA0190917402943061F58093E90032
:101A90008FEF9091E800815095FD06C095ED9A95E5
:101AA000F1F700008111F5CF8091E80085FF1AC0A1
:101AB0000E943A02811111C08091E80085FD06C0A4
:101AC0008091E8008E778093E800F2CFF801819151
:101AD0008F018093F100219779F78091E8008E774C
:101AE0008093E800DF91CF911F910F91089543E01B
:101AF00050E0BC0182E00E943C0D089546E050E0B9
:101B0000BC0182E00E943C0D0895CF93DF93EC016D
:101B100080910C01811111C048E050E0BE0181E0CC
:101B20000E943C0D80E2FE01A2E5B2E001900D9220
:101B30008A95E1F7DF91CF91089580914D0287FF5B
:101B400005C040E282E050E0BE01EACF48E081E01B
:101B5000FACF81E08093E00080E28093D800109279
:101B6000C9008FE19EE40197F1F700C0000087E013
:101B700090EBDC018093C8029093C902A093CA0243
:101B8000B093CB0288E19CE00FB6F894A8958093BF
:101B900060000FBE90936000FFCF6A9A3EB13B7F1A
:101BA0002EB124604FB7F89487E292E0FC01519186
:101BB000CF0168E02EB9000000C057FF3EB9550FB5
:101BC000000000C000C000C03EB900C06A9591F797
:101BD000F2E082349F0751F74FBF8FE594E0019701
:101BE000F1F700C000000895E0ECF2E081E18083AD
:101BF0008091110190911201A09113018183928330
:101C0000A3838FE784838FEF858348E050E068E10A
:101C100070E0CF010E948D231092BF020895B0E0C2
:101C2000A0E0E5E1FEE00C943F23182F80910B012A
:101C3000811323C09091C002937020910A0130E07B
:101C400081E09217130609F480E0817080930F0100
:101C50008091C50290910E01981739F080930E0182
:101C600040E060E080E00E945205143160F4E12F12
:101C7000F0E0E053FC4D0C94322381E0E6CF8091FC
:101C80000F01811102C0C0E07AC040E060E080E056
:101C90000E945205F8CFC0910D01CC0F02E00C0F4D
:101CA000F02E0A3010F0B9E0FB2E6091C102709165
:101CB000C2028091C3020E94FF05E62ED72EC82ED5
:101CC000D0E0CF1528F0C1E0093008F458C0DBCFD0
:101CD000FE01E55AFE4F838D90910E01892331F06C
:101CE0002C2D4E2D6D2DCE010E9455052196E9CF4C
:101CF000C0910D01CC0F02E00C0FF02E0A3010F055
:101D0000A9E0FA2EE090C102D091C202D090C302A5
:101D10006091C4026695669566958091B80290912F
:101D2000B9020E94E2050E948B05805887FD8195CB
:101D3000880F382F2D2D329F312D1124832F6E2D9A
:101D40007D2F0E94FF05E62ED72EC82ED0E0CF159E
:101D500008F0B9CFFE01E55AFE4F838D90910E0138
:101D6000892331F02C2D4E2D6D2DCE010E9455056D
:101D70002196EDCF80E595E00E94CE06C82F809198
:101D80000D018F5F80930D01C1110CC082E0809323
:101D9000100180910F01811105C0111103C083E072
:101DA00080931001CDB7DEB7EBE00C945B2387E4A2
:101DB00095E0E2CF8EE395E0DFCF85E295E0DCCFE2
:101DC00087E195E00E946807D9CFC0910D01CC0F43
:101DD000F2E0DF2EDC0ECD2C89E08D1510F4E9E069
:101DE000CE2E6091C40266958091B8029091B9029E
:101DF0000E94E205B82ED0E0CE01880F991FFC01A9
:101E0000E55AFE4F7F01CC1530F0C1E038E03D15BA
:101E100008F0B5CF38CFFE01E55AFE4F838D909183
:101E20000E018923C1F0F70122852052330B418531
:101E30004052550B6091C1027091C2028091C30261
:101E40000B2D0E9473050E94FF05462F282F672F38
:101E5000CE010E945505F2E0EF0EF11C2196D3CF82
:101E600088E595E0AFCF89EE94E00E94150786CF14
:101E70008AEB94E0FACFC0910D01CC0F02E00C0F79
:101E800080910F01D0E0811126C06091C40220E151
:101E9000620F08F46FEF8091B8029091B9020E942E
:101EA000E2056AE070E00E940A23892B09F00BCF5B
:101EB0000E94CD05E9E08E9FC001112460910E01C2
:101EC000892F90E00E949306FECE60910E01CE0114
:101ED0000E9493062196802F0A3008F089E08C1723
:101EE0001D0609F094F7EFCEC0910F01C11120C07B
:101EF0006091C40220E1620F08F46FEF8091B80294
:101F00009091B9020E94E20565E070E00E940A2308
:101F1000892B09F0B8CE0E94CD05F9E08F9FC00152
:101F2000112460910E01892F90E00E94F70727CFBE
:101F3000C0910D01CC0F02E00C0F802F0A3008F089
:101F400089E0D0E0E82EF12CCE15DF050CF0BBCEF9
:101F500060910E01CE010E94F7072196F5CFC09146
:101F60000D01CC0F02E00C0FF02E0A3010F069E0EA
:101F7000F62ED090C202E090C302D091C1026091CF
:101F8000C4026695669566958091B8029091B902F3
:101F90000E94E2050E948B05805887FD8195880F7D
:101FA000682F2CE0629F612D11246D0F7D2D8E2DE9
:101FB0000E94FF05E62ED72EC82ED0E0CF1508F0E0
:101FC00082CEFE01E55AFE4F838D90910E0189234A
:101FD00031F02C2D4E2D6D2DCE010E9455052196F0
:101FE000EDCF8AEA95E0C8CE89EA94E0C5CED091DB
:101FF0000D01DF5FDD0F4091B8025091B902609191
:10200000BA027091BB028091F8019091F901A09100
:10201000FA01B091FB0184179507A607B70708F0EE
:1020200052C00E94CD0539E0839F70011124EF2C2E
:10203000FF24F701E55AFE4F838D90910E0189230D
:1020400009F441C00E94CD0520E040E060E081FD40
:1020500013C00E94CD05C82F0E94CD05E0E88E9FD9
:10206000C00111247FE7790F6C2F8091C3020E9479
:10207000FF05462F282F672FC7010E945505209185
:10208000C40230E1230F08F42FEF60E1822F90E0CB
:102090000E94E205BC0184EF91E00E940A23809136
:1020A000B8029091B902A091BA02B091BB02860F1A
:1020B000971FA11DB11D8093F8019093F901A09382
:1020C000FA01B093FB01C1E0D93008F458CEDBCD62
:1020D00040911702509118026091190270911A02F2
:1020E0008091B8029091B902A091BA02B091BB025E
:1020F00084179507A607B70708F4C5CD80910F018F
:1021000081111EC0C0910D01CC0F02E00C0FD02E2A
:102110000A3010F049E0D42EEC2EF12CF3E0CF9FE2
:10212000E0011124C450DE4FED1408F442C0ECEF7E
:10213000F1E084E192E0093008F054C0C1E01FCE24
:1021400040E060E080E00E9452053CEFE32E31E089
:10215000F32ED0E0C0E00E94CD0581FF0CC0F70156
:102160001082118212822196F3E0EF0EF11CC93029
:10217000D10589F7C7CF0E94CD05082F0E94CD0554
:10218000F0E88F9FC00111247FE7790F6E01CC0C1E
:10219000DD1CCC0EDD1E960124503E4F6901602FE0
:1021A0008091C3020E94FF05F601608371838283E0
:1021B000DACFF701E55AFE4F838D90910E01892306
:1021C00031F02A8148816981C7010E945505239613
:1021D0002FEFE21AF20AA8CF23813481458121939F
:1021E000319341938E179F07B9F70E94CD0581FF68
:1021F0001FC01092140210921502109216020E9433
:10220000EC05C090B802D090B902E090BA02F0900C
:10221000BB02DC01CB018C0D9D1DAE1DBF1D80934B
:10222000170290931802A0931902B0931A022BCDB3
:102230000E94CD05C82F0E94CD0530E8839FC001C4
:1022400011247FE7790F6C2F8091C3020E94FF0554
:10225000609314027093150280931602D0CF809180
:102260000F01882329F040E060E080E00E945205E1
:10227000D0910D01DF5FDD0F4091B8025091B9029E
:102280006091BA027091BB0280911E0290911F0270
:10229000A0912002B091210284179507A607B707E5
:1022A00008F011CF6091C1027091C2028091C30207
:1022B0000E94FF05C62F072F982E8BE1E82E82E0A3
:1022C000F82E9BE5C92E91E0D92EF70121917F01CF
:1022D000F601808190E0A280B12C2223A9F1292D62
:1022E0004C2F602F0E945505292D4C2F602FC501C2
:1022F0000E9455050E94CD05F7013197837091E04A
:1023000009F090E09083F3E0CF0ED11C2EE1E216AD
:1023100022E0F206D1F60E94EC05C090B802D090FF
:10232000B902E090BA02F090BB02DC01CB018C0D47
:102330009D1DAE1DBF1D80931E0290931F02A09392
:102340002002B0932102BFCE20E040E060E00E9476
:10235000550520E040E060E0CACF8FB7F894409187
:10236000490250914A0260914B0270914C028FBF1A
:10237000409322025093230260932402709325021B
:1023800080912602811113C09091C002892F837021
:1023900019F0892F86958695909110019130B9F0AA
:1023A000992339F09230B1F09330F9F0089580E03C
:1023B000F3CF10920D014093B8025093B90260938D
:1023C000BA027093BB0281E08093100108950E94CD
:1023D0000F0E089580930B018091C002837080934B
:1023E0000A010E94CD0D83E0EFCF8091BF028823C8
:1023F00051F048E050E068E170E080EC92E00E942B
:102400008D231092BF024091B8025091B9026091A1
:10241000BA027091BB022FB7F89480914902909153
:102420004A02A0914B02B0914C022FBF841B950B26
:10243000A60BB70B4097A105B10510F01092100143
:1024400008958091D6019091D501892B80938201C6
:102450009091D4019923A1F0892B809382018091DE
:102460000C018823E1F180914D0287FF38C08EE195
:10247000E4E8F1E090E08150A0F591111092D401D0
:1024800040E250E064EB71E082E891E00E94C123F9
:10249000892B21F180E2E2E8F1E0A4EBB1E00190C8
:1024A0000D928A95E1F7E0914402F0914502309750
:1024B000A9F080910C01882359F080914D0287FF8B
:1024C00007C0809182018093830186E0809382011E
:1024D0000280F381E02D82E891E00995089586E07D
:1024E000C7CF2191222339F29F5FC5CF882321F0E6
:1024F0000E94BF0A0E9421120895882339F090910A
:10250000D601982B9093D6010E942112089588231A
:1025100009F456C0823879F40E94DD0381FF50C06F
:1025200089E30E94F10A0E94211289E30E94C60AEF
:102530000E9421120895833859F40E94DD0380FF20
:102540003FC083E50E94F10A0E94211283E5EECF8D
:10255000843859F40E94DD0382FF32C087E40E9470
:10256000F10A0E94211287E4E1CF9CEF980F913A83
:10257000E8F290E2980F983050F4877091E001C033
:10258000990F8A95EAF7892F0E94BF0AD1CF9BE560
:10259000980F933028F490E080E00E94B8030895EB
:1025A00098E5980F9B3128F490E080E00E94930317
:1025B000089593E3980F933118F460E00E943F0C64
:1025C0000895CF93C82F8823C9F08238C9F40E9498
:1025D000DD0381FD13C089E30E94F10A0E942112EC
:1025E0002FEF87EE93E0215080409040E1F700C04C
:1025F000000089E30E94C60A0E942112CF9108952B
:102600008338A1F40E94DD0380FDF8CF83E50E94AA
:10261000F10A0E9421122FEF81EE94E021508040B8
:102620009040E1F700C0000083E5E4CF8438A1F4D6
:102630000E94DD0382FDE2CF87E40E94F10A0E943E
:1026400021122FEF81EE94E0215080409040E1F77D
:1026500000C0000087E4CECF8CEF8C0F813A90F55C
:1026600080910C01882301F180914D0287FF1CC0ED
:10267000EC2FE695E695E695F0E0EE57FE4F828169
:1026800090E04C2F477021E030E002C0220F331F52
:102690004A95E2F782239323892B81F08C2F0E94A5
:1026A000C60A0E9421120AC0E4E8F1E08AE891E03B
:1026B0002191C21799F38E179F07D1F78C2F0E9493
:1026C000F10A9ACF80E28C0F883068F4C77021E05D
:1026D00030E001C0220FCA95EAF78091D601822B23
:1026E0008093D60189CFEBE5EC0FE33040F4F0E0C6
:1026F000EC5EFE4F808190E00E94B8037FCFE8E55A
:10270000EC0FEB3150F4F0E0EE0FFF1FE95EFE4FEF
:10271000808191810E94930371CF83E38C0F833179
:1027200008F06CCF61E08C2F0E943F0C67CF0F93B5
:102730001F93CF93DF93C62FD42F022FFC018581E7
:102740008823A9F06093BE020E9487039093BD0284
:102750008093BC02C77081E001C0880FCA95EAF778
:102760000E947D12DF91CF911F910F91089580916A
:10277000BE02681335C08091BC029091BD020E94D8
:102780007803883C910560F510E21D0FCD17B9F074
:1027900080E28C0F883040F4C77081E001C0880F60
:1027A000CA95EAF70E947612183048F481E09D2F0E
:1027B000977001C0880F9A95EAF70E947D12802FCA
:1027C0000E94E112802F0E948712183058F6D770AD
:1027D00081E001C0880FDA95EAF70E947612C2CF35
:1027E000C77081E001C0880FCA95EAF7F6CF9091D3
:1027F0004E0292FB222720F9281779F080FB92F9EC
:1028000090934E0260914D0270914E0284E090E0F0
:102810000E94BB2382E00E94F00B08951092D60123
:1028200080910C01E4E8F1E0882329F180914D02C8
:1028300087FF21C08EE1DF011D928A95E9F790E0C4
:1028400080E00E94B80390E080E00E949303109221
:10285000D5010E94211286E0E2EFF1E0DF011D9236
:102860008A95E9F71092EB011092EC011092ED01BC
:102870000E941B08089586E0DECFAAE2B0E0E3E400
:10288000F4E10C94472386E792E02091F100FC01EB
:102890002193CF01F2E08E379F07B9F7809177023D
:1028A000833009F470C0B8F4813009F447C0823035
:1028B00009F4B1C08091E80083FF7EC28091760266
:1028C000909177029A3008F077C2E92FF0E0EC514E
:1028D000FC4D0C9432238A3009F48CC08B3009F4FF
:1028E0006FC0893039F780917602813219F7809173
:1028F0007A0290917B020297E8F68091E800877F48
:102900008093E8008091E80082FF38C09091F30046
:102910008091F200029731F48091F100813011F042
:10292000863021F48091F100809351028091E8007B
:102930008B778093E8000E946B02BCCF8091760277
:10294000813A09F0B7CF8091E800877F8093E80053
:1029500080917A0290917B02892B61F460E282E59A
:1029600092E070E00E9417038091E8008B778093DB
:10297000E800A0CF60E090E080E0F3CF80917402A7
:102980008111C0CF97CF80917602813A09F092CF22
:1029900080917A0290917B02892B09F08BCF8091F4
:1029A000E800877F8093E8008091E80080FFFCCFFB
:1029B00080910C018093F1008091E8008E77B9CF6F
:1029C00080917602813209F075CF80917A029091E0
:1029D0007B02892B09F06ECF8091E800877F80937E
:1029E000E8000E946B028091780280930C010E94A3
:1029F0000E1460CF80917602813209F05BCF809116
:102A0000E800877F8093E8000E946B028091790242
:102A1000809350024FCF80917602813A09F04ACFDD
:102A20008091E800877F8093E8008091E80080FF34
:102A3000FCCF80915002BECF803899F0823809F0E7
:102A4000BBC180917A028F70873008F0B5C1809346
:102A5000E9008091EB0085FB882780F91092E9005E
:102A600006C08091720290917302911182609091E0
:102A7000E800977F9093E8008093F1001092F100B6
:102A80008091E8008E7794C1882309F482C1823056
:102A900009F092C180917802811185C180917A02FA
:102AA0008F702FEF280F263008F086C18093E90041
:102AB0002091EB0020FF77C1933031F48091EB003F
:102AC00080628093EB006FC19091EB0090619093D6
:102AD000EB0021E030E001C0220F8A95EAF7209355
:102AE000EA001092EA008091EB008860EACF811141
:102AF00063C1109178021F778091E3008078812B69
:102B00008093E3008091E800877F8093E8000E9433
:102B10006B028091E80080FFFCCF8091E300806829
:102B20008093E30082E0111183E08093740244C13A
:102B30008058823008F040C18091780290917902EB
:102B40008C3D23E09207A1F583E08A838AE28983A2
:102B50004FB7F894DE01139620E03EE051E2E32FF8
:102B6000F0E050935700E49120FF03C0E295EF702E
:102B70003F5FEF708E2F90E0EA30C0F0C7968D93E4
:102B80009D932F5F243159F74FBF8091E800877FD5
:102B90008093E8006AE270E0CE0101960E9417037C
:102BA0008091E8008B778093E80006C1C096E7CF5C
:102BB00040917A0250917B02292F3327233031052F
:102BC00009F444C078F52130310509F46FC08BE376
:102BD00090E0E6ECF2E02230310509F0EDC0209102
:102BE000E800277F2093E80020917C0230917D024D
:102BF0008217930708F49C0140E02115310509F084
:102C000064C0411162C08091E80082FDC9CF80910B
:102C10007402882329F2853019F28091E80083FF3D
:102C2000F2CFBECF21323105A9F12232310509F0B0
:102C3000C3C04115510509F443C04130510509F0A5
:102C4000BBC086EB90E0E0EDF1E0C9CF9927813081
:102C50009105C1F0009759F0029709F0ADC0E3E18A
:102C6000F3E0E4918E2F90E0E3E1F3E007C0EDE2C2
:102C7000F3E0E4918E2F90E0EDE2F3E0009709F4A9
:102C80009BC0ADCFE1E2F3E0E4918E2F90E0E1E272
:102C9000F3E0F4CF4115510571F04130510509F0D1
:102CA0008BC089E090E0E1EFF2E099CF82E190E023
:102CB000E1E0F3E094CF89E090E0E8EDF2E08FCF3F
:102CC00080E490E0E6E8F2E08ACF80917402882305
:102CD00009F466CF853009F463CF8091E80083FD65
:102CE0005FCF8091E80082FD8ECF8091E80080FF69
:102CF00084CF9091F3008091F2002115310519F0F5
:102D00008830910550F041E0089709F040E080914B
:102D1000E8008E778093E80070CF44914093F100F3
:102D20003196215031090196E8CF803809F044C02E
:102D30008091E800877F8093E800809175028093FE
:102D4000F1009ECE811138C0109178021230A0F5AA
:102D50008091E800877F8093E800109375020E94BD
:102D60006B02112311F084E005C08091E30087FD20
:102D7000FACF81E08093740242E061EC81E00E942E
:102D80008A0242E261EC82E00E948A02809174022F
:102D900013C080917802813079F481E0933009F09A
:102DA00080E0809373021092E9008091E800877FB1
:102DB0008093E8000E946B028091E80083FF0AC0C4
:102DC0008091E800877F8093E8008091EB0080622B
:102DD0008093EB00AA96E3E00C9463230E940E1408
:102DE0002FEF84E39CE0215080409040E1F700C049
:102DF000000088E19CE00FB6F894A89580936000ED
:102E00000FBE90936000FFCF8F929F92BF92CF92A0
:102E1000DF92EF92FF920F931F93CF93DF9300D037
:102E20000F92CDB7DEB719821A821B820DE411E032
:102E3000BB24B394EE24E394F12C23E5C22E21E0CD
:102E4000D22EF80181918F018F3F09F448C0F89488
:102E5000E82FE295EF70F0E021A18F70A70102C08A
:102E6000440F551F8A95E2F7CA01922F982B91A320
:102E700092A18095892382A3789400C080E5882E52
:102E800081E0982EDE0111966B2D6095F4019191F1
:102E90004F018D919D01215031099F3F09F464C07C
:102EA000492F42954F7050E0FA0140A150E09F70C9
:102EB00002C0559547959A95E2F740FD55C08B297C
:102EC000F9018083C814D90409F7F801319780818A
:102ED0008F3F11F00E948608F0EAFA95F1F7BB0CDB
:102EE00041E00035140709F0ACCF43E050E0BE01EB
:102EF0006F5F7F4F8EED91E00E94C123892BB1F16E
:102F000089819A81AB818093DE019093DF01A09348
:102F1000E00181E08093DD010E9487039093DC0152
:102F20008093DB018091DB019091DC010E947803AA
:102F3000059700F143E050E06EED71E083EE91E023
:102F40000E94C123892B31F18091DE019091DF0134
:102F5000A091E0018093E3019093E401A093E50147
:102F600081E01092DD0107C08623AACF8091DD01A8
:102F70008111D8CF80E00F900F900F90DF91CF910B
:102F80001F910F91FF90EF90DF90CF90BF909F9097
:102F90008F90089580E0E5CFA8E0B0E0E2EDF7E1A2
:102FA0000C94482366EE7EEF90E080E00E94BB2305
:102FB00060E082E090E00E949D2360E083E090E08A
:102FC0000E949D231092D8011092D70160E074E115
:102FD00084E090E00E94BB2360E086E090E00E94E5
:102FE0009D236FEF87E090E00E949D2340E050E03A
:102FF000BA0188E090E00E94AF2360E084E290E0B4
:103000000E949D2360E087E190E00E949D2360E0A4
:103010008CE090E00E949D2360E08DE090E00E94B3
:103020009D2319821A821B821C821D821E821F828E
:10303000188648E050E068E170E0CE0101960E94F9
:103040008D2340E050E0BA0180E290E00E94AF237F
:1030500040E050E0BA018FE090E00E94AF2340E0F2
:1030600050E0BA0183E190E00E94AF232896E2E0AD
:103070000C946423B0E0A0E0E0E4F8E10C94402379
:103080008C01FC018481882341F121E04081518140
:103090006281738195810E94170DEC01FC01E8515A
:1030A000FC47E730F105A8F5E251FC4D0C943223C2
:1030B00026E241EE61EEC8010E9497138091B301B0
:1030C000877059F0F8018581882339F080914E028C
:1030D00082FF03C082E00E94F00BCDB7DEB7EAE0CA
:1030E0000C945C2327E245EE65EEE5CF26E241EE47
:1030F00060EEE1CF27E245EE64EEDDCF26E241EE61
:1031000062EED9CF27E245EE66EED5CF28E241E068
:10311000EBCFF8018581882309F4C9C31092BE0260
:10312000CE019057839708F0AEC384E090E00E94F0
:10313000872390934E0280934D02FE01E150F047A9
:10314000E232F10520F4EB50FC4D0C9432238091D7
:103150004D02816080934D0295C080914E0288603F
:1031600080934E028FC080914D028260F3CF809198
:103170004D028460EFCF80914D028860EBCF80914B
:103180004E028160EDCF80914E028260E9CF809146
:103190004D028061DFCF80914D028062DBCF809154
:1031A0004D028064D7CF0E940E1480914D0280683A
:1031B000D1CF80914D028C60CDCF80914E02836043
:1031C000CFCF80914D028E7FC5CF80914E02877FF9
:1031D000C7CF80914D028D7FBDCF80914D028B7FF7
:1031E000B9CF80914D02877FB5CF80914E028E7FFF
:1031F000B7CF80914E028D7FB3CF80914D028F7EED
:10320000A9CF80914D028F7DA5CF80914D028F7BFC
:10321000A1CF0E940E1480914D028F779BCF809199
:103220004D02837F97CF80914E028C7F99CF809102
:103230004D0282FB992790F921E0922790FB82F9B9
:1032400090FB83F987CF80914E02982F90959170D3
:103250008E7F892B90FB81F983CF90914D02892F2E
:103260008F7B96FF806476CF0E940E1490914D0262
:10327000892F97FB87F980586DCF61E08EE090E051
:103280000E949D2360914D0270914E0284E090E077
:103290000E94BB230E940E1411CF60E0EFCF9091EB
:1032A0004D02892F8F7E94FF806154CF90914D0203
:1032B000892F8E7F90FF81604DCF90914E02892F94
:1032C000877F93FF88604CCF85E3ECC28091A20199
:1032D000811104C089E20E94C60AE6C285E3FBCFE1
:1032E0008091C00291E089278093C0021092100162
:1032F0008091BF0281608093BF02E0CE44E954E038
:103300006EE974E00E94EA03D9CE4EE954E064E924
:1033100074E0F8CF40E854E06AE874E0F3CF4AE89C
:1033200054E060E874E0EECF46E654E063E774E012
:10333000E9CF43E754E066E674E0E4CF4CE454E0C0
:1033400069E574E0DFCF49E554E06CE474E0DACF7E
:1033500040E354E06EE374E0D5CF4EE354E060E325
:1033600074E0D0CF81E00E94D301A8CE82E0FBCFF1
:1033700084E0F9CF88E0F7CF0E940E14FFEF24E33A
:103380003CE0F15020403040E1F700C000000E94D6
:10339000A90D6FEF7FEF90E080E00E94BB230E94B9
:1033A000EE1680914E0282FB882780F991E08927F2
:1033B0000E94F713F8018581C081D181882309F427
:1033C0004AC0CE010E942F0BF82E682FCE010E941A
:1033D000A30BBE018F2D0E9482090E94A109D82F44
:1033E000C92FA82EF801C580B680B2943FE0B32261
:1033F0008091B3018770F1F0EC2CCC20E1F0892FA3
:10340000807F803451F080E28D0F883098F0B110C9
:1034100004C0892F807E803269F080914E0282FF45
:1034200009C082E00E94F00B8091B3018770EE2406
:10343000E3948111E12CDC2ED2942FE0D222FBE028
:10344000FD1508F46DC0ED2DF0E0E95EFB4D0C9428
:10345000322380E0ADCFCE010E94700BF82EB9CFA1
:103460002C2F2F70F22EC07F19F0F29490EFF922DA
:10347000CC20B9F0FF2069F080E28D0F883010F089
:10348000A11009C08091D601F82AF092D6010E94BD
:1034900021128D2F43C08091D501F82AF092D501D9
:1034A000F6CF8D2F0E948712FF20D1F1D05ED83049
:1034B00010F0A11004C08F2D0E94BF0A06C0F09426
:1034C0008091D501F822F092D5010E94211228C0E6
:1034D0003C2F3F70F32EC07FC03219F0F29480EF82
:1034E000F822AA2059F081E0A81609F479C0CC206E
:1034F00009F485C0BB2009F447C0CBCF80914E02B0
:1035000082FD3EC0CC20B1F1FF2039F08091D60180
:10351000F82AF092D6010E94211280E00E94E11266
:103520002D2D2850330B2430310510F40E94DD037B
:10353000EE20A9F08091B30180FD11C0F801158241
:103540008695869586950E94070CC8010E943A18B8
:103550008091B3018695869586950E94DE0B20E0CA
:10356000F8014081518162817381848195810E943B
:10357000170DB3CD80E00E948712FF2089F29BCF08
:10358000CC20A1F0B11004C08F2D0E947D12C8CFB5
:1035900091E0B912C5CF8091D4019F2D9823F916DF
:1035A00009F4BECFF82AF092D401BACFB110B8CF47
:1035B0008F2D0E9476129091D4018F2D892329F0AE
:1035C0008F2D809589238093D4018091A3019F2D15
:1035D000982309F4A5CFF094F822F092A301A0CF8C
:1035E000CC2029F0E5E0EB1508F49ACFCDCFF4E03C
:1035F000FB1508F495CF8F2D0E94761291CFBB203A
:10360000D1F329E3A21209C03FEF87EE93E03150D6
:1036100080409040E1F700C000008D2F0E9487128B
:103620007FCF8C2F86958695837069F0813009F065
:1036300077CF8D2F9C2F9370C11002C080E090E057
:103640000E9493036DCF8D2F9C2F9370C11002C0E9
:1036500080E090E00E94B80363CF6C2D8D2F0E9414
:103660003F0C5ECF8C2F837009F03FC0C11058CF44
:103670004D2F429546954770440F440F2D2F2F70C4
:1036800030E0042E02C0220F331F0A94E2F790E0CC
:1036900080E0D4FF09C08FE090E002C0880F991F3E
:1036A0004A95E2F780959095C695C695C370C2304D
:1036B00099F078F44091D7015091D801C13039F098
:1036C000822B932B842395230E94170C29CF242B24
:1036D000352B822B932BF8CF822B932B2091D70164
:1036E0003091D80182279327EFCF8695CC2011F017
:1036F0008C2F8170882309F413CF4D2F4295469566
:103700004770440F440F2D2F2F7030E0042E02C05D
:10371000220F331F0A94E2F790E080E0D4FF09C043
:103720008FE090E002C0880F991F4A95E2F78095DC
:103730009095C695C695C370C23099F078F44091C3
:10374000E1015091E201C13039F0822B932B8423A7
:1037500095230E94D90BE4CE242B352B822B932B5F
:10376000F8CF822B932B2091E1013091E201822747
:103770009327EFCFCF70CC2029F08C2F0E94070C1D
:103780008D2F03CF8D2F0E9476128C2F0E94DE0B7F
:10379000C7CE8D2FE2EFAE1699F1EA1570F0F0EF7B
:1037A000AF16D1F021EFA21691F0CC2009F45BC046
:1037B000B1106FCE8C2F8F7127C033EFA31639F164
:1037C00094EFA912F2CF80914E0282FD2EC08C2F71
:1037D0008F71CC20D9F218C0CC2069F0E4E0EB1551
:1037E00008F49ECECF7181E090E002C0880F991F4F
:1037F000CA95E2F7B8CFF5E0FB1508F491CEF2CF09
:103800008C2F8F71C110C2CF0E94070C89CE90E01F
:1038100080E0CC2009F49DCFCF7181E090E002C020
:10382000880F991FCA95E2F794CFCC2089F0CF7109
:103830008C2F0E94070C80914E0282FF07C028E067
:10384000C29FC001112483608093B3018C2FDCCF11
:1038500081E00E94F00B31E03B1508F061CE82E080
:103860000E94F00B5DCEBB2059F0893309F0D5CE14
:103870008FEF97EEE3E081509040E040E1F7CBCE50
:103880008C2F8F7183CFC631FCE7DF0719F580914C
:10389000D6018A7A91E009F490E09093A201811117
:1038A00013CD89E20E94F10A0E94211207CCC63191
:1038B0002CE7D20709F40ACD8091D6018272FE016D
:1038C000E052F847E531F10508F074CDED5DFB4DB0
:1038D0000C943223C3303CE7D30709F45ACD50F49B
:1038E000C1159CE7D90709F447CDC130DC4709F47D
:1038F00056CD60CDCB35FCE7DF0709F4AACDCC353A
:103900002CE7D20709F44DCDCA35DC4709F052CD7A
:1039100081E04ECDCF93DF938091B201807F09F09B
:103920004DC08091B101882309F448C0E091B702ED
:1039300050917E02C091AD01D091AC016091AE0179
:103940007091AF0147E05E17C9F18E2F90E0E49FC0
:10395000F0011124E158FD4F2481222391F1489F69
:10396000F001499FF00D1124DF01A158BD4F1196C0
:103970002C9111972C1325C02C912D1322C0159634
:103980002C91159721111DC012962D913C91261B4B
:10399000370B283C3105A8F48091B2018F7080610B
:1039A0008093B201EB57FD4F80818F7080618083DF
:1039B0008CEA91E00E943A180E94250BDF91CF918A
:1039C0000895FC013196E770BECFA4E1B0E0EBEEC4
:1039D000FCE10C943E238C0186E0F801DE011F9689
:1039E00001900D928A95E1F7F8018481E5809CEAC7
:1039F000A92E91E0B92E9091B001911128C0882391
:103A000019F1EE20F1F0C8010E941C0CF82E882359
:103A1000C1F087E0F801D50101900D928A95E1F798
:103A20008091B001813031F48091AC019091AD0171
:103A30000E94630B0E948A1C8F2D6496ECE00C940C
:103A40005A23C8010E943A18FF24F394F5CFD0807E
:103A5000C18082809380F090B1012091AE013091BD
:103A6000AF01A401421B530BFF2009F4D9C0483C0D
:103A7000510508F092C08823F9F29091AD01809130
:103A8000B201282F207F09F056C0C91214C09091AE
:103A9000AC01D91210C0E11048C08F7080618093D2
:103AA000B2018CEA91E00E943A188091B201F801CB
:103AB0008683F12CC1CFE11038C06C2D8D2D0E9472
:103AC000EC016C2D8D2D0E94EC01E82E8111F1CFBF
:103AD000DF86C88A8F8598890E94630B292F2295DB
:103AE0002F70243058F49F70223088F0992399F079
:103AF000F8019681907F79F4FE2C9ECF2A5F2F707B
:103B0000223068F0C8010E943A18EF2CF5CF9923B3
:103B100011F0882389F3805E883070F3F3CF803F03
:103B200058F3815F833070F7E7CF8091B2018160F5
:103B30008093B201BECFC91207C09091AC01D912D7
:103B400003C0EE2009F48DC0C8010E941C0C88231C
:103B500009F477CFEE2009F474CF8091B20180325E
:103B600088F02091AC013091AD01398728879B8680
:103B70008A869091B0019C871D868E87CE0108961B
:103B80000E943A1887E0F801ACEAB1E001900D928A
:103B90008A95E1F70E948A1C57CF9091B201292F94
:103BA000207F51F48CEA91E00E943A1887E0F501F9
:103BB00011928A95E9F77DCF882309F43DCF809152
:103BC000AD018C1110C08091AC01D8120CC0E11075
:103BD0000AC09683C8010E943A1887E0F501119245
:103BE0008A95E9F729CFC8010E941C0C882309F4A3
:103BF00028CFEE2009F425CF8091B201803210F257
:103C00002091AC013091AD013A8329839C828B8253
:103C10009091B0019D831E828F83CE010196B0CF1B
:103C2000483C5105D0F6882309F40ECFFE2CEE2037
:103C300009F407CF8091AD018C1120C08091AC01B7
:103C4000D8121CC08091B20180FD0FC0982F907FC8
:103C500061F08683903F31F0982F907F905F8F7056
:103C6000892B8683C8010E943A1887E0F801ACEAE4
:103C7000B1E001900D928A95E1F7DECEC8010E9475
:103C80001C0C81117FCF8091B20181608093B201C1
:103C9000C8010E943A18D0CEABE1B0E0E2E5FEE107
:103CA0000C9446234E8B5F8B688F798F8A8F9B8F06
:103CB000192F91111092D5011D8A86E0FE0176968A
:103CC000DE011F9601900D928A95E1F70A8D00237F
:103CD00041F021E04F85588969897A89C8010E949D
:103CE000170D0B8B1C8B87E0FE013F96DE011896AB
:103CF00001900D928A95E1F7CE0108960E94E51C8D
:103D000081112AC087E0FE013896DE0111960190EC
:103D10000D928A95E1F78C858823F1F020917E023F
:103D200030E0C9010196877099274091B702481782
:103D30001906E9F097E0929FD001939FB00D1124EE
:103D4000A158BD4FFE01319601900D929A95E1F771
:103D500080937E020E94250B17E08091B70290911C
:103D60007E02891312C06B96E4E00C9462230E94D9
:103D70000E1410927E021092B70287E0ECEAF1E096
:103D8000DF011D928A95E9F7E7CF819FC0011124D9
:103D900081589D4F0E94E51C882329F38091B7022A
:103DA00090E00196877099278093B702D6CFA6E05E
:103DB000B0E0EDEDFEE10C9446230E9487038C01F8
:103DC0008091D9019091DA018017910781F01982D1
:103DD0001A820E948703682F49815A81792F80E0D7
:103DE00090E00E944C1E1093DA010093D9012696B0
:103DF000E4E00C9462231F920F920FB60F921124ED
:103E00002F933F934F935F936F937F938F939F93E2
:103E1000AF93BF93CF93DF93EF93FF93D091E900DC
:103E2000DF708091EC00C82FC17080FDC0E8109257
:103E3000E9008091F000877F8093F00078940E94E1
:103E40003D141092E9008091F00088608093F000AA
:103E5000CD2BCF70C093E900FF91EF91DF91CF910F
:103E6000BF91AF919F918F917F916F915F914F9192
:103E70003F912F910F900FBE0F901F9018951F929A
:103E80000F920FB60F9211242F933F934F935F938E
:103E90006F937F938F939F93AF93BF93EF93FF9312
:103EA0008091E10082FF09C08091E20082FF05C09D
:103EB0008091E1008B7F8093E1008091DA0080FFA8
:103EC00024C08091D80080FF20C08091DA008E7FCE
:103ED0008093DA008091D90080FF9DC080E189BD88
:103EE00082E189BD09B400FEFDCF81E080937402B8
:103EF00080914F02811109C00E941B020E94BC02E6
:103F00008091E20084608093E2008091E10080FF74
:103F100017C08091E20080FF13C08091E2008E7F85
:103F20008093E2008091E20080618093E2008091C2
:103F3000D80080628093D80019BC85E08093740219
:103F40008091E10084FF2BC08091E20084FF27C0B4
:103F500080E189BD82E189BD89B5982F917080FF8C
:103F6000FBCF8091D8008F7D8093D8008091E100B5
:103F70008F7E8093E1008091E2008F7E8093E2004B
:103F80008091E20081608093E20080917502882335
:103F900009F447C084E08093740280917402809198
:103FA000E10083FF27C08091E20083FF23C080915E
:103FB000E100877F8093E10082E080937402109299
:103FC00075028091E1008E7F8093E1008091E20094
:103FD0008E7F8093E2008091E20080618093E20016
:103FE00042E060E080E00E948A028091F0008860F8
:103FF0008093F000FF91EF91BF91AF919F918F91CE
:104000007F916F915F914F913F912F910F900FBED4
:104010000F901F90189519BC1092740210924F02C5
:1040200074CF8091E30087FD93E090937402B5CF45
:1040300078941F921FB61F9211248F939F93AF9372
:10404000BF938091490290914A02A0914B02B09196
:104050004C020196A11DB11D8093490290934A0222
:10406000A0934B02B0934C02BF91AF919F918F915F
:104070001F901FBE1F9018951F921FB61F921124EC
:104080008F939F93AF93BF9380914802811113C088
:104090008091490290914A02A0914B02B0914C024A
:1040A0004196A11DB11D8093490290934A02A093AD
:1040B0004B02B0934C02BF91AF919F918F911F9093
:1040C0001FBE1F901895CDB7DEB72C970FB6F8948A
:1040D000DEBF0FBECDBF85B7806885BF85B780685E
:1040E00085BF84B7877F84BF0FB6F894A895809169
:1040F0006000886180936000109260000FBE80E8CD
:1041000090E00FB6F89480936100909361000FBE29
:1041100084E898E090938101809380010E941B02C3
:104120000E94BC028091E20084608093E200789457
:10413000809174028823A1F01091E9001F70909182
:10414000EC00892F817090FD80E8182B1092E90017
:104150008091E80083FD0E943D141F701093E900D8
:1041600082E084BD13E015BD9AEF97BD80936E0089
:1041700086E90E94860882E90E94860881E90E94F9
:10418000860885EF0E94860884EF0E94860881EFEA
:104190000E948608E3EEF1E0DF01212F1D922A95AF
:1041A000E9F7EEEDF1E0DF011D921A95E9F790E0F5
:1041B00080E00E948723863E9E4F11F00E94CC171C
:1041C00082E090E00E947F238093E60184E090E00B
:1041D0000E94872390934E0280934D020E94041701
:1041E000EFEFF6E721E0E150F0402040E1F700C0BA
:1041F00000000E9404178091E30180FF08C06FEF68
:104200007FEF90E080E00E94BB230E94A90D83E035
:1042100090E00E947F2390E00E94170C90E080E0E5
:104220000E948723863E9E4F21F00E94CC170E9459
:10423000F40D81E08093BF0248E050E068E170E057
:1042400080EC92E00E946F231092BF028091C00226
:104250008C7F11F40E94F40D80E091E09093450270
:104260008093440208E110E050E4E52EFF24F3942B
:1042700099249394882483948091740223E0D22E0D
:1042800030E1C32E42E1B42E853009F45DC10E94B5
:1042900004179091E3018091E701981361C1909117
:1042A000E8018091E40198135BC19091E90180914C
:1042B000E501981355C10E94D71E0E94AD1186E0FA
:1042C000E2EFF1E0DE01119601900D928A95E1F79F
:1042D0001092F4011092F5011092F6011092F7017C
:1042E0008B819C81892B09F44AC08091F0019091C7
:1042F000F1010E9478039C019091EB01992309F44C
:1043000084C125313105D8F19F3F19F09F5F90930B
:10431000EB01DB80DD2059F00E9464089FEF1D1443
:104320000CF491E0899F802D11248093F401DC80AE
:10433000DD2059F00E9464089FEF1D140CF491E0F9
:10434000899F802D11248093F5013091F40133234E
:10435000B1F02091F501222391F045EB3403C00127
:104360001124992309F440C19093F40145EB2403EF
:1043700090011124332309F43AC13093F5018D8162
:104380009E81892B09F44AC08091EE019091EF0142
:104390000E9478039C019091EC01992309F430C1AB
:1043A00021353105D8F19F3F19F09F5F9093EC01C3
:1043B000DD80DD2059F00E9442089FEF1D140CF4AF
:1043C00091E0899F802D11248093F601DE80DD200D
:1043D00059F00E9442089FEF1D140CF491E0899F50
:1043E000802D11248093F7013091F6013323B1F031
:1043F0002091F701222391F045EB3403C0011124F1
:10440000992309F4F7C09093F60145EB240390013A
:104410001124332309F4F1C03093F70146E050E052
:10442000BE016F5F7F4F82EF91E00E94C123892B15
:1044300061F48091F4019091F501892B9091F6013E
:10444000892B9091F701892B11F00E941B0886E0BF
:10445000FE013196A2EFB1E001900D928A95E1F74D
:104460000E94DD039091EA01891709F405CF80933A
:10447000EA018FB7F8944091490250914A02609145
:104480004B0270914C028FBFF7CE80917402843042
:1044900009F436C00E94AD118091260281110DC031
:1044A0000E940F0E10920B018091C00283708093C6
:1044B0000A010E94CD0DD092100180922602109226
:1044C00048020FB6F894A895009360000FBEE092E2
:1044D000600083B7817F846083BF83B7816083BFBF
:1044E0007894889583B78E7F83BF0FB6F894A8958C
:1044F00080916000886180936000109260000FBE20
:1045000080917302882301F10E9404178091E401D5
:104510009091E301892B9091E501892BA9F0C9BC09
:10452000B9BC09B400FEFDCF8091D8008F7D809387
:10453000D8008091E00082608093E0008091E000EC
:1045400081FDFCCF0E940E1480917402853009F425
:104550009CCF0E940E140E94DD031092260297CE7B
:1045600083EEA82E81E0B82E97EEC92E91E0D92EC9
:10457000712CD5016D905D01F60131906F013614FB
:1045800019F1512C442443943624832D8421A1F025
:104590005F8278860E9487039A8789879B8691E04D
:1045A000842D862109F490E09C874F815885698588
:1045B0007A858B850E944C1E5394440CF3E05F1265
:1045C000E4CFF60131976082739423E07212D1CF69
:1045D0008FB7F8944091490250914A0260914B0282
:1045E00070914C028FBF69CEF092F401BFCEF09271
:1045F000F501C5CEF092F60108CFF092F7010ECF8B
:104600002B30310508F0D1CE09CF2B30310508F021
:104610007DCEB5CEAA1BBB1B51E107C0AA1FBB1F95
:10462000A617B70710F0A61BB70B881F991F5A953E
:10463000A9F780959095BC01CD01089597FB072EB1
:1046400016F4009407D077FD09D00E940A2307FCD6
:1046500005D03EF4909581959F4F08957095619592
:104660007F4F0895EE0FFF1F0590F491E02D099400
:104670002F923F924F925F926F927F928F929F9272
:10468000AF92BF92CF92DF92EF92FF920F931F9360
:10469000CF93DF93CDB7DEB7CA1BDB0B0FB6F89411
:1046A000DEBF0FBECDBF09942A88398848885F8451
:1046B0006E847D848C849B84AA84B984C884DF80C2
:1046C000EE80FD800C811B81AA81B981CE0FD11DA6
:1046D0000FB6F894DEBF0FBECDBFED010895DC012B
:1046E000CB01FC01F999FECF06C0F2BDE1BDF89AFD
:1046F000319600B40D9241505040B8F70895F999A1
:10470000FECF92BD81BDF89A992780B50895A8E1A2
:10471000B0E042E050E00C947123DC01A40FB51F1F
:104720004150504048F0CB01840F951F2E910E94BC
:104730009E2341505040D0F70895262FF999FECF7F
:1047400092BD81BDF89A019700B4021639F01FBAE4
:1047500020BD0FB6F894FA9AF99A0FBE0895039601
:10476000272F0E949E230E949D23252F0E949E2377
:10477000242F0C949E230196272F0E949E230C9495
:104780009D23FB01DC0104C08D910190801921F46F
:1047900041505040C8F7881B990B0895F894FFCFFB
:1047A0003F0E4B0E780EBA0ED70EDA0EDD0EE00E6F
:1047B000E50E300F330F380F3B0F740FAF0FF10FB3
:1047C000F40FF70F68102F111C154415DC16441553
:1047D000DC1677159815DC169516A21676187A1839
:1047E000581872187E1882188618E1185619E91898
:1047F000B318B718ED18BB18F118FD18C7184F19E2
:10480000CB180119CF1805192D19D3180919341906
:10481000D9180F191719BF18F518C318F918DD188A
:10482000131923193D194D19AD18E5185D19301AE2
:10483000301A681A681A111B2D1B901A901A321B15
:10484000BA1BC91BC91B70197E1985198A198F19C2
:10485000941999199E19A319A819AD19B219B61965
:10486000B819BA195E185E185E185E185E185E18E0
:104870007503850D7E0D770D3905FFFF0100FF00E3
:104880000300FFFF818283E200E900EA00B500B681
:1048900000B700CD008301CC008A01920194012170
:1048A00002230224022502260227022A02B300B4B0
:1048B000006F0070009F01CB019F02A002969291B1
:1048C000F5F4F1003131295A1B750A020100050483
:1048D00003080706400020000000402020200020A0
:1048E0004040204000400404040404040404040084
:00000001FF
