:100000000C94CF020C9407030C9407030C94070381
:100010000C9407030C9407030C9407030C94070338
:100020000C9407030C9407030C9454300C942C315B
:100030000C9409300C9407030C9407030C940703E9
:100040000C9407030C9407030C9407030C94070308
:100050000C9407030C9430300C9407030C940703A2
:100060000C9407030C9407030C9407030C940703E8
:100070000C9407030C9407030C9407030C940703D8
:100080000C9407030C9407030C9407030C940703C8
:100090000C9407030C9407030C9407030C940703B8
:1000A0000C9407030C9407030C9407030501090241
:1000B000A10185020901A1000509190129081500FE
:1000C0002501950875018102050109300931158165
:1000D000257F95027508810609381581257F9501D0
:1000E00075088106050C0A38021581257F95017572
:1000F000088106C0C005010980A101850319012AF4
:10010000B700150126B700950175108100C0050CD8
:100110000901A101850419012AA002150126A002E6
:10012000950175108100C005010906A1018506052C
:100130000719E029E71500250195087501810205D9
:1001400007190029EF1500250195F07501810205B9
:10015000081901290595057501910295017503910D
:1001600001C00660FF0961A1010962150026FF00B8
:100170009520750881020963150026FF00952075FA
:10018000089102C005010906A101050719E029E748
:1001900015002501950875018102950175088101F9
:1001A0000507190029FF150026FF0095067508812F
:1001B000000508190129051500250195057501910E
:1001C00002950175039101C00000000000000000CD
:1001D000000000000000000000000000000000001F
:1001E0000000000000000000000000007E0F00D4AE
:1001F000FFFFFFC7000000780000000000000000C3
:100200002A2B280000000000000000000000000071
:1002100000000029000000002C1E3420212224347C
:100220002627252E362D3738271E1F20212223244E
:1002300025263333362E37381F0405060708090AEA
:100240000B0C0D0E0F101112131415161718191A86
:100250001B1C1D2F3130232D350405060708090A04
:100260000B0C0D0E0F101112131415161718191A66
:100270001B1C1D2F3130354C09025B00030100A00F
:10028000FA09040000010301010009211101000124
:10029000224400070581030800010904010002034C
:1002A000000000092111010001222200070582033C
:1002B00020000107050303200001090402000103D7
:1002C00000000009211101000122B6000705840386
:1002D00020000112010002000000084D59094401EC
:1002E00000010203011C037600690061006C003A02
:1002F00000660036003400630032006200330063A1
:100300000000000C0359004D00440030003900008B
:10031000000A0359004D0044004B0000000403098B
:10032000045F00600061005C005D415E0059005A9E
:10033000005B002278277821782378007C257824B8
:1003400078287826780001010101010101010102EC
:100350000202020202020202030303030303030375
:100360000404040404040405050505050606060640
:1003700006070707070708080808090909090A0AFC
:100380000A0B0B0B0C0C0C0D0D0D0E0E0E0F0F0FA0
:10039000101011111112121313141415151616172B
:1003A00017181819191A1A1B1B1C1D1D1E1E1F2099
:1003B00020212222232424252626272829292A2BE6
:1003C0002C2D2D2E2F30313232333435363738390B
:1003D0003A3B3C3D3E3F4041424344454647484905
:1003E0004A4C4D4E4F50515354555658595A5B5DD7
:1003F0005E5F616264656668696B6C6D6F70727375
:100400007577787A7B7D7E8082838587888A8C8EDB
:100410008F91939596989A9C9EA0A2A3A5A7A9AB0D
:10042000ADAFB1B3B5B7BABCBEC0C2C4C6C9CBCDFF
:10043000CFD1D4D6D8DBDDDFE2E4E7E9EBEEF0F3B1
:10044000F5F8FAFDFFFD377A585A000004E6D6B4F5
:10045000460200210116000000742FE5A3E000C24F
:10046000008F5D003D8889C65436C3174FE4E9A567
:10047000387F8BEFD9CEAAB5A7A1A57F788CDD2BCD
:100480001DBB4E9D5480814F6056F7D055DE9E981F
:1004900061B43A15466EB3391BAE687AA9C4586187
:1004A000ED8AEE7E87B9C8469A0E46B93B7AAED140
:1004B000ED888BBDB730D0737FDE6E1A7D55135D2E
:1004C000663EB75A7E0FD7E5DF7C0C8B31615997BA
:1004D000B7D47207E2464339DDFC15592B54D02BB3
:1004E000DE78115272C38CB14C7BD1A3D25FC4941D
:1004F0002980000000113A3160F53F9B250001ABD7
:1005000001C30100009F37D4E8B1C467FB020000BB
:10051000000004595A0000000001002200020001FE
:1005200000060002000D0003000E0004000F00058D
:100530000010000600110007001300080014000955
:100540000015000A0016000B0018000C0019000D21
:10055000001A000E001B000F001C0010001D0014EC
:10056000001E0015001F00160020001700210018B3
:10057000002200190023001A0024001B0025001C83
:100580000026001D0027001E0028001F0029002053
:10059000002A0021002B0011002C00130000112460
:1005A0001FBECFEFDAE0DEBFCDBF04B603FE18C03A
:1005B0008091600390916103A0916203B091630305
:1005C0008730904BA740B04B59F4109260031092C3
:1005D00061031092620310926303E0E0F8E309956F
:1005E00023E0AAE9B1E001C01D92A036B207E1F70D
:1005F00011E0A0E0B1E0E2EBF7E602C005900D9259
:10060000AA39B107D9F70E9436280C942C330C94E0
:1006100000009C01FB019A9581159F4120F5832FD5
:100620008170B32FB270AA27732F74706627532F6F
:100630005870442734FF0DC08295807FAB2B09F0A2
:100640008062672B09F08064452B09F0806809956A
:100650000895AB2B09F08260672B09F08460452B6D
:10066000B1F38860F4CF80E0F2CF80931503089552
:1006700080931603089521E030E001C0220F8A958F
:10068000EAF780911603822B0E943803089521E037
:1006900030E0A90102C0440F551F8A95E2F7CA0154
:1006A00080959091160389230E9438030895482F5E
:1006B0009330A8F5833098F5292F30E0C901880FD1
:1006C000991F820F931F840F911D282F277041E0DF
:1006D00001C0440F2A95EAF773E0969587957A95BD
:1006E000E1F7FC01EE0FFF1FE80FF91FE850FD4F87
:1006F00020E030E070E05191DF01CB01022E02C01A
:10070000969587950A94E2F78170819585278423D1
:1007100085278E932F5F3F4F2330310561F7089572
:10072000482F933090F5833080F5292F30E0C901B0
:10073000880F991F820F931F840F911D682F677078
:1007400073E0969587957A95E1F7FC01EE0FFF1F10
:10075000E80FF91FE850FD4F40E050E080E02191A4
:1007600030E0062E02C0369527950A94E2F72170F4
:100770003327042E01C0220F0A94EAF7822B4F5F21
:100780005F4F4330510559F7089580E008959091E7
:10079000160321E030E0F90101C0EE0F8A95EAF777
:1007A000D90102C0AA0FBB1F6A95E2F7EA2B01C06C
:1007B000220F4A95EAF7892F8E23E81305C0892F67
:1007C000822B0E94380308952095822F8923F9CF28
:1007D00080911E0390911D03981301C008958F5FAF
:1007E0008770FACF9091180380958923809318031E
:1007F000282F2770211111C0891779F090915F037C
:1008000092FF0BC08695869586950E9447031092AD
:10081000180310921A03109219030895982F9095B7
:100820008091130389238093130308958091120309
:10083000811531F01092120310921C0310921B03C9
:1008400008959C01803E910509F448C0D8F4813395
:10085000910509F47DC048F48932910509F46DC011
:100860008A9709F47CC0C90108958933910551F133
:100870008238910539F1C597B1F780915E0385FF04
:10088000F2CF29C0843E910509F447C048F4823E66
:10089000910599F1833E9105A9F121EE30E0E3CF76
:1008A000863E910509F444C0873E9105E1F68091AA
:1008B0005E0383FD61C090915F0391FF2BC024EE26
:1008C00030E0D1CF80915E038370811152C080915E
:1008D0005F0383FFC8CF29E230E0C5CF80915E037C
:1008E00080FD33C090915F0390FFBDCF23EE30E0D9
:1008F00084FFB9CF20E030E0B6CF80915E0382FD67
:10090000F5CFB1CF80915E0382FD30C090915F033F
:1009100090FD2FC084FFA7CFEDCF80915F0381FFB3
:10092000A2CF80915E0327EE30E084FDE3CF9BCF22
:1009300080915E0383FDF7CF96CF80915E0385FDA6
:100940001EC080915F0383FF8ECF29E330E08BCF01
:1009500080915E0386FF87CF2AE230E084CF8091CA
:100960005E0386FF80CF21E330E07DCF22EE30E0D2
:100970007ACF20EE30E077CF26EE30E074CF25E35B
:1009800030E071CF90915E0392FF10C041E0282FBC
:100990002471243009F040E031E0282F28712830FC
:1009A00009F030E0431711F02CE0822793FF10C0CC
:1009B00041E0282F2471243109F040E031E0282F54
:1009C0002871283109F030E0431711F02CE082271C
:1009D00030915F0330FF10C051E0282F217121308A
:1009E00009F050E041E0282F2871283009F040E05C
:1009F000541711F029E0822731FF10C041E0282F61
:100A00002171213109F040E031E0282F287128318F
:100A100009F030E0431711F029E0822794FD877E2A
:100A200008951F93CF93DF930E942104EC01811559
:100A300022E5920708F055C0811540E5940708F0BB
:100A4000D1C0803E910520F58D3C910508F0A4C0F1
:100A5000883A910570F4853A910508F09AC0813082
:100A60009105D1F10497813A9105B0F1C0E0D0E051
:100A700033C0885A91094B97C8F7C85AD0E0CC0FB9
:100A8000DD1FCC59DE4F0990D881C02DD46424C01D
:100A9000811550E49507C0F4C11580E2D80708F02D
:100AA000B7C0C83ED105C0F0CE019A9581159F41CF
:100AB000E8F68D2F0E94C204182FCE0199270E94BC
:100AC0002104EC01D12B08C099270E942104CC27D6
:100AD000DF70C82BD92BD06ACE01DF91CF911F9147
:100AE0000895803842E59407C8F5803652E59507A9
:100AF00008F05BC0C03482E5D807D0F4C03292E57C
:100B0000D90708F04BC08C2F8695869520E2829FEE
:100B1000C0011124C37021E030E0A90102C0440FDC
:100B2000551FCA95E2F7EA01C82BD92BDD68D4CF4F
:100B30008C2F86958695877050E2859FC001112481
:100B4000C37021E030E0A90102C0440F551FCA95CF
:100B5000E2F7EA01C82BD92BDC68BECF803C52E516
:100B6000950758F48F71C03AD245A0F590E0982FC0
:100B70008827EC01C46FD06AAFCF805C9245809724
:100B800008F074CFDC2FCC27CC27DF71C06FD06A80
:100B9000A3CFA497D064A0CFD0659ECFCF71D0E073
:100BA000DC2FCC27C16FD06A97CF8695869587704A
:100BB00020E2829FC0011124C37021E030E0A9012E
:100BC00002C0440F551FCA95E2F7EA01C82BD92B82
:100BD000DA6882CF0E94C204C82FD0E0DC2FCC2775
:100BE000D0627ACF8F710E94C20493E0CC0FDD1FD8
:100BF0009A95E1F7CC27DF70282F30E084FF04C0FE
:100C000050E1859F90011124C22BD32BD06964CF72
:100C10008D2F8F710E94C204182FCE0199270E9438
:100C20002104EC01D12BDCCF80E00895F894E82F6B
:100C3000E295EF70F0E041A18F7021E030E0B90162
:100C400002C0660F771F8A95E2F7CB01962F909529
:100C5000942391A392A1892B82A378940895A0E074
:100C6000B0E0E5E3F6E00C94B731372FE82FF0E081
:100C7000EB5BFC4F71110AC0E4918E2F2E2F6E2F6B
:100C8000722FCDB7DEB7E7E00C94D331062F10E01A
:100C9000E72EF12CD4902D2D86E0689FE0011124E1
:100CA000EFEFF0E0CE01BF010E947731000F111F7E
:100CB00045E5469FC001479F900D1124081B190B65
:100CC000402F440F400F8F010E191F09D09ED001F5
:100CD000D19EB00D11248B2F349F80011124012F40
:100CE00011277F01E01AF10A8701D09E7001D19E81
:100CF000F00C11248F01041B1109A801349F8001FD
:100D0000359F100D1124012F1127E01BF10BDE9EE2
:100D1000A001DF9E500D1124E52F63307105C1F055
:100D2000CC3FD34058F461307105B1F062307105A9
:100D300009F0A5CFED2D2B2F852FA1CF64307105A4
:100D400071F06630710509F49ACFEB2F8F2D97CF94
:100D50002B2F8D2DEF2D93CFED2D2F2D90CFEB2F12
:100D60008D2D252F8CCF9C0180E090E0269F812D3A
:100D7000369F800D911D11240895AC01823091059C
:100D800008F408959FEF413E8EE1580740F4CA01F0
:100D900025E0969587952A95E1F798E0980F61E010
:100DA000E62FE90FFF27FF1F9F0135952795822F1B
:100DB000229FF001239FF00DF00D11244E175F07C5
:100DC00038F49FEF920F961758F78FEF860F08951C
:100DD0002F3FE9F361E0620FF6CF40910701509198
:100DE000080125E038E0429FC001439F900D529FCB
:100DF000900D1124875E994C909308018093070110
:100E0000890F0895982FE82F96FDE0958E2F8F700B
:100E100096FD8F5FE695E695E695E670F0E0EE5C70
:100E2000FE4F2181289F202D812D112422952F7086
:100E30008295807F282B8081820F97FD8195805835
:100E40000895FC019B01009719F4832F8078089581
:100E5000AC0197FF04C044275527481B590BB90123
:100E6000640F751F37FD0FC0C901841B950BA5E0EA
:100E7000880F991FAA95E1F70E948B3180E2861BAB
:100E8000F7FD81950895CB0165E0880F991F6A955C
:100E9000E1F7BA01621B730B0E948B3180E6EFCF42
:100EA000622F0895E42FF0E0EE0FFF1FE05CFE4F8D
:100EB0006185621B0895E42FF0E0EE0FFF1FE65BF3
:100EC000FE4F6081621B0895322F50E0FA01EE0F51
:100ED000FF1FE65BFE4F9081905297FD9195440F66
:100EE000551FFA01E05CFE4F2185231B330B290FB0
:100EF000311D97FD3A95620F0895EF920F931F935E
:100F000010E09801220F331F200F311F35952795D0
:100F10006E2D620F1F910F91EF9008950F93CF9355
:100F2000DF93D72FC82FBA01C9010E942107682F6C
:100F3000600F7D2F8C2FDF91CF910F910895EF924D
:100F40000F93CF93DF93D72FC82FBA01C9010E1982
:100F50000E942107602F681B7D2F8C2FDF91CF917E
:100F60000F91EF9008950F931F93522F10E0F80107
:100F7000EE0FFF1FE65BFE4FA081A052BB0B9D0151
:100F80005203F001539FF00D1124000F111FD801DF
:100F9000A05CBE4F19962C912052330B4203D00116
:100FA000439FB00D11249F012A0F3B1F37FF02C042
:100FB00021583F4F220F232F221F330B620F1F9107
:100FC0000F9108950F931F93522F10E0F801EE0F29
:100FD000FF1FE65BFE4FA081A052BB0B9D01520399
:100FE000F001539FF00D1124000F111FD801A05CD8
:100FF000BE4F19962C912052330B4203D001439FD0
:10100000B00D11249F012A0F3B1F37FF02C0215C46
:101010003F4F96E0359527959A95E1F7620F1F911E
:101020000F9108950F931F93CF93DF93D62F072F20
:10103000182FC42F822F0E940207982FEC2FF0E068
:10104000EE0FFF1FE05CFE4F81858058980F97FDE3
:101050009195990F292F3CE0239F212D1124622F78
:101060006D0F702F812FDF91CF911F910F910895F8
:10107000E42FF0E0EE0FFF1FE05CFE4F9185921B26
:1010800097FD9195292F38E1239F212D1124620F7F
:10109000089520910E0330E1230F08F42FEF60E153
:1010A000822F90E00E94B306BC0188EB9BE00E9477
:1010B000773180E090E008954095282F429F412DA0
:1010C0001124842F0895409520E4429F412D11243E
:1010D000640F0895EF92FF920F93970195E0099F97
:1010E000200D311D1124211591E0390710F02FEF4B
:1010F00030E02095382F320F08F43FEF832F0F9107
:10110000FF90EF900895EF92FF920F93E00EF11C85
:10111000F90137FF03C0F195E195F10924E0EE0FE5
:10112000FF1F2A95E1F7E11531E0F30714F0EFEF27
:10113000F0E0DA0157FF03C0B195A195B10994E041
:10114000AA0FBB1F9A95E1F7AE17BF070CF4FD017C
:10115000EE0DFF1DE11591E0F90710F0EFEFF0E063
:101160002E2F2095382F320F08F43FEF832F0F9149
:10117000FF90EF900895EF92FF920F93CF93DF933C
:10118000972FEA01F901D701093430F4A01BB10906
:10119000A11521E0B20710F0AFEFB0E028966197FB
:1011A00040F0AF01485F5F4F4131510510F0AFEFA4
:1011B000B0E02A2F2095382F320F08F43FEF832F0D
:1011C000F7FD33969F0135952795359527956091C5
:1011D0000B03620F792FDF91CF910F91FF90EF906A
:1011E0000895EF92FF920F939701201B310921156B
:1011F00041E0340710F02FEF30E0322F3095482FC8
:10120000430F08F44FEF842F620F0F91FF90EF9080
:101210000895EF92FF920F939701201B310921153A
:1012200091E0390710F02FEF30E02095382F320F82
:1012300008F43FEF832F0F91FF90EF9008950E94E5
:10124000E20908950E94060A0895880F92E0980F17
:101250009A3008F099E00895962F20910A032370A0
:101260002115A1F0811599F0833298F48F73880FBE
:10127000880F20910A032370822B80930A03109217
:10128000160160910903692B60930903089581E0B9
:10129000EECF82E2ECCF80910A03869586958F5F30
:1012A000833208F081E061E00E942C09089580916A
:1012B0000A03869586958A9509F482E261E00E9488
:1012C0002C090895922F20910A032370211559F0BB
:1012D00080930B0360930C0340930D03209109034B
:1012E000292B209309030895EAE0F3E0818190E03F
:1012F00021E04381628108960E9462090895EAE034
:10130000F3E0818121E0438162818850990B0E9442
:1013100062090895EAE0F3E0628120E1620F08F4D7
:101320006FEF818121E0438190E00E94620908957E
:10133000EAE0F3E0628120E1621B08F460E0818171
:1013400021E0438190E00E9462090895EAE0F3E021
:10135000438120E1420F08F44FEF818121E0628157
:1013600090E00E9462090895EAE0F3E0438120E101
:10137000421B08F440E0818121E0628190E00E94FC
:1013800062090895EAE0F3E0248130E1230F08F4D4
:101390002FEF2483809109038160809309030895CE
:1013A000EAE0F3E0248130E1231B08F420E0248309
:1013B0008091090381608093090308956A9A1092CD
:1013C000FD010895CF93DF93EC01FC01EE0FFF1FA9
:1013D000DF01AC0FBD1FAE51BE4F11968C9111971E
:1013E000861307C08C91841304C012968C918217C7
:1013F00051F081E08093FD01EC0FFD1FEE51FE4F97
:10140000618340832283DF91CF910895FF920F93F0
:101410001F93CF93DF93182F062FF42EC0E0D0E058
:101420002F2D402F612FCE010E94E2092196C93055
:10143000D105B1F7CDB7DEB7E5E00C94D531FA01AF
:10144000811511F009950895FB01FCCF282F35EB8C
:101450002303C001112497FF04C080589109892FEC
:10146000089580589F4FFBCF8091000380FD14C0EA
:1014700081FD14C082FD16C08091FF02811581F0AC
:101480008E3180F420E5829FC00111246EE170E06E
:101490000E948B31862F089584E1089588E2089593
:1014A00088E0089580E508958091000380FD17C0CD
:1014B00081FD17C082FD19C08091FE02811599F04F
:1014C000883298F428E0829FC001112468E270E01D
:1014D0000E948B316115710551F0862F089562E0ED
:1014E000FCCF64E0FACF61E0F8CF68E0F6CF81E0AE
:1014F0000895E091EE02F091EF02309729F001900B
:10150000F081E02D0995089580E00895A3E0B0E012
:10151000ECE8FAE00C94BC319C018091E0019091E0
:10152000E10182179307A1F03093E1012093E001DC
:10153000E091EE02F091EF02309751F083E0898361
:101540003B832A830084F185E02DCE010196099525
:101550002396E2E00C94D831A3E0B0E0E2EBFAE0AD
:101560000C94BC319C018091DE019091DF018217C7
:101570009307A1F03093DF012093DE01E091EE02AA
:10158000F091EF02309751F084E089833B832A8306
:101590000084F185E02DCE01019609952396E2E0C5
:1015A0000C94D83190911501911112C0AEE9B1E0BF
:1015B000EFEF90E02D91821751F0EF3F19F42111D8
:1015C00001C0E92F9F5F9630A9F7EF3FC9F4089556
:1015D00090915E0397FFEACFE82FE695E695E695B2
:1015E000803FA8F7F0E0EC55FE4F877021E030E037
:1015F00001C0220F8A95EAF78281822B82830895A7
:101600000E2E000CFF0BE456FE4FF8CF9091150103
:10161000911521F090915E0397FD0CC0EEE9F1E089
:101620009191891302C0DF011E9251E0E43AF5075F
:10163000B9F70895E82FE695E695E695803FC8F757
:10164000F0E0EC55FE4F877021E030E0A90102C0C8
:10165000440F551F8A95E2F7CA018095928189232C
:10166000828308952FB7F89480910202909103022B
:10167000A0910402B09105022FBF0895CF93DF938C
:10168000C091130380911703C82B80911203811519
:1016900009F10E94320B20911B0330911C03821B25
:1016A000930B8838934110F00E941604D0911203D6
:1016B00080911501811521F080915E0387FD0EC098
:1016C00086E02EE931E090E0815060F491110E94B3
:1016D0001604CD2B8C2FDF91CF9108958EE126EA51
:1016E00031E0F1CFF90141919F01411569F39F5F0D
:1016F000EBCF962F20915F0322FF10C0682F660F5B
:10170000660F660F692B609318030E943B030E94CB
:10171000320B90931A038093190308950E943B03A0
:10172000089590911203292F2823211561F08095A7
:10173000892380931203811539F00E94320B809324
:101740001B0390931C03089580E090E0F8CF0E9463
:10175000320B2091030330910403232B211521F038
:101760008093A0029093A10220910503309106037B
:10177000232B211521F080939E0290939F02E091EC
:10178000EE02F091EF02309749F082E0809301037E
:101790000680F781E02D81E093E0099508956115B9
:1017A00009F44BC0E3E3E80FE33150F4F0E0E25D0D
:1017B000FC4C0C949F310E94340A81958093040361
:1017C0000E94A70B08950E94340AF8CF0E94340AA1
:1017D000819580930303F4CF0E94340AFACF0E94CC
:1017E000540A80930503ECCF0E94540A8195F9CFE7
:1017F0000E94540A819580930603E2CF0E94540A06
:10180000FACF815D990B21E030E001C0220F8A956B
:10181000EAF780910203822B80930203D1CF80915B
:101820000003816080930003CBCF8091000382602E
:10183000F9CF809100038460F5CF409103038D3C84
:1018400059F48091040387FF0DC0109204034115E1
:1018500059F41092FF0208C08E3C81F48091040379
:1018600018169CF3411581F08091050390910603B1
:10187000892B8111A5CF1092FE02A2CF8F3C41F49B
:1018800047FFF0CF10920303809104038115E0CF4E
:10189000803D19F41416B4F3E5CF90910503893D0A
:1018A00029F41916FCF610920503DCCF8A3D19F4D1
:1018B00097FFD8CFF8CF909106038B3D29F497FF7F
:1018C000D1CF10920603CECF8C3D19F41916CCF36C
:1018D000C9CF9FE2980F983090F4815D990B21E079
:1018E00030E0B90102C0660F771F8A95E2F7CB019D
:1018F000809590910203892380930203B3CF8D3D9D
:1019000031F4809100038E7F80930003ABCF8E3D36
:1019100021F4809100038D7FF7CF8F3D09F0A2CF96
:10192000809100038B7FF0CF2FB7F8946091020273
:101930007091030280910402909105022FBF0895D7
:101940009C014FB7F8948091020290910302A091FC
:101950000402B09105024FBF821B930B0895809142
:10196000DD010895FC019B018091D3019091D40188
:101970008617970740F0672B29F48091E8008E774F
:101980008093E800C90140E0009741F4411106C08E
:101990008091E80082FF2FC080E008952091C70267
:1019A0002115A9F12530A9F12091E80023FD2DC0D2
:1019B0002091E80022FDECCF2091E80020FFE4CF49
:1019C0003091F3002091F200009719F02830310592
:1019D00058F041E02830310509F040E02091E8005E
:1019E0002E772093E800D0CF41914093F1000197EA
:1019F0002F5F3F4FE9CF8091C702811541F08530BD
:101A000041F08091E80083FFC3CF81E0089582E038
:101A1000089583E008958091CD0187FF13C08091E0
:101A2000E80082FF06C08091E8008B778093E80091
:101A300008958091C7028111F2CF08958091C70265
:101A40008115D9F38091E80080FFF8CF8091E800FC
:101A50008E77ECCF2091E4003091E50095E6A90166
:101A60002091EC00822F817020FF06C08091E80059
:101A700080FF06C080E008952091E80022FD1AC092
:101A80008091C702811589F0853089F08091EB0043
:101A900085FD0FC02091E4003091E5004217530707
:101AA000F9F29A95E1F684E0089582E0089583E0E2
:101AB000089581E00895E8EDF0E080818E7F8083D5
:101AC0001092E2001092DA001092E100A0EEB0E075
:101AD0008C9181608C9380818F77808319BCA7ED76
:101AE000B0E08C918E7F8C9380818F7E808310926A
:101AF000CC010895A0E0B0E0E0E8FDE00C94B03146
:101B00003C01809104010E942509C82F192F609182
:101B10000E03669580913502909136020E94B306BD
:101B2000F82ED0E0CE01880F991F9C01205C3E4F1B
:101B300069011C1709F048F481E0193008F080E0D1
:101B4000CDB7DEB7EEE00C94CC31FE01E05CFE4F89
:101B5000838D909105018923811579F1F6018185A5
:101B6000282F2052330B59018285E82FE052FF0BBA
:101B70004F01AA9C9001AB9C300D300D1124EE9FBB
:101B8000C001EF9F900D900D1124820F931F0E94B2
:101B9000BD06082F60910B0370910C0380910D031B
:101BA000EF2C9401A501F30109950E942F06462F01
:101BB000672F282FCE010E941F09F2E0CF0ED11C03
:101BC0002196B7CFA4E0B0E0E8EEFDE00C94B6318A
:101BD0006C01809104010E9425098B83F92E60918C
:101BE0000E036695669580913502909136020E94AB
:101BF000B306182F80E4810F0E9402078058898362
:101C0000812F0E94020780588A839B81892F90E050
:101C10009C838B839B819F1548F081E0E9E0FE1651
:101C200008F080E02496E8E00C94D231EB81FC814E
:101C3000E05CFE4F838D9091050189238115A9F009
:101C400060910B0370910C0380910D03E12E0B81C9
:101C50002A814981F60109950E942F06462F672F98
:101C6000282F8B819C810E941F098B819C8101966A
:101C7000CFCFA0E0B0E0EFE3FEE00C94B731EC0191
:101C8000FC01E05CFE4F838D909105018923811555
:101C900049F1D0900C0300910D0310910B03E12E3C
:101CA000F12C0E94ED06482FC7018C549F4F68E627
:101CB00071E00E948B318E199F0997FD03969595CF
:101CC0008795959587954370612F489F600D1124E6
:101CD0007D2D802F0E942F06462F672F282FCE01A3
:101CE0000E941F09CDB7DEB7E7E00C94D3311F93F4
:101CF000CF93DF93EC01FC01E05CFE4F838D90916C
:101D0000050189238115B1F00E94ED06182F0E946C
:101D1000ED0620E8829FC00111247FE7790F612F33
:101D200080910D030E942F06462F672F282FCE018A
:101D30000E941F09DF91CF911F910895EF92FF92AA
:101D40000F931F93CF93DF937C01809104010E9436
:101D50002509C82F192F60910E036695669521E01D
:101D6000620F08F46FEF80913502909136020E9465
:101D7000B306082FD0E0C11748F081E0193008F011
:101D800080E0CDB7DEB7E6E00C94D431FE01E05C34
:101D9000FE4F838D909105018923811591F060910B
:101DA0000B0370910C0380910D03202F4C2FF70132
:101DB00009950E942F06462F672F282FCE010E94DB
:101DC0001F092196D8CFA0E0B0E0E9EEFEE00C9428
:101DD000B3317C01809104010E942509C82FB92EDE
:101DE00020910E0331E0230F08F42FEF30E040E0A4
:101DF00050E06FEF7FEF80E090E00E94C932690110
:101E0000D0E0A22E9D2C2C2FCB1550F081E0F9E0D4
:101E1000BF1608F080E0CDB7DEB7EBE00C94CF3111
:101E2000FE01E05CFE4F838D9091050189238115B1
:101E300021F180913C028150082E000C990B87FF04
:101E40001EC00A2D192D60910E0321E0620F08F4C7
:101E50006FEFC8010E94B306AC0160910B03709153
:101E60000C0380910D03F70109950E942F06462F60
:101E7000672F282FCE010E941F092196C4CFFC0195
:101E8000E45CFD4F318932130AC0FC01EE0FFF1FE5
:101E9000E45CFD4F018D128D0C151D05A0F201971C
:101EA000CECFA8E0B0E0E7E5FFE00C94AC31282EFF
:101EB0006A837B83809104010E9425099983209184
:101EC0003C022C83E82FF0E0F887EF83CF01880FE6
:101ED000991F9C01205C3E4F6901822D90E0FC011E
:101EE0003196FE83ED838F819981891740F081E0DF
:101EF000993008F080E02896E2E10C94C831EF8137
:101F0000F885E05CFE4F838D909105018923811552
:101F1000F1F040900B0350900C032D813E81245C26
:101F20003D4F3901322C10E0FC813F16D0F020915A
:101F30000D03129F112D1124B201812F0E942F0633
:101F4000462F672F282F8F8198850E941F092F8188
:101F500038852F5F3F4F38872F8332E0C30ED11C67
:101F6000C2CFF30181913F01F601A184A81ABB08F9
:101F70008284F3018781881A9908AA9C9001AB9CFE
:101F8000300D300D1124889CC001899C900D900D5E
:101F90001124820F931F0E94BD06082F60910E032B
:101FA00021E0620F08F46FEFF301EE0FFF1FEC5317
:101FB000F240858996890E94B3067C019401A501AF
:101FC000B201812FEA81FB8109952B01182F3394EF
:101FD000ABCF982F9093E900891771F07091EC00C6
:101FE0002091ED005091F00021FD09C09F5F9730D6
:101FF00089F78093E9000895762F242F50E03091DF
:10200000EB003E7F3093EB003091ED003D7F30934D
:10201000ED003091EB0031603093EB007093EC00F9
:102020002093ED005093F0002091EE0027FDDECFCD
:102030000895A0E0B0E0EFE1F0E10C94B631C8ED16
:10204000D0E088818F7E8883E7EDF0E08081816039
:10205000808384E082BF81E08093CC0188818E7F81
:10206000888302EE10E0F80110821092DA0081EE0F
:10207000C82ED12CF601108288818F7788838881C1
:102080008068888388818F7D888319BC1092C702FD
:102090001092CB01109267021092CA0190EEE92EC5
:1020A000F12CF70180818B7F808388818160888318
:1020B00042E060E080E00E94E90FF60180818E7FBF
:1020C0008083F80180818160808380818860808343
:1020D000F70180818E7F8083888180618883CDB77E
:1020E000DEB7E8E00C94D231E0911E0390911D031D
:1020F00027E0E91302C080E00895AE2FB0E02E9FE4
:10210000F0011124E15EFC4F3181361306C03081AD
:10211000381303C03581341304C0FD013196E770D4
:10212000E8CF81E008958091FD01811539F13EB13C
:102130003B7F2EB124604FB7F89482EE91E0FC0112
:102140000196508168E02EB9000000C057FF3EB9EB
:10215000550F000000C000C000C03EB900C06A9525
:1021600091F751E08D3F950751F74FBF8FE594E010
:102170000197F1F700C000001092FD01089581E081
:102180008093E00080E28093D8001092C9008FE134
:102190009EE40197F1F700C0000087E090EBDC01BE
:1021A0008093600390936103A0936203B0936303F1
:1021B00088E19CE00FB6F894A895809360000FBE6C
:1021C00090936000FFCF0F931F93CF93DF938B010A
:1021D000EA019091C702943059F58093E9008FEF9E
:1021E0009091E80095FD06C095ED9A95F1F70000F5
:1021F0008A95B1F78091E80085FF1AC00E942A0DE8
:10220000811111C08091E80085FD06C08091E80031
:102210008E778093E800F2CFF80181918F0180934F
:10222000F100219779F78091E8008E778093E8009C
:10223000DF91CF911F910F910895CF93DF93D82F06
:10224000C92F48E050E0682F792F81E00E94E31009
:1022500088E0ED2FFC2FA5EDB1E001900D928A955D
:10226000E1F7DF91CF910895BC0140E250E084E0B6
:102270000E94E3100895BC0146E050E084E00E9413
:10228000E3100895BC0143E050E084E00E94E310B5
:10229000089590915F0392FB222720F9281779F087
:1022A00080FB92F990935F0360915E0370915F03EE
:1022B00084E090E00E94C33282E00E94F20308951D
:1022C0001F93CF93DF93962F122F632F8430D8F470
:1022D0009330C8F44330B8F4C42FD0E0CC0FDD1FE6
:1022E00026E0929FC00DD11D112492E1899FC00D5F
:1022F000D11D1124CE0188960E94A532612FCE01F6
:1023000089960E94A532DF91CF911F9108958F92F7
:102310009F92AF92BF92CF92DF92FF920F931F9343
:10232000CF93DF938090C5029090C60281E090E049
:102330009093C6028093C502A12CB12CC0E0650128
:10234000D0E019C021E030E0C23020F4F8018591DE
:1023500095919C014F2D6D2F8C2F0E946011F3944D
:102360000E5F1F4F83E0F812EDCFDF5F83E0C80EF2
:10237000D11CD33039F08601000F111F0F5D1C4FA7
:10238000F12CE0CFCF5F89E0A80EB11CC430B9F6C4
:102390009092C6028092C502DF91CF911F910F915A
:1023A000FF90DF90CF90BF90AF909F908F90089557
:1023B000CF93DF93C0E7D0E060E0CE010E94A5326A
:1023C0002196C11584E0D807B9F7DF91CF91089520
:1023D000CF93C82F6FE6811101C06FEF84E290E0C8
:1023E0000E94A53263EDC11101C06FEF85E290E05C
:1023F0000E94A5326BE0C11101C06FEF86E290E050
:102400000E94A532CF91089580E00E94E81160E01B
:1024100087E290E00E94A5320E9487110E94D811A5
:1024200081E00E94E81108950F931F93CF93DF93EB
:10243000843030F5633020F5433010F5C42FD0E000
:10244000CC0FDD1F26E0629FC00DD11D112432E1AB
:10245000839FC00DD11D1124CE0188960E94873222
:10246000082F10E0102F0027CE0189960E94873296
:102470009801282BC901DF91CF911F910F910895E9
:1024800080E090E0F8CF462F672F2091CA0230916C
:10249000CB02232B91F4703F39F4403F71F48091CB
:1024A000C8029091C9020895733038F4433028F47B
:1024B000843018F40E941412089580E090E008958A
:1024C000A0E0B0E0E6E6F2E10C94B7317C010091C7
:1024D000160380911503082BC3E0D0E010E0C8017B
:1024E0000C2E02C0959587950A94E2F780FD09C0ED
:1024F0002197A8F7D12C8D2DCDB7DEB7E7E00C944E
:10250000D331DC2EB7018C2F0E9443120E9411059B
:10251000019771F3F0CF0F931F93CF93FC01858147
:1025200000811181811591F0611581F0C8010E942F
:102530006012C82F682FC8010E945703B8018C2F62
:102540000E944312CF911F910F910895C8010E94DC
:102550009003C82FF3CFCF93DF93D82FC92F0E94BA
:1025600060126D2F7C2F0E9443120E941105DF9193
:10257000CF910895FC0184818115A1F08081918122
:102580000E94AB12282F92959F70963099F060F4BC
:10259000925F9F70923030F4203FB1F038F481E0C8
:1025A000283E38F080E008959A5FF3CF81E0243F21
:1025B000C9F7089591E0213F09F090E081E0283EBD
:1025C00008F080E0892B089581E0089584E290E08E
:1025D0000E9487328F3689F485E290E00E9487322C
:1025E000833D59F486E290E00E94873291E08B307F
:1025F00009F090E0892F8170089580E0FCCF8091F0
:102600001501811559F180915E0387FF27C00E9453
:102610003E0B8093A50140E250E06EEC72E084EA4C
:1026200091E00E944832892BC1F080E2E4EAF1E0B7
:10263000AEECB2E001900D928A95E1F7E091EE02E6
:10264000F091EF02309749F086E08093A401048076
:10265000F581E02D84EA91E0099508950E943E0BF2
:1026600080939C0148E050E060EF72E08CE991E0DB
:102670000E944832892B89F388E0ECE9F1E0A0EF71
:10268000B2E001900D928A95E1F7E091EE02F091AF
:10269000EF02309711F30280F381E02D8CE991E095
:1026A000DBCFCF93C82F8115C9F08238C9F40E94BF
:1026B000790A81FD13C089E30E94D20A0E94FF12A9
:1026C0002FEF37EE83E0215030408040E1F700C02B
:1026D000000089E30E94060B0E94FF12CF9108952B
:1026E0008338A1F40E94790A80FDF8CF83E50E9427
:1026F000D20A0E94FF129FEF21EE34E09150204059
:102700003040E1F700C0000083E5E4CF8438A1F455
:102710000E94790A82FDE2CF87E40E94D20A0E94D9
:10272000FF128FEF91EE24E0815090402040E1F7BE
:1027300000C0000087E4CECF8CEF8C0F813A90F57B
:102740008091150181110EC0EEE9F1E084EA91E07B
:102750002191C21709F18E179F07D1F78C2F0E9484
:10276000D20ABACF80915E0387FFEECFEC2FE695B9
:10277000E695E695F0E0EC55FE4F828190E04C2F17
:10278000477021E030E002C0220F331F4A95E2F784
:1027900082239323892B11F38C2F0E94060B0E9416
:1027A000FF12DCCF80E28C0F883068F4C77081E0C4
:1027B00090E001C0880FCA95EAF7C0911303C82BB7
:1027C000C093130389CF8BE58C0F833038F42C2F03
:1027D0002452330BC9010E94860A80CFE8E5EC0F32
:1027E000EB3150F4F0E0EE0FFF1FEC59FE4F80810B
:1027F00091810E94AC0A72CF83E38C0F833108F081
:102800006DCF61E08C2F0E94CF0B68CF811509F44A
:1028100056C0823879F40E94790A81FF50C089E35A
:102820000E94D20A0E94FF1289E30E94060B0E94B6
:10283000FF120895833859F40E94790A80FF3FC03F
:1028400083E50E94D20A0E94FF1283E5EECF84380E
:1028500059F40E94790A82FF32C087E40E94D20AAA
:102860000E94FF1287E4E1CF9CEF980F913AE8F2C3
:1028700090E2980F983050F4877091E001C0990F62
:102880008A95EAF7892F0E940E04D1CF9BE5980F15
:10289000933028F480E090E00E94860A089598E53D
:1028A000980F9B3128F480E090E00E94AC0A0895D4
:1028B00093E3980F933118F460E00E94CF0B0895D2
:1028C0000F931F93CF93C82F8B010E9451130115B3
:1028D000110539F48C2F0E940614CF911F910F918E
:1028E00008958FE99FE00197F1F700C000000150C3
:1028F0001109EDCF811539F090911303892B809345
:1029000013030E94FF120895811521F00E940E0406
:102910000E94FF120895FF920F931F93CF93DF93AE
:10292000C62FD42F122F8115A9F0609307030E94A0
:10293000320B9093C8018093C701C77081E001C03A
:10294000880FCA95EAF70E947A14CDB7DEB7E5E0A2
:102950000C94D53180910703681332C08091C70170
:102960009091C8010E94A00C883C910548F500E2B6
:102970000D0FCD17A9F0C770FF24F3948F2D01C060
:10298000880FCA95EAF70E948414083048F48D2F06
:10299000877001C0FF0C8A95EAF78F2D0E947A1488
:1029A00060E070E0812F0E946014083070F6D770EC
:1029B00081E001C0880FDA95EAF70E948414C5CF40
:1029C000C77081E001C0880FCA95EAF7F6CF81157C
:1029D00039F090911703892B809317030E94FF12FF
:1029E0000895811541F08095909117038923809374
:1029F00017030E94FF12089510921303809115018E
:102A0000811539F180915E0387FF23C0E6EAF1E08A
:102A10008EE1DF011D928A95E9F780E090E00E9447
:102A2000860A80E090E00E94AC0A109217030E9490
:102A3000FF1286E0E1E0F3E0DF011D928A95E9F7FD
:102A40001092FF021092FE02109200030E94A70B48
:102A50000895EEE9F1E086E0DCCF0E94FC142FEF50
:102A600084E39CE0215080409040E1F700C00000EA
:102A700088E19CE00FB6F894A895809360000FBEA3
:102A800090936000FFCFAAE2B0E0E9E4F5E10C9496
:102A9000BB318DEC91E0FC0101962091F100208387
:102AA00021E0853D9207B9F78091CE01893009F484
:102AB00056C0C8F4823009F4B3C0833009F482C030
:102AC000813071F18091E80083FFE7C08091CD01F2
:102AD0009091CE019A3008F0E0C0E92FF0E0EF5B72
:102AE000FC4C0C949F318A3009F489C08B3051F72B
:102AF0008091CD01813231F78091D1019091D20145
:102B0000892B01F78091E800877F8093E8000E947D
:102B10000B0D8091CF01809315010E94FC14D2CF40
:102B20008091CD01813A71F68091E800877F809392
:102B3000E8008091D1019091D201892B61F060E091
:102B400080E090E070E00E94B20C8091E8008B770A
:102B50008093E800B7CF68E085ED91E0F3CF8091F6
:102B6000CD01813209F0AECF8091D1019091D20197
:102B70008D7F892B09F0A6CF8091E800877F809315
:102B8000E8008091E80082FF18C09091F3008091E6
:102B9000F200029731F48091F100813011F086301B
:102BA00021F48091F1008093DD018091E8008B7722
:102BB0008093E8000E940B0D85CF8091C7028111A0
:102BC000E0CF80CF8091CD01813A09F07BCF809119
:102BD000D1019091D201892B09F074CF8091E80046
:102BE000877F8093E8008091E80080FFFCCF809190
:102BF00015018093F1008091E8008E77D9CF809104
:102C0000CD01813209F05ECF8091E800877F80930B
:102C1000E8000E940B0D8091D0018093C90152CF32
:102C20008091CD01813A09F04DCF8091E800877FF6
:102C30008093E8008091E80080FFFCCF8091C9017B
:102C4000D8CF803889F0823841F58091D1018F70DA
:102C5000873018F58093E9008091EB0085FB882789
:102C600080F91092E90006C080916702880F909168
:102C7000CA01892B9091E800977F9093E800809398
:102C8000F1001092F1008091E8008E7723C081114D
:102C900016C08091CF01813011F18091E80083FF4F
:102CA0000AC08091E800877F8093E8008091EB0064
:102CB00080628093EB00AA96E3E00C94D7318230D7
:102CC00061F78091CF01811589F01092E900809120
:102CD000E800877F8093E8000E940B0DDECF81E043
:102CE000933009F080E080936702EFCF8091D101AB
:102CF0008F702FEF280F263080F68093E900209107
:102D0000EB0020FFE2CF933031F48091EB00806242
:102D10008093EB00DACF9091EB0090619093EB0001
:102D200021E030E0A90102C0440F551F8A95E2F767
:102D30004093EA001092EA008091EB008860E8CFAF
:102D40008111ABCF1091CF011F778091E300807884
:102D5000812B8093E3008091E800877F8093E800D7
:102D60000E940B0D8091E80080FFFCCF8091E30072
:102D700080688093E30083E0111101C082E08093BA
:102D8000C7028BCF8058823008F087CF8091CF0167
:102D90009091D0018C3D53E0950799F583E08A83AB
:102DA0008AE289834FB7F894DE01139620E03EE073
:102DB00051E2E32FF0E050935700849120FF03C0CD
:102DC00082958F703F5F8F708A30C8F0895C90E089
:102DD0008D939D932F5F243161F74FBF8091E80061
:102DE000877F8093E8006AE270E0CE0101960E943E
:102DF000B20C8091E8008B778093E8004ECF805D25
:102E0000E6CF292F33272330310509F44EC078F55A
:102E10002130310509F488C08BE590E0E8E7F2E065
:102E20002230310509F039CF2091E800277F209327
:102E3000E8002091D3013091D4018217930708F460
:102E40009C0140E02115310509F073C0411171C0AA
:102E50008091E80082FDCDCF8091C702811549F2B3
:102E6000853039F28091E80083FFF2CFC2CF8091A4
:102E7000D1019091D2012132310509F446C02232AC
:102E8000310509F00ACF8330910508F006CFFC0127
:102E9000EE0FFF1FEA5DFE4F0190F081E02D8D5D8A
:102EA0009E4FDC018C9190E010C09C013327823052
:102EB00021F12330310568F4232BB9F4EDE1F3E07F
:102EC000E4918E2F90E0EDE1F3E0009709F4E5CE78
:102ED000ABCF2330310509F0E0CEE5EEF2E0E4912E
:102EE0008E2F90E0E5EEF2E0F0CFE1E1F3E0E49147
:102EF0008E2F90E0E1E1F3E0E8CFE3E0F3E0E4914E
:102F00008E2F90E0E3E0F3E0E0CF8330910508F00E
:102F1000C4CEFC01EE0FFF1FE45DFE4F0190F08177
:102F2000E02D89E090E080CF82E190E0E3EDF2E0F7
:102F30007BCF8091C702811509F45BCF853009F4FE
:102F400058CF8091E80083FD54CF8091E80082FD46
:102F50007FCF8091E80080FF75CF9091F300809142
:102F6000F2002115310519F08830910550F041E04B
:102F7000089709F040E08091E8008E778093E800A0
:102F800061CF44914093F10031962150310901966F
:102F9000E8CF803809F081CE8091E800877F809368
:102FA000E8008091CB018093F1006DCE811175CE48
:102FB0001091CF01123008F070CE8091E800877F29
:102FC0008093E8001093CB010E940B0D1115D1F0F6
:102FD00084E08093C70242E061EC81E00E94E90F47
:102FE00042E261EC84E00E94E90F42E261EC82E09F
:102FF0000E94E90F42E260EC83E00E94E90F8091B9
:10300000C7024BCE8091E30087FDE2CF81E0E1CFA4
:10301000A3E0B0E0EEE0F8E10C94B131FE013196AE
:1030200083E0DF011D928A95E9F78AE3A82E81E00B
:10303000B82E992493947E2E8F2EEE24E394F12CB7
:1030400020E4C22E21E0D22EF50181915F018F3F55
:1030500009F442C0F894E82FE295EF70F0E021A166
:103060008F70A70102C0440F551F8A95E2F7CA016D
:10307000922F982B91A392A18095892382A3789473
:1030800000C0EDE3F1E0072D182D492D40959191F9
:10309000D8018D918D019F3F09F445C0A92FA295BC
:1030A000AF70A05EB0E02C9130E09F7002C035950B
:1030B00027959A95E2F720FD36C08929D8018E938D
:1030C000CE16DF0621F7F50182918F3F11F00E94A5
:1030D0001606B0EABA95F1F7990CEDE3AE16E1E009
:1030E000BE0609F0B1CF43E050E0672D782D89E3AB
:1030F00092E00E944832892BC1F089819A81AB818C
:103100008093390290933A02A0933B0281E080932E
:10311000C6010E94320B9093C5018093C40123968F
:10312000EDE00C94CD318423C9CF8091C601811587
:10313000B1F38091C4019091C5010E94A00C059744
:1031400070F343E050E069E372E082EC92E00E94A9
:103150004832892B61F08091390290913A02A09116
:103160003B028093C2029093C302A093C4021092C8
:10317000C601D5CFA0E0B0E0E0ECF8E10C94B531A9
:10318000EC018881811509F4A9C0813009F04AC099
:103190008981813079F48E010E5F1F4F8A8160E54D
:1031A00070E0893311F060E070E00E946014E80183
:1031B0002196E7CF823039F48E010E5F1F4F8A814E
:1031C0000E945113F4CF833039F48E010E5F1F4FEC
:1031D0008A810E940614EBCF843011F02196E8CF4B
:1031E0002A81229680E090E06AE0AE014F5F5F4F57
:1031F0002053330B2A30310550F00097C9F2EFE924
:10320000FFE03197F1F700C000000197F6CF689F0B
:10321000F001699FF00D1124C9018E0F9F1F2981B4
:10322000EA01E3CFE82FF0E0E850FE4FB490282FFA
:1032300026952695269530E0F901E851FE4FE49059
:103240008770F12C082E02C0F594E7940A94E2F7F7
:10325000E0FAEE24FF24E0F8F901E852FE4FC490B2
:10326000D12C082E02C0D594C7940A94E2F7C0FA74
:10327000CC24DD24C0F8F901E853FE4F049110E09E
:1032800002C0159507958A95E2F701701127E114A0
:10329000F10419F081EE0E945113C114D10419F008
:1032A00086EE0E94511360E070E08B2D0E94601446
:1032B000C114D10419F086EE0E940614E114F10441
:1032C00019F081EE0E9406140115110509F470CF62
:1032D00060E070E08CE20E9460146ACFCDB7DEB788
:1032E000E9E00C94D131A4E0B0E0E9E7F9E10C9415
:1032F000B0316C01FC018481811509F4E5C061E005
:10330000C6010E948B128C01F6013581311509F43A
:10331000BAC097578038910508F0FAC4F02EF0E152
:103320000F1708F0C1C08FEF93E00E948732811120
:10333000BBC000E710E0F11036C044E0642EAE01DF
:103340004F5F5F4F5A01F501262D11922A95E9F73B
:1033500048014FEF841A940AC8010E94873289837A
:10336000811509F4A1C0813009F087C0780152E0CD
:10337000E50EF11CC4010E948732782E8A838115E4
:1033800009F492C08FEF870D8330D8F4C7010E94F3
:1033900087328B83811519F0C5010E94BA180D5F21
:1033A0001F4F78016EC0011524E0120709F47CC09C
:1033B000C8010E9487320F5F1F4F8111F4CFFA942A
:1033C000BACF8BEF870D833070F5480193E0890EFB
:1033D000911CC7010E9487328B83811509F450C06C
:1033E0000C5F1F4F7801C4010E9487328C838115C6
:1033F00009F447C00B811C810130FFEF1F0710F05B
:10340000102F002726E0721651F047E0741619F0CD
:10341000C8010E940021C8010E94332132C0C801A6
:103420000E9400212EC054E075122BC0C7010E94DB
:103430008732982E780184E0E80EF11CC8010396CB
:103440000E948732282F911479F1811569F121505A
:10345000330B4FEF429FC001439F900D1124E92D84
:10346000E150FF0B8E0F9F1F019758F0EFE9FFE02F
:103470003197F1F700C00000F7CFC5010E94BA18DC
:103480007401870160CFFC01E851FC47E730F1058A
:1034900008F01AC4E55BFC4C0C949F3126E241EE27
:1034A00061EE832F0E948B14809118038770811521
:1034B00059F0F6018581811539F080915F0382FF13
:1034C00003C082E00E94F2032496EEE00C94CC311B
:1034D00027E245EE65EEE5CF26E241EE60EEE1CF74
:1034E00027E245EE64EEDDCF26E241EE62EED9CF73
:1034F00027E245EE66EED5CF28E241E0EBCF8091A2
:103500005E03816080935E0360915E0370915F0350
:1035100084E090E00E94C3320E94FC14C5CF8091E9
:103520005F03886080935F03EFCF80915E038260CA
:10353000E9CF80915E038460E5CF80915E0388606F
:10354000E1CF80915F038160EDCF80915F03826066
:10355000E9CF80915E038061D5CF80915E03806268
:10356000D1CF80915E038064CDCF0E94FC14809106
:103570005E038068C7CF80915E038C60C3CF80916B
:103580005F038360CFCF80915E038E7FBBCF80913E
:103590005F03877FC7CF80915E038D7FB3CF80911C
:1035A0005E038B7FAFCF80915E03877FABCF80912F
:1035B0005F038E7FB7CF80915F038D7FB3CF809104
:1035C0005E038F7E9FCF80915E038F7D9BCF809126
:1035D0005E038F7B97CF0E94FC1480915E038F77F0
:1035E00091CF80915E03837F8DCF80915F038C7F2D
:1035F00099CF80915E03992782FF939590FB82F982
:1036000090FB83F97FCF80915F03982F909590FB7B
:1036100080F990FB81F986CF90915E03892F8F7B93
:1036200096FF80646FCF0E94FC1490915E03892FF7
:1036300097FB87F9805866CF61E08EE090E00E94AA
:10364000A53262CF60E0F9CF90915E03892F8F7E23
:1036500094FF806157CF90915E03892F8E7F90FFFA
:10366000816050CF90915F03892F877F93FF88609F
:1036700059CF89E248C389E231C380911303827232
:10368000F801E052F847E531F10508F062C0EE5A62
:10369000FC4C0C949F3107372CE7120709F05EC0F1
:1036A00081E00E943B0343E062E081E00E94C703A7
:1036B000FBCE80910A0391E0892780930A03109240
:1036C000160180910903816080930903EDCE47E5DF
:1036D00059E06BE479E00E941F0AE6CE4BE459E022
:1036E00067E579E0F8CF4FE759E064E779E0F3CF99
:1036F00044E759E06FE779E0EECF48E959E06AE83E
:1037000079E0E9CF4AE859E068E979E0E4CF44EBB1
:1037100059E066EA79E0DFCF46EA59E064EB79E008
:10372000DACF40ED59E062EC79E0D5CF42EC59E0D8
:1037300060ED79E0D0CF61E081E00E942C09B4CE49
:1037400061E082E0FACF61E084E0F7CF61E088E0F9
:10375000F4CF07374CE7140709F469C008375CE772
:10376000150709F468C03115A9F00A358CE7180768
:1037700009F48BC008F063C00130ECE71E0709F4C0
:1037800082C00330FCE71F0709F477C001151C470E
:1037900009F466C0F6018581E080F180811509F4A5
:1037A00078C0C7010E946012182F682FC7010E94BD
:1037B0005703B701812F0E9443120E9411058C010B
:1037C000F601B580A680A2942FE0A2228091180372
:1037D0008770811501F1EB2CB114F1F0812F807FFE
:1037E000803461F080E2800F8830A8F0812F807EE5
:1037F000803221F4023078F0A11469F080915F03E7
:1038000082FF09C082E00E94F20380911803877052
:10381000EE24E3948111E12CE12FE295EF70103C4E
:1038200008F09BC0F0E0E959FC4C0C949F3181E01A
:103830000E94470338CF82E03115D1F332CF0B35E8
:103840004CE7140721F180915F03002482FF039469
:10385000802D0C351C4709F09DCF0E9449119ACF4D
:103860000E94FC148FEF94E3ECE081509040E04024
:10387000E1F700C000000E94BF106FEF7FEF80E013
:1038800090E00E94C3320E942D1581E0E6CF80E0D7
:10389000E4CFC7010E949003182F8BCFF12FFF7048
:1038A000FF2E103118F0F29490EFF922B114B9F014
:1038B000F11469F080E2800F883010F0011109C026
:1038C000809113038F29809313030E94FF12802F8E
:1038D00042C0809117038F2980931703F6CF802F62
:1038E0000E940614F114C9F180E2800F883010F0B4
:1038F000011104C08F2D0E940E0406C0F094809127
:1039000017038F21809317030E94FF1226C0212FD7
:103910002F70F22E107F103219F0F29480EFF822FF
:10392000011549F0013009F484C0B11409F490C0C4
:10393000A114B1F1CCCF80915F0382FD2DC0B114F1
:1039400029F1F11439F0809113038F298093130327
:103950000E94FF1280E00E945113E11409F480C11B
:103960008091180380FD7CC1F601158286958695AD
:1039700086950E943B03C6010E947319809118032B
:103980008695869586950E9447036AC180E00E94CD
:103990000614F11411F3AECFB11469F1A11004C0F3
:1039A0008F2D0E947A14D9CF41E0A41210C010913B
:1039B00012038F2D8123F81681F20E94320B90930F
:1039C0001C0380931B031F2910931203C6CF55E0DD
:1039D000A512C3CF8F2D0E947A148F2D0E94910BB8
:1039E000809114039F2D9823F91609F4B6CF8F29DF
:1039F00080931403B2CFA11012C08F2D0E948414A3
:103A00008F2D0E94910B809114039F2D9823911567
:103A100009F4A3CFF094F822F09214039ECF81E032
:103A2000A8129BCF809113038F21811509F495CFA4
:103A3000E4CFB11429F096E0A91608F08ECFB0CFEC
:103A4000E5E0AE1608F089CF8F2D0E94841485CF53
:103A5000A114D1F3093349F4FFEF27EE43E0F1500D
:103A600020404040E1F700C00000802F0E94061473
:103A700074CF812F869586958370811561F0813092
:103A800009F06BCFC8019370B11002C080E090E0E4
:103A90000E94AC0A62CFC8019370B11002C080E0EE
:103AA00090E00E94860A59CF6B2D802F0E94CF0B89
:103AB00054CF812F8370811135C0B11419F00E9449
:103AC000790A4BCF402F429546954770440F440FDB
:103AD000802F8F70042E01C0880F0A94EAF7202FE0
:103AE000207104FF07C02FE030E001C0220F4A958B
:103AF000EAF72095169516951370123071F0133071
:103B000051F030911503113029F0822B83230E944C
:103B10003503D5CF832B822BFACF822B90911503BF
:103B20008927F5CFB11451F110FFC9CF402F42952D
:103B300046954770440F440F802F8F70042E01C0AC
:103B4000880F0A94EAF7202F207104FF07C02FE0A6
:103B500030E001C0220F4A95EAF720951695169598
:103B60001370123089F0133069F030911603113060
:103B700041F0822B83230E943803A1CF8230B0F61C
:103B80009ECF832B822BF7CF822B90911603892710
:103B9000F2CF1F70B11439F0812F0E943B03802FA8
:103BA0000E947A148CCF802F0E948414812F0E944F
:103BB000470385CF023F71F170F4003FC9F0013F28
:103BC00091F0B11409F46CC0A11409F466C0802FFF
:103BD0000E94511374CF033F21F1043F91F780916C
:103BE0005F0382FD2AC0812F8F71B11401F316C0CB
:103BF000B11469F055E0A51608F061CF1F7181E09E
:103C000090E0012E01C0880F0A94EAF7BECF86E04B
:103C1000A816F2CF812F8F71B110C9CF0E943B033C
:103C20004ECF80E0B11409F4A6CF1F7181E0012EC0
:103C300001C0880F0A94EAF79ECFB114F9F0809181
:103C400018038770843089F41092180310921A03B5
:103C500010921903812F8F710E9447030E94790AE5
:103C600060E0C6010E948B122FCC95E0A916B0F738
:103C700063E0812F8F710E94790BF0CFE5E0AE16E3
:103C800040F01092180310921A031092190364E086
:103C9000F0CF81E00E94F203E1CF812F8F71BECF80
:103CA000A11479F0093349F4FFEF27EE43E0F15016
:103CB00020404040E1F700C00000802F0E94061421
:103CC000FECE812F8F7173CF86319C4709F0D5CC02
:103CD00080910803811509F4CECC85E30E94060B80
:103CE00014C006312CE7120709F0D5CC80911303DC
:103CF0008A7A91E0811101C090E0909308038115C8
:103D000009F4B7CC85E30E94D20A0E94FF12CCCB03
:103D1000F801E851FC47E730F10508F4BBCB1092FD
:103D20000703C80190578397E0F684E090E00E9473
:103D30008F3290935F0380935E03F801E150F04768
:103D4000E232F10508F0DBCBED58FC4C0C949F31CE
:103D500080915D03803178F480915C03811559F086
:103D6000E0911E0320911D033091580340915703A9
:103D700057E02E1301C008956E2F70E05E9FF00192
:103D80001124DF01A15EBC4F14968C91149781150C
:103D900061F111968C911197831327C08C91841334
:103DA00024C015968C91159781111FC012968D9184
:103DB0009C91A0915903B0915A038A1B9B0B883C9C
:103DC000910598F480915D038F70806180935D030D
:103DD000EB5DFC4F80818F708061808387E593E08D
:103DE0000E9473190E94E8030895FB013196E77061
:103DF000C0CFADE0B0E0EFEFFEE10C94B0318C014C
:103E000086E0F801DE01189601900D928A95E1F79F
:103E1000F801F580848197E5892E93E0992E6090D2
:103E20005B03611018C0811599F0F11409F415C1F4
:103E3000C8010E94BA12811509F40FC187E0F80188
:103E4000A7E5B3E001900D928A95E1F70E94A81EC4
:103E5000FF24F39456C07080A280B380D0905C039E
:103E60002091590330915A03A501421B530BD114E1
:103E700009F4C3C0483C510508F079C0811541F3ED
:103E800080915803C180E0905D0350E1E51608F091
:103E900059C0C81215C080915703871111C0F11085
:103EA0004BC08E2D8F70806180935D0387E593E01A
:103EB0000E94731980915D03F8018683F12C21C063
:103EC000F1103AC040E06C2D872D0E94741040E044
:103ED0006C2D872D0E947410F82E8111EFCF8885EC
:103EE00099850E94AB12292F22952F70903470F47F
:103EF0009F702230A0F09115B1F0F80196819031B9
:103F000090F48F2D2D96EEE00C94CC312A5F2F701B
:103F1000223068F0C8010E947319FD2CF2CF911570
:103F200011F0811571F3805E883058F3F3CF803F34
:103F300040F3815F8330F9CF80915D03816080938E
:103F40005D03BCCFC8123BC080915703871137C0B7
:103F5000F11035C0E682C8010E94731987E0F801AC
:103F6000A7E5B3E001900D928A95E1F771CFE0905B
:103F70005D03F0E1EF1650F487E593E00E947319BA
:103F800087E0F40111928A95E9F798CF811509F439
:103F90005FCF90915803F8018181981310C08091F0
:103FA000570387110CC0F1100AC0E682C8010E94B5
:103FB000731987E0F40111928A95E9F749CFC80196
:103FC0000E94BA12811509F448C0F11409F445C0E1
:103FD00080915D03803208F431CF80915703909136
:103FE00058039A838983BC82AB826D821E82EF82E2
:103FF000CE0101960E94731921CF483C510508F06B
:10400000BFCF811509F424CFF11439F190915803F1
:104010008181981318C080915703871114C0809133
:104020005D0380FD9BCF803108F498CF8683807F2D
:10403000803F09F490CF8681982F907F905F8F709A
:10404000892B868388CFC8010E94BA128111F6CECF
:1040500080915D03816080935D03C8010E947319A4
:10406000F7CEABE1B0E0E7E3F0E20C94BA314E8B6F
:104070005F8B688F798F8A8F192F9B8F9111109288
:1040800017031D8A86E0FE017696DE011F960190D9
:104090000D928A95E1F70A8D80915F0382FF1FC020
:1040A0000E94320B2091190330911A03821B930B4B
:1040B0008838934138F08091180382FD03C082E074
:1040C0000E94F2030E94320B20911B0330911C03CB
:1040D000821B930B8838934110F00E94160401153F
:1040E00039F00B8B1C8B61E0CE010F960E948B1276
:1040F0000B8B1C8B87E0FE013F96DE01189601902A
:104100000D928A95E1F7CE0108960E94F91E811161
:1041100010C020911D0330911E0387E0FE013896E8
:10412000DE01119601900D928A95E1F78C8581113F
:104130000BC017E080911E0390911D0389132BC0C3
:104140006B96E4E00C94D631822F90E00196877054
:1041500099273817190671F40E94FC1410921D0358
:1041600010921E0387E0E7E5F3E0DF011D928A95D8
:10417000E9F7DFCF97E0929FD0011124A15EBC4FF9
:10418000FE01319601900D929A95E1F780931D03FF
:104190000E94E803CECF189FC0011124815E9C4F7E
:1041A0000E94F91E811561F280911E0390E0019634
:1041B0008770992780931E03BDCFA6E0B0E0E3EEA1
:1041C000F0E20C94BA310E94320B8C018091CC0247
:1041D0009091CD028017910779F019821A820E947E
:1041E000320BBC0149815A8180E090E00E9431206D
:1041F0001093CD020093CC022696E4E00C94D631C5
:10420000A6E0B0E0E6E0F1E20C94BA318C019093C4
:10421000C9028093C802011580E21807B0F4C801F2
:10422000805E9109089728F067EE74E10115110589
:1042300011F46AE774E1C8010E940903802F0E940B
:1042400051132696E4E00C94D63180EF89838A835B
:104250000E94320B8160BC0149815A8181E091E06A
:104260000E943120EECFA6E0B0E0E9E3F1E20C9449
:10427000BA318C019093C9028093C802011580E283
:104280001807B0F4802F0E940614C801805E9109BF
:10429000089728F061EF74E10115110511F464E845
:1042A00074E1C8010E9409032696E4E00C94D6311B
:1042B00080EF89838A830E94320B8160BC0149812F
:1042C0005A8181E090E00E943120EECF48E050E03A
:1042D00067E170E08AE093E00E9495321092090352
:1042E0000895A3E0B0E0E7E7F1E20C94AC31482E8A
:1042F00080911401841123C090910A03937020913E
:10430000130130E081E09217130609F480E08093F6
:10431000060180910F0390910501981739F0809361
:10432000050140E060E080E00E94220923E242169D
:1043300088F4E42DF0E0EB56FC4C0C949F3181E0C6
:10434000E6CF80910601811529F040E060E080E031
:104350000E94220980E084C0809104010E94250906
:104360008983192F60910B0370910C0380910D03C9
:104370000E942F06062FF72EE82E5981452F50E078
:104380005B834A839A81191709F018F481E0193088
:104390002AC2EA81FB81E05CFE4F838D909105018A
:1043A0008923811539F02E2D402F6F2D8A819B8115
:1043B0000E941F098A819B8101969B838A83E2CF99
:1043C000809104010E9425098983192F00910B0314
:1043D000A0910C03AA83F0900D0360910E036695E3
:1043E0006695669580913502909136020E94B306DB
:1043F0000E940207805887FD8195880F282F3F2D46
:10440000239F212D1124822F602F7A810E942F0655
:10441000062FF72EE82E5981452F50E05B834A8303
:104420009A81191709F008F4B1CFEA81FB81E05CA9
:10443000FE4F838D909105018923811539F02E2D32
:10444000402F6F2D8A819B810E941F098A819B8149
:1044500001969B838A83E4CF80E597E00E949E0EBD
:10446000909104019F5F9093040181110CC082E040
:104470008093160180910601811105C0411003C08F
:1044800083E0809316012396E2E10C94C83182E523
:1044900097E0E4CF8BE597E0E1CF84E697E0DECFCD
:1044A0008DE797E00E947A0DDBCF809104010E9496
:1044B00025098983192F60910E0366958091350235
:1044C000909136020E94B306D82EB981AB2FB0E08E
:1044D000BB83AA83CD01880F991FFC01E05CFE4FCE
:1044E0007F01FA811F1709F008F450CFEA81FB81A0
:1044F000E05CFE4F838D9091050189238115E1F0E9
:10450000D7011A962C911A972052330B19964C9179
:104510004052550B60910B0370910C0380910D0379
:104520000D2D0E948E070E942F06462F672F282FE1
:104530008A819B810E941F09B2E0EB0EF11CEA8187
:10454000FB813196FB83EA83CCCF8FE997E0AACF3A
:1045500083EB97E00E94E20D83CF82EE97E0FACFE3
:10456000809104010E942509192F90910601911153
:1045700020C060910E0320E1620F08F46FEF80917C
:104580003502909136020E94B3066AE070E00E9404
:104590007731892B09F0FACE0E94ED0649E0849F1D
:1045A00090011124832F932F990F990B0E94390E9C
:1045B000EDCEA82FB0E0BB83AA83E12EF12C2A8197
:1045C0003B812E153F050CF0E1CE8A819B810E9434
:1045D000390EEA81FB813196FB83EA83F0CF80912B
:1045E00004010E942509192F90910601911120C004
:1045F00060910E0320E1620F08F46FEF80913502A5
:10460000909136020E94B30665E070E00E94773117
:10461000892B09F0BBCE0E94ED0649E0849F9001F2
:104620001124832F932F990F990B0E94770EAECEF2
:10463000A82FB0E0BB83AA83E12EF12C2A813B8115
:104640002E153F050CF0A2CE8A819B810E94770E29
:10465000EA81FB813196FB83EA83F0CF80910401EC
:104660000E9425098983192FF0900C0300910D03F6
:1046700030910B033A8360910E03669566956695BB
:1046800080913502909136020E94B3060E94020783
:1046900020E8280F27FD2195220F3CE0239F212DA4
:1046A00011246A81620F7F2D802F0E942F06062F12
:1046B000F72EE82E5981452F50E05B834A839A817B
:1046C000191709F008F462CEEA81FB81E05CFE4F25
:1046D000838D909105018923811539F02E2D402F6E
:1046E0006F2D8A819B810E941F098A819B8101967F
:1046F0009B838A83E4CF82E198E0B0CE88E398E0A0
:10470000ADCE809104010E942509092F80913502C8
:1047100090913602A0913702B09138024091060282
:1047200050910702609108027091090248175907D9
:104730006A077B0708F055C00E94ED06E9E08E9FEE
:10474000D00111242B2F332727FD3A953B832A8351
:10475000F901E05CFE4F838D90910501892381155D
:1047600009F43FC00E94ED0681FD40C00E94ED06A5
:10477000182F0E94ED0630E8839FC00111247FE7C7
:10478000790F80910D03612F0E942F06462F672F0E
:10479000282F8A819B810E941F0920910E0330E1FE
:1047A000230F08F42FEF60E1822F90E00E94B30600
:1047B000BC0184EF91E00E947731809135029091A5
:1047C0003602A0913702B0913802860F971FA11DC3
:1047D000B11D8093060290930702A0930802B09344
:1047E000090281E0093008F43BCEB4CD80E070E0EE
:1047F00010E0C9CF8091250290912602A091270256
:10480000B0912802409135025091360260913702F2
:1048100070913802481759076A077B0708F49ACD48
:1048200080910601811156C0809104010E942509E2
:10483000192FE82EF12CA701440F551F4E0D5F1DB7
:10484000465F5D4F5B834A83E11608F482C01930EE
:1048500008F49CCD812F90E07C0121E0E21AF10860
:10486000AC01440F551F480F591F435051096DE0CB
:1048700072E08AE092E00E945E320E94ED06A7019B
:10488000440F551F5B834A8381FF80C04E0D5F1D1F
:10489000465F5D4FDA011C9211961C921197129699
:1048A0001C920E944908C0903502D0903602E090D8
:1048B0003702F0903802DC01CB018C0D9D1DAE1D3E
:1048C000BF1D8093250290932602A0932702B093E8
:1048D00028025CCD40E060E080E00E9422090AE00E
:1048E00012E01B821A820E94ED0681FF11C0D801DE
:1048F0001C9211961C92119712961C92EA81FB81D0
:104900003196FB83EA830D5F1F4F399761F78CCF98
:104910000E94ED06F82E0E94ED06B0E88B9FC001C4
:1049200011247FE7790F8A819B81880F991FEA8183
:10493000FB818E0F9F1F9C01265F3D4F69016F2DEC
:1049400080910D030E942F06D6016D937D938C9369
:10495000D5CFF701E05CFE4F838D9091050189234F
:10496000811559F0AA81BB8112962C9112974C9116
:1049700011966C91C7010E941F09EA81FB81339651
:10498000FB83EA83FFEFEF1AFF0A5ECF0E94ED067A
:10499000082F0E94ED06B0E88B9FC00111247FE72D
:1049A000790FEA81FB81EE0DFF1DE65FFD4FFB8372
:1049B000EA83602F80910D030E942F06AA81BB819C
:1049C0006D937D938C936DCF80910601811529F0B5
:1049D00040E060E080E00E942209809104010E9492
:1049E0002509F92E8091350290913602A091370267
:1049F000B091380240912C0250912D0260912E020C
:104A000070912F02481759076A077B0708F073C097
:104A100060910B0370910C0380910D030E942F068F
:104A2000E62EB72EA82EE9E2F2E0FB83EA8300E44B
:104A300011E0ACE2CA2EA2E0DA2EAA81BB818D91F0
:104A4000BB83AA83712C912C812C811519F07A2CAF
:104A50009E2C8B2CD801EC91F0E0DF01A05CBE4FC6
:104A60005B969C91809105019823911531F0272D3B
:104A7000482D692DCF010E941F09D8011296EC9193
:104A8000F0E0DF01A05CBE4F5B969C918091050138
:104A90009823911531F0272D482D692DCF010E94C3
:104AA0001F090E94ED06EA81FB813197837091E036
:104AB000811190E090830D5F1F4FEA81FB81CE163C
:104AC000DF0609F0BACF0E94490800913502109123
:104AD00036022091370230913802DC01CB01800F81
:104AE000911FA21FB31F80932C0290932D02A093BD
:104AF0002E02B0932F0281E0F9E0FF1674CE809170
:104B000004010E942509882EB92E80910601811585
:104B100061F040E060E080E00E942209E8E6F2E017
:104B200089E0DF011D928A95E9F7809104018111E6
:104B30001BC080913102909132020E94A00C8A83A6
:104B40009B8381E0EA81FB81799708F480E0809380
:104B500030022A813B812931310530F00E94320B2D
:104B60009093320280933102E12CF12C912C870139
:104B7000A12CF801E05CFE4F30813983381508F430
:104B800044C03B1508F041C0432F50E05B834A838B
:104B9000FA01E05CFE4F838D909105018923811518
:104BA00009F432C0C80188599D4F6C01DC017C902A
:104BB000472D25E5421B08F440E070910C036AEA9A
:104BC000362F272D320F08F43FEF50910D03232F7E
:104BD000220F230F2E5F259F212D1124641B822F6E
:104BE0000E942F06462F672F282F8A819B810E94C3
:104BF0001F0980913002811539F0272D31E0231BE8
:104C000008F420E0D6012C939394A3940F5F1F4FD8
:104C1000B3E0AB12AECFE6E0EE16F10421F481E092
:104C200039E0B316E0CDF3E0EF0EF11C22E092166E
:104C300008F49DCFF4CF50900D03E52CF12CA70183
:104C4000440F551F4E0D5F1D569547955695479538
:104C50005B834A835A8159838FEF90E0B7010E94AA
:104C60008B31362E80910601811571F040E060E0B5
:104C700080E00E942209E8E6F2E089E0DF011D926F
:104C80008A95E9F710923402809133028F5F809306
:104C9000330278E6C72E72E0D72EA12CB12C370153
:104CA000EA81FB816E1A7F0A45018601212C8091E1
:104CB0003402822981114BC00E942F3285359540E4
:104CC0000CF045C0D6015C92F401E05CFE4FE0813F
:104CD000EF3FD9F0D8012C91F0E0B981B21708F07C
:104CE00045C030E04A815B81241B350B249FC00105
:104CF000259F900D349F900D1124B3010E947731B0
:104D0000262F452DCF010E941F0923940D5F1F4FB1
:104D100053E0850E911C83E02812C9CF9FEFA91A9A
:104D2000B90AAFEFCA1ADA0AB3E0AB16B10409F058
:104D3000BBCF80913302381202C0109233028091AF
:104D400034028F5F8D31F8F48093340203CBF80185
:104D50008081811509F4B8CF851508F0B5CF909101
:104D600033023912B1CF81508083AECF2E9DC00166
:104D70002F9D900D11246A817B810E947731462FEF
:104D800020E060E0BFCF1092340222E030E082E009
:104D90009FEF950D482F50E0FA01EE0FFF1FE40F33
:104DA000F51FBF016B597D4FA8E6B2E0823051F488
:104DB00016964C911697541205C04FEF450D169656
:104DC0004C931697FB014191BF01451538F08F01B7
:104DD00001501109F8019083FB0152821196F2E013
:104DE000AB36BF0719F781E02130310509F4B2CAAB
:104DF00021E030E0CFCF8CE598E00E94E30E30CB8D
:104E000083E698E0FACF80913C0221E0382F321BF4
:104E100008F430E0832F6AE678E00E94510F20CB3F
:104E20006AE678E080E0F9CF80913C0221E0482FEB
:104E3000421B08F440E0842F63E878E0EECF63E89B
:104E400078E0F0CF80913C0221E0582F521B08F40B
:104E500050E0852F6BEB78E0E0CF6BEB78E0E2CFB2
:104E600080913C0221E0382F321B08F430E0832F80
:104E700061EF78E0D2CF61EF78E0D4CF80913C024F
:104E800021E0482F421B08F440E0842F69E079E0DC
:104E9000C4CF69E079E0C6CF809104010E94250962
:104EA000192FA82FB0E0BB83AA835A81511708F0AD
:104EB0006DCAEA81FB81EE0FFF1F2A813B81E20F61
:104EC000F31FE955FD4F6081718182810E942F0699
:104ED000462F672F282F8A819B810E941F094A81B4
:104EE0005B814F5F5F4F5B834A83DFCF4F925F925F
:104EF0006F927F928F929F92AF92BF92CF92DF92EA
:104F0000EF92FF92C090FE01D090FF01E09000026E
:104F1000F09001028FB7F894409002025090030283
:104F200060900402709005028FBF530142018C18FB
:104F30009D08AE08BF080E94940C282F6093FE01C4
:104F40007093FF018093000290930102A09171027F
:104F5000E1E7F2E08A2F30E04FEFC40ED41EE11CEF
:104F6000F11CC418D508E608F708A3132DC08093D8
:104F7000710280916602811137C030910A03832F3C
:104F80008370811519F0832F8695869530911601CF
:104F90003230F1F158F5311138C0109204016093AC
:104FA000350270933602209337029093380289E2DB
:104FB000E1E7F2E0ACE3B2E001900D928A95E1F70F
:104FC00081E08093160114C0418D528DC416D50620
:104FD000E104F10420F481503F5F3296C6CF480DC2
:104FE000591D528F418FF8CF80E0D0CF3330D9F0A8
:104FF000FF90EF90DF90CF90BF90AF909F908F90F9
:105000007F906F905F904F9008950E947121F0CF34
:105010008093140180910A038370809313010E948E
:10502000931083E0CECF8091090381110E94662105
:1050300040913502509136026091370270913802EA
:105040002FB7F8948091020290910302A09104027C
:10505000B09105022FBF841B950BA60BB70B409791
:10506000A105B10528F210921601C2CFCDB7DEB767
:10507000E6970FB6F894DEBF0FBECDBF85B7806848
:1050800085BF85B7806885BF84B7877F84BF0FB62B
:10509000F894A895809160008861809360001092D8
:1050A00060000FBE80E890E00FB6F8948093610036
:1050B000909361000FBE84E196E090939B018093F2
:1050C0009A010E945B0D0E9419108091E200846099
:1050D0008093E20078948091C702811599F08091C5
:1050E000E9001091EC008F70179511271795182B78
:1050F0001092E9008091E80083FD0E9443151F7023
:105100001093E90082E084BD93E095BD9AEF97BDCE
:1051100080936E000E94E612811102C00E94041268
:1051200086E90E94160682E90E94160681E90E941D
:10513000160685EF0E94160684EF0E94160681EF80
:105140000E94160683E0E2ECF2E0DF01282F1D92B8
:105150002A95E9F7E9E3F2E0DF011D928A95E9F784
:1051600080E090E00E948F32853E9E4F21F40E94A5
:10517000E612811163C065EE7EEF80E090E00E9450
:10518000C33260E082E090E00E94A53281E080932B
:10519000150361E083E090E00E94A53260E074E1D5
:1051A00084E090E00E94C33260E086E090E00E94DC
:1051B000A53260E087E090E00E94A53240E050E038
:1051C000BA0188E090E00E94B73260E083E290E0AC
:1051D0000E94A53260E08CE090E00E94A53260E081
:1051E0008DE090E00E94A53219821A821B821C82F7
:1051F0001D821E821F82188648E050E067E170E041
:10520000CE0101960E94953240E050E0BA018FE154
:1052100090E00E94B73280E00E94E8110E940412E0
:1052200040E050E0BA018FE090E00E94B73240E0E9
:1052300050E0BA0183E190E00E94B73282E090E052
:105240000E94873280939A0284E090E00E948F321D
:1052500090935F0380935E030E940818EFEFF6E7D8
:1052600021E0E150F0402040E1F700C000000E9442
:1052700008188091C20280FF08C06FEF7FEF80E0C6
:1052800090E00E94C3320E94BF1083E090E00E9431
:1052900087320E9435030E94DE0910923C0240E1F1
:1052A00050E06FEF70E085E592E00E94703210925E
:1052B000710240E150E06FEF70E08AE892E00E94F6
:1052C000703281E08093090348E050E067E170E0CC
:1052D0008AE093E00E9477321092090380910A03DA
:1052E0008430B8F481E180930A0380911701909192
:1052F0001801A091190180930B0390930C03A093C4
:105300000D038FE780930E038FEF80930F030E94AE
:10531000662189E091E09093EF028093EE02AE0166
:105320004F5F5F4F2A018091C70213E0853009F477
:1053300095C10E9408189091C20280919B02981317
:1053400099C19091C30280919C02981393C190914E
:105350009D028091C40298138DC10E94DD200E949D
:10536000762786E0E1E0F3E0D20101900D928A9584
:10537000E1F7D090020300910303F0900403E09062
:105380000503109106031092030310920403109278
:10539000050310920603802F8F29811509F441C05F
:1053A0008091A0029091A1020E94A00C89A79AA7C7
:1053B0008091FF02811509F425C6A9A5BAA55597C4
:1053C00080F18F3F19F08F5F8093FF02011559F034
:1053D0000E94340A91E010160CF09FEF899F802DF7
:1053E000112480930303F11459F00E94340A91E0D0
:1053F0001F140CF09FEF899F802D112480930403CC
:1054000080910303811569F0C0900403C11449F031
:105410000E94260A809303038C2D0E94260A809303
:105420000403812F8E29811509F442C080919E02C8
:1054300090919F020E94A00C8BA79CA78091FE02D6
:10544000811509F4D8C5EBA5FCA5E135F10580F17E
:105450008F3F19F08F5F8093FE02E11459F00E9494
:10546000540A91E01E140CF09FEF899F802D1124A7
:1054700080930503111559F00E94540A91E011160A
:105480000CF09FEF899F802D11248093060380915B
:105490000503811569F0E0900603E11449F00E94CC
:1054A000260A809305038E2D0E94260A8093060308
:1054B000809102038D1119C080910303811511F0B1
:1054C000801313C020910403211511F02F110DC07A
:1054D00090910603911511F0191307C0309105033F
:1054E000311103C0822B892B81110E94A70B86E00A
:1054F000F201A1E0B3E001900D928A95E1F70E94DC
:10550000790A9091A202891721F08093A2020E9449
:10551000940C8091C702843009F005CF83E080931A
:10552000E9008091E80082FFFECE8091E80090E0E3
:1055300085FF0AC00E942A0DE0E2EE2EF12C8201C6
:10554000811509F4D8C191E08091E8008B778093B0
:10555000E800911509F4E7CE0091CA021091CB0240
:10556000E9810115110509F4D4C1EE3F09F0F6C136
:105570008A81833020F08550833008F0EFC1EA81C2
:10558000EE3008F0EBC1F0E0E854FC4C0C949F3195
:105590008091C702843009F43AC00E947627809136
:1055A000660281110DC00E94712110921401809138
:1055B0000A038370809313010E94931010931601C5
:1055C00051E0509366021092650288E190E0A0E4F9
:1055D0000FB6F894A895809360000FBEA09360006A
:1055E00083B7817F846083BF83B7816083BF7894F2
:1055F000889583B78E7F83BF0FB6F894A895809166
:105600006000886180936000109260000FBE0E946D
:1056100008188091C3029091C202892B9091C40214
:10562000892B8115D9F0809167028115B9F0B0E11D
:10563000B9BDE2E1E9BD09B400FEFDCF8091D8001B
:105640008F7D8093D8008091E00082608093E0009D
:105650008091E00081FDFCCF0E94FC148091C70284
:10566000853009F495CF0E94FC140E94790A1092AB
:1056700066025FCE22EC32E038AB2FA74BE952E056
:105680005EA74DA7212C312CF12CAFA5B8A99D9078
:10569000B8ABAFA7EDA5FEA58191FEA7EDA7891533
:1056A00009F4D6C089258AAB6101E12C8824839452
:1056B0008AA98821811509F4C0C0692C6820E98273
:1056C000FA820E94320B9C838B83F1E0FD8391E090
:1056D000611001C090E09E8349815A816B817C8179
:1056E0008D810E943120611439F0F601E05CFE4F9B
:1056F00080818F3F09F0B6C0712C072D10E080919A
:105700007102870D9927991F09976CF178E0A72EF0
:10571000B12CA01AB10AB8016E587D4FA50182E7DD
:1057200092E00E945532B80166587D4FA5018AE784
:1057300092E00E945532A501440F551FB801660F33
:10574000771F66577D4F8AE892E00E945532B80174
:105750006E577D4FA50182E892E00E94553288E0A5
:10576000871980937102711429F14091710229A95E
:10577000822F90E0242F30E0F901EF58FD4FDC013B
:10578000AA0FBB1FA05CBE4F19965C915183880F76
:10579000991FDC01A65BBE4F8C91818759A9518B63
:1057A000F901EE0FFF1FEF58FD4F128E118E4F5F64
:1057B00040937102611409F440C080910A038C7F08
:1057C000803509F03AC0F601E05CFE4F80818F3FE2
:1057D000A1F1A12CB12C612C90E09C01220F331F70
:1057E000D901A75BBE4FBCABABABF901E65BFE4F8B
:1057F000FEABEDAB8501712CF801E05CFE4F8081C2
:105800008F3F69F06F1032C07E1030C0F601E8594A
:10581000FD4F208130E2230F08F42FEF2083739493
:105820000F5F1F4FF3E07F12E7CF639423E0A20ED8
:10583000B11C39E0A316B104E9F6E394880C4FEFEC
:10584000C41AD40A53E0E51233CFEDA5FEA5929217
:10585000F39483E0280E311C93E0F91216CF0E94D6
:10586000940C7DCD89AB7724739447CF90E0ABA99E
:10587000BCA94C91FC01EE0FFF1FE05CFE4F21859F
:10588000421B550BEDA9FEA92081880F991FFC0131
:10589000E65BFE4F8081281B330B449FB001459F80
:1058A000700D700D1124229FC001239F900D900D4B
:1058B0001124860F971F0E94BD06382F893208F0E9
:1058C000AECF28E2231B08F420E0F801E859FD4F91
:1058D000213108F020E13081320F08F43FEF3083AE
:1058E0009ECF8091F100D8018D938D01B1E0EB1A2C
:1058F000F10809F428CE8091E80085FDF2CF80916F
:10590000E8008B778093E8000E942A0D811599F3B7
:105910001ACEE43150F4E11559F0E150E33140F48E
:10592000F0E0EA53FC4C0C949F31EE3F09F427CE93
:105930008FEF898313C01A8289E08B830FC08A811D
:10594000823099F08330D1F0813091F70E94940C2D
:105950000E94A5316B837C838D839E8340E250E05F
:10596000B20182E00E94E310DECC87E290E00E9468
:1059700087321B821C821D828E83F0CF8091C502EC
:105980009091C602892B51F38091C2028B83809142
:10599000C3028C838091C4028D83E0CF8A818230E0
:1059A00039F66B817C818D819E810E94A53187E2D1
:1059B00090E00E94A532D2CF4C816B818A810E94F7
:1059C00014129827892798279E838D83C7CF2D810E
:1059D0003E813227232732274C816B818A810E94A6
:1059E0006011BCCF0E948711B9CF8A818134B1F197
:1059F000823409F0B3CF8D8190E09C01220F331FD8
:105A0000280F391F2E3131050CF0A8CF4B815C8156
:105A1000D201FA01EE0FFF1FE40FF51FE955FD4F0C
:105A200020E030E02817390708F098CF1396BA0124
:105A3000620F731F6930710508F090CF12966C9158
:105A40001297608313966C911397618314966C91EF
:105A5000149762832F5F3F4F3396E4CF4B815C8175
:105A600080910A03982F93704115510589F4911183
:105A7000109216018C7F80930A038D8180930E0310
:105A80008E8120E048856F8190E00E94620966CF98
:105A9000911102C0109216018C7F816080930A03DD
:105AA00025E135E06DE975E0F90132968591959132
:105AB000F901A591B5914A175B0731F02C5F3F4F73
:105AC0006217730789F780E060E00E942C09D5CF48
:105AD0008A81823409F47CC0A8F5803409F473C04B
