:100000000C9409030C9441030C9441030C94410398
:100010000C9441030C9441030C9441030C94410350
:100020000C9441030C9441030C94EF330C94C734AB
:100030000C94A4330C9441030C9441030C9441039D
:100040000C9441030C9441030C9441030C94410320
:100050000C9441030C94CB330C9441030C94410356
:100060000C9441030C9441030C9441030C94410300
:100070000C9441030C9441030C9441030C944103F0
:100080000C9441030C9441030C9441030C944103E0
:100090000C9441030C9441030C9441030C944103D0
:1000A0000C9441030C9441030C9441030501090293
:1000B000A10185020901A1000509190129081500FE
:1000C0002501950875018102050109300931158165
:1000D000257F95027508810609381581257F9501D0
:1000E00075088106050C0A38021581257F95017572
:1000F000088106C0C005010980A101850319012AF4
:10010000B700150126B700950175108100C0050CD8
:100110000901A101850419012AA002150126A002E6
:10012000950175108100C005010906A1018506052C
:100130000719E029E71500250195087501810205D9
:1001400007190029EF1500250195F07501810205B9
:10015000081901290595057501910295017503910D
:1001600001C00660FF0961A1010962150026FF00B8
:100170009520750881020963150026FF00952075FA
:10018000089102C005010906A101050719E029E748
:1001900015002501950875018102950175088101F9
:1001A0000507190029FF150026FF0095067508812F
:1001B000000508190129051500250195057501910E
:1001C00002950175039101C00000000000000000CD
:1001D000000000000000000000000000000000001F
:1001E0000000000000000000000000007E0F00D4AE
:1001F000FFFFFFC7000000780000000000000000C3
:100200002A2B280000000000000000000000000071
:1002100000000029000000002C1E3420212224347C
:100220002627252E362D3738271E1F20212223244E
:1002300025263333362E37381F0405060708090AEA
:100240000B0C0D0E0F101112131415161718191A86
:100250001B1C1D2F3130232D350405060708090A04
:100260000B0C0D0E0F101112131415161718191A66
:100270001B1C1D2F3130354C0902BF00050100A0A9
:10028000FA09040000010301010009211101000124
:10029000224400070581030800010904010002034C
:1002A000000000092111010001222200070582033C
:1002B00020000107050303200001090402000103D7
:1002C00000000009211101000122B6000705840386
:1002D000200001080B0302010100000904030000D3
:1002E00001010000092401000109000104090404BE
:1002F000000201030000072401000141000624025E
:100300000101000624020202000924030103010284
:10031000010009240302040101010009050602404D
:1003200000050000052501010109058502400005C1
:100330000000052501010312010002000000084D24
:100340005909440100010203011C037600690061A0
:10035000006C003A00660036003400630032006230
:10036000003300630000000C0359004D00440030CE
:1003700000390000000A0359004D0044004B000002
:1003800000040309045F00600061005C005D415EE1
:100390000059005A005B00227827782178237800E2
:1003A0007C25782478287826780001010101010154
:1003B000010101020202020202020202030303031C
:1003C00003030303040404040404040505050505EC
:1003D00006060606060707070707080808080909AA
:1003E00009090A0A0A0B0B0B0C0C0C0D0D0D0E0E55
:1003F0000E0F0F0F101011111112121313141415E8
:100400001516161717181819191A1A1B1B1C1D1D5B
:100410001E1E1F20202122222324242526262728B1
:1004200029292A2B2C2D2D2E2F30313232333435E1
:10043000363738393A3B3C3D3E3F404142434445E4
:10044000464748494A4C4D4E4F50515354555658C3
:10045000595A5B5D5E5F616264656668696B6C6D6D
:100460006F7072737577787A7B7D7E8082838587E3
:10047000888A8C8E8F91939596989A9C9EA0A2A321
:10048000A5A7A9ABADAFB1B3B5B7BABCBEC0C2C426
:10049000C6C9CBCDCFD1D4D6D8DBDDDFE2E4E7E9E6
:1004A000EBEEF0F3F5F8FAFDFFFD377A585A00004D
:1004B00004E6D6B4460200210116000000742FE5C0
:1004C000A3E000DB00A05D003D8889C65436C31759
:1004D0004FE4E7E0C5A31170ADA7A53EC3EEF94612
:1004E00074A0980190780943A8832E2AA0D820BD33
:1004F000BAB355A37D49D99B8154F3782182E95041
:10050000C88FAB9D2252C490DC673DA398B5F5FE21
:1005100032E3F6C9E048E7C3C001869CB3173F9CAD
:10052000D31A1C1A0387163B6005417145AF33612E
:100530008D88C2B797713A477821F64AFC35978B78
:100540004F5380132ECB282262F9E8F175FBEE00A1
:10055000317EDB147EAF70D426E1B5332D09FF5414
:10056000022760CE4297940000FBABA896C945FADB
:10057000F80001BC01DC01000075427DFEB1C467DA
:10058000FB020000000004595A0000000001002294
:100590000002000100060002000D0003000E00042E
:1005A000000F0005001000060011000700130008EE
:1005B000001400090015000A0016000B0018000CBA
:1005C0000019000D001A000E001B000F001C001087
:1005D000001D0014001E0015001F0016002000174B
:1005E00000210018002200190023001A0024001B1B
:1005F0000025001C0026001D0027001E0028001FEB
:1006000000290020002A0021002B0011002C0013DB
:10061000000011241FBECFEFDAE0DEBFCDBF04B66D
:1006200003FE18C080915D0490915E04A0915F0468
:10063000B09160048730904BA740B04B59F41092B2
:100640005D0410925E0410925F0410926004E0E07A
:10065000F8E3099524E0AAEAB1E001C01D92AD35A6
:10066000B207E1F711E0A0E0B1E0E8EEFEE602C07B
:1006700005900D92AA3AB107D9F70E94902A0C94DE
:10068000C7360C9400009C01FB019A9581159F418F
:1006900020F5832F8170B32FB270AA27732F747047
:1006A0006627532F5870442734FF0DC08295807FF2
:1006B000AB2B09F08062672B09F08064452B09F0B1
:1006C000806809950895AB2B09F08260672B09F0CB
:1006D0008460452BB1F38860F4CF80E0F2CF809343
:1006E0001204089580931304089521E030E001C0BE
:1006F000220F8A95EAF780911304822B0E947203DD
:10070000089521E030E0A90102C0440F551F8A95E9
:10071000E2F7CA0180959091130489230E94720325
:100720000895482F9330A8F5833098F5292F30E0AD
:10073000C901880F991F820F931F840F911D282FC5
:10074000277041E001C0440F2A95EAF773E09695BF
:1007500087957A95E1F7FC01EE0FFF1FE80FF91F6F
:10076000EB50FC4F20E030E070E05191DF01CB0115
:10077000022E02C0969587950A94E2F781708195C2
:100780008527842385278E932F5F3F4F23303105A4
:1007900061F70895482F933090F5833080F5292F25
:1007A00030E0C901880F991F820F931F840F911D9C
:1007B000682F677073E0969587957A95E1F7FC014D
:1007C000EE0FFF1FE80FF91FEB50FC4F40E050E029
:1007D00080E0219130E0062E02C0369527950A94DC
:1007E000E2F721703327042E01C0220F0A94EAF7A2
:1007F000822B4F5F5F4F4330510559F7089580E0DA
:1008000008959091130421E030E0F90101C0EE0F4A
:100810008A95EAF7D90102C0AA0FBB1F6A95E2F7D1
:10082000EA2B01C0220F4A95EAF7892F8E23E8139D
:1008300005C0892F822B0E94720308952095822F74
:100840008923F9CF80911B0490911A04981301C059
:1008500008958F5F8770FACF909115048095892352
:1008600080931504282F2770211111C0891779F062
:1008700090915C0492FF0BC08695869586950E94A8
:100880008103109215041092170410921604089513
:10089000982F9095809110048923809310040895D7
:1008A00080910F04811531F010920F0410921904F9
:1008B0001092180408959C01803E910509F448C0E7
:1008C000D8F48133910509F47DC048F4893291054B
:1008D00009F46DC08A9709F47CC0C9010895893371
:1008E000910551F18238910539F1C597B1F78091A1
:1008F0005B0485FFF2CF29C0843E910509F447C00F
:1009000048F4823E910599F1833E9105A9F121EECB
:1009100030E0E3CF863E910509F444C0873E91055F
:10092000E1F680915B0483FD61C090915C0491FFCE
:100930002BC024EE30E0D1CF80915B048370811115
:1009400052C080915C0483FFC8CF29E230E0C5CF5C
:1009500080915B0480FD33C090915C0490FFBDCF1B
:1009600023EE30E084FFB9CF20E030E0B6CF8091B5
:100970005B0482FDF5CFB1CF80915B0482FD30C076
:1009800090915C0490FD2FC084FFA7CFEDCF8091A4
:100990005C0481FFA2CF80915B0427EE30E084FDF0
:1009A000E3CF9BCF80915B0483FDF7CF96CF8091FF
:1009B0005B0485FD1EC080915C0483FF8ECF29E31C
:1009C00030E08BCF80915B0486FF87CF2AE230E056
:1009D00084CF80915B0486FF80CF21E330E07DCF20
:1009E00022EE30E07ACF20EE30E077CF26EE30E016
:1009F00074CF25E330E071CF90915B0492FF10C07B
:100A000041E0282F2471243009F040E031E0282F04
:100A10002871283009F030E0431711F02CE08227CC
:100A200093FF10C041E0282F2471243109F040E0E9
:100A300031E0282F2871283109F030E0431711F0F8
:100A40002CE0822730915C0430FF10C051E0282F49
:100A50002171213009F050E041E0282F2871283021
:100A600009F040E0541711F029E0822731FF10C04F
:100A700041E0282F2171213109F040E031E0282F99
:100A80002871283109F030E0431711F029E082275E
:100A900094FD877E08951F93CF93DF930E945B049C
:100AA000EC01811522E5920708F055C0811540E55B
:100AB000940708F0D1C0803E910520F58D3C91054A
:100AC00008F0A4C0883A910570F4853A910508F0C1
:100AD0009AC081309105D1F10497813A9105B0F126
:100AE000C0E0D0E033C0885A91094B97C8F7C85A84
:100AF000D0E0CC0FDD1FCC58DE4F0990D881C02D3F
:100B0000D46424C0811550E49507C0F4C11580E277
:100B1000D80708F0B7C0C83ED105C0F0CE019A95FD
:100B200081159F41E8F68D2F0E94FC04182FCE01FD
:100B300099270E945B04EC01D12B08C099270E94E1
:100B40005B04CC27DF70C82BD92BD06ACE01DF9194
:100B5000CF911F910895803842E59407C8F58036FB
:100B600052E5950708F05BC0C03482E5D807D0F4A1
:100B7000C03292E5D90708F04BC08C2F8695869538
:100B800020E2829FC0011124C37021E030E0A9015E
:100B900002C0440F551FCA95E2F7EA01C82BD92BB2
:100BA000DD68D4CF8C2F86958695877050E2859F1F
:100BB000C0011124C37021E030E0A90102C0440F3C
:100BC000551FCA95E2F7EA01C82BD92BDC68BECFC6
:100BD000803C52E5950758F48F71C03AD245A0F594
:100BE00090E0982F8827EC01C46FD06AAFCF805C6B
:100BF0009245809708F074CFDC2FCC27CC27DF718B
:100C0000C06FD06AA3CFA497D064A0CFD0659ECF89
:100C1000CF71D0E0DC2FCC27C16FD06A97CF8695FB
:100C20008695877020E2829FC0011124C37021E065
:100C300030E0A90102C0440F551FCA95E2F7EA014E
:100C4000C82BD92BDA6882CF0E94FC04C82FD0E0D1
:100C5000DC2FCC27D0627ACF8F710E94FC0493E006
:100C6000CC0FDD1F9A95E1F7CC27DF70282F30E0FD
:100C700084FF04C050E1859F90011124C22BD32B27
:100C8000D06964CF8D2F8F710E94FC04182FCE0184
:100C900099270E945B04EC01D12BDCCF80E0089502
:100CA000F894E82FE295EF70F0E041A18F7021E019
:100CB00030E0B90102C0660F771F8A95E2F7CB01D9
:100CC000962F9095942391A392A1892B82A3789437
:100CD000089508950895982F282F207F203D41F1F1
:100CE00080F4203B31F038F4907E903811F0203AB7
:100CF000D1F483E0089581E0203C09F080E0880F82
:100D00000895203EB1F3203F71F4833F89F020F431
:100D1000813F71F0823FECCF81E09D3F30F4983FFE
:100D200030F4963F21F080E008959E3FE0F308956F
:100D300082E00895A0E0B0E0E0EAF6E00C945235DD
:100D4000372FE82FF0E0E755FC4F71110AC0E4910E
:100D50008E2F2E2F6E2F722FCDB7DEB7E7E00C94BB
:100D60006E35062F10E0E72EF12CD4902D2D86E065
:100D7000689FE0011124EFEFF0E0CE01BF010E9477
:100D80001235000F111F45E5469FC001479F900D8A
:100D90001124081B190B402F440F400F8F010E190F
:100DA0001F09D09ED001D19EB00D11248B2F349FEE
:100DB00080011124012F11277F01E01AF10A870118
:100DC000D09E7001D19EF00C11248F01041B1109DB
:100DD000A801349F8001359F100D1124012F112788
:100DE000E01BF10BDE9EA001DF9E500D1124E52FCC
:100DF00063307105C1F0CC3FD34058F461307105C8
:100E0000B1F06230710509F0A5CFED2D2B2F852FA4
:100E1000A1CF6430710571F06630710509F49ACF85
:100E2000EB2F8F2D97CF2B2F8D2DEF2D93CFED2DDA
:100E30002F2D90CFEB2F8D2D252F8CCF9C0180E077
:100E400090E0269F812D369F800D911D11240895DD
:100E5000AC018230910508F408959FEF413E8EE188
:100E6000580740F4CA0125E0969587952A95E1F741
:100E700098E0980F61E0E62FE90FFF27FF1F9F0121
:100E800035952795822F229FF001239FF00DF00DBD
:100E900011244E175F0738F49FEF920F961758F7FB
:100EA0008FEF860F08952F3FE9F361E0620FF6CFD1
:100EB000409107015091080125E038E0429FC001B0
:100EC000439F900D529F900D1124875E994C9093F3
:100ED000080180930701890F0895982FE82F96FD48
:100EE000E0958E2F8F7096FD8F5FE695E695E695DF
:100EF000E670F0E0E25CFE4F2181289F202D812DDD
:100F0000112422952F708295807F282B8081820F5B
:100F100097FD819580580895FC019B01009719F475
:100F2000832F80780895AC0197FF04C0442755278C
:100F3000481B590BB901640F751F37FD0FC0C9015C
:100F4000841B950BA5E0880F991FAA95E1F70E94D5
:100F5000263580E2861BF7FD81950895CB0165E07B
:100F6000880F991F6A95E1F7BA01621B730B0E9403
:100F7000263580E6EFCF622F0895E42FF0E0EE0FE4
:100F8000FF1FE05BFE4F6185621B0895E42FF0E0D8
:100F9000EE0FFF1FE65AFE4F6081621B0895322F4D
:100FA00050E0FA01EE0FFF1FE65AFE4F908190527B
:100FB00097FD9195440F551FFA01E05BFE4F218587
:100FC000231B330B290F311D97FD3A95620F0895AE
:100FD000EF920F931F9310E09801220F331F200F01
:100FE000311F359527956E2D620F1F910F91EF9050
:100FF00008950F93CF93DF93D72FC82FBA01C9015C
:101000000E948C07682F600F7D2F8C2FDF91CF916E
:101010000F910895EF920F93CF93DF93D72FC82F9F
:10102000BA01C9010E190E948C07602F681B7D2F21
:101030008C2FDF91CF910F91EF9008950F931F9315
:10104000522F10E0F801EE0FFF1FE65AFE4FA0816D
:10105000A052BB0B9D015203F001539FF00D1124D0
:10106000000F111FD801A05BBE4F19962C91205282
:10107000330B4203D001439FB00D11249F012A0F6F
:101080003B1F37FF02C021583F4F220F232F221F43
:10109000330B620F1F910F9108950F931F93522FDF
:1010A00010E0F801EE0FFF1FE65AFE4FA081A0529C
:1010B000BB0B9D015203F001539FF00D1124000F53
:1010C000111FD801A05BBE4F19962C912052330BF3
:1010D0004203D001439FB00D11249F012A0F3B1FF3
:1010E00037FF02C0215C3F4F96E0359527959A95D2
:1010F000E1F7620F1F910F9108950F931F93CF9304
:10110000DF93D62F072F182FC42F822F0E946D0731
:10111000982FEC2FF0E0EE0FFF1FE05BFE4F818574
:101120008058980F97FD9195990F292F3CE0239FA8
:10113000212D1124622F6D0F702F812FDF91CF9100
:101140001F910F910895E42FF0E0EE0FFF1FE05B79
:10115000FE4F9185921B97FD9195292F38E1239F92
:10116000212D1124620F089520910B0430E1230FEB
:1011700008F42FEF60E1822F90E00E941E07BC016F
:1011800088EB9BE00E94123580E090E00895409546
:10119000282F429F412D1124842F0895409520E44B
:1011A000429F412D1124640F0895EF92FF920F93F7
:1011B000970195E0099F200D311D1124211591E023
:1011C000390710F02FEF30E02095382F320F08F458
:1011D0003FEF832F0F91FF90EF900895EF92FF92D2
:1011E0000F93E00EF11CF90137FF03C0F195E19573
:1011F000F10924E0EE0FFF1F2A95E1F7E11531E038
:10120000F30714F0EFEFF0E0DA0157FF03C0B195F8
:10121000A195B10994E0AA0FBB1F9A95E1F7AE170B
:10122000BF070CF4FD01EE0DFF1DE11591E0F9077C
:1012300010F0EFEFF0E02E2F2095382F320F08F44A
:101240003FEF832F0F91FF90EF900895EF92FF9261
:101250000F93CF93DF93972FEA01F901D701093458
:1012600030F4A01BB109A11521E0B20710F0AFEFD7
:10127000B0E02896619740F0AF01485F5F4F413181
:10128000510510F0AFEFB0E02A2F2095382F320F24
:1012900008F43FEF832FF7FD33969F01359527958F
:1012A0003595279560910804620F792FDF91CF91D2
:1012B0000F91FF90EF900895EF92FF920F93970197
:1012C000201B3109211541E0340710F02FEF30E0E9
:1012D000322F3095482F430F08F44FEF842F620FC1
:1012E0000F91FF90EF900895EF92FF920F93970167
:1012F000201B3109211591E0390710F02FEF30E064
:101300002095382F320F08F43FEF832F0F91FF9075
:10131000EF9008950E944D0A08950E94710A089561
:10132000880F92E0980F9A3008F099E00895962F70
:101330002091070423702115A1F0811599F08332C3
:1013400098F48F73880F880F209107042370822BE5
:10135000809307041092220160910604692B609328
:101360000604089581E0EECF82E2ECCF809107047D
:10137000869586958F5F833208F081E061E00E9458
:101380009709089580910704869586958A9509F4B2
:1013900082E261E00E9497090895922F209107044C
:1013A0002370211559F08093080460930904409339
:1013B0000A0420910604292B209306040895E7E0EF
:1013C000F4E0818190E021E04381628108960E94EF
:1013D000CD090895E7E0F4E0818121E04381628155
:1013E0008850990B0E94CD090895E7E0F4E06281EE
:1013F00020E1620F08F46FEF818121E0438190E0EA
:101400000E94CD090895E7E0F4E0628120E1621BCB
:1014100008F460E0818121E0438190E00E94CD09E1
:101420000895E7E0F4E0438120E1420F08F44FEF34
:10143000818121E0628190E00E94CD090895E7E07A
:10144000F4E0438120E1421B08F440E0818121E087
:10145000628190E00E94CD090895E7E0F4E02481E4
:1014600030E1230F08F42FEF24838091060481607C
:10147000809306040895E7E0F4E0248130E1231B23
:1014800008F420E0248380910604816080930604A0
:1014900008956A9A10920D020895CF93DF93EC019C
:1014A000FC01EE0FFF1FDF01AC0FBD1FAE50BE4FA2
:1014B00011968C911197861307C08C91841304C0E8
:1014C00012968C91821751F081E080930D02EC0FFF
:1014D000FD1FEE50FE4F618340832283DF91CF9149
:1014E0000895FF920F931F93CF93DF93182F062F2A
:1014F000F42EC0E0D0E02F2D402F612FCE010E94AE
:101500004D0A2196C930D105B1F7CDB7DEB7E5E078
:101510000C947035FA01811511F009950895FB01BD
:10152000FCCF282F35EB2303C001112497FF04C003
:1015300080589109892F089580589F4FFBCF809143
:10154000FD0380FD14C081FD14C082FD16C0809192
:10155000FC03811581F08E3180F420E5829FC0016B
:1015600011246EE170E00E942635862F089584E1F3
:10157000089588E2089588E0089580E508958091AF
:10158000FD0380FD17C081FD17C082FD19C0809149
:10159000FB03811599F0883298F428E0829FC001FE
:1015A000112468E270E00E9426356115710551F042
:1015B000862F089562E0FCCF64E0FACF61E0F8CFB7
:1015C00068E0F6CF81E00895E091EB03F091EC0341
:1015D000309729F00190F081E02D0995089580E081
:1015E0000895A3E0B0E0E7EFFAE00C9457359C01D2
:1015F0008091F0019091F10182179307A1F030934F
:10160000F1012093F001E091EB03F091EC033097AE
:1016100051F083E089833B832A830084F185E02DA8
:10162000CE01019609952396E2E00C947335A3E070
:10163000B0E0EDE1FBE00C9457359C018091EE01A8
:101640009091EF0182179307A1F03093EF0120935F
:10165000EE01E091EB03F091EC03309751F084E060
:1016600089833B832A830084F185E02DCE01019696
:1016700009952396E2E00C94733590912101911124
:1016800012C0AEEAB1E0EFEF90E02D91821751F079
:10169000EF3F19F4211101C0E92F9F5F9630A9F7A0
:1016A000EF3FC9F4089590915B0497FFEACFE82FCC
:1016B000E695E695E695803FA8F7F0E0EC54FE4FFE
:1016C000877021E030E001C0220F8A95EAF782811D
:1016D000822B828308950E2E000CFF0BE455FE4FE3
:1016E000F8CF90912101911521F090915B0497FD25
:1016F0000CC0EEEAF1E09191891302C0DF011E9265
:1017000051E0E43BF507B9F70895E82FE695E69533
:10171000E695803FC8F7F0E0EC54FE4F877021E07B
:1017200030E0A90102C0440F551F8A95E2F7CA01B3
:10173000809592818923828308952FB7F8948091B0
:10174000120290911302A0911402B09115022FBFC2
:101750000895CF93DF93C091100480911404C82B97
:1017600080910F04811509F10E949D0B20911804AE
:1017700030911904821B930B8838934110F00E941A
:101780005004D0910F0480912101811521F08091A6
:101790005B0487FD0EC086E02EEA31E090E08150C8
:1017A00060F491110E945004CD2B8C2FDF91CF91CA
:1017B00008958EE126EB31E0F1CFF90141919F01CF
:1017C000411569F39F5FEBCF962F20915C0422FFB8
:1017D00010C0682F660F660F660F692B60931504A3
:1017E0000E9475030E949D0B90931704809316042A
:1017F00008950E947503089590910F04292F2823BE
:10180000211561F08095892380930F04811539F0AB
:101810000E949D0B8093180490931904089580E012
:1018200090E0F8CF0E949D0B2091000430910104BC
:10183000232B211521F08093B0029093B1022091C7
:10184000020430910304232B211521F08093AE0272
:101850009093AF02E091EB03F091EC03309749F0E5
:1018600082E08093FE030680F781E02D8EEF93E007
:1018700009950895611509F44BC0E3E3E80FE331DE
:1018800050F4F0E0E753F94C0C943A350E949F0A6B
:101890008195809301040E94120C08950E949F0A72
:1018A000F8CF0E949F0A819580930004F4CF0E9494
:1018B0009F0AFACF0E94BF0A80930204ECCF0E94D5
:1018C000BF0A8195F9CF0E94BF0A819580930304D6
:1018D000E2CF0E94BF0AFACF815D990B21E030E090
:1018E00001C0220F8A95EAF78091FF03822B809333
:1018F000FF03D1CF8091FD0381608093FD03CBCFA7
:101900008091FD038260F9CF8091FD038460F5CF63
:10191000409100048D3C59F48091010487FF0DC073
:1019200010920104411559F41092FC0308C08E3C3A
:1019300081F48091010418169CF3411581F0809187
:10194000020490910304892B8111A5CF1092FB030F
:10195000A2CF8F3C41F447FFF0CF1092000480915A
:1019600001048115E0CF803D19F41416B4F3E5CFDE
:1019700090910204893D29F41916FCF61092020494
:10198000DCCF8A3D19F497FFD8CFF8CF90910304AC
:101990008B3D29F497FFD1CF10920304CECF8C3D1D
:1019A00019F41916CCF3C9CF9FE2980F983090F430
:1019B000815D990B21E030E0B90102C0660F771F0D
:1019C0008A95E2F7CB0180959091FF03892380935C
:1019D000FF03B3CF8D3D31F48091FD038E7F809363
:1019E000FD03ABCF8E3D21F48091FD038D7FF7CFBA
:1019F0008F3D09F0A2CF8091FD038B7FF0CF2FB7F1
:101A0000F8946091120270911302809114029091E7
:101A100015022FBF08959C014FB7F89480911202D0
:101A200090911302A0911402B09115024FBF821B36
:101A3000930B08958091ED010895FC019B01809125
:101A4000E3019091E4018617970740F0672B29F492
:101A50008091E8008E778093E800C90140E000970C
:101A600041F4411106C08091E80082FF2FC080E060
:101A700008952091C4032115A9F12530A9F12091E1
:101A8000E80023FD2DC02091E80022FDECCF20913D
:101A9000E80020FFE4CF3091F3002091F20000979E
:101AA00019F02830310558F041E02830310509F0AF
:101AB00040E02091E8002E772093E800D0CF4191BC
:101AC0004093F10001972F5F3F4FE9CF8091C4030E
:101AD000811541F0853041F08091E80083FFC3CF4C
:101AE00081E0089582E0089583E008958091DD010A
:101AF00087FF13C08091E80082FF06C08091E80054
:101B00008B778093E80008958091C4038111F2CF10
:101B100008958091C4038115D9F38091E80080FF76
:101B2000F8CF8091E8008E77ECCF2091E4003091DF
:101B3000E50095E6A9012091EC00822F817020FF3D
:101B400006C08091E80080FF06C080E008952091E3
:101B5000E80022FD1AC08091C403811589F0853008
:101B600089F08091EB0085FD0FC02091E400309159
:101B7000E50042175307F9F29A95E1F684E00895DB
:101B800082E0089583E0089581E00895E8EDF0E0B3
:101B900080818E7F80831092E2001092DA00109292
:101BA000E100A0EEB0E08C9181608C9380818F7712
:101BB000808319BCA7EDB0E08C918E7F8C938081DF
:101BC0008F7E80831092DC010895EF92FF920F9335
:101BD0001F93CF937C018B010E94950DC82F81111B
:101BE00017C08091E80085FD0BC08091E8008B77DD
:101BF0008093E8000E94950D811599F3C82F08C0C5
:101C00008091F100F70181937F010150104049F765
:101C10008C2FCF911F910F91FF90EF900895A7E027
:101C2000B0E0E5E1FEE00C9454358C0108511F4F03
:101C30008091C403843009F064C080911B018F70CF
:101C40008093E9008091E80082FF5BC08091E8000A
:101C500085FF57C040E050E064E070E0CE0101969F
:101C60000E94E50D8091E80085FD05C08091E800A7
:101C70008B778093E800FA808F2D0E946B06282FC7
:101C8000FD828B818E838C818F83211108C0E98135
:101C9000E450E43068F6F0E0EA5BFE4F208130E08B
:101CA000321730F6FE013596E30FF11DF0804FB785
:101CB000F894D8011196EC911197F0E0CF010196BC
:101CC00012966C9170E00E942635D8015C915817ED
:101CD000190619F44FBF3F5FE3CF13968D919C9186
:101CE0001497E80FF91FF08211968C91119790E0EC
:101CF000019612966C9170E00E942635F80181835E
:101D0000E9CF2796E5E00C947035EF92FF920F93A0
:101D10001F93CF937C018B010E94950DC82F8111D9
:101D200017C08091E80085FD0BC08091E8008E7798
:101D30008093E8000E94950D811599F3C82F08C083
:101D4000F70181917F018093F1000150104049F724
:101D50008C2FCF911F910F91FF90EF900895CF920C
:101D6000DF92FF920F931F93CF93DF9300D000D0A9
:101D7000CDB7DEB76B01142FF22E4A832B830C8371
:101D8000842F0E946B06811142C082E0C816D104E4
:101D9000C1F083E0C816D10479F0CA94CD2899F136
:101DA0000F900F900F900F90DF91CF911F910F9197
:101DB000FF90DF90CF90089517E0073F31F014E0D7
:101DC00004C087EF16E0F812FACF19838091C4039C
:101DD000843031F7809116018F708093E90040E0E4
:101DE00050E064E070E0CE0101960E94850E811102
:101DF000D7CF8091E80085FDD3CF8091E8008E7722
:101E00008093E800CDCF173FD1F615E0DECF1295D5
:101E10001F70DBCFA3E0B0E0E0E1FFE00C945135B0
:101E20007C01162FD42EC22E8091D702843069F502
:101E3000E091CC02F091CD023097B9F19701215099
:101E40003109C90163E070E00E941235B901681BD5
:101E5000790B19834A83CB824E2D461B9E012F5F3F
:101E60003F4F82EB92E00995E091D002F091D102D0
:101E7000309739F00C2D2D2D412FB70182EB92E0D8
:101E800009952396E8E00C946D3582E0E816F1049C
:101E900009F454C083E0E816F104A9F081E0E816E3
:101EA000F10409F47AC0E12CF12CE091CE02F0911A
:101EB000CF023097C9F20C2D2D2D412FB70182EBA7
:101EC00092E00995D1CF862F807F803B19F188F46D
:101ED000803929F1803A41F1E091B802F091B902DC
:101EE000803819F7309709F32C2D4D2D612F6F7025
:101EF0000DC0803EF1F0803FC1F6623FB1F6E09147
:101F0000BE02F091BF0262EF309779F282EB92E06D
:101F10000995AACFE091B402F091B502E3CFE09128
:101F2000B602F091B702DECFE091BA02F091BB02A7
:101F3000D9CFE091BC02F091BD02D4CF862F807F33
:101F4000803D81F0803F99F0E091C002F091C102A4
:101F5000803C09F0AACF309709F4A7CF4D2D612F0F
:101F60006F7017C0E091C202F091C302F4CFE0910C
:101F7000C402F091C502633F39F0613F09F095CF8B
:101F8000E091C602F091C7024D2D612F309709F400
:101F90008CCF82EB92E0099567CFE091C802F09177
:101FA000C902683F38F4663F09F07FCFE091CA026A
:101FB000F091CB02309709F478CF612F82EB92E059
:101FC000099552CFA0E0B0E0E8EEFFE00C944B356D
:101FD0003C01809104010E949009C82F192F609143
:101FE0000B04669580914502909146020E941E075F
:101FF000F82ED0E0CE01880F991F9C01205B3E4F48
:1020000069011C1709F048F481E0193008F080E0FC
:10201000CDB7DEB7EEE00C946735FE01E05BFE4F16
:10202000838D909105018923811579F1F6018185D0
:10203000282F2052330B59018285E82FE052FF0BE5
:102040004F01AA9C9001AB9C300D300D1124EE9FE6
:10205000C001EF9F900D900D1124820F931F0E94DD
:102060002807082F609108047091090480910A04E0
:10207000EF2C9401A501F30109950E949A06462FC1
:10208000672F282FCE010E948A09F2E0CF0ED11CC3
:102090002196B7CFA4E0B0E0E0E5F0E10C94513533
:1020A0006C01809104010E9490098B83F92E60914C
:1020B0000B046695669580914502909146020E94B8
:1020C0001E07182F80E4810F0E946D0780588983B6
:1020D000812F0E946D0780588A839B81892F90E011
:1020E0009C838B839B819F1548F081E0E9E0FE167D
:1020F00008F080E02496E8E00C946D35EB81FC81DB
:10210000E05BFE4F838D9091050189238115A9F035
:10211000609108047091090480910A04E12E0B81FA
:102120002A814981F60109950E949A06462F672F58
:10213000282F8B819C810E948A098B819C8101962A
:10214000CFCFA0E0B0E0E7EAF0E10C945235EC012B
:10215000FC01E05BFE4F838D909105018923811581
:1021600049F1D090090400910A0410910804E12E6D
:10217000F12C0E945807482FC7018C549F4F68E6E6
:1021800071E00E9426358E199F0997FD039695955B
:102190008795959587954370612F489F600D112411
:1021A0007D2D802F0E949A06462F672F282FCE0163
:1021B0000E948A09CDB7DEB7E7E00C946E351F9315
:1021C000CF93DF93EC01FC01E05BFE4F838D909198
:1021D000050189238115B1F00E945807182F0E942C
:1021E000580720E8829FC00111247FE7790F612FF3
:1021F00080910A040E949A06462F672F282FCE014D
:102200000E948A09DF91CF911F910895EF92FF926A
:102210000F931F93CF93DF937C01809104010E9461
:102220009009C82F192F60910B046695669521E0DF
:10223000620F08F46FEF80914502909146020E9470
:102240001E07082FD0E0C11748F081E0193008F0D0
:1022500080E0CDB7DEB7E6E00C946F35FE01E05BC1
:10226000FE4F838D909105018923811591F0609136
:1022700008047091090480910A04202F4C2FF70163
:1022800009950E949A06462F672F282FCE010E949B
:102290008A092196D8CFA0E0B0E0E1E5F1E10C9405
:1022A0004E357C01809104010E949009C82FB92EFF
:1022B00020910B0431E0230F08F42FEF30E040E0D1
:1022C00050E06FEF7FEF80E090E00E94643669019C
:1022D000D0E0A22E9D2C2C2FCB1550F081E0F9E000
:1022E000BF1608F080E0CDB7DEB7EBE00C946A359E
:1022F000FE01E05BFE4F838D9091050189238115DE
:1023000021F180914C028150082E000C990B87FF1F
:102310001EC00A2D192D60910B0421E0620F08F4F4
:102320006FEFC8010E941E07AC0160910804709114
:10233000090480910A04F70109950E949A06462F24
:10234000672F282FCE010E948A092196C4CFFC0155
:10235000E45BFD4F318932130AC0FC01EE0FFF1F11
:10236000E45BFD4F018D128D0C151D05A0F2019748
:10237000CECFA8E0B0E0EFEBF1E10C944735282E8A
:102380006A837B83809104010E9490099983209144
:102390004C022C83E82FF0E0F887EF83CF01880F01
:1023A000991F9C01205B3E4F6901822D90E0FC014A
:1023B0003196FE83ED838F819981891740F081E00A
:1023C000993008F080E02896E2E10C946335EF81C3
:1023D000F885E05BFE4F838D90910501892381157F
:1023E000F1F040900804509009042D813E81245B57
:1023F0003D4F3901322C10E0FC813F16D0F0209186
:102400000A04129F112D1124B201812F0E949A06F5
:10241000462F672F282F8F8198850E948A092F8148
:1024200038852F5F3F4F38872F8332E0C30ED11C92
:10243000C2CFF30181913F01F601A184A81ABB0824
:102440008284F3018781881A9908AA9C9001AB9C29
:10245000300D300D1124889CC001899C900D900D89
:102460001124820F931F0E942807082F60910B04EC
:1024700021E0620F08F46FEFF301EE0FFF1FEC5441
:10248000F240858996890E941E077C019401A5016E
:10249000B201812FEA81FB8109952B01182F33941A
:1024A000ABCF982F9093E900891771F07091EC00F1
:1024B0002091ED005091F00021FD09C09F5F973001
:1024C00089F78093E9000895762F242F50E030910A
:1024D000EB003E7F3093EB003091ED003D7F309379
:1024E000ED003091EB0031603093EB007093EC0025
:1024F0002093ED005093F0002091EE0027FDDECFF9
:102500000895A0E0B0E0E7E8F2E10C945135C8EDA1
:10251000D0E088818F7E8883E7EDF0E08081816064
:10252000808384E082BF81E08093DC0188818E7F9C
:10253000888302EE10E0F80110821092DA0081EE3A
:10254000C82ED12CF601108288818F7788838881EC
:102550008068888388818F7D888319BC1092C4032A
:102560001092DB01109277021092DA0190EEE92EC0
:10257000F12CF70180818B7F808388818160888343
:1025800042E060E080E00E945112F60180818E7F7F
:102590008083F8018081816080838081886080836E
:1025A000F70180818E7F8083888180618883CDB7A9
:1025B000DEB7E8E00C946D35E0911B0490911A04AD
:1025C00027E0E91302C080E00895AE2FB0E02E9F0F
:1025D000F0011124E45EFB4F3181361306C03081D7
:1025E000381303C03581341304C0FD013196E77000
:1025F000E8CF81E0089580910D02811539F13EB157
:102600003B7F2EB124604FB7F89482EF91E0FC013C
:102610000196508168E02EB9000000C057FF3EB916
:10262000550F000000C000C000C03EB900C06A9550
:1026300091F752E08D30950751F74FBF8FE594E049
:102640000197F1F700C0000010920D02089581E09B
:102650008093E00080E28093D8001092C9008FE15F
:102660009EE40197F1F700C0000087E090EBDC01E9
:1026700080935D0490935E04A0935F04B093600424
:1026800088E19CE00FB6F894A895809360000FBE97
:1026900090936000FFCF282FCB01BA013091C40383
:1026A0003430D1F42093E9002FEF3091E80035FD6C
:1026B00006C035ED3A95F1F700002A95B1F7209163
:1026C000E80025FF09C040E050E00E94850E80919F
:1026D000E8008E778093E8000895CF93DF93D82F9A
:1026E000C92F48E050E0682F792F81E00E944B13FA
:1026F00088E0ED2FFC2FA5EEB1E001900D928A95B8
:10270000E1F7DF91CF910895BC0140E250E084E011
:102710000E944B130895BC0146E050E084E00E9403
:102720004B130895BC0143E050E084E00E944B133A
:10273000089590915C0492FB222720F9281779F0E4
:1027400080FB92F990935C0460915B0470915C044F
:1027500084E090E00E945E3682E00E942C0408959E
:102760001F93CF93DF93962F122F632F8430D8F4CB
:102770009330C8F44330B8F4C42FD0E0CC0FDD1F41
:1027800026E0929FC00DD11D112492E1899FC00DBA
:10279000D11D1124CE0188960E944036612FCE01B2
:1027A00089960E944036DF91CF911F9108958F92B4
:1027B0009F92AF92BF92CF92DF92FF920F931F939F
:1027C000CF93DF938090C2039090C30381E090E0A9
:1027D0009093C3038093C203A12CB12CC0E0650188
:1027E000D0E019C021E030E0C23020F4F80185913A
:1027F00095919C014F2D6D2F8C2F0E94B013F39457
:102800000E5F1F4F83E0F812EDCFDF5F83E0C80E4D
:10281000D11CD33039F08601000F111F0B571C4F0C
:10282000F12CE0CFCF5F89E0A80EB11CC430B9F61F
:102830009092C3038092C203DF91CF911F910F91B9
:10284000FF90DF90CF90BF90AF909F908F900895B2
:10285000CF93DF93C0E7D0E060E0CE010E94403626
:102860002196C11584E0D807B9F7DF91CF9108957B
:10287000CF93C82F64E4811101C06FEF84E290E030
:102880000E94403668E8C11101C06FEF85E290E018
:102890000E94403669EFC11101C06FEF86E290E0FF
:1028A0000E944036CF91089580E00E94381460E085
:1028B00087E290E00E9440360E94D7130E942814BD
:1028C00081E00E94381408950F931F93CF93DF93F4
:1028D000843030F5633020F5433010F5C42FD0E05C
:1028E000CC0FDD1F26E0629FC00DD11D112432E107
:1028F000839FC00DD11D1124CE0188960E942236DF
:10290000082F10E0102F0027CE0189960E94223652
:102910009801282BC901DF91CF911F910F91089544
:1029200080E090E0F8CF462F672F2091C7033091C9
:10293000C803232B91F4703F39F4403F71F4809128
:10294000C5039091C6030895733038F4433028F4DA
:10295000843018F40E946414089580E090E0089593
:10296000A0E0B0E0E6EBF4E10C9452357C0100917C
:10297000130480911204082BC3E0D0E010E0C801DA
:102980000C2E02C0959587950A94E2F780FD09C048
:102990002197A8F7D12C8D2DCDB7DEB7E7E00C94A9
:1029A0006E35DC2EB7018C2F0E9493140E944B05CC
:1029B000019771F3F0CF0F931F93CF93FC018581A3
:1029C00000811181811591F0611581F0C8010E948B
:1029D000B014C82F682FC8010E949103B8018C2F32
:1029E0000E949314CF911F910F910895C8010E94E6
:1029F000CA03C82FF3CFCF93DF93D82FC92F0E94DC
:102A0000B0146D2F7C2F0E9493140E944B05DF9110
:102A1000CF910895FC0184818115A1F0808191817D
:102A20000E94FB14282F92959F70963099F060F4C5
:102A3000925F9F70923030F4203FB1F038F481E023
:102A4000283E38F080E008959A5FF3CF81E0243F7C
:102A5000C9F7089591E0213F09F090E081E0283E18
:102A600008F080E0892B089581E0089584E290E0E9
:102A70000E942236843489F485E290E00E94223656
:102A8000883859F486E290E00E94223691E0893F2E
:102A900009F090E0892F8170089580E0FCCF80914B
:102AA0002101811559F180915B0487FF27C00E94A5
:102AB000A90B8093B50140E250E06BEC73E084EB2E
:102AC00091E00E94E335892BC1F080E2E4EBF1E074
:102AD000ABECB3E001900D928A95E1F7E091EB0346
:102AE000F091EC03309749F086E08093B4010480C4
:102AF000F581E02D84EB91E0099508950E94A90BE2
:102B00008093AC0148E050E06DEE73E08CEA91E018
:102B10000E94E335892B89F388E0ECEAF1E0ADEE21
:102B2000B3E001900D928A95E1F7E091EB03F0910B
:102B3000EC03309711F30280F381E02D8CEA91E0F1
:102B4000DBCFCF93C82F8115C9F08238C9F40E941A
:102B5000E40A81FD13C089E30E943D0B0E944F15DA
:102B60002FEF37EE83E0215030408040E1F700C086
:102B7000000089E30E94710B0E944F15CF910895C8
:102B80008338A1F40E94E40A80FDF8CF83E50E9417
:102B90003D0B0E944F159FEF21EE34E091502040F5
:102BA0003040E1F700C0000083E5E4CF8438A1F4B1
:102BB0000E94E40A82FDE2CF87E40E943D0B0E945E
:102BC0004F158FEF91EE24E0815090402040E1F7C7
:102BD00000C0000087E4CECF8CEF8C0F813A90F5D7
:102BE0008091210181110EC0EEEAF1E084EB91E0C9
:102BF0002191C21709F18E179F07D1F78C2F0E94E0
:102C00003D0BBACF80915B0487FFEECFEC2FE695AA
:102C1000E695E695F0E0EC54FE4F828190E04C2F73
:102C2000477021E030E002C0220F331F4A95E2F7DF
:102C300082239323892B11F38C2F0E94710B0E9406
:102C40004F15DCCF80E28C0F883068F4C77081E0CC
:102C500090E001C0880FCA95EAF7C0911004C82B14
:102C6000C093100489CF8BE58C0F833038F42C2F60
:102C70002452330BC9010E94F10A80CFE8E5EC0F22
:102C8000EB3150F4F0E0EE0FFF1FEC58FE4F808167
:102C900091810E94170B72CF83E38C0F833108F070
:102CA0006DCF61E08C2F0E943A0C68CF811509F43A
:102CB00056C0823879F40E94E40A81FF50C089E34B
:102CC0000E943D0B0E944F1589E30E94710B0E94E8
:102CD0004F150895833859F40E94E40A80FF3FC0DD
:102CE00083E50E943D0B0E944F1583E5EECF8438AB
:102CF00059F40E94E40A82FF32C087E40E943D0B2F
:102D00000E944F1587E4E1CF9CEF980F913AE8F2CB
:102D100090E2980F983050F4877091E001C0990FBD
:102D20008A95EAF7892F0E944804D1CF9BE5980F36
:102D3000933028F480E090E00E94F10A089598E52D
:102D4000980F9B3128F480E090E00E94170B0895C3
:102D500093E3980F933118F460E00E943A0C0895C1
:102D60000F931F93CF93C82F8B010E94A1150115BC
:102D7000110539F48C2F0E945616CF911F910F9197
:102D800008958FE99FE00197F1F700C0000001501E
:102D90001109EDCF811539F090911004892B8093A2
:102DA00010040E944F150895811521F00E944804D7
:102DB0000E944F150895FF920F931F93CF93DF93B7
:102DC000C62FD42F122F8115A9F0609304040E94FE
:102DD0009D0B9093D8018093D701C77081E001C00B
:102DE000880FCA95EAF70E94CA16CDB7DEB7E5E0AC
:102DF0000C94703580910404681332C08091D7011F
:102E00009091D8010E940B0D883C910548F500E295
:102E10000D0FCD17A9F0C770FF24F3948F2D01C0BB
:102E2000880FCA95EAF70E94D416083048F48D2F0F
:102E3000877001C0FF0C8A95EAF78F2D0E94CA1691
:102E400060E070E0812F0E94B016083070F6D770F5
:102E500081E001C0880FDA95EAF70E94D416C5CF49
:102E6000C77081E001C0880FCA95EAF7F6CF8115D7
:102E700039F090911404892B809314040E944F150B
:102E80000895811541F080959091140489238093D1
:102E900014040E944F15089510921004809121018E
:102EA000811539F180915B0487FF23C0E6EBF1E0E7
:102EB0008EE1DF011D928A95E9F780E090E00E94A3
:102EC000F10A80E090E00E94170B109214040E9417
:102ED0004F1586E0EEEFF3E0DF011D928A95E9F7EA
:102EE0001092FC031092FB031092FD030E94120C3F
:102EF0000895EEEAF1E086E0DCCF0E944C172FEF58
:102F000084E39CE0215080409040E1F700C0000045
:102F100088E19CE00FB6F894A895809360000FBEFE
:102F200090936000FFCFAAE2B0E0E9E9F7E10C94EA
:102F300056358DED91E0FC0101962091F100208342
:102F400021E0853E9207B9F78091DE01893009F4CE
:102F500056C0C8F4823009F4B3C0833009F482C08B
:102F6000813071F18091E80083FFE7C08091DD013D
:102F70009091DE019A3008F0E0C0E92FF0E0E452D1
:102F8000F94C0C943A358A3009F489C08B3051F7EA
:102F90008091DD01813231F78091E1019091E20170
:102FA000892B01F78091E800877F8093E8000E94D9
:102FB000760D8091DF01809321010E944C17D2CFC2
:102FC0008091DD01813A71F68091E800877F8093DE
:102FD000E8008091E1019091E201892B61F060E0CD
:102FE00080E090E070E00E941D0D8091E8008B77FA
:102FF0008093E800B7CF68E085EE91E0F3CF809151
:10300000DD01813209F0AECF8091E1019091E201C2
:103010008D7F892B09F0A6CF8091E800877F809370
:10302000E8008091E80082FF18C09091F300809141
:10303000F200029731F48091F100813011F0863076
:1030400021F48091F1008093ED018091E8008B776D
:103050008093E8000E94760D85CF8091C403811192
:10306000E0CF80CF8091DD01813A09F07BCF809164
:10307000E1019091E201892B09F074CF8091E80081
:10308000877F8093E8008091E80080FFFCCF8091EB
:1030900021018093F1008091E8008E77D9CF809153
:1030A000DD01813209F05ECF8091E800877F809357
:1030B000E8000E94760D8091E0018093D90152CF03
:1030C0008091DD01813A09F04DCF8091E800877F42
:1030D0008093E8008091E80080FFFCCF8091D901C7
:1030E000D8CF803889F0823841F58091E1018F7026
:1030F000873018F58093E9008091EB0085FB8827E5
:1031000080F91092E90006C080917702880F9091B3
:10311000DA01892B9091E800977F9093E8008093E3
:10312000F1001092F1008091E8008E7723C08111A8
:1031300016C08091DF01813011F18091E80083FF9A
:103140000AC08091E800877F8093E8008091EB00BF
:1031500080628093EB00AA96E3E00C947235823093
:1031600061F78091DF01811589F01092E90080916B
:10317000E800877F8093E8000E94760DDECF81E033
:10318000933009F080E080937702EFCF8091E101E6
:103190008F702FEF280F263080F68093E900209162
:1031A000EB0020FFE2CF933031F48091EB0080629E
:1031B0008093EB00DACF9091EB0090619093EB005D
:1031C00021E030E0A90102C0440F551F8A95E2F7C3
:1031D0004093EA001092EA008091EB008860E8CF0B
:1031E0008111ABCF1091DF011F778091E3008078D0
:1031F000812B8093E3008091E800877F8093E80033
:103200000E94760D8091E80080FFFCCF8091E30062
:1032100080688093E30083E0111101C082E0809315
:10322000C4038BCF8058823008F087CF8091DF01B4
:103230009091E0018C3D53E0950799F583E08A83F6
:103240008AE289834FB7F894DE01139620E03EE0CE
:1032500051E2E32FF0E050935700849120FF03C028
:1032600082958F703F5F8F708A30C8F0895C90E0E4
:103270008D939D932F5F243161F74FBF8091E800BC
:10328000877F8093E8006AE270E0CE0101960E9499
:103290001D0D8091E8008B778093E8004ECF805D14
:1032A000E6CF292F33272330310509F44EC078F5B6
:1032B0002130310509F488C08FEB90E0E8E7F2E0B7
:1032C0002230310509F039CF2091E800277F209383
:1032D000E8002091E3013091E4018217930708F49C
:1032E0009C0140E02115310509F073C0411171C006
:1032F0008091E80082FDCDCF8091C403811549F211
:10330000853039F28091E80083FFF2CFC2CF8091FF
:10331000E1019091E2012132310509F446C02232E7
:10332000310509F00ACF8330910508F006CFFC0182
:10333000EE0FFF1FEE5CFE4F0190F081E02D815DEE
:103340009E4FDC018C9190E010C09C0133278230AD
:1033500021F12330310568F4232BB9F4E1E8F3E0DF
:10336000E4918E2F90E0E1E8F3E0009709F4E5CED8
:10337000ABCF2330310509F0E0CEE9E4F3E0E4918E
:103380008E2F90E0E9E4F3E0F0CFE5E7F3E0E4919D
:103390008E2F90E0E5E7F3E0E8CFE7E6F3E0E49195
:1033A0008E2F90E0E7E6F3E0E0CF8330910508F060
:1033B000C4CEFC01EE0FFF1FE85CFE4F0190F081D0
:1033C000E02D89E090E080CF82E190E0E7E3F3E058
:1033D0007BCF8091C403811509F45BCF853009F45C
:1033E00058CF8091E80083FD54CF8091E80082FDA2
:1033F0007FCF8091E80080FF75CF9091F30080919E
:10340000F2002115310519F08830910550F041E0A6
:10341000089709F040E08091E8008E778093E800FB
:1034200061CF44914093F1003196215031090196CA
:10343000E8CF803809F081CE8091E800877F8093C3
:10344000E8008091DB018093F1006DCE811175CE93
:103450001091DF01123008F070CE8091E800877F74
:103460008093E8001093DB010E94760D111521F185
:1034700084E08093C40342E061EC81E00E94511239
:1034800042E261EC84E00E94511242E261EC82E08F
:103490000E94511242E260EC83E00E94511242E32A
:1034A00061E885E00E94511242E360E886E00E94F4
:1034B00051128091C40341CE8091E30087FDD8CFA3
:1034C00081E0D7CFA3E0B0E0E8E6FAE10C944C3518
:1034D000FE01319683E0DF011D928A95E9F78AE4C7
:1034E000A82E81E0B82E992493947E2E8F2EEE2460
:1034F000E394F12C20E5C22E21E0D22EF50181913A
:103500005F018F3F09F442C0F894E82FE295EF7015
:10351000F0E021A18F70A70102C0440F551F8A95CA
:10352000E2F7CA01922F982B91A392A1809589234B
:1035300082A3789400C0EDE4F1E0072D182D492D09
:1035400040959191D8018D918D019F3F09F445C01F
:10355000A92FA295AF70A05EB0E02C9130E09F70D3
:1035600002C0359527959A95E2F720FD36C0892946
:10357000D8018E93CE16DF0621F7F50182918F3F99
:1035800011F00E945006B0EABA95F1F7990CEDE4FB
:10359000AE16E1E0BE0609F0B1CF43E050E0672D82
:1035A000782D89E492E00E94E335892BC1F089816E
:1035B0009A81AB818093490290934A02A0934B0277
:1035C00081E08093D6010E949D0B9093D50180935A
:1035D000D4012396EDE00C9468358423C9CF809103
:1035E000D6018115B1F38091D4019091D5010E944B
:1035F0000B0D059770F343E050E069E472E08FEB48
:1036000093E00E94E335892B61F08091490290910B
:103610004A02A0914B028093BF039093C003A093F2
:10362000C1031092D601D5CFA0E0B0E0EAE1FBE102
:103630000C945035EC018881811509F4A9C08130C2
:1036400009F04AC08981813079F48E010E5F1F4FE5
:103650008A8160E570E0893311F060E070E00E94DB
:10366000B016E8012196E7CF823039F48E010E5F63
:103670001F4F8A810E94A115F4CF833039F48E0147
:103680000E5F1F4F8A810E945616EBCF843011F0D7
:103690002196E8CF2A81229680E090E06AE0AE0190
:1036A0004F5F5F4F2053330B2A30310550F00097A6
:1036B000C9F2EFE9FFE03197F1F700C00000019790
:1036C000F6CF689FF001699FF00D1124C9018E0F9C
:1036D0009F1F2981EA01E3CFE82FF0E0E850FE4F79
:1036E000B490282F26952695269530E0F901E851CB
:1036F000FE4FE4908770F12C082E02C0F594E794F9
:103700000A94E2F7E0FAEE24FF24E0F8F901E85227
:10371000FE4FC490D12C082E02C0D594C7940A94B1
:10372000E2F7C0FACC24DD24C0F8F901E853FE4FDB
:10373000049110E002C0159507958A95E2F7017093
:103740001127E114F10419F081EE0E94A115C114B2
:10375000D10419F086EE0E94A11560E070E08B2D77
:103760000E94B016C114D10419F086EE0E945616BC
:10377000E114F10419F081EE0E94561601151105AD
:1037800009F470CF60E070E08CE20E94B0166ACF5E
:10379000CDB7DEB7E9E00C946C35A4E0B0E0E3ED22
:1037A000FBE10C944B356C01FC018481811509F41B
:1037B000E5C061E0C6010E94DB148C01F601358191
:1037C000311509F4BAC097578038910508F0FAC44A
:1037D000F02EF0E10F1708F0C1C08FEF93E00E94C8
:1037E00022368111BBC000E710E0F11036C044E082
:1037F000642EAE014F5F5F4F5A01F501262D1192E5
:103800002A95E9F748014FEF841A940AC8010E94EB
:1038100022368983811509F4A1C0813009F087C05F
:10382000780152E0E50EF11CC4010E942236782E88
:103830008A83811509F492C08FEF870D8330D8F405
:10384000C7010E9422368B83811519F0C5010E94A1
:10385000141B0D5F1F4F78016EC0011524E0120785
:1038600009F47CC0C8010E9422360F5F1F4F8111EE
:10387000F4CFFA94BACF8BEF870D833070F54801FF
:1038800093E0890E911CC7010E9422368B8381151B
:1038900009F450C00C5F1F4F7801C4010E9422360A
:1038A0008C83811509F447C00B811C810130FFEF27
:1038B0001F0710F0102F002726E0721651F047E086
:1038C000741619F0C8010E945A23C8010E948D2362
:1038D00032C0C8010E945A232EC054E075122BC07A
:1038E000C7010E942236982E780184E0E80EF11C70
:1038F000C80103960E942236282F911479F1811570
:1039000069F12150330B4FEF429FC001439F900D4F
:103910001124E92DE150FF0B8E0F9F1F019758F0E6
:10392000EFE9FFE03197F1F700C00000F7CFC501E4
:103930000E94141B7401870160CFFC01E851FC4711
:10394000E730F10508F01AC4EA51F94C0C943A3505
:1039500026E241EE61EE832F0E94DB168091150472
:103960008770811559F0F6018581811539F08091B4
:103970005C0482FF03C082E00E942C042496EEE0E7
:103980000C94673527E245EE65EEE5CF26E241EE81
:1039900060EEE1CF27E245EE64EEDDCF26E241EEB8
:1039A00062EED9CF27E245EE66EED5CF28E241E0C0
:1039B000EBCF80915B04816080935B0460915B043A
:1039C00070915C0484E090E00E945E360E944C1787
:1039D000C5CF80915C04886080935C04EFCF8091B8
:1039E0005B048260E9CF80915B048460E5CF8091C5
:1039F0005B048860E1CF80915C048160EDCF8091B1
:103A00005C048260E9CF80915B048061D5CF8091B6
:103A10005B048062D1CF80915B048064CDCF0E9433
:103A20004C1780915B048068C7CF80915B048C60E9
:103A3000C3CF80915C048360CFCF80915B048E7F85
:103A4000BBCF80915C04877FC7CF80915B048D7F63
:103A5000B3CF80915B048B7FAFCF80915B04877F76
:103A6000ABCF80915C048E7FB7CF80915C048D7F5B
:103A7000B3CF80915B048F7E9FCF80915B048F7D5D
:103A80009BCF80915B048F7B97CF0E944C178091D6
:103A90005B048F7791CF80915B04837F8DCF809182
:103AA0005C048C7F99CF80915B04992782FF93956A
:103AB00090FB82F990FB83F97FCF80915C04982F73
:103AC000909590FB80F990FB81F986CF90915B04F3
:103AD000892F8F7B96FF80646FCF0E944C17909147
:103AE0005B04892F97FB87F9805866CF61E08EE0F1
:103AF00090E00E94403662CF60E0F9CF90915B0485
:103B0000892F8F7E94FF806157CF90915B04892F1E
:103B10008E7F90FF816050CF90915C04892F877FCA
:103B200093FF886059CF89E248C389E231C380910D
:103B300010048272F801E052F847E531F10508F00F
:103B400062C0E351F94C0C943A3507372CE7120761
:103B500009F05EC081E00E94750343E062E081E00D
:103B60000E940104FBCE8091070491E08927809395
:103B7000070410922201809106048160809306045C
:103B8000EDCE42EC59E066EB79E00E948A0AE6CE7F
:103B900046EB59E062EC79E0F8CF4AEE59E06FED80
:103BA00079E0F3CF4FED59E06AEE79E0EECF43E0F4
:103BB0005AE065EF79E0E9CF45EF59E063E07AE05C
:103BC000E4CF4FE15AE061E17AE0DFCF41E15AE032
:103BD0006FE17AE0DACF4BE35AE06DE27AE0D5CFDD
:103BE0004DE25AE06BE37AE0D0CF61E081E00E94E1
:103BF0009709B4CE61E082E0FACF61E084E0F7CFCC
:103C000061E088E0F4CF07374CE7140709F469C096
:103C100008375CE7150709F468C03115A9F00A35C3
:103C20008CE7180709F48BC008F063C00130ECE79B
:103C30001E0709F482C00330FCE71F0709F477C0B0
:103C400001151C4709F466C0F6018581E080F1800A
:103C5000811509F478C0C7010E94B014182F682F8D
:103C6000C7010E949103B701812F0E9493140E9403
:103C70004B058C01F601B580A680A2942FE0A2220C
:103C8000809115048770811501F1EB2CB114F1F0CE
:103C9000812F807F803461F080E2800F8830A8F02F
:103CA000812F807E803221F4023078F0A11469F0F7
:103CB00080915C0482FF09C082E00E942C04809104
:103CC00015048770EE24E3948111E12CE12FE29535
:103CD000EF70103C08F09BC0F0E0EE5FF84C0C94E5
:103CE0003A3581E00E94810338CF82E03115D1F36B
:103CF00032CF0B354CE7140721F180915C0400248E
:103D000082FF0394802D0C351C4709F09DCF0E9443
:103D100099139ACF0E944C178FEF94E3ECE08150F7
:103D20009040E040E1F700C000000E9427136FEFD1
:103D30007FEF80E090E00E945E360E947D1781E078
:103D4000E6CF80E0E4CFC7010E94CA03182F8BCFD3
:103D5000F12FFF70FF2E103118F0F29490EFF9223E
:103D6000B114B9F0F11469F080E2800F883010F0DE
:103D7000011109C0809110048F29809310040E94C2
:103D80004F15802F42C0809114048F298093140412
:103D9000F6CF802F0E945616F114C9F180E2800FF1
:103DA000883010F0011104C08F2D0E94480406C015
:103DB000F094809114048F21809314040E944F1575
:103DC00026C0212F2F70F22E107F103219F0F2949E
:103DD00080EFF822011549F0013009F484C0B114D4
:103DE00009F490C0A114B1F1CCCF80915C0482FDA4
:103DF0002DC0B11429F1F11439F0809110048F29EC
:103E0000809310040E944F1580E00E94A115E114D8
:103E100009F480C18091150480FD7CC1F6011582F2
:103E20008695869586950E947503C6010E94CD1BD6
:103E3000809115048695869586950E9481036AC1B6
:103E400080E00E945616F11411F3AECFB11469F15F
:103E5000A11004C08F2D0E94CA16D9CF41E0A41230
:103E600010C010910F048F2D8123F81681F20E944B
:103E70009D0B90931904809318041F2910930F042D
:103E8000C6CF55E0A512C3CF8F2D0E94CA168F2D25
:103E90000E94FC0B809111049F2D9823F91609F4C0
:103EA000B6CF8F2980931104B2CFA11012C08F2DED
:103EB0000E94D4168F2D0E94FC0B809111049F2D1F
:103EC0009823911509F4A3CFF094F822F0921104ED
:103ED0009ECF81E0A8129BCF809110048F21811585
:103EE00009F495CFE4CFB11429F096E0A91608F0B3
:103EF0008ECFB0CFE5E0AE1608F089CF8F2D0E94AF
:103F0000D41685CFA114D1F3093349F4FFEF27EE7E
:103F100043E0F15020404040E1F700C00000802F16
:103F20000E94561674CF812F8695869583708115D1
:103F300061F0813009F06BCFC8019370B11002C0FD
:103F400080E090E00E94170B62CFC8019370B1101F
:103F500002C080E090E00E94F10A59CF6B2D802FC3
:103F60000E943A0C54CF812F8370811135C0B11457
:103F700019F00E94E40A4BCF402F429546954770B6
:103F8000440F440F802F8F70042E01C0880F0A94B5
:103F9000EAF7202F207104FF07C02FE030E001C0B6
:103FA000220F4A95EAF72095169516951370123050
:103FB00071F0133051F030911204113029F0822B3E
:103FC00083230E946F03D5CF832B822BFACF822BC2
:103FD000909112048927F5CFB11451F110FFC9CF88
:103FE000402F429546954770440F440F802F8F70A5
:103FF000042E01C0880F0A94EAF7202F207104FFD5
:1040000007C02FE030E001C0220F4A95EAF7209563
:10401000169516951370123089F0133069F03091AF
:104020001304113041F0822B83230E947203A1CF2D
:104030008230B0F69ECF832B822BF7CF822B9091CC
:1040400013048927F2CF1F70B11439F0812F0E9419
:104050007503802F0E94CA168CCF802F0E94D41621
:10406000812F0E94810385CF023F71F170F4003FE0
:10407000C9F0013F91F0B11409F46CC0A11409F426
:1040800066C0802F0E94A11574CF033F21F1043F29
:1040900091F780915C0482FD2AC0812F8F71B11449
:1040A00001F316C0B11469F055E0A51608F061CF10
:1040B0001F7181E090E0012E01C0880F0A94EAF799
:1040C000BECF86E0A816F2CF812F8F71B110C9CF75
:1040D0000E9475034ECF80E0B11409F4A6CF1F7182
:1040E00081E0012E01C0880F0A94EAF79ECFB11437
:1040F000F9F0809115048770843089F410921504CA
:104100001092170410921604812F8F710E94810360
:104110000E94E40A60E0C6010E94DB142FCC95E007
:10412000A916B0F763E0812F8F710E94E40BF0CFE6
:10413000E5E0AE1640F010921504109217041092AC
:10414000160464E0F0CF81E00E942C04E1CF812FBF
:104150008F71BECFA11479F0093349F4FFEF27EE38
:1041600043E0F15020404040E1F700C00000802FC4
:104170000E945616FECE812F8F7173CF86319C47D9
:1041800009F0D5CC80910504811509F4CECC85E3E6
:104190000E94710B14C006312CE7120709F0D5CC30
:1041A000809110048A7A91E0811101C090E090938F
:1041B0000504811509F4B7CC85E30E943D0B0E94EC
:1041C0004F15CCCBF801E851FC47E730F10508F476
:1041D000BBCB10920404C80190578397E0F684E0AB
:1041E00090E00E942A3690935C0480935B04F8016F
:1041F000E150F047E232F10508F0DBCBE25FF84C2A
:104200000C943A3580915A04803178F480915904A5
:10421000811559F0E0911B0420911A043091550446
:104220004091540457E02E1301C008956E2F70E0A2
:104230005E9FF0011124DF01A45EBB4F14968C91A8
:104240001497811561F111968C911197831327C0F2
:104250008C91841324C015968C91159781111FC0E1
:1042600012968D919C91A0915604B09157048A1B8F
:104270009B0B883C910598F480915A048F70806163
:1042800080935A04EE5DFB4F80818F708061808344
:1042900084E594E00E94CD1B0E9422040895FB0156
:1042A0003196E770C0CFADE0B0E0E9E5F1E20C9403
:1042B0004B358C0186E0F801DE01189601900D92D5
:1042C0008A95E1F7F801F580848194E5892E94E0E0
:1042D000992E60905804611018C0811599F0F1145E
:1042E00009F415C1C8010E940A15811509F40FC10E
:1042F00087E0F801A4E5B4E001900D928A95E1F71A
:104300000E940221FF24F39456C07080A280B380E3
:10431000D09059042091560430915704A501421BB6
:10432000530BD11409F4C3C0483C510508F079C0BF
:10433000811541F380915504C180E0905A0450E109
:10434000E51608F059C0C81215C0809154048711B1
:1043500011C0F1104BC08E2D8F70806180935A0474
:1043600084E594E00E94CD1B80915A04F801868375
:10437000F12C21C0F1103AC040E06C2D872D0E9435
:10438000DC1240E06C2D872D0E94DC12F82E81118A
:10439000EFCF888599850E94FB14292F22952F70D5
:1043A000903470F49F702230A0F09115B1F0F801B4
:1043B0009681903190F48F2D2D96EEE00C94673518
:1043C0002A5F2F70223068F0C8010E94CD1BFD2C9F
:1043D000F2CF911511F0811571F3805E883058F39A
:1043E000F3CF803F40F3815F8330F9CF80915A044F
:1043F000816080935A04BCCFC8123BC080915404A2
:10440000871137C0F11035C0E682C8010E94CD1B6C
:1044100087E0F801A4E5B4E001900D928A95E1F7F8
:1044200071CFE0905A04F0E1EF1650F484E594E087
:104430000E94CD1B87E0F40111928A95E9F798CF8D
:10444000811509F45FCF90915504F801818198138B
:1044500010C08091540487110CC0F1100AC0E6828C
:10446000C8010E94CD1B87E0F40111928A95E9F7FB
:1044700049CFC8010E940A15811509F448C0F114FA
:1044800009F445C080915A04803208F431CF8091FC
:104490005404909155049A838983BC82AB826D82C7
:1044A0001E82EF82CE0101960E94CD1B21CF483C97
:1044B000510508F0BFCF811509F424CFF11439F16B
:1044C000909155048181981318C0809154048711EC
:1044D00014C080915A0480FD9BCF803108F498CF9E
:1044E0008683807F803F09F490CF8681982F907FCC
:1044F000905F8F70892B868388CFC8010E940A1530
:104500008111F6CE80915A04816080935A04C801CB
:104510000E94CD1BF7CEABE1B0E0E1E9F2E20C94F2
:1045200055354E8B5F8B688F798F8A8F192F9B8FB4
:104530009111109214041D8A86E0FE017696DE0128
:104540001F9601900D928A95E1F70A8D80915C0487
:1045500082FF1FC00E949D0B20911604309117040A
:10456000821B930B8838934138F08091150482FDAB
:1045700003C082E00E942C040E949D0B209118042D
:1045800030911904821B930B8838934110F00E94DC
:104590005004011539F00B8B1C8B61E0CE010F9696
:1045A0000E94DB140B8B1C8B87E0FE013F96DE0123
:1045B000189601900D928A95E1F7CE0108960E9417
:1045C0005321811110C020911A0430911B0487E0FF
:1045D000FE013896DE01119601900D928A95E1F761
:1045E0008C8581110BC017E080911B0490911A04F7
:1045F00089132BC06B96E4E00C947135822F90E008
:104600000196877099273817190671F40E944C1784
:1046100010921A0410921B0487E0E4E5F4E0DF0135
:104620001D928A95E9F7DFCF97E0929FD001112480
:10463000A45EBB4FFE01319601900D929A95E1F771
:1046400080931A040E942204CECF189FC001112427
:10465000845E9B4F0E945321811561F280911B045F
:1046600090E001968770992780931B04BDCFA6E048
:10467000B0E0EDE3F3E20C9455350E949D0B8C0104
:104680008091C9039091CA038017910779F019822C
:104690001A820E949D0BBC0149815A8180E090E002
:1046A0000E948B221093CA030093C9032696E4E06C
:1046B0000C947135A6E0B0E0E0E6F3E20C945535D9
:1046C0008C019093C6038093C503011580E21807FF
:1046D000B0F4C801805E9109089728F067E377E19C
:1046E0000115110511F46AEC76E1C8010E9443033B
:1046F000802F0E94A1152696E4E00C94713580EF7E
:1047000089838A830E949D0B8160BC0149815A8103
:1047100081E091E00E948B22EECFA6E0B0E0E3E9D9
:10472000F3E20C9455358C019093C6038093C50336
:10473000011580E21807B0F4802F0E945616C801B8
:10474000805E9109089728F061E477E10115110571
:1047500011F464ED76E1C8010E9443032696E4E07B
:104760000C94713580EF89838A830E949D0B816050
:10477000BC0149815A8181E090E00E948B22EECFFA
:1047800048E050E067E170E087E094E00E94303656
:10479000109206040895A3E0B0E0E1EDF3E20C947A
:1047A0004735482E80911401841123C0909107044D
:1047B00093702091130130E081E09217130609F401
:1047C00080E08093060180910C0490910501981778
:1047D00039F08093050140E060E080E00E948D099F
:1047E00023E2421688F4E42DF0E0E05DF84C0C94EE
:1047F0003A3581E0E6CF80910601811529F040E04D
:1048000060E080E00E948D0980E084C08091040116
:104810000E9490098983192F6091080470910904FE
:1048200080910A040E949A06062FF72EE82E5981DD
:10483000452F50E05B834A839A81191709F018F4D9
:1048400081E019302AC2EA81FB81E05BFE4F838D53
:10485000909105018923811539F02E2D402F6F2D60
:104860008A819B810E948A098A819B8101969B8310
:104870008A83E2CF809104010E9490098983192FD5
:1048800000910804A0910904AA83F0900A046091A1
:104890000B04669566956695809145029091460257
:1048A0000E941E070E946D07805887FD8195880F22
:1048B000282F3F2D239F212D1124822F602F7A81B5
:1048C0000E949A06062FF72EE82E5981452F50E0B8
:1048D0005B834A839A81191709F008F4B1CFEA8102
:1048E000FB81E05BFE4F838D90910501892381154B
:1048F00039F02E2D402F6F2D8A819B810E948A09CD
:104900008A819B8101969B838A83E4CF8BEB97E01E
:104910000E940611909104019F5F90930401811100
:104920000CC082E08093220180910601811105C0B4
:10493000411003C083E0809322012396E2E10C94AE
:1049400063358DEB97E0E4CF86EC97E0E1CF8FEC19
:1049500097E0DECF88EE97E00E94E20FDBCF8091F8
:1049600004010E9490098983192F60910B046695B8
:1049700080914502909146020E941E07D82EB9816F
:10498000AB2FB0E0BB83AA83CD01880F991FFC0138
:10499000E05BFE4F7F01FA811F1709F008F450CF4A
:1049A000EA81FB81E05BFE4F838D909105018923B5
:1049B0008115E1F0D7011A962C911A972052330BEA
:1049C00019964C914052550B60910804709109045E
:1049D00080910A040D2D0E94F9070E949A06462F25
:1049E000672F282F8A819B810E948A09B2E0EB0EF3
:1049F000F11CEA81FB813196FB83EA83CCCF8AE00C
:104A000098E0AACF8EE198E00E944A1083CF8DE40F
:104A100098E0FACF809104010E949009192F90919B
:104A20000601911120C060910B0420E1620F08F48F
:104A30006FEF80914502909146020E941E076AE046
:104A400070E00E941235892B09F0FACE0E945807B7
:104A500049E0849F90011124832F932F990F990B84
:104A60000E94A110EDCEA82FB0E0BB83AA83E12E57
:104A7000F12C2A813B812E153F050CF0E1CE8A8175
:104A80009B810E94A110EA81FB813196FB83EA831E
:104A9000F0CF809104010E949009192F9091060196
:104AA000911120C060910B0420E1620F08F46FEFB8
:104AB00080914502909146020E941E0765E070E0D9
:104AC0000E941235892B09F0BBCE0E94580749E09D
:104AD000849F90011124832F932F990F990B0E948B
:104AE000DF10AECEA82FB0E0BB83AA83E12EF12C5D
:104AF0002A813B812E153F050CF0A2CE8A819B8135
:104B00000E94DF10EA81FB813196FB83EA83F0CFBC
:104B1000809104010E9490098983192FF090090463
:104B200000910A04309108043A8360910B04669561
:104B30006695669580914502909146020E941E07F7
:104B40000E946D0720E8280F27FD2195220F3CE0E9
:104B5000239F212D11246A81620F7F2D802F0E94B7
:104B60009A06062FF72EE82E5981452F50E05B83D9
:104B70004A839A81191709F008F462CEEA81FB8111
:104B8000E05BFE4F838D909105018923811539F0FB
:104B90002E2D402F6F2D8A819B810E948A098A8148
:104BA0009B8101969B838A83E4CF8DE798E0B0CE0A
:104BB00083EA98E0ADCE809104010E949009092F0C
:104BC0008091450290914602A0914702B09148021F
:104BD00040911602509117026091180270911902CB
:104BE000481759076A077B0708F055C00E94580705
:104BF000E9E08E9FD00111242B2F332727FD3A9512
:104C00003B832A83F901E05BFE4F838D9091050180
:104C10008923811509F43FC00E94580781FD40C0D7
:104C20000E945807182F0E94580730E8839FC00140
:104C300011247FE7790F80910A04612F0E949A0660
:104C4000462F672F282F8A819B810E948A092091F5
:104C50000B0430E1230F08F42FEF60E1822F90E086
:104C60000E941E07BC0184EF91E00E9412358091E2
:104C7000450290914602A0914702B0914802860FEA
:104C8000971FA11DB11D8093160290931702A09348
:104C90001802B093190281E0093008F43BCEB4CD7C
:104CA00080E070E010E0C9CF80913502909136022B
:104CB000A0913702B09138024091450250914602CE
:104CC0006091470270914802481759076A077B07AD
:104CD00008F49ACD80910601811156C0809104019B
:104CE0000E949009192FE82EF12CA701440F551F9F
:104CF0004E0D5F1D465E5D4F5B834A83E11608F4EF
:104D000082C0193008F49CCD812F90E07C0121E015
:104D1000E21AF108AC01440F551F480F591F4350C8
:104D200051096DE172E08AE192E00E94F9350E943A
:104D30005807A701440F551F5B834A8381FF80C03A
:104D40004E0D5F1D465E5D4FDA011C9211961C925E
:104D5000119712961C920E94B408C0904502D09000
:104D60004602E0904702F0904802DC01CB018C0D36
:104D70009D1DAE1DBF1D8093350290933602A093FA
:104D80003702B09338025CCD40E060E080E00E94E2
:104D90008D090AE112E01B821A820E94580781FFE6
:104DA00011C0D8011C9211961C92119712961C9258
:104DB000EA81FB813196FB83EA830D5F1F4F3997B0
:104DC00061F78CCF0E945807F82E0E945807B0E870
:104DD0008B9FC00111247FE7790F8A819B81880F07
:104DE000991FEA81FB818E0F9F1F9C01265E3D4F1C
:104DF00069016F2D80910A040E949A06D6016D9375
:104E00007D938C93D5CFF701E05BFE4F838D90911E
:104E100005018923811559F0AA81BB8112962C9135
:104E200012974C9111966C91C7010E948A09EA81F0
:104E3000FB813396FB83EA83FFEFEF1AFF0A5ECF15
:104E40000E945807082F0E945807B0E88B9FC001A6
:104E500011247FE7790FEA81FB81EE0DFF1DE65EED
:104E6000FD4FFB83EA83602F80910A040E949A061B
:104E7000AA81BB816D937D938C936DCF8091060148
:104E8000811529F040E060E080E00E948D0980916A
:104E900004010E949009F92E8091450290914602EA
:104EA000A0914702B091480240913C0250913D02CE
:104EB00060913E0270913F02481759076A077B07CD
:104EC00008F073C0609108047091090480910A048D
:104ED0000E949A06E62EB72EA82EE9E3F2E0FB83A5
:104EE000EA8300E511E0ACE3CA2EA2E0DA2EAA8143
:104EF000BB818D91BB83AA83712C912C812C811550
:104F000019F07A2C9E2C8B2CD801EC91F0E0DF016B
:104F1000A05BBE4F5B969C918091050198239115F3
:104F200031F0272D482D692DCF010E948A09D80123
:104F30001296EC91F0E0DF01A05BBE4F5B969C9176
:104F4000809105019823911531F0272D482D692D69
:104F5000CF010E948A090E945807EA81FB8131979C
:104F6000837091E0811190E090830D5F1F4FEA8183
:104F7000FB81CE16DF0609F0BACF0E94B40800917B
:104F80004502109146022091470230914802DC010F
:104F9000CB01800F911FA21FB31F80933C029093FF
:104FA0003D02A0933E02B0933F0281E0F9E0FF167C
:104FB00074CE809104010E949009882EB92E8091B0
:104FC0000601811561F040E060E080E00E948D09FB
:104FD000E8E7F2E089E0DF011D928A95E9F7809128
:104FE000040181111BC080914102909142020E94F4
:104FF0000B0D8A839B8381E0EA81FB81799708F41A
:1050000080E0809340022A813B812931310530F0D4
:105010000E949D0B9093420280934102E12CF12C5F
:10502000912C8701A12CF801E05BFE4F3081398380
:10503000381508F444C03B1508F041C0432F50E038
:105040005B834A83FA01E05BFE4F838D90910501FB
:105050008923811509F432C0C80188589D4F6C011D
:10506000DC017C90472D25E5421B08F440E070915F
:1050700009046AEA362F272D320F08F43FEF5091CA
:105080000A04232F220F230F2E5F259F212D112489
:10509000641B822F0E949A06462F672F282F8A8131
:1050A0009B810E948A0980914002811539F0272D49
:1050B00031E0231B08F420E0D6012C939394A394B1
:1050C0000F5F1F4FB3E0AB12AECFE6E0EE16F10478
:1050D00021F481E039E0B316E0CDF3E0EF0EF11CEE
:1050E00022E0921608F49DCFF4CF50900A04E52CEC
:1050F000F12CA701440F551F4E0D5F1D5695479586
:10510000569547955B834A835A8159838FEF90E088
:10511000B7010E942635362E80910601811571F067
:1051200040E060E080E00E948D09E8E7F2E089E07D
:10513000DF011D928A95E9F71092440280914302A3
:105140008F5F8093430278E7C72E72E0D72EA12CA1
:10515000B12C3701EA81FB816E1A7F0A4501860175
:10516000212C80914402822981114BC00E94CA35B2
:10517000853595400CF045C0D6015C92F401E05BAA
:10518000FE4FE081EF3FD9F0D8012C91F0E0B981DA
:10519000B21708F045C030E04A815B81241B350B13
:1051A000249FC001259F900D349F900D1124B301C1
:1051B0000E941235262F452DCF010E948A09239483
:1051C0000D5F1F4F53E0850E911C83E02812C9CF5D
:1051D0009FEFA91AB90AAFEFCA1ADA0AB3E0AB1601
:1051E000B10409F0BBCF80914302381202C0109283
:1051F0004302809144028F5F8D31F8F48093440222
:1052000003CBF8018081811509F4B8CF851508F02A
:10521000B5CF909143023912B1CF81508083AECF88
:105220002E9DC0012F9D900D11246A817B810E94CB
:105230001235462F20E060E0BFCF1092440222E0FA
:1052400030E082E09FEF950D482F50E0FA01EE0F1D
:10525000FF1FE40FF51FBF016B587D4FA8E7B2E0B9
:10526000823051F416964C911697541205C04FEFA8
:10527000450D16964C931697FB014191BF014515BC
:1052800038F08F0101501109F8019083FB0152821F
:105290001196F2E0AB37BF0719F781E021303105F5
:1052A00009F4B2CA21E030E0CFCF87EC98E00E9449
:1052B0004B1130CB8EEC98E0FACF80914C0221E07C
:1052C000382F321B08F430E0832F65ED78E00E9420
:1052D000B91120CB65ED78E080E0F9CF80914C02E8
:1052E00021E0482F421B08F440E0842F6EEE78E066
:1052F000EECF6EEE78E0F0CF80914C0221E0582F97
:10530000521B08F450E0852F66E279E0E0CF66E2B8
:1053100079E0E2CF80914C0221E0382F321B08F473
:1053200030E0832F6CE579E0D2CF6CE579E0D4CF23
:1053300080914C0221E0482F421B08F440E0842F6A
:1053400064E779E0C4CF64E779E0C6CF80910401D7
:105350000E949009192FA82FB0E0BB83AA835A811D
:10536000511708F06DCAEA81FB81EE0FFF1F2A81F9
:105370003B81E20FF31FEC55FC4F6081718182810C
:105380000E949A06462F672F282F8A819B810E94B0
:105390008A094A815B814F5F5F4F5B834A83DFCF1E
:1053A0004F925F926F927F928F929F92AF92BF9235
:1053B000CF92DF92EF92FF92C0900E02D0900F0238
:1053C000E0901002F09011028FB7F8944090120212
:1053D0005090130260901402709015028FBF530119
:1053E00042018C189D08AE08BF080E94FF0C282FB0
:1053F00060930E0270930F0280931002909311023B
:10540000A0918102E1E8F2E08A2F30E04FEFC40E74
:10541000D41EE11CF11CC418D508E608F708A31334
:105420002DC08093810280917602811137C0309126
:105430000704832F8370811519F0832F8695869535
:10544000309122013230F1F158F5311138C010920B
:1054500004016093450270934602209347029093A3
:10546000480289E2E1E8F2E0ACE4B2E001900D929A
:105470008A95E1F781E08093220114C0418D528D1D
:10548000C416D506E104F10420F481503F5F329642
:10549000C6CF480D591D528F418FF8CF80E0D0CF35
:1054A0003330D9F0FF90EF90DF90CF90BF90AF9066
:1054B0009F908F907F906F905F904F9008950E9483
:1054C000CB23F0CF809314018091070483708093E5
:1054D00013010E94FB1283E0CECF8091060481115C
:1054E0000E94C023409145025091460260914702BC
:1054F000709148022FB7F894809112029091130294
:10550000A0911402B09115022FBF841B950BA60B1E
:10551000B70B4097A105B10528F210922201C2CF26
:10552000CDB7DEB7E6970FB6F894DEBF0FBECDBF9E
:1055300085B7806885BF85B7806885BF1092D70220
:105540001092D9021092D80280EC80939C038AEDCD
:1055500092E090939E0380939D0310929B03109280
:105560009A031092B7021092B6021092B9021092EA
:10557000B8021092BB021092BA021092BD021092B1
:10558000BC021092BF021092BE021092C102109291
:10559000C0021092C3021092C2021092C502109271
:1055A000C4021092C7021092C6021092C902109251
:1055B000C8021092CB021092CA021092CD02109231
:1055C000CC021092D1021092D0028FEA9EE090930A
:1055D000B3028093B2028FE09EE09093D302809357
:1055E000D20289E696E09093CF028093CE028AE6BB
:1055F00096E09093B5028093B40284B7877F84BF0E
:105600000FB6F894A895809160008861809360003F
:10561000109260000FBE80E890E00FB6F89480937F
:105620006100909361000FBE8EE496E09093AB0111
:105630008093AA010E94C60D0E9481128091E2000F
:1056400084608093E20078948091C403811599F07E
:105650008091E9001091EC008F7017951127179534
:10566000182B1092E9008091E80083FD0E949317A7
:105670001F701093E90082E084BD93E095BD9AEF1E
:1056800097BD80936E000E943615811102C00E9462
:10569000541486E90E94500682E90E94500681E96E
:1056A0000E94500685EF0E94500684EF0E9450062B
:1056B00081EF0E94500683E0EFEBF3E0DF01282F3B
:1056C0001D922A95E9F7E9E4F2E0DF011D928A953F
:1056D000E9F780E090E00E942A36853E9E4F21F453
:1056E0000E943615811163C065EE7EEF80E090E088
:1056F0000E945E3660E082E090E00E94403681E0E9
:105700008093120461E083E090E00E94403660E004
:1057100074E184E090E00E945E3660E086E090E014
:105720000E94403660E087E090E00E94403640E012
:1057300050E0BA0188E090E00E94523660E083E2D7
:1057400090E00E94403660E08CE090E00E9440369D
:1057500060E08DE090E00E94403619821A821B8240
:105760001C821D821E821F82188648E050E067E17D
:1057700070E0CE0101960E94303640E050E0BA0160
:105780008FE190E00E94523680E00E9438140E941F
:10579000541440E050E0BA018FE090E00E9452368D
:1057A00040E050E0BA0183E190E00E94523682E08E
:1057B00090E00E9422368093AA0284E090E00E944A
:1057C0002A3690935C0480935B040E94621AEFEF88
:1057D000F6E721E0E150F0402040E1F700C0000092
:1057E0000E94621A8091BF0380FF08C06FEF7FEFB5
:1057F00080E090E00E945E360E94271383E090E0F4
:105800000E9422360E946F030E94490A10924C02A5
:1058100040E150E06FEF70E085E692E00E940B36C9
:105820001092810240E150E06FEF70E08AE992E06F
:105830000E940B3681E08093060448E050E067E167
:1058400070E087E094E00E94123610920604809186
:1058500007048430B8F481E1809307048091230128
:1058600090912401A091250180930804909309044C
:10587000A0930A048FE780930B048FEF80930C04AE
:105880000E94C02389E091E09093EC038093EB03A6
:10589000AE014F5F5F4F2A018091C40310E403E023
:1058A000853009F4D0C10E94621A9091BF038091A3
:1058B000AB029813D4C19091C0038091AC029813AD
:1058C000CEC19091AD028091C1039813C8C10E94CE
:1058D00037230E94D02986E0EEEFF3E0D201019059
:1058E0000D928A95E1F7C090FF0310910004F090AB
:1058F0000104E0900204009103041092000410924D
:1059000001041092020410920304812F8F29811543
:1059100009F441C08091B0029091B1020E940B0D38
:1059200089A79AA78091FC03811509F406C7A9A548
:10593000BAA5559780F18F3F19F08F5F8093FC03D4
:10594000111559F00E949F0A91E011160CF09FEF7B
:10595000899F802D112480930004F11459F00E9436
:105960009F0A91E01F140CF09FEF899F802D112456
:105970008093010480910004811569F0D0900104A6
:10598000D11449F00E94910A809300048D2D0E9449
:10599000910A80930104802F8E29811509F442C059
:1059A0008091AE029091AF020E940B0D8BA79CA735
:1059B0008091FB03811509F4B9C6EBA5FCA5E1357F
:1059C000F10580F18F3F19F08F5F8093FB03E114A5
:1059D00059F00E94BF0A91E01E140CF09FEF899FBE
:1059E000802D112480930204011559F00E94BF0AF2
:1059F00091E010160CF09FEF899F802D1124809369
:105A0000030480910204811569F0E0900304E1141D
:105A100049F00E94910A809302048E2D0E94910AFF
:105A2000809303048091FF038C1119C080910004BE
:105A3000811511F0181313C020910104211511F0E4
:105A40002F110DC090910304911511F0091307C097
:105A500030910204311103C0822B892B81110E94E5
:105A6000120C86E0F201AEEFB3E001900D928A9540
:105A7000E1F7E091D202F091D302309719F082EB76
:105A800092E009959FB7F89400919B0380919A0347
:105A9000081708F41BC2081B9FBFE12CF12C10E073
:105AA000CC24C394D12CE016F10608F413C20E9452
:105AB000E40A90919F03891721F080939F030E942D
:105AC000FF0C8091C4038430E1F4809116018F7043
:105AD0008093E9009091E80090FF13C09091C40377
